{
  "_format": "hh3-artifact-1",
  "contractName": "ReverseRegistrar",
  "sourceName": "contracts/upstream/ReverseRegistrar.sol",
  "abi": [
    {
      "inputs": [
        {
          "internalType": "contract ENS",
          "name": "ens_",
          "type": "address"
        }
      ],
      "stateMutability": "nonpayable",
      "type": "constructor"
    },
    {
      "anonymous": false,
      "inputs": [
        {
          "indexed": true,
          "internalType": "address",
          "name": "controller",
          "type": "address"
        },
        {
          "indexed": false,
          "internalType": "bool",
          "name": "enabled",
          "type": "bool"
        }
      ],
      "name": "ControllerChanged",
      "type": "event"
    },
    {
      "anonymous": false,
      "inputs": [
        {
          "indexed": true,
          "internalType": "contract NameResolver",
          "name": "resolver",
          "type": "address"
        }
      ],
      "name": "DefaultResolverChanged",
      "type": "event"
    },
    {
      "anonymous": false,
      "inputs": [
        {
          "indexed": true,
          "internalType": "address",
          "name": "previousOwner",
          "type": "address"
        },
        {
          "indexed": true,
          "internalType": "address",
          "name": "newOwner",
          "type": "address"
        }
      ],
      "name": "OwnershipTransferred",
      "type": "event"
    },
    {
      "anonymous": false,
      "inputs": [
        {
          "indexed": true,
          "internalType": "address",
          "name": "addr",
          "type": "address"
        },
        {
          "indexed": true,
          "internalType": "bytes32",
          "name": "node",
          "type": "bytes32"
        }
      ],
      "name": "ReverseClaimed",
      "type": "event"
    },
    {
      "inputs": [
        {
          "internalType": "address",
          "name": "owner",
          "type": "address"
        }
      ],
      "name": "claim",
      "outputs": [
        {
          "internalType": "bytes32",
          "name": "",
          "type": "bytes32"
        }
      ],
      "stateMutability": "nonpayable",
      "type": "function"
    },
    {
      "inputs": [
        {
          "internalType": "address",
          "name": "addr",
          "type": "address"
        },
        {
          "internalType": "address",
          "name": "owner",
          "type": "address"
        },
        {
          "internalType": "address",
          "name": "resolver",
          "type": "address"
        }
      ],
      "name": "claimForAddr",
      "outputs": [
        {
          "internalType": "bytes32",
          "name": "",
          "type": "bytes32"
        }
      ],
      "stateMutability": "nonpayable",
      "type": "function"
    },
    {
      "inputs": [
        {
          "internalType": "address",
          "name": "owner",
          "type": "address"
        },
        {
          "internalType": "address",
          "name": "resolver",
          "type": "address"
        }
      ],
      "name": "claimWithResolver",
      "outputs": [
        {
          "internalType": "bytes32",
          "name": "",
          "type": "bytes32"
        }
      ],
      "stateMutability": "nonpayable",
      "type": "function"
    },
    {
      "inputs": [
        {
          "internalType": "address",
          "name": "",
          "type": "address"
        }
      ],
      "name": "controllers",
      "outputs": [
        {
          "internalType": "bool",
          "name": "",
          "type": "bool"
        }
      ],
      "stateMutability": "view",
      "type": "function"
    },
    {
      "inputs": [],
      "name": "defaultResolver",
      "outputs": [
        {
          "internalType": "contract NameResolver",
          "name": "",
          "type": "address"
        }
      ],
      "stateMutability": "view",
      "type": "function"
    },
    {
      "inputs": [],
      "name": "ens",
      "outputs": [
        {
          "internalType": "contract ENS",
          "name": "",
          "type": "address"
        }
      ],
      "stateMutability": "view",
      "type": "function"
    },
    {
      "inputs": [
        {
          "internalType": "address",
          "name": "addr",
          "type": "address"
        }
      ],
      "name": "node",
      "outputs": [
        {
          "internalType": "bytes32",
          "name": "",
          "type": "bytes32"
        }
      ],
      "stateMutability": "pure",
      "type": "function"
    },
    {
      "inputs": [],
      "name": "owner",
      "outputs": [
        {
          "internalType": "address",
          "name": "",
          "type": "address"
        }
      ],
      "stateMutability": "view",
      "type": "function"
    },
    {
      "inputs": [],
      "name": "renounceOwnership",
      "outputs": [],
      "stateMutability": "nonpayable",
      "type": "function"
    },
    {
      "inputs": [
        {
          "internalType": "address",
          "name": "controller",
          "type": "address"
        },
        {
          "internalType": "bool",
          "name": "enabled",
          "type": "bool"
        }
      ],
      "name": "setController",
      "outputs": [],
      "stateMutability": "nonpayable",
      "type": "function"
    },
    {
      "inputs": [
        {
          "internalType": "address",
          "name": "resolver",
          "type": "address"
        }
      ],
      "name": "setDefaultResolver",
      "outputs": [],
      "stateMutability": "nonpayable",
      "type": "function"
    },
    {
      "inputs": [
        {
          "internalType": "string",
          "name": "name",
          "type": "string"
        }
      ],
      "name": "setName",
      "outputs": [
        {
          "internalType": "bytes32",
          "name": "",
          "type": "bytes32"
        }
      ],
      "stateMutability": "nonpayable",
      "type": "function"
    },
    {
      "inputs": [
        {
          "internalType": "address",
          "name": "addr",
          "type": "address"
        },
        {
          "internalType": "address",
          "name": "owner",
          "type": "address"
        },
        {
          "internalType": "address",
          "name": "resolver",
          "type": "address"
        },
        {
          "internalType": "string",
          "name": "name",
          "type": "string"
        }
      ],
      "name": "setNameForAddr",
      "outputs": [
        {
          "internalType": "bytes32",
          "name": "",
          "type": "bytes32"
        }
      ],
      "stateMutability": "nonpayable",
      "type": "function"
    },
    {
      "inputs": [
        {
          "internalType": "address",
          "name": "newOwner",
          "type": "address"
        }
      ],
      "name": "transferOwnership",
      "outputs": [],
      "stateMutability": "nonpayable",
      "type": "function"
    }
  ],
  "bytecode": "0x60a0806040523461015557602081610d68803803809161001f82856101ad565b83398101031261015557516001600160a01b03811690818103610155575f8054336001600160a01b03198216811783556040519460209486946024948694916001600160a01b03909116907f8be0079c531659141344cd1fd0a4f28419497f9722a3daafe3b4186f6b6457e09080a36080526302571be360e01b82527f91d1777781884d03a6757a803996e38de2a42967fb37eeaca72729271025a9e260048301525afa908115610160575f9161016b575b506001600160a01b031680610107575b604051610b8390816101e5823960805181818161019f015281816107fc01526109150152f35b60205f91602460405180948193630f41a04d60e11b83523360048401525af1801561016057156100e157602090813d8311610159575b61014781836101ad565b81010312610155575f6100e1565b5f80fd5b503d61013d565b6040513d5f823e3d90fd5b90506020813d6020116101a5575b81610186602093836101ad565b8101031261015557516001600160a01b0381168103610155575f6100d1565b3d9150610179565b601f909101601f19168101906001600160401b038211908210176101d057604052565b634e487b7160e01b5f52604160045260245ffdfe60806040526004361015610011575f80fd5b5f3560e01c80630f5a5466146100f45780631e83409a146100ef5780633f15457f146100ea57806365669631146100e5578063715018a6146100e05780637a806d6b146100db578063828eab0e146100d65780638da5cb5b146100d1578063bffbe61c146100cc578063c47f0027146100c7578063c66485b2146100c2578063da8c229e146100bd578063e0dba60f146100b85763f2fde38b146100b3575f80fd5b6105f9565b610576565b61052c565b610462565b610419565b6103a9565b610382565b61035a565b6102f6565b61020e565b6101ce565b61018a565b61014b565b61010e565b6001600160a01b0381160361010a57565b5f80fd5b3461010a57604036600319011261010a576020610143600435610130816100f9565b6024359061013d826100f9565b33610782565b604051908152f35b3461010a57602036600319011261010a57602061014360043561016d816100f9565b6002546001600160a01b03169033610782565b5f91031261010a57565b3461010a575f36600319011261010a576040517f00000000000000000000000000000000000000000000000000000000000000006001600160a01b03168152602090f35b3461010a57606036600319011261010a5760206101436004356101f0816100f9565b6024356101fc816100f9565b60443591610209836100f9565b610782565b3461010a575f36600319011261010a57610226610b1f565b5f80546001600160a01b0319811682556001600160a01b03167f8be0079c531659141344cd1fd0a4f28419497f9722a3daafe3b4186f6b6457e08280a3005b634e487b7160e01b5f52604160045260245ffd5b90601f8019910116810190811067ffffffffffffffff82111761029b57604052565b610265565b81601f8201121561010a5780359067ffffffffffffffff821161029b57604051926102d5601f8401601f191660200185610279565b8284526020838301011161010a57815f926020809301838601378301015290565b3461010a57608036600319011261010a57600435610313816100f9565b60243590610320826100f9565b6044359061032d826100f9565b6064359167ffffffffffffffff831161010a576020936103546101439436906004016102a0565b926109c7565b3461010a575f36600319011261010a576002546040516001600160a01b039091168152602090f35b3461010a575f36600319011261010a575f546040516001600160a01b039091168152602090f35b3461010a57602036600319011261010a5760206103d06004356103cb816100f9565b610ac1565b604051828101917f91d1777781884d03a6757a803996e38de2a42967fb37eeaca72729271025a9e2835260408201526040815261040e606082610279565b519020604051908152f35b3461010a57602036600319011261010a5760043567ffffffffffffffff811161010a5761014361044f60209236906004016102a0565b6002546001600160a01b031633806109c7565b3461010a57602036600319011261010a5760043561047f816100f9565b610487610b1f565b6001600160a01b031680156104ce57600280546001600160a01b031916821790557feae17a84d9eb83d8c8eb317f9e7d64857bc363fa51674d996c023f4340c577cf5f80a2005b60405162461bcd60e51b815260206004820152603060248201527f526576657273655265676973747261723a205265736f6c76657220616464726560448201526f07373206d757374206e6f7420626520360841b6064820152608490fd5b3461010a57602036600319011261010a57600435610549816100f9565b60018060a01b03165f526001602052602060ff60405f2054166040519015158152f35b8015150361010a57565b3461010a57604036600319011261010a57600435610593816100f9565b7f4c97694570a07277810af7e5669ffd5f6a2d6b74b6e9a274b8b870fd5114cf876020602435926105c38461056c565b6105cb610b1f565b60018060a01b031692835f526001825260405f209015159060ff1981541660ff8316179055604051908152a2005b3461010a57602036600319011261010a57600435610616816100f9565b61061e610b1f565b6001600160a01b03811615610673575f80546001600160a01b039283166001600160a01b03198216811783559216907f8be0079c531659141344cd1fd0a4f28419497f9722a3daafe3b4186f6b6457e09080a3005b60405162461bcd60e51b815260206004820152602660248201527f4f776e61626c653a206e6577206f776e657220697320746865207a65726f206160448201526564647265737360d01b6064820152608490fd5b9081602091031261010a57516106dc8161056c565b90565b6040513d5f823e3d90fd5b156106f157565b60405162461bcd60e51b815260206004820152605b60248201527f526576657273655265676973747261723a2043616c6c6572206973206e6f742060448201527f6120636f6e74726f6c6c6572206f7220617574686f726973656420627920616460648201527f6472657373206f7220746865206164647265737320697473656c660000000000608482015260a490fd5b91906001600160a01b03831633148015610874575b80156107cc575b6106dc939080156107b8575b6107b3906106ea565b61088c565b506107b36107c582610a41565b90506107aa565b5060405163e985e9c560e01b81526001600160a01b038416600482015233602482015292602084806044810103817f00000000000000000000000000000000000000000000000000000000000000006001600160a01b03165afa801561086f576106dc945f91610840575b5090935061079e565b610862915060203d602011610868575b61085a8183610279565b8101906106c7565b5f610837565b503d610850565b6106df565b50335f9081526001602052604090205460ff16610797565b909161089782610ac1565b604080517f91d1777781884d03a6757a803996e38de2a42967fb37eeaca72729271025a9e2602082019081528183018490529181529194916108da606082610279565b5190206040519094909385906001600160a01b03167f6ada868dd3058cf77a48a74489fd7963688e5464b2b0fa957ace976243270e925f80a37f00000000000000000000000000000000000000000000000000000000000000006001600160a01b031690813b1561010a576305ef2c7f60e41b85527f91d1777781884d03a6757a803996e38de2a42967fb37eeaca72729271025a9e2600486015260248501526001600160a01b039182166044850152911660648301525f6084830181905290829060a490829084905af1801561086f576109b3575090565b806109c15f6106dc93610279565b80610180565b916109d491819493610782565b916001600160a01b0316803b1561010a5760205f9160649383604051958680958194637737221360e01b83528a6004840152604060248401528051918291826044860152018484015e8181018301849052601f01601f191681010301925af1801561086f576109b3575090565b604051638da5cb5b60e01b815290602090829060049082906001600160a01b03165afa5f9181610a84575b50610a7657505f90565b6001600160a01b0316331490565b9091506020813d602011610ab9575b81610aa060209383610279565b8101031261010a5751610ab2816100f9565b905f610a6c565b3d9150610a93565b6028805b610ad257505060285f2090565b6f181899199a1a9b1b9c1cb0b131b232b360811b600f83161a5f19820153600119019081906f181899199a1a9b1b9c1cb0b131b232b360811b600482901c600f161a825360081c91610ac5565b5f546001600160a01b03163303610b3257565b606460405162461bcd60e51b815260206004820152602060248201527f4f776e61626c653a2063616c6c6572206973206e6f7420746865206f776e65726044820152fdfea164736f6c634300081c000a",
  "linkReferences": {},
  "deployedLinkReferences": {},
  "immutableReferences": {
    "227": [
      {
        "length": 32,
        "start": 415
      },
      {
        "length": 32,
        "start": 2044
      },
      {
        "length": 32,
        "start": 2325
      }
    ]
  },
  "inputSourceName": "project/contracts/upstream/ReverseRegistrar.sol",
  "buildInfoId": "solc-0_8_28-fcc9d5764e5435d8442dbd5a58cb5b7a9823979d"
}