{
  "_format": "hh3-artifact-1",
  "contractName": "BaseRegistrarImplementation",
  "sourceName": "contracts/upstream/BaseRegistrarImplementation.sol",
  "abi": [
    {
      "inputs": [
        {
          "internalType": "contract ENS",
          "name": "ens_",
          "type": "address"
        },
        {
          "internalType": "bytes32",
          "name": "baseNode_",
          "type": "bytes32"
        }
      ],
      "stateMutability": "nonpayable",
      "type": "constructor"
    },
    {
      "anonymous": false,
      "inputs": [
        {
          "indexed": true,
          "internalType": "address",
          "name": "owner",
          "type": "address"
        },
        {
          "indexed": true,
          "internalType": "address",
          "name": "approved",
          "type": "address"
        },
        {
          "indexed": true,
          "internalType": "uint256",
          "name": "tokenId",
          "type": "uint256"
        }
      ],
      "name": "Approval",
      "type": "event"
    },
    {
      "anonymous": false,
      "inputs": [
        {
          "indexed": true,
          "internalType": "address",
          "name": "owner",
          "type": "address"
        },
        {
          "indexed": true,
          "internalType": "address",
          "name": "operator",
          "type": "address"
        },
        {
          "indexed": false,
          "internalType": "bool",
          "name": "approved",
          "type": "bool"
        }
      ],
      "name": "ApprovalForAll",
      "type": "event"
    },
    {
      "anonymous": false,
      "inputs": [
        {
          "indexed": true,
          "internalType": "address",
          "name": "controller",
          "type": "address"
        }
      ],
      "name": "ControllerAdded",
      "type": "event"
    },
    {
      "anonymous": false,
      "inputs": [
        {
          "indexed": true,
          "internalType": "address",
          "name": "controller",
          "type": "address"
        }
      ],
      "name": "ControllerRemoved",
      "type": "event"
    },
    {
      "anonymous": false,
      "inputs": [
        {
          "indexed": true,
          "internalType": "uint256",
          "name": "id",
          "type": "uint256"
        },
        {
          "indexed": true,
          "internalType": "address",
          "name": "owner",
          "type": "address"
        },
        {
          "indexed": false,
          "internalType": "uint256",
          "name": "expires",
          "type": "uint256"
        }
      ],
      "name": "NameMigrated",
      "type": "event"
    },
    {
      "anonymous": false,
      "inputs": [
        {
          "indexed": true,
          "internalType": "uint256",
          "name": "id",
          "type": "uint256"
        },
        {
          "indexed": true,
          "internalType": "address",
          "name": "owner",
          "type": "address"
        },
        {
          "indexed": false,
          "internalType": "uint256",
          "name": "expires",
          "type": "uint256"
        }
      ],
      "name": "NameRegistered",
      "type": "event"
    },
    {
      "anonymous": false,
      "inputs": [
        {
          "indexed": true,
          "internalType": "uint256",
          "name": "id",
          "type": "uint256"
        },
        {
          "indexed": false,
          "internalType": "uint256",
          "name": "expires",
          "type": "uint256"
        }
      ],
      "name": "NameRenewed",
      "type": "event"
    },
    {
      "anonymous": false,
      "inputs": [
        {
          "indexed": true,
          "internalType": "address",
          "name": "previousOwner",
          "type": "address"
        },
        {
          "indexed": true,
          "internalType": "address",
          "name": "newOwner",
          "type": "address"
        }
      ],
      "name": "OwnershipTransferred",
      "type": "event"
    },
    {
      "anonymous": false,
      "inputs": [
        {
          "indexed": true,
          "internalType": "address",
          "name": "from",
          "type": "address"
        },
        {
          "indexed": true,
          "internalType": "address",
          "name": "to",
          "type": "address"
        },
        {
          "indexed": true,
          "internalType": "uint256",
          "name": "tokenId",
          "type": "uint256"
        }
      ],
      "name": "Transfer",
      "type": "event"
    },
    {
      "inputs": [],
      "name": "GRACE_PERIOD",
      "outputs": [
        {
          "internalType": "uint256",
          "name": "",
          "type": "uint256"
        }
      ],
      "stateMutability": "view",
      "type": "function"
    },
    {
      "inputs": [
        {
          "internalType": "address",
          "name": "controller",
          "type": "address"
        }
      ],
      "name": "addController",
      "outputs": [],
      "stateMutability": "nonpayable",
      "type": "function"
    },
    {
      "inputs": [
        {
          "internalType": "address",
          "name": "to",
          "type": "address"
        },
        {
          "internalType": "uint256",
          "name": "tokenId",
          "type": "uint256"
        }
      ],
      "name": "approve",
      "outputs": [],
      "stateMutability": "nonpayable",
      "type": "function"
    },
    {
      "inputs": [
        {
          "internalType": "uint256",
          "name": "id",
          "type": "uint256"
        }
      ],
      "name": "available",
      "outputs": [
        {
          "internalType": "bool",
          "name": "",
          "type": "bool"
        }
      ],
      "stateMutability": "view",
      "type": "function"
    },
    {
      "inputs": [
        {
          "internalType": "address",
          "name": "owner",
          "type": "address"
        }
      ],
      "name": "balanceOf",
      "outputs": [
        {
          "internalType": "uint256",
          "name": "",
          "type": "uint256"
        }
      ],
      "stateMutability": "view",
      "type": "function"
    },
    {
      "inputs": [],
      "name": "baseNode",
      "outputs": [
        {
          "internalType": "bytes32",
          "name": "",
          "type": "bytes32"
        }
      ],
      "stateMutability": "view",
      "type": "function"
    },
    {
      "inputs": [
        {
          "internalType": "address",
          "name": "",
          "type": "address"
        }
      ],
      "name": "controllers",
      "outputs": [
        {
          "internalType": "bool",
          "name": "",
          "type": "bool"
        }
      ],
      "stateMutability": "view",
      "type": "function"
    },
    {
      "inputs": [],
      "name": "ens",
      "outputs": [
        {
          "internalType": "contract ENS",
          "name": "",
          "type": "address"
        }
      ],
      "stateMutability": "view",
      "type": "function"
    },
    {
      "inputs": [
        {
          "internalType": "uint256",
          "name": "tokenId",
          "type": "uint256"
        }
      ],
      "name": "getApproved",
      "outputs": [
        {
          "internalType": "address",
          "name": "",
          "type": "address"
        }
      ],
      "stateMutability": "view",
      "type": "function"
    },
    {
      "inputs": [
        {
          "internalType": "address",
          "name": "owner",
          "type": "address"
        },
        {
          "internalType": "address",
          "name": "operator",
          "type": "address"
        }
      ],
      "name": "isApprovedForAll",
      "outputs": [
        {
          "internalType": "bool",
          "name": "",
          "type": "bool"
        }
      ],
      "stateMutability": "view",
      "type": "function"
    },
    {
      "inputs": [],
      "name": "name",
      "outputs": [
        {
          "internalType": "string",
          "name": "",
          "type": "string"
        }
      ],
      "stateMutability": "view",
      "type": "function"
    },
    {
      "inputs": [
        {
          "internalType": "uint256",
          "name": "id",
          "type": "uint256"
        }
      ],
      "name": "nameExpires",
      "outputs": [
        {
          "internalType": "uint256",
          "name": "",
          "type": "uint256"
        }
      ],
      "stateMutability": "view",
      "type": "function"
    },
    {
      "inputs": [],
      "name": "owner",
      "outputs": [
        {
          "internalType": "address",
          "name": "",
          "type": "address"
        }
      ],
      "stateMutability": "view",
      "type": "function"
    },
    {
      "inputs": [
        {
          "internalType": "uint256",
          "name": "tokenId",
          "type": "uint256"
        }
      ],
      "name": "ownerOf",
      "outputs": [
        {
          "internalType": "address",
          "name": "",
          "type": "address"
        }
      ],
      "stateMutability": "view",
      "type": "function"
    },
    {
      "inputs": [
        {
          "internalType": "uint256",
          "name": "id",
          "type": "uint256"
        },
        {
          "internalType": "address",
          "name": "owner",
          "type": "address"
        }
      ],
      "name": "reclaim",
      "outputs": [],
      "stateMutability": "nonpayable",
      "type": "function"
    },
    {
      "inputs": [
        {
          "internalType": "uint256",
          "name": "id",
          "type": "uint256"
        },
        {
          "internalType": "address",
          "name": "owner",
          "type": "address"
        },
        {
          "internalType": "uint256",
          "name": "duration",
          "type": "uint256"
        }
      ],
      "name": "register",
      "outputs": [
        {
          "internalType": "uint256",
          "name": "",
          "type": "uint256"
        }
      ],
      "stateMutability": "nonpayable",
      "type": "function"
    },
    {
      "inputs": [
        {
          "internalType": "uint256",
          "name": "id",
          "type": "uint256"
        },
        {
          "internalType": "address",
          "name": "owner",
          "type": "address"
        },
        {
          "internalType": "uint256",
          "name": "duration",
          "type": "uint256"
        }
      ],
      "name": "registerOnly",
      "outputs": [
        {
          "internalType": "uint256",
          "name": "",
          "type": "uint256"
        }
      ],
      "stateMutability": "nonpayable",
      "type": "function"
    },
    {
      "inputs": [
        {
          "internalType": "address",
          "name": "controller",
          "type": "address"
        }
      ],
      "name": "removeController",
      "outputs": [],
      "stateMutability": "nonpayable",
      "type": "function"
    },
    {
      "inputs": [
        {
          "internalType": "uint256",
          "name": "id",
          "type": "uint256"
        },
        {
          "internalType": "uint256",
          "name": "duration",
          "type": "uint256"
        }
      ],
      "name": "renew",
      "outputs": [
        {
          "internalType": "uint256",
          "name": "",
          "type": "uint256"
        }
      ],
      "stateMutability": "nonpayable",
      "type": "function"
    },
    {
      "inputs": [],
      "name": "renounceOwnership",
      "outputs": [],
      "stateMutability": "nonpayable",
      "type": "function"
    },
    {
      "inputs": [
        {
          "internalType": "address",
          "name": "from",
          "type": "address"
        },
        {
          "internalType": "address",
          "name": "to",
          "type": "address"
        },
        {
          "internalType": "uint256",
          "name": "tokenId",
          "type": "uint256"
        }
      ],
      "name": "safeTransferFrom",
      "outputs": [],
      "stateMutability": "nonpayable",
      "type": "function"
    },
    {
      "inputs": [
        {
          "internalType": "address",
          "name": "from",
          "type": "address"
        },
        {
          "internalType": "address",
          "name": "to",
          "type": "address"
        },
        {
          "internalType": "uint256",
          "name": "tokenId",
          "type": "uint256"
        },
        {
          "internalType": "bytes",
          "name": "data",
          "type": "bytes"
        }
      ],
      "name": "safeTransferFrom",
      "outputs": [],
      "stateMutability": "nonpayable",
      "type": "function"
    },
    {
      "inputs": [
        {
          "internalType": "address",
          "name": "operator",
          "type": "address"
        },
        {
          "internalType": "bool",
          "name": "approved",
          "type": "bool"
        }
      ],
      "name": "setApprovalForAll",
      "outputs": [],
      "stateMutability": "nonpayable",
      "type": "function"
    },
    {
      "inputs": [
        {
          "internalType": "address",
          "name": "resolver",
          "type": "address"
        }
      ],
      "name": "setResolver",
      "outputs": [],
      "stateMutability": "nonpayable",
      "type": "function"
    },
    {
      "inputs": [
        {
          "internalType": "bytes4",
          "name": "interfaceID",
          "type": "bytes4"
        }
      ],
      "name": "supportsInterface",
      "outputs": [
        {
          "internalType": "bool",
          "name": "",
          "type": "bool"
        }
      ],
      "stateMutability": "view",
      "type": "function"
    },
    {
      "inputs": [],
      "name": "symbol",
      "outputs": [
        {
          "internalType": "string",
          "name": "",
          "type": "string"
        }
      ],
      "stateMutability": "view",
      "type": "function"
    },
    {
      "inputs": [
        {
          "internalType": "uint256",
          "name": "tokenId",
          "type": "uint256"
        }
      ],
      "name": "tokenURI",
      "outputs": [
        {
          "internalType": "string",
          "name": "",
          "type": "string"
        }
      ],
      "stateMutability": "view",
      "type": "function"
    },
    {
      "inputs": [
        {
          "internalType": "address",
          "name": "from",
          "type": "address"
        },
        {
          "internalType": "address",
          "name": "to",
          "type": "address"
        },
        {
          "internalType": "uint256",
          "name": "tokenId",
          "type": "uint256"
        }
      ],
      "name": "transferFrom",
      "outputs": [],
      "stateMutability": "nonpayable",
      "type": "function"
    },
    {
      "inputs": [
        {
          "internalType": "address",
          "name": "newOwner",
          "type": "address"
        }
      ],
      "name": "transferOwnership",
      "outputs": [],
      "stateMutability": "nonpayable",
      "type": "function"
    }
  ],
  "bytecode": "0x60806040523461036957611efb6040813803918261001c8161036d565b9384928339810103126103695780516001600160a01b0381169190829003610369576020015161004c602061036d565b915f835261005a602061036d565b5f815283519092906001600160401b03811161027d575f54600181811c9116801561035f575b602082101461025f57601f81116102fd575b50602094601f821160011461029c579481929394955f92610291575b50508160011b915f199060031b1c1916175f555b82516001600160401b03811161027d57600154600181811c91168015610273575b602082101461025f57601f81116101fc575b506020601f821160011461019957819293945f9261018e575b50508160011b915f199060031b1c1916176001555b60068054336001600160a01b0319821681179092556040519391906001600160a01b03167f8be0079c531659141344cd1fd0a4f28419497f9722a3daafe3b4186f6b6457e05f80a3600880546001600160a01b031916919091179055600955611b6890816103938239f35b015190505f8061010e565b601f1982169060015f52805f20915f5b8181106101e4575095836001959697106101cc575b505050811b01600155610123565b01515f1960f88460031b161c191690555f80806101be565b9192602060018192868b0151815501940192016101a9565b60015f527fb10e2d527612073b26eecdfd717e6a320cf44b4afac2b0732d9fcbe2b7fa0cf6601f830160051c81019160208410610255575b601f0160051c01905b81811061024a57506100f5565b5f815560010161023d565b9091508190610234565b634e487b7160e01b5f52602260045260245ffd5b90607f16906100e3565b634e487b7160e01b5f52604160045260245ffd5b015190505f806100ae565b601f198216955f8052805f20915f5b8881106102e5575083600195969798106102cd575b505050811b015f556100c2565b01515f1960f88460031b161c191690555f80806102c0565b919260206001819286850151815501940192016102ab565b5f80527f290decd9548b62a8d60345a988386fc84ba6bc95484008f6362f93160ef3e563601f830160051c81019160208410610355575b601f0160051c01905b81811061034a5750610092565b5f815560010161033d565b9091508190610334565b90607f1690610080565b5f80fd5b6040519190601f01601f191682016001600160401b0381118382101761027d5760405256fe6080806040526004361015610012575f80fd5b5f905f3560e01c90816301ffc9a7146114055750806306fdde0314611314578063081812fc146112f6578063095ea7b3146111705780630e297b4514610f1d57806323b872dd14610ef457806328ed4f6c14610dfc5780633f15457f14610dd457806342842e0e14610dab5780634e543b2614610d145780636352211e14610ce357806370a0823114610c4d578063715018a614610bf05780638da5cb5b14610bc757806395d89b4114610aba57806396e494e814610a91578063a22cb465146109c1578063a7fc7a0714610958578063b88d4fde146108c3578063c1a287e2146108a5578063c475abff14610756578063c87b56dd146106e2578063d6e4fa86146106b8578063da8c229e14610679578063ddf7fcb01461065b578063e985e9c514610603578063f2fde38b1461053a578063f6a74ed7146104d45763fca247ac1461015d575f80fd5b346104d15761016b366114c0565b92919060018060a01b036008541660206009546024604051809481936302571be360e01b835260048301525afa9081156104c6578491610497575b50306001600160a01b039091160361046b57338352600a60205260ff6040842054161561046b576101d68261166f565b1561046b576101e58442611662565b6276a7008101809111610483576276a70042019081421161046f57111561046b576102108442611662565b8284526007602052604084205561023a825f52600260205260018060a01b0360405f205416151590565b6103ed575b6001600160a01b0381169283156103a9575f83815260026020526040902054610274906001600160a01b031615155b156119cd565b5f83815260026020526040902054610296906001600160a01b0316151561026e565b83815260036020526040812060018154019055828152600260205260408120846001600160601b0360a01b825416179055602060405180938587855f516020611b3c5f395f51905f528180a46008546009546306ab592360e01b84526004840152602483018790526001600160a01b03918216604484015260649183918691165af190811561039d5760206103688787878787610370575b507fb3d987963d01b2f68493b4bdb130988f157ea43070d4ad840fee0466ed9370d98561035b8542611662565b604051908152a342611662565b604051908152f35b61038f90863d8811610396575b6103878183611524565b810190611633565b508561032e565b503d61037d565b604051903d90823e3d90fd5b606460405162461bcd60e51b815260206004820152602060248201527f4552433732313a206d696e7420746f20746865207a65726f20616464726573736044820152fd5b6103f682611721565b50818361040282611721565b8282526004602052604082206001600160601b0360a01b815416905560018060a01b03168082526003602052604082205f1981540190558282526002602052604082206001600160601b0360a01b81541690555f516020611b3c5f395f51905f528280a461023f565b8280fd5b634e487b7160e01b85526011600452602485fd5b634e487b7160e01b84526011600452602484fd5b6104b9915060203d6020116104bf575b6104b18183611524565b810190611614565b5f6101a6565b503d6104a7565b6040513d86823e3d90fd5b80fd5b50346104d15760203660031901126104d1576104ee611494565b6104f6611922565b6001600160a01b0316808252600a60205260408220805460ff191690557f33d83959be2573f5453b12eb9d43b3499bc57d96bd2f067ba44803c859e811138280a280f35b50346104d15760203660031901126104d157610554611494565b61055c611922565b6001600160a01b031680156105af57600680546001600160a01b0319811683179091556001600160a01b03167f8be0079c531659141344cd1fd0a4f28419497f9722a3daafe3b4186f6b6457e05f80a380f35b60405162461bcd60e51b815260206004820152602660248201527f4f776e61626c653a206e6577206f776e657220697320746865207a65726f206160448201526564647265737360d01b6064820152608490fd5b50346104d15760403660031901126104d157604061061f611494565b916106286114aa565b9260018060a01b031681526005602052209060018060a01b03165f52602052602060ff60405f2054166040519015158152f35b50346104d157806003193601126104d1576020600954604051908152f35b50346104d15760203660031901126104d15760209060ff906040906001600160a01b036106a4611494565b168152600a84522054166040519015158152f35b50346104d15760203660031901126104d15760406020916004358152600783522054604051908152f35b50346104d15760203660031901126104d1576004355f90815260026020526040902054610719906001600160a01b031615156116d5565b80604051610728602082611524565b525061075260405161073b602082611524565b5f8152604051918291602083526020830190611470565b0390f35b50346104d15760403660031901126104d15760043560243560018060a01b036008541660206009546024604051809481936302571be360e01b835260048301525afa9081156104c6578491610886575b50306001600160a01b039091160361046b57338352600a60205260ff6040842054161561046b57818352600760205260408320546276a700810180911161048357421161046b578183526007602052610803816040852054611662565b6276a7008101809111610483576276a70082019081831161046f57111561046b579181602093604093835260078552610840848420918254611662565b905580825260078452807f9b87a00e30f1ac65d898f070f8a3488fe60517182d0a2098e1b4b93a54aa9bd685858520548651908152a28152600783522054604051908152f35b61089f915060203d6020116104bf576104b18183611524565b5f6107a6565b50346104d157806003193601126104d15760206040516276a7008152f35b50346104d15760803660031901126104d1576108dd611494565b6108e56114aa565b906064359067ffffffffffffffff8211610954573660238301121561095457816004013592846109148561155a565b936109226040519586611524565b8585523660248783010111610950578561094d9660246020930183880137850101526044359161168d565b80f35b5080fd5b8380fd5b50346104d15760203660031901126104d157610972611494565b61097a611922565b6001600160a01b0316808252600a60205260408220805460ff191660011790557f0a8bb31534c0ed46f380cb867bd5c803a189ced9a764e30b3a4991a9901d74748280a280f35b50346104d15760403660031901126104d1576109db611494565b6024359081151580920361046b576001600160a01b031690338214610a4c57338352600560205260408320825f5260205260405f2060ff1981541660ff83161790556040519081527f17307eab39ab6107e8899845ad3d59bd9653f200f220920489ca2b5937696c3160203392a380f35b60405162461bcd60e51b815260206004820152601960248201527f4552433732313a20617070726f766520746f2063616c6c6572000000000000006044820152606490fd5b50346104d15760203660031901126104d1576020610ab060043561166f565b6040519015158152f35b50346104d157806003193601126104d1576040519080600154908160011c91600181168015610bbd575b602084108114610ba957838652908115610b825750600114610b25575b61075284610b1181860382611524565b604051918291602083526020830190611470565b600181527fb10e2d527612073b26eecdfd717e6a320cf44b4afac2b0732d9fcbe2b7fa0cf6939250905b808210610b6857509091508101602001610b1182610b01565b919260018160209254838588010152019101909291610b4f565b60ff191660208087019190915292151560051b85019092019250610b119150839050610b01565b634e487b7160e01b83526022600452602483fd5b92607f1692610ae4565b50346104d157806003193601126104d1576006546040516001600160a01b039091168152602090f35b50346104d157806003193601126104d157610c09611922565b600680546001600160a01b0319811690915581906001600160a01b03167f8be0079c531659141344cd1fd0a4f28419497f9722a3daafe3b4186f6b6457e08280a380f35b50346104d15760203660031901126104d1576001600160a01b03610c6f611494565b168015610c8c578160409160209352600383522054604051908152f35b60405162461bcd60e51b815260206004820152602960248201527f4552433732313a2061646472657373207a65726f206973206e6f7420612076616044820152683634b21037bbb732b960b91b6064820152608490fd5b50346104d15760203660031901126104d1576020610d02600435611642565b6040516001600160a01b039091168152f35b5034610da7576020366003190112610da757610d2e611494565b610d36611922565b6008546009546001600160a01b0390911691823b15610da757604051630c4b7b8560e11b815260048101929092526001600160a01b03166024820152905f908290604490829084905af18015610d9c57610d8e575080f35b610d9a91505f90611524565b005b6040513d5f823e3d90fd5b5f80fd5b34610da757610d9a610dbc366114ea565b9060405192610dcc602085611524565b5f845261168d565b34610da7575f366003190112610da7576008546040516001600160a01b039091168152602090f35b34610da7576040366003190112610da757600435610e186114aa565b6008546009546040516302571be360e01b8152600481018290529092916001600160a01b031690602081602481855afa908115610d9c575f91610ed5575b50306001600160a01b0390911603610da757610e728433611743565b15610da7576040516306ab592360e01b8152600481019390935260248301939093526001600160a01b0316604482015290602090829060649082905f905af18015610d9c57610ebd57005b610d9a9060203d602011610396576103878183611524565b610eee915060203d6020116104bf576104b18183611524565b85610e56565b34610da757610d9a610f05366114ea565b91610f18610f138433611743565b6115b2565b611811565b34610da757610f2b366114c0565b919060018060a01b036008541660206009546024604051809481936302571be360e01b835260048301525afa908115610d9c575f91611151575b50306001600160a01b0390911603610da757335f52600a60205260ff60405f20541615610da757610f958261166f565b15610da757610fa48342611662565b6276a700810180911161113d576276a70042019081421161113d571115610da757610fcf8342611662565b5f838152600760209081526040808320939093556002905220546001600160a01b03166110bf575b6001600160a01b03169182156103a9576020928261102e61026e610368955f52600260205260018060a01b0360405f205416151590565b5f81815260026020526040902054611050906001600160a01b0316151561026e565b815f526003855260405f2060018154019055805f526002855260405f20826001600160601b0360a01b82541617905580825f5f516020611b3c5f395f51905f528180a47fb3d987963d01b2f68493b4bdb130988f157ea43070d4ad840fee0466ed9370d98561035b8542611662565b6110c882611721565b50815f6110d482611721565b8282526004602052604082206001600160601b0360a01b815416905560018060a01b0316808252600360205260408220821981540190558282526002602052604082206001600160601b0360a01b81541690555f516020611b3c5f395f51905f528280a4610ff7565b634e487b7160e01b5f52601160045260245ffd5b61116a915060203d6020116104bf576104b18183611524565b84610f65565b34610da7576040366003190112610da757611189611494565b602435906001600160a01b0361119e83611721565b6001600160a01b0390921691168181146112a757803314908115611283575b5015611218575f82815260046020526040902080546001600160a01b031916821790556001600160a01b036111f183611721565b167f8c5be1e5ebec7d5bd14f71427d1e84f3dd0314c0f7b2291e5b200ac8c7c3b9255f80a4005b60405162461bcd60e51b815260206004820152603d60248201527f4552433732313a20617070726f76652063616c6c6572206973206e6f7420746f60448201527f6b656e206f776e6572206f7220617070726f76656420666f7220616c6c0000006064820152608490fd5b5f90815260056020908152604080832033845290915290205460ff169050836111bd565b60405162461bcd60e51b815260206004820152602160248201527f4552433732313a20617070726f76616c20746f2063757272656e74206f776e656044820152603960f91b6064820152608490fd5b34610da7576020366003190112610da7576020610d02600435611576565b34610da7575f366003190112610da7576040515f5f548060011c906001811680156113fb575b6020831081146113e7578285529081156113c35750600114611367575b61075283610b1181850382611524565b5f8080527f290decd9548b62a8d60345a988386fc84ba6bc95484008f6362f93160ef3e563939250905b8082106113a957509091508101602001610b11611357565b919260018160209254838588010152019101909291611391565b60ff191660208086019190915291151560051b84019091019150610b119050611357565b634e487b7160e01b5f52602260045260245ffd5b91607f169161133a565b34610da7576020366003190112610da7576004359063ffffffff60e01b8216809203610da7576020916301ffc9a760e01b811490811561145f575b811561144e575b5015158152f35b630a3b53db60e21b14905083611447565b6380ac58cd60e01b81149150611440565b805180835260209291819084018484015e5f828201840152601f01601f1916010190565b600435906001600160a01b0382168203610da757565b602435906001600160a01b0382168203610da757565b6060906003190112610da757600435906024356001600160a01b0381168103610da7579060443590565b6060906003190112610da7576004356001600160a01b0381168103610da757906024356001600160a01b0381168103610da7579060443590565b90601f8019910116810190811067ffffffffffffffff82111761154657604052565b634e487b7160e01b5f52604160045260245ffd5b67ffffffffffffffff811161154657601f01601f191660200190565b5f81815260026020526040902054611598906001600160a01b031615156116d5565b5f908152600460205260409020546001600160a01b031690565b156115b957565b60405162461bcd60e51b815260206004820152602d60248201527f4552433732313a2063616c6c6572206973206e6f7420746f6b656e206f776e6560448201526c1c881bdc88185c1c1c9bdd9959609a1b6064820152608490fd5b90816020910312610da757516001600160a01b0381168103610da75790565b90816020910312610da7575190565b805f52600760205260405f2054421015610da75761165f90611721565b90565b9190820180921161113d57565b5f52600760205260405f20546276a700810180911161113d57421190565b906116b19392916116a1610f138433611743565b6116ac838383611811565b611a19565b156116b857565b60405162461bcd60e51b8152806116d16004820161197a565b0390fd5b156116dc57565b60405162461bcd60e51b815260206004820152601860248201527f4552433732313a20696e76616c696420746f6b656e20494400000000000000006044820152606490fd5b5f908152600260205260409020546001600160a01b031661165f8115156116d5565b6001600160a01b0361175483611642565b6001600160a01b039092169116818114928315611797575b50821561177857505090565b9091505f52600560205260405f20905f5260205260ff60405f20541690565b90925081906001600160a01b03906117ae90611576565b1614915f61176c565b156117be57565b60405162461bcd60e51b815260206004820152602560248201527f4552433732313a207472616e736665722066726f6d20696e636f72726563742060448201526437bbb732b960d91b6064820152608490fd5b9061183261181e84611721565b6001600160a01b03938416931683146117b7565b6001600160a01b03169081156118d15761185e816001600160a01b0361185786611721565b16146117b7565b825f52600460205260405f206001600160601b0360a01b8154169055805f52600360205260405f205f198154019055815f52600360205260405f2060018154019055825f52600260205260405f20826001600160601b0360a01b8254161790555f516020611b3c5f395f51905f525f80a4565b60405162461bcd60e51b8152602060048201526024808201527f4552433732313a207472616e7366657220746f20746865207a65726f206164646044820152637265737360e01b6064820152608490fd5b6006546001600160a01b0316330361193657565b606460405162461bcd60e51b815260206004820152602060248201527f4f776e61626c653a2063616c6c6572206973206e6f7420746865206f776e65726044820152fd5b60809060208152603260208201527f4552433732313a207472616e7366657220746f206e6f6e20455243373231526560408201527131b2b4bb32b91034b6b83632b6b2b73a32b960711b60608201520190565b156119d457565b60405162461bcd60e51b815260206004820152601c60248201527f4552433732313a20746f6b656e20616c7265616479206d696e746564000000006044820152606490fd5b919290803b15611b3257611a68935f60209460405196879586948593630a85bd0160e11b855233600486015260018060a01b031660248501526044840152608060648401526084830190611470565b03926001600160a01b03165af15f9181611aed575b50611ad7573d15611ad0573d611a928161155a565b90611aa06040519283611524565b81523d5f602083013e5b80519081611acb5760405162461bcd60e51b8152806116d16004820161197a565b602001fd5b6060611aaa565b6001600160e01b031916630a85bd0160e11b1490565b9091506020813d602011611b2a575b81611b0960209383611524565b81010312610da757516001600160e01b031981168103610da757905f611a7d565b3d9150611afc565b5050505060019056feddf252ad1be2c89b69c2b068fc378daa952ba7f163c4a11628f55a4df523b3efa164736f6c634300081c000a",
  "linkReferences": {},
  "deployedLinkReferences": {},
  "immutableReferences": {},
  "inputSourceName": "project/contracts/upstream/BaseRegistrarImplementation.sol",
  "buildInfoId": "solc-0_8_28-455330324b80ef50ec92e4a2bd8b4c5eee1e0816"
}