{
  "_format": "hh3-artifact-1",
  "contractName": "ENSRegistry",
  "sourceName": "contracts/upstream/ENSRegistry.sol",
  "abi": [
    {
      "anonymous": false,
      "inputs": [
        {
          "indexed": true,
          "internalType": "address",
          "name": "owner",
          "type": "address"
        },
        {
          "indexed": true,
          "internalType": "address",
          "name": "operator",
          "type": "address"
        },
        {
          "indexed": false,
          "internalType": "bool",
          "name": "approved",
          "type": "bool"
        }
      ],
      "name": "ApprovalForAll",
      "type": "event"
    },
    {
      "anonymous": false,
      "inputs": [
        {
          "indexed": true,
          "internalType": "bytes32",
          "name": "node",
          "type": "bytes32"
        },
        {
          "indexed": true,
          "internalType": "bytes32",
          "name": "label",
          "type": "bytes32"
        },
        {
          "indexed": false,
          "internalType": "address",
          "name": "owner",
          "type": "address"
        }
      ],
      "name": "NewOwner",
      "type": "event"
    },
    {
      "anonymous": false,
      "inputs": [
        {
          "indexed": true,
          "internalType": "bytes32",
          "name": "node",
          "type": "bytes32"
        },
        {
          "indexed": false,
          "internalType": "address",
          "name": "resolver",
          "type": "address"
        }
      ],
      "name": "NewResolver",
      "type": "event"
    },
    {
      "anonymous": false,
      "inputs": [
        {
          "indexed": true,
          "internalType": "bytes32",
          "name": "node",
          "type": "bytes32"
        },
        {
          "indexed": false,
          "internalType": "uint64",
          "name": "ttl",
          "type": "uint64"
        }
      ],
      "name": "NewTTL",
      "type": "event"
    },
    {
      "anonymous": false,
      "inputs": [
        {
          "indexed": true,
          "internalType": "bytes32",
          "name": "node",
          "type": "bytes32"
        },
        {
          "indexed": false,
          "internalType": "address",
          "name": "owner",
          "type": "address"
        }
      ],
      "name": "Transfer",
      "type": "event"
    },
    {
      "inputs": [
        {
          "internalType": "address",
          "name": "owner",
          "type": "address"
        },
        {
          "internalType": "address",
          "name": "operator",
          "type": "address"
        }
      ],
      "name": "isApprovedForAll",
      "outputs": [
        {
          "internalType": "bool",
          "name": "",
          "type": "bool"
        }
      ],
      "stateMutability": "view",
      "type": "function"
    },
    {
      "inputs": [
        {
          "internalType": "bytes32",
          "name": "node",
          "type": "bytes32"
        }
      ],
      "name": "owner",
      "outputs": [
        {
          "internalType": "address",
          "name": "",
          "type": "address"
        }
      ],
      "stateMutability": "view",
      "type": "function"
    },
    {
      "inputs": [
        {
          "internalType": "bytes32",
          "name": "node",
          "type": "bytes32"
        }
      ],
      "name": "recordExists",
      "outputs": [
        {
          "internalType": "bool",
          "name": "",
          "type": "bool"
        }
      ],
      "stateMutability": "view",
      "type": "function"
    },
    {
      "inputs": [
        {
          "internalType": "bytes32",
          "name": "node",
          "type": "bytes32"
        }
      ],
      "name": "resolver",
      "outputs": [
        {
          "internalType": "address",
          "name": "",
          "type": "address"
        }
      ],
      "stateMutability": "view",
      "type": "function"
    },
    {
      "inputs": [
        {
          "internalType": "address",
          "name": "operator",
          "type": "address"
        },
        {
          "internalType": "bool",
          "name": "approved",
          "type": "bool"
        }
      ],
      "name": "setApprovalForAll",
      "outputs": [],
      "stateMutability": "nonpayable",
      "type": "function"
    },
    {
      "inputs": [
        {
          "internalType": "bytes32",
          "name": "node",
          "type": "bytes32"
        },
        {
          "internalType": "address",
          "name": "owner",
          "type": "address"
        }
      ],
      "name": "setOwner",
      "outputs": [],
      "stateMutability": "nonpayable",
      "type": "function"
    },
    {
      "inputs": [
        {
          "internalType": "bytes32",
          "name": "node",
          "type": "bytes32"
        },
        {
          "internalType": "address",
          "name": "owner",
          "type": "address"
        },
        {
          "internalType": "address",
          "name": "resolver",
          "type": "address"
        },
        {
          "internalType": "uint64",
          "name": "ttl",
          "type": "uint64"
        }
      ],
      "name": "setRecord",
      "outputs": [],
      "stateMutability": "nonpayable",
      "type": "function"
    },
    {
      "inputs": [
        {
          "internalType": "bytes32",
          "name": "node",
          "type": "bytes32"
        },
        {
          "internalType": "address",
          "name": "resolver",
          "type": "address"
        }
      ],
      "name": "setResolver",
      "outputs": [],
      "stateMutability": "nonpayable",
      "type": "function"
    },
    {
      "inputs": [
        {
          "internalType": "bytes32",
          "name": "node",
          "type": "bytes32"
        },
        {
          "internalType": "bytes32",
          "name": "label",
          "type": "bytes32"
        },
        {
          "internalType": "address",
          "name": "owner",
          "type": "address"
        }
      ],
      "name": "setSubnodeOwner",
      "outputs": [
        {
          "internalType": "bytes32",
          "name": "",
          "type": "bytes32"
        }
      ],
      "stateMutability": "nonpayable",
      "type": "function"
    },
    {
      "inputs": [
        {
          "internalType": "bytes32",
          "name": "node",
          "type": "bytes32"
        },
        {
          "internalType": "bytes32",
          "name": "label",
          "type": "bytes32"
        },
        {
          "internalType": "address",
          "name": "owner",
          "type": "address"
        },
        {
          "internalType": "address",
          "name": "resolver",
          "type": "address"
        },
        {
          "internalType": "uint64",
          "name": "ttl",
          "type": "uint64"
        }
      ],
      "name": "setSubnodeRecord",
      "outputs": [],
      "stateMutability": "nonpayable",
      "type": "function"
    },
    {
      "inputs": [
        {
          "internalType": "bytes32",
          "name": "node",
          "type": "bytes32"
        },
        {
          "internalType": "uint64",
          "name": "ttl",
          "type": "uint64"
        }
      ],
      "name": "setTTL",
      "outputs": [],
      "stateMutability": "nonpayable",
      "type": "function"
    },
    {
      "inputs": [
        {
          "internalType": "bytes32",
          "name": "node",
          "type": "bytes32"
        }
      ],
      "name": "ttl",
      "outputs": [
        {
          "internalType": "uint64",
          "name": "",
          "type": "uint64"
        }
      ],
      "stateMutability": "view",
      "type": "function"
    }
  ],
  "bytecode": "0x60808060405234604d575f8080526020527fad3228b676f7d3cd4284a5443f17f1962b36e491b30a40b2405849e597ba5fb580546001600160a01b0319163317905561089090816100528239f35b5f80fdfe6080806040526004361015610012575f80fd5b5f3560e01c9081630178b8bf146105ea5750806302571be3146105ba57806306ab59231461058957806314ab9038146104b157806316a25cbd146104785780631896f70a146103ac5780635b0fc9c3146102f25780635ef2c7f01461029a578063a22cb46514610211578063cf4088231461012e578063e985e9c5146100d75763f79fe538146100a0575f80fd5b346100d35760203660031901126100d3576004355f525f602052602060018060a01b0360405f2054161515604051908152f35b5f80fd5b346100d35760403660031901126100d3576100f061064a565b6100f8610634565b9060018060a01b03165f52600160205260405f209060018060a01b03165f52602052602060ff60405f2054166040519015158152f35b346100d35760803660031901126100d35760043561014a610634565b9061015361061e565b6064359167ffffffffffffffff831683036100d357805f525f60205260018060a01b0360405f2054163381149081156101ed575b50156100d3575f818152602081815260409182902080546001600160a01b0319166001600160a01b03909716968717905590519485526101eb9482917fd4735d920b0f87494915f556dd9b54c8f309026070caea5c737245152564d26691a2610769565b005b5f90815260016020908152604080832033845290915290205460ff16905085610187565b346100d35760403660031901126100d35761022a61064a565b602435908115158092036100d357335f52600160205260405f2060018060a01b0382165f5260205260405f2060ff1981541660ff841617905560405191825260018060a01b0316907f17307eab39ab6107e8899845ad3d59bd9653f200f220920489ca2b5937696c3160203392a3005b346100d35760a03660031901126100d3576102b361061e565b6064356001600160a01b03811681036100d3576084359067ffffffffffffffff821682036100d3576102ed6101eb93602435600435610686565b610769565b346100d35760403660031901126100d35760043561030e610634565b815f525f60205260018060a01b0360405f205416338114908115610388575b50156100d3575f828152602081815260409182902080546001600160a01b0319166001600160a01b03909416938417905590519182527fd4735d920b0f87494915f556dd9b54c8f309026070caea5c737245152564d26691a2005b5f90815260016020908152604080832033845290915290205460ff1690508361032d565b346100d35760403660031901126100d3576004356103c8610634565b90805f525f60205260018060a01b0360405f205416338114908115610454575b50156100d3576040516001600160a01b038316815281907f335721b01866dc23fbee8b6b2c7b1e14d6f05c28cd35a2c934239f94095602a090602090a25f90815260208190526040902060010180546001600160a01b0319166001600160a01b03909216919091179055005b5f90815260016020908152604080832033845290915290205460ff169050836103e8565b346100d35760203660031901126100d3576004355f525f602052602067ffffffffffffffff600160405f20015460a01c16604051908152f35b346100d35760403660031901126100d35760043560243567ffffffffffffffff8116918282036100d357805f525f60205260018060a01b0360405f205416338114908115610565575b50156100d357807f1d4f9bbfc9cab89d66e1a1562f2233ccbf1308cb4f63de2ead5787adddb8fa6860206101eb95604051908152a25f525f602052600160405f20019081549067ffffffffffffffff60a01b9060a01b169067ffffffffffffffff60a01b1916179055565b5f90815260016020908152604080832033845290915290205460ff169050846104fa565b346100d35760603660031901126100d35760206105b26105a761061e565b602435600435610686565b604051908152f35b346100d35760203660031901126100d35760206105d8600435610660565b6040516001600160a01b039091168152f35b346100d35760203660031901126100d3576004355f90815260208181526040909120600101546001600160a01b0316825290f35b604435906001600160a01b03821682036100d357565b602435906001600160a01b03821682036100d357565b600435906001600160a01b03821682036100d357565b5f908152602081905260409020546001600160a01b03163081146106815790565b505f90565b805f525f60205260018060a01b0360405f205416338114908115610746575b50156100d3576040516020810190828252836040820152604081526060810181811067ffffffffffffffff82111761073257604081815291519092205f818152602081815292902080546001600160a01b0319166001600160a01b0390971696871790559482527fce0457fe73731f824cc272376169235128c118b49d344817417c6d108d155e8291a390565b634e487b7160e01b5f52604160045260245ffd5b5f90815260016020908152604080832033845290915281205460ff1691506106a5565b5f8181526020819052604090206001015490929183916001600160a01b039182169116810361082d575b505f525f60205267ffffffffffffffff600160405f20015460a01c169067ffffffffffffffff81169182036107c757505050565b5f83815260208181526040909120600101805467ffffffffffffffff60a01b191660a09390931b67ffffffffffffffff60a01b16929092179091557f1d4f9bbfc9cab89d66e1a1562f2233ccbf1308cb4f63de2ead5787adddb8fa6891604051908152a2565b60207f335721b01866dc23fbee8b6b2c7b1e14d6f05c28cd35a2c934239f94095602a091835f525f8252600160405f2001816bffffffffffffffffffffffff60a01b825416179055604051908152a2815f61079356fea164736f6c634300081c000a",
  "linkReferences": {},
  "deployedLinkReferences": {},
  "immutableReferences": {},
  "inputSourceName": "project/contracts/upstream/ENSRegistry.sol",
  "buildInfoId": "solc-0_8_28-547faf025062b4dc1f840335efe71cb914cc7c67"
}