{
  "_format": "hh3-artifact-1",
  "contractName": "PublicResolver",
  "sourceName": "contracts/upstream/PublicResolver.sol",
  "abi": [
    {
      "inputs": [
        {
          "internalType": "contract ENS",
          "name": "ens_",
          "type": "address"
        },
        {
          "internalType": "contract INameWrapper",
          "name": "wrapperAddress_",
          "type": "address"
        },
        {
          "internalType": "address",
          "name": "trustedController_",
          "type": "address"
        },
        {
          "internalType": "address",
          "name": "trustedReverseRegistrar_",
          "type": "address"
        }
      ],
      "stateMutability": "nonpayable",
      "type": "constructor"
    },
    {
      "inputs": [
        {
          "internalType": "bytes",
          "name": "addressBytes",
          "type": "bytes"
        }
      ],
      "name": "InvalidEVMAddress",
      "type": "error"
    },
    {
      "inputs": [
        {
          "internalType": "uint256",
          "name": "offset",
          "type": "uint256"
        },
        {
          "internalType": "uint256",
          "name": "length",
          "type": "uint256"
        }
      ],
      "name": "OffsetOutOfBoundsError",
      "type": "error"
    },
    {
      "anonymous": false,
      "inputs": [
        {
          "indexed": true,
          "internalType": "bytes32",
          "name": "node",
          "type": "bytes32"
        },
        {
          "indexed": true,
          "internalType": "uint256",
          "name": "contentType",
          "type": "uint256"
        }
      ],
      "name": "ABIChanged",
      "type": "event"
    },
    {
      "anonymous": false,
      "inputs": [
        {
          "indexed": true,
          "internalType": "bytes32",
          "name": "node",
          "type": "bytes32"
        },
        {
          "indexed": false,
          "internalType": "address",
          "name": "a",
          "type": "address"
        }
      ],
      "name": "AddrChanged",
      "type": "event"
    },
    {
      "anonymous": false,
      "inputs": [
        {
          "indexed": true,
          "internalType": "bytes32",
          "name": "node",
          "type": "bytes32"
        },
        {
          "indexed": false,
          "internalType": "uint256",
          "name": "coinType",
          "type": "uint256"
        },
        {
          "indexed": false,
          "internalType": "bytes",
          "name": "newAddress",
          "type": "bytes"
        }
      ],
      "name": "AddressChanged",
      "type": "event"
    },
    {
      "anonymous": false,
      "inputs": [
        {
          "indexed": true,
          "internalType": "address",
          "name": "owner",
          "type": "address"
        },
        {
          "indexed": true,
          "internalType": "address",
          "name": "operator",
          "type": "address"
        },
        {
          "indexed": false,
          "internalType": "bool",
          "name": "approved",
          "type": "bool"
        }
      ],
      "name": "ApprovalForAll",
      "type": "event"
    },
    {
      "anonymous": false,
      "inputs": [
        {
          "indexed": false,
          "internalType": "address",
          "name": "owner",
          "type": "address"
        },
        {
          "indexed": true,
          "internalType": "bytes32",
          "name": "node",
          "type": "bytes32"
        },
        {
          "indexed": true,
          "internalType": "address",
          "name": "delegate",
          "type": "address"
        },
        {
          "indexed": true,
          "internalType": "bool",
          "name": "approved",
          "type": "bool"
        }
      ],
      "name": "Approved",
      "type": "event"
    },
    {
      "anonymous": false,
      "inputs": [
        {
          "indexed": true,
          "internalType": "bytes32",
          "name": "node",
          "type": "bytes32"
        },
        {
          "indexed": false,
          "internalType": "bytes",
          "name": "hash",
          "type": "bytes"
        }
      ],
      "name": "ContenthashChanged",
      "type": "event"
    },
    {
      "anonymous": false,
      "inputs": [
        {
          "indexed": true,
          "internalType": "bytes32",
          "name": "node",
          "type": "bytes32"
        },
        {
          "indexed": false,
          "internalType": "bytes",
          "name": "name",
          "type": "bytes"
        },
        {
          "indexed": false,
          "internalType": "uint16",
          "name": "resource",
          "type": "uint16"
        },
        {
          "indexed": false,
          "internalType": "bytes",
          "name": "record",
          "type": "bytes"
        }
      ],
      "name": "DNSRecordChanged",
      "type": "event"
    },
    {
      "anonymous": false,
      "inputs": [
        {
          "indexed": true,
          "internalType": "bytes32",
          "name": "node",
          "type": "bytes32"
        },
        {
          "indexed": false,
          "internalType": "bytes",
          "name": "name",
          "type": "bytes"
        },
        {
          "indexed": false,
          "internalType": "uint16",
          "name": "resource",
          "type": "uint16"
        }
      ],
      "name": "DNSRecordDeleted",
      "type": "event"
    },
    {
      "anonymous": false,
      "inputs": [
        {
          "indexed": true,
          "internalType": "bytes32",
          "name": "node",
          "type": "bytes32"
        },
        {
          "indexed": false,
          "internalType": "bytes",
          "name": "lastzonehash",
          "type": "bytes"
        },
        {
          "indexed": false,
          "internalType": "bytes",
          "name": "zonehash",
          "type": "bytes"
        }
      ],
      "name": "DNSZonehashChanged",
      "type": "event"
    },
    {
      "anonymous": false,
      "inputs": [
        {
          "indexed": true,
          "internalType": "bytes32",
          "name": "node",
          "type": "bytes32"
        },
        {
          "indexed": true,
          "internalType": "string",
          "name": "indexedKey",
          "type": "string"
        },
        {
          "indexed": false,
          "internalType": "string",
          "name": "key",
          "type": "string"
        },
        {
          "indexed": true,
          "internalType": "bytes",
          "name": "indexedData",
          "type": "bytes"
        }
      ],
      "name": "DataChanged",
      "type": "event"
    },
    {
      "anonymous": false,
      "inputs": [
        {
          "indexed": true,
          "internalType": "bytes32",
          "name": "node",
          "type": "bytes32"
        },
        {
          "indexed": true,
          "internalType": "bytes4",
          "name": "interfaceID",
          "type": "bytes4"
        },
        {
          "indexed": false,
          "internalType": "address",
          "name": "implementer",
          "type": "address"
        }
      ],
      "name": "InterfaceChanged",
      "type": "event"
    },
    {
      "anonymous": false,
      "inputs": [
        {
          "indexed": true,
          "internalType": "bytes32",
          "name": "node",
          "type": "bytes32"
        },
        {
          "indexed": false,
          "internalType": "string",
          "name": "name",
          "type": "string"
        }
      ],
      "name": "NameChanged",
      "type": "event"
    },
    {
      "anonymous": false,
      "inputs": [
        {
          "indexed": true,
          "internalType": "bytes32",
          "name": "node",
          "type": "bytes32"
        },
        {
          "indexed": false,
          "internalType": "bytes32",
          "name": "x",
          "type": "bytes32"
        },
        {
          "indexed": false,
          "internalType": "bytes32",
          "name": "y",
          "type": "bytes32"
        }
      ],
      "name": "PubkeyChanged",
      "type": "event"
    },
    {
      "anonymous": false,
      "inputs": [
        {
          "indexed": true,
          "internalType": "bytes32",
          "name": "node",
          "type": "bytes32"
        },
        {
          "indexed": true,
          "internalType": "string",
          "name": "indexedKey",
          "type": "string"
        },
        {
          "indexed": false,
          "internalType": "string",
          "name": "key",
          "type": "string"
        },
        {
          "indexed": false,
          "internalType": "string",
          "name": "value",
          "type": "string"
        }
      ],
      "name": "TextChanged",
      "type": "event"
    },
    {
      "anonymous": false,
      "inputs": [
        {
          "indexed": true,
          "internalType": "bytes32",
          "name": "node",
          "type": "bytes32"
        },
        {
          "indexed": false,
          "internalType": "uint64",
          "name": "newVersion",
          "type": "uint64"
        }
      ],
      "name": "VersionChanged",
      "type": "event"
    },
    {
      "inputs": [
        {
          "internalType": "bytes32",
          "name": "node",
          "type": "bytes32"
        },
        {
          "internalType": "uint256",
          "name": "contentTypes",
          "type": "uint256"
        }
      ],
      "name": "ABI",
      "outputs": [
        {
          "internalType": "uint256",
          "name": "",
          "type": "uint256"
        },
        {
          "internalType": "bytes",
          "name": "",
          "type": "bytes"
        }
      ],
      "stateMutability": "view",
      "type": "function"
    },
    {
      "inputs": [
        {
          "internalType": "bytes32",
          "name": "node",
          "type": "bytes32"
        }
      ],
      "name": "addr",
      "outputs": [
        {
          "internalType": "address payable",
          "name": "",
          "type": "address"
        }
      ],
      "stateMutability": "view",
      "type": "function"
    },
    {
      "inputs": [
        {
          "internalType": "bytes32",
          "name": "node",
          "type": "bytes32"
        },
        {
          "internalType": "uint256",
          "name": "coinType",
          "type": "uint256"
        }
      ],
      "name": "addr",
      "outputs": [
        {
          "internalType": "bytes",
          "name": "addressBytes",
          "type": "bytes"
        }
      ],
      "stateMutability": "view",
      "type": "function"
    },
    {
      "inputs": [
        {
          "internalType": "bytes32",
          "name": "node",
          "type": "bytes32"
        },
        {
          "internalType": "address",
          "name": "delegate",
          "type": "address"
        },
        {
          "internalType": "bool",
          "name": "approved",
          "type": "bool"
        }
      ],
      "name": "approve",
      "outputs": [],
      "stateMutability": "nonpayable",
      "type": "function"
    },
    {
      "inputs": [
        {
          "internalType": "bytes32",
          "name": "node",
          "type": "bytes32"
        }
      ],
      "name": "clearRecords",
      "outputs": [],
      "stateMutability": "nonpayable",
      "type": "function"
    },
    {
      "inputs": [
        {
          "internalType": "bytes32",
          "name": "node",
          "type": "bytes32"
        }
      ],
      "name": "contenthash",
      "outputs": [
        {
          "internalType": "bytes",
          "name": "",
          "type": "bytes"
        }
      ],
      "stateMutability": "view",
      "type": "function"
    },
    {
      "inputs": [
        {
          "internalType": "bytes32",
          "name": "node",
          "type": "bytes32"
        },
        {
          "internalType": "string",
          "name": "key",
          "type": "string"
        }
      ],
      "name": "data",
      "outputs": [
        {
          "internalType": "bytes",
          "name": "",
          "type": "bytes"
        }
      ],
      "stateMutability": "view",
      "type": "function"
    },
    {
      "inputs": [
        {
          "internalType": "bytes32",
          "name": "node",
          "type": "bytes32"
        },
        {
          "internalType": "bytes32",
          "name": "name",
          "type": "bytes32"
        },
        {
          "internalType": "uint16",
          "name": "resource",
          "type": "uint16"
        }
      ],
      "name": "dnsRecord",
      "outputs": [
        {
          "internalType": "bytes",
          "name": "",
          "type": "bytes"
        }
      ],
      "stateMutability": "view",
      "type": "function"
    },
    {
      "inputs": [
        {
          "internalType": "bytes32",
          "name": "node",
          "type": "bytes32"
        },
        {
          "internalType": "uint256",
          "name": "coinType",
          "type": "uint256"
        }
      ],
      "name": "hasAddr",
      "outputs": [
        {
          "internalType": "bool",
          "name": "",
          "type": "bool"
        }
      ],
      "stateMutability": "view",
      "type": "function"
    },
    {
      "inputs": [
        {
          "internalType": "bytes32",
          "name": "node",
          "type": "bytes32"
        },
        {
          "internalType": "bytes32",
          "name": "name",
          "type": "bytes32"
        }
      ],
      "name": "hasDNSRecords",
      "outputs": [
        {
          "internalType": "bool",
          "name": "",
          "type": "bool"
        }
      ],
      "stateMutability": "view",
      "type": "function"
    },
    {
      "inputs": [
        {
          "internalType": "bytes32",
          "name": "node",
          "type": "bytes32"
        },
        {
          "internalType": "bytes4",
          "name": "interfaceID",
          "type": "bytes4"
        }
      ],
      "name": "interfaceImplementer",
      "outputs": [
        {
          "internalType": "address",
          "name": "",
          "type": "address"
        }
      ],
      "stateMutability": "view",
      "type": "function"
    },
    {
      "inputs": [
        {
          "internalType": "address",
          "name": "owner",
          "type": "address"
        },
        {
          "internalType": "bytes32",
          "name": "node",
          "type": "bytes32"
        },
        {
          "internalType": "address",
          "name": "delegate",
          "type": "address"
        }
      ],
      "name": "isApprovedFor",
      "outputs": [
        {
          "internalType": "bool",
          "name": "",
          "type": "bool"
        }
      ],
      "stateMutability": "view",
      "type": "function"
    },
    {
      "inputs": [
        {
          "internalType": "address",
          "name": "account",
          "type": "address"
        },
        {
          "internalType": "address",
          "name": "operator",
          "type": "address"
        }
      ],
      "name": "isApprovedForAll",
      "outputs": [
        {
          "internalType": "bool",
          "name": "",
          "type": "bool"
        }
      ],
      "stateMutability": "view",
      "type": "function"
    },
    {
      "inputs": [
        {
          "internalType": "bytes[]",
          "name": "data",
          "type": "bytes[]"
        }
      ],
      "name": "multicall",
      "outputs": [
        {
          "internalType": "bytes[]",
          "name": "results",
          "type": "bytes[]"
        }
      ],
      "stateMutability": "nonpayable",
      "type": "function"
    },
    {
      "inputs": [
        {
          "internalType": "bytes32",
          "name": "nodehash",
          "type": "bytes32"
        },
        {
          "internalType": "bytes[]",
          "name": "data",
          "type": "bytes[]"
        }
      ],
      "name": "multicallWithNodeCheck",
      "outputs": [
        {
          "internalType": "bytes[]",
          "name": "results",
          "type": "bytes[]"
        }
      ],
      "stateMutability": "nonpayable",
      "type": "function"
    },
    {
      "inputs": [
        {
          "internalType": "bytes32",
          "name": "node",
          "type": "bytes32"
        }
      ],
      "name": "name",
      "outputs": [
        {
          "internalType": "string",
          "name": "",
          "type": "string"
        }
      ],
      "stateMutability": "view",
      "type": "function"
    },
    {
      "inputs": [
        {
          "internalType": "bytes32",
          "name": "node",
          "type": "bytes32"
        }
      ],
      "name": "pubkey",
      "outputs": [
        {
          "internalType": "bytes32",
          "name": "x",
          "type": "bytes32"
        },
        {
          "internalType": "bytes32",
          "name": "y",
          "type": "bytes32"
        }
      ],
      "stateMutability": "view",
      "type": "function"
    },
    {
      "inputs": [
        {
          "internalType": "bytes32",
          "name": "",
          "type": "bytes32"
        }
      ],
      "name": "recordVersions",
      "outputs": [
        {
          "internalType": "uint64",
          "name": "",
          "type": "uint64"
        }
      ],
      "stateMutability": "view",
      "type": "function"
    },
    {
      "inputs": [
        {
          "internalType": "bytes32",
          "name": "node",
          "type": "bytes32"
        },
        {
          "internalType": "uint256",
          "name": "contentType",
          "type": "uint256"
        },
        {
          "internalType": "bytes",
          "name": "data",
          "type": "bytes"
        }
      ],
      "name": "setABI",
      "outputs": [],
      "stateMutability": "nonpayable",
      "type": "function"
    },
    {
      "inputs": [
        {
          "internalType": "bytes32",
          "name": "node",
          "type": "bytes32"
        },
        {
          "internalType": "uint256",
          "name": "coinType",
          "type": "uint256"
        },
        {
          "internalType": "bytes",
          "name": "addressBytes",
          "type": "bytes"
        }
      ],
      "name": "setAddr",
      "outputs": [],
      "stateMutability": "nonpayable",
      "type": "function"
    },
    {
      "inputs": [
        {
          "internalType": "bytes32",
          "name": "node",
          "type": "bytes32"
        },
        {
          "internalType": "address",
          "name": "_addr",
          "type": "address"
        }
      ],
      "name": "setAddr",
      "outputs": [],
      "stateMutability": "nonpayable",
      "type": "function"
    },
    {
      "inputs": [
        {
          "internalType": "address",
          "name": "operator",
          "type": "address"
        },
        {
          "internalType": "bool",
          "name": "approved",
          "type": "bool"
        }
      ],
      "name": "setApprovalForAll",
      "outputs": [],
      "stateMutability": "nonpayable",
      "type": "function"
    },
    {
      "inputs": [
        {
          "internalType": "bytes32",
          "name": "node",
          "type": "bytes32"
        },
        {
          "internalType": "bytes",
          "name": "hash",
          "type": "bytes"
        }
      ],
      "name": "setContenthash",
      "outputs": [],
      "stateMutability": "nonpayable",
      "type": "function"
    },
    {
      "inputs": [
        {
          "internalType": "bytes32",
          "name": "node",
          "type": "bytes32"
        },
        {
          "internalType": "bytes",
          "name": "data",
          "type": "bytes"
        }
      ],
      "name": "setDNSRecords",
      "outputs": [],
      "stateMutability": "nonpayable",
      "type": "function"
    },
    {
      "inputs": [
        {
          "internalType": "bytes32",
          "name": "node",
          "type": "bytes32"
        },
        {
          "internalType": "string",
          "name": "key",
          "type": "string"
        },
        {
          "internalType": "bytes",
          "name": "value",
          "type": "bytes"
        }
      ],
      "name": "setData",
      "outputs": [],
      "stateMutability": "nonpayable",
      "type": "function"
    },
    {
      "inputs": [
        {
          "internalType": "bytes32",
          "name": "node",
          "type": "bytes32"
        },
        {
          "internalType": "bytes4",
          "name": "interfaceID",
          "type": "bytes4"
        },
        {
          "internalType": "address",
          "name": "implementer",
          "type": "address"
        }
      ],
      "name": "setInterface",
      "outputs": [],
      "stateMutability": "nonpayable",
      "type": "function"
    },
    {
      "inputs": [
        {
          "internalType": "bytes32",
          "name": "node",
          "type": "bytes32"
        },
        {
          "internalType": "string",
          "name": "newName",
          "type": "string"
        }
      ],
      "name": "setName",
      "outputs": [],
      "stateMutability": "nonpayable",
      "type": "function"
    },
    {
      "inputs": [
        {
          "internalType": "bytes32",
          "name": "node",
          "type": "bytes32"
        },
        {
          "internalType": "bytes32",
          "name": "x",
          "type": "bytes32"
        },
        {
          "internalType": "bytes32",
          "name": "y",
          "type": "bytes32"
        }
      ],
      "name": "setPubkey",
      "outputs": [],
      "stateMutability": "nonpayable",
      "type": "function"
    },
    {
      "inputs": [
        {
          "internalType": "bytes32",
          "name": "node",
          "type": "bytes32"
        },
        {
          "internalType": "string",
          "name": "key",
          "type": "string"
        },
        {
          "internalType": "string",
          "name": "value",
          "type": "string"
        }
      ],
      "name": "setText",
      "outputs": [],
      "stateMutability": "nonpayable",
      "type": "function"
    },
    {
      "inputs": [
        {
          "internalType": "bytes32",
          "name": "node",
          "type": "bytes32"
        },
        {
          "internalType": "bytes",
          "name": "hash",
          "type": "bytes"
        }
      ],
      "name": "setZonehash",
      "outputs": [],
      "stateMutability": "nonpayable",
      "type": "function"
    },
    {
      "inputs": [
        {
          "internalType": "bytes4",
          "name": "interfaceID",
          "type": "bytes4"
        }
      ],
      "name": "supportsInterface",
      "outputs": [
        {
          "internalType": "bool",
          "name": "",
          "type": "bool"
        }
      ],
      "stateMutability": "view",
      "type": "function"
    },
    {
      "inputs": [
        {
          "internalType": "bytes32",
          "name": "node",
          "type": "bytes32"
        },
        {
          "internalType": "string",
          "name": "key",
          "type": "string"
        }
      ],
      "name": "text",
      "outputs": [
        {
          "internalType": "string",
          "name": "",
          "type": "string"
        }
      ],
      "stateMutability": "view",
      "type": "function"
    },
    {
      "inputs": [
        {
          "internalType": "bytes32",
          "name": "node",
          "type": "bytes32"
        }
      ],
      "name": "zonehash",
      "outputs": [
        {
          "internalType": "bytes",
          "name": "",
          "type": "bytes"
        }
      ],
      "stateMutability": "view",
      "type": "function"
    }
  ],
  "bytecode": "0x610100806040523461015457608081612ef1803803809161002082856101a8565b8339810103126101545780516001600160a01b0381169190828103610154576020820151906001600160a01b03821682036101545760246020610071606061006a604088016101df565b96016101df565b95604051928380926302571be360e01b82527f91d1777781884d03a6757a803996e38de2a42967fb37eeaca72729271025a9e260048301525afa90811561015f575f9161016a575b50604051630f41a04d60e11b815233600482015290602090829060249082905f906001600160a01b03165af1801561015f57610130575b5060805260a05260c05260e052604051612cfd90816101f4823960805181612417015260a05181612452015260c051816123bf015260e051816125890152f35b602090813d8311610158575b61014681836101a8565b81010312610154575f6100f0565b5f80fd5b503d61013c565b6040513d5f823e3d90fd5b90506020813d6020116101a0575b81610185602093836101a8565b810103126101545760206101995f926101df565b91506100b9565b3d9150610178565b601f909101601f19168101906001600160401b038211908210176101cb57604052565b634e487b7160e01b5f52604160045260245ffd5b51906001600160a01b03821682036101545756fe60806040526004361015610011575f80fd5b5f3560e01c806301ffc9a7146102245780630af179d71461021f57806310f13a8c1461021a578063124a319c146102155780632203ab561461021057806329cd62ea1461020b578063304e6ade1461020657806332f111d7146102015780633603d758146101fc5780633b3b57de146101f75780634cbf6ba4146101f25780634eb9c45e146101ed57806359d1d43c146101e85780635c98042b146101e3578063623195b0146101de578063691f3431146101d957806377372213146101d45780638b95dd71146101cf578063a22cb465146101ca578063a4b91a01146101c5578063a8fa5682146101c0578063a9784b3e146101bb578063ac9650d8146101b6578063bc1c58d1146101b1578063c8690233146101ac578063ce3decdc146101a7578063d5fa2b00146101a2578063d700ff331461019d578063e32954eb14610198578063e59d895d14610193578063e985e9c51461018e578063ecbfada3146101895763f1cb7e0614610184575f80fd5b611ba8565b611b48565b611ae4565b611a0b565b6118f9565b6118c7565b61177c565b6116c9565b611674565b611621565b611544565b611442565b6113b1565b6112d7565b6111d3565b61101c565b610e5a565b610e07565b610d48565b610cf5565b610c7a565b610b9d565b610b44565b610b13565b610a57565b6109ed565b610889565b6107d4565b6107a5565b610716565b61066c565b610467565b61025b565b600435906001600160e01b03198216820361024057565b5f80fd5b602435906001600160e01b03198216820361024057565b34610240576020366003190112610240576102a66001600160e01b0319610280610229565b16631674750f60e21b81149081156102aa575b5060405190151581529081906020820190565b0390f35b63c869023360e01b8114915081156102c4575b505f610293565b63691f343160e01b8114915081156102de575b505f6102bd565b6304928c6760e21b8114915081156102f8575b505f6102d7565b63547d2b4160e11b8114915081156103f6575b8115610319575b505f6102f1565b63ecbfada360e01b811491508115610333575b505f610312565b63bc1c58d160e01b81149150811561034d575b505f61032c565b631d9dabef60e11b8114915081156103e5575b81156103d4575b8115610375575b505f610346565b631101d5ab60e11b81149150811561038f575b505f61036e565b63d700ff3360e01b8114915081156103a9575b505f610388565b634fbf043360e01b8114915081156103c3575b505f6103a2565b6301ffc9a760e01b1490505f6103bc565b6332f111d760e01b81149150610367565b6378e5bf0360e11b81149150610360565b635c98042b60e01b8114915061030b565b9181601f84011215610240578235916001600160401b038311610240576020838186019501011161024057565b9060406003198301126102405760043591602435906001600160401b0382116102405761046391600401610407565b9091565b346102405761047536610434565b9161047f816123bc565b15610240575f915f9060609283946104ae6104a1835f525f60205260405f2090565b546001600160401b031690565b946104c26104bd368a87610fe6565b6125b7565b965b6104dc6104d8896020810151905151111590565b1590565b156105e95761ffff8316806105485750505050604085015161ffff1693610502866126fb565b926040516020810190610527816105198489611c84565b03601f198101835282610faa565b50610533905087612a00565b905b61053e8861263d565b93909591956104c4565b61055889989498969293966126fb565b9060408a019061057461056d835161ffff1690565b61ffff1690565b148015906105d6575b610589575b5050610535565b929784919692979860208b0199808b51906105a391611c77565b915115926105b2368f8d610fe6565b906105bd968a612814565b5161ffff169451936105ce87612a00565b905f80610582565b506105e46104d88389612716565b61057d565b94939795965080516105f757005b610613610619986106088689611c77565b965115973691610fe6565b92612814565b005b90606060031983011261024057600435916024356001600160401b038111610240578161064a91600401610407565b92909291604435906001600160401b0382116102405761046391600401610407565b346102405761067a3661061b565b91909392610687846123bc565b15610240576107117f448bc014f1536726cf8d54ff3d6481ed3cbc683c2591ca204274009afa09b1a193855f525f6020526001600160401b0360405f2054165f52600b60205260405f20865f526020526106fa818860405f20602060405180928a8a83378a820190815203019020611d36565b6107048484611dfe565b9660405194859485611e32565b0390a3005b3461024057604036600319011261024057602061073d600435610737610244565b90611ec5565b6040516001600160a01b039091168152f35b805180835260209291819084018484015e5f828201840152601f01601f1916010190565b90604061078b92603c8152816020820152019061074f565b90565b60409061078b93928152816020820152019061074f565b34610240576040366003190112610240576107c4602435600435612129565b906102a66040519283928361078e565b34610240576060366003190112610240576004356024356044356107f7836123bc565b15610240577f1d6f5e03d3f63eb58751986629a5439baee5079ff04f345becb66e23eb154e469160405161082a81610f8f565b818152600160208201848152865f525f6020526001600160401b0360405f2054165f52600a60205260405f20875f5260205260405f2092518355519101556108846040519283928360209093929193604081019481520152565b0390a2005b346102405761089736610434565b6108a28392936123bc565b1561024057815f525f6020526001600160401b0360405f2054165f52600360205260405f20825f5260205260405f20926001600160401b0382116109e8576108f4826108ee8654611ca3565b86611cf1565b5f93601f83116001146109605761094383807fe379c1624ed7e714cc0937528a32359d69d5281337765313dba4e081b72d757896975f91610955575b508160011b915f199060031b1c19161790565b90555b610884604051928392836121d8565b90508401355f610930565b601f19831694610973825f5260205f2090565b905f5b8781106109d05750847fe379c1624ed7e714cc0937528a32359d69d5281337765313dba4e081b72d75789697106109b7575b5050600183811b019055610946565b8301355f19600386901b60f8161c191690555f806109a8565b90916020600181928588013581550193019101610976565b610f7b565b346102405760403660031901126102405760043560243590805f525f6020526001600160401b0360405f2054165f52600260205260405f20905f5260205260405f20905f526020526102a6610a4560405f2054611ca3565b60405190151581529081906020820190565b3461024057602036600319011261024057600435610a74816123bc565b1561024057805f525f60205260405f2080546001600160401b0381166001600160401b038114610b0e5760016001600160401b03910116906001600160401b031916179055805f525f6020527fc6621ccb8f3f5a04bb6502154b2caf6adf5983fe76dfef1cfc9c42e3579db4446108846001600160401b0360405f205416604051918291829190916001600160401b036020820193169052565b611c63565b34610240576020366003190112610240576020610b39610b34600435612305565b6121e9565b60601c604051908152f35b34610240576040366003190112610240576004355f81815260208181526040808320546001600160401b0316835260078252808320938352928152828220602435835281529082902054915161ffff9092161515825290f35b3461024057610bab3661061b565b90929391610bb8836123bc565b1561024057610c547f3b7ea3580e046bf897ca24f2f45fcf5491dafba8d1b3dd17ca92aa0e82b4dd2192845f525f6020526001600160401b0360405f2054165f52600460205260405f20855f52602052610c2c81878560208b60405f20604051938492833789820190815203019020611d36565b610c37368489610fe6565b50610c43368288610fe6565b50610c4e8388611dfe565b95611dfe565b94610c64604051928392836121d8565b0390a4005b90602061078b92818152019061074f565b34610240576102a6610cda610ce16020610c9336610434565b9291805f525f83526001600160401b0360405f2054165f52600b835260405f20905f52825260405f208360405194859384378201908152030190206040519283809261208d565b0382610faa565b60405191829160208352602083019061074f565b3461024057602036600319011261024057600435805f525f6020526001600160401b0360405f2054165f52600560205260405f20905f526020526102a6610cda610ce160405f206040519283809261208d565b34610240576060366003190112610240576024356004356044356001600160401b03811161024057610d7e903690600401610407565b610d87836123bc565b15610240575f198401848111610b0e57841661024057610de191835f525f6020526001600160401b0360405f2054165f52600160205260405f20845f52602052610ddc8560405f20905f5260205260405f2090565b611d36565b7faa121bbeef5f32f5961a2a28966e769023910fc9479059ee3495d4c1a696efe35f80a3005b3461024057602036600319011261024057600435805f525f6020526001600160401b0360405f2054165f52600960205260405f20905f526020526102a6610cda610ce160405f206040519283809261208d565b3461024057610e6836610434565b610e738392936123bc565b1561024057815f525f6020526001600160401b0360405f2054165f52600960205260405f20825f5260205260405f20926001600160401b0382116109e857610ebf826108ee8654611ca3565b5f93601f8311600114610f0d5761094383807fb7d29e911041e8d9b843369e890bcb72c9388692ba48b65ac54e7214c4c348f796975f9161095557508160011b915f199060031b1c19161790565b601f19831694610f20825f5260205f2090565b905f5b878110610f635750847fb7d29e911041e8d9b843369e890bcb72c9388692ba48b65ac54e7214c4c348f79697106109b7575050600183811b019055610946565b90916020600181928588013581550193019101610f23565b634e487b7160e01b5f52604160045260245ffd5b604081019081106001600160401b038211176109e857604052565b90601f801991011681019081106001600160401b038211176109e857604052565b6001600160401b0381116109e857601f01601f191660200190565b929192610ff282610fcb565b916110006040519384610faa565b829481845281830111610240578281602093845f960137010152565b34610240576060366003190112610240576024356004356044356001600160401b038111610240573660238201121561024057611063903690602481600401359101610fe6565b9061106d816123bc565b156102405781518015159081611198575b5080611189575b61116a57610619926110ff8261110c937f65412581168e88a1e60c6459d7f44ae83ad0832e670826c05a4e2476b57af752604051806110c589888361078e565b0390a2603c8314611111575b6110ff6110e86104a1835f525f60205260405f2090565b6001600160401b03165f52600260205260405f2090565b905f5260205260405f2090565b61222f565b807f52d7d861f09ab3d26239d492e8968629f95e9e318cf0b73bfddc441522a15fd2611162611148611142896121e9565b60601c90565b6040516001600160a01b0390911681529081906020820190565b0390a26110d1565b60405163046b337b60e51b8152806111858460048301610c69565b0390fd5b5061119383612a36565b611085565b6014915014155f61107e565b6001600160a01b0381160361024057565b60243590811515820361024057565b60443590811515820361024057565b34610240576040366003190112610240576004356111f0816111a4565b6111f86111b5565b6001600160a01b0382169133831461128057335f908152600c6020526040902061124a91839161123991905b9060018060a01b03165f5260205260405f2090565b9060ff801983541691151516179055565b604051901515815233907f17307eab39ab6107e8899845ad3d59bd9653f200f220920489ca2b5937696c31908060208101610711565b60405162461bcd60e51b815260206004820152602960248201527f455243313135353a2073657474696e6720617070726f76616c20737461747573604482015268103337b91039b2b63360b91b6064820152608490fd5b34610240576060366003190112610240576004356024356112f7816111a4565b6112ff6111c4565b916001600160a01b0382169133831461136d578361123961133792335f52600d6020526112248560405f20905f5260205260405f2090565b604051338152921515927ff0ddb3b04746704017f9aa8bd728fcc2c1d11675041205350018915f5e4750a0908060208101610c64565b606460405162461bcd60e51b815260206004820152602060248201527f53657474696e672064656c65676174652073746174757320666f722073656c666044820152fd5b346102405760603660031901126102405760043560443560243561ffff821682036102405761142a610cda9261143692856102a6965f525f6020526001600160401b0360405f2054165f52600660205260405f20905f5260205260405f20905f5260205260405f209061ffff165f5260205260405f2090565b6040519283809261208d565b60405191829182610c69565b346102405760603660031901126102405760ff6114a6600435611464816111a4565b60243560443591611474836111a4565b60018060a01b03165f52600d60205260405f20905f5260205260405f209060018060a01b03165f5260205260405f2090565b54604051911615158152602090f35b9181601f84011215610240578235916001600160401b038311610240576020808501948460051b01011161024057565b602081016020825282518091526040820191602060408360051b8301019401925f915b83831061151757505050505090565b9091929394602080611535600193603f19868203018752895161074f565b97019301930191939290611508565b34610240576020366003190112610240576004356001600160401b038111610240576115749036906004016114b5565b9061157e82612a58565b9161158c6040519384610faa565b808352601f1961159b82612a58565b015f5b8181106116105750505f5b8181106115be57604051806102a686826114e5565b805f806115ce6001948688612a6f565b906115de60405180938193611c96565b0390305af46115f46115ee611e6d565b91611c5c565b6115fe8287612b46565b526116098186612b46565b50016115a9565b80606060208093880101520161159e565b3461024057602036600319011261024057600435805f525f6020526001600160401b0360405f2054165f52600360205260405f20905f526020526102a6610cda610ce160405f206040519283809261208d565b34610240576020366003190112610240576004355f81815260208181526040808320546001600160401b03168352600a8252808320938352928152908290208054600190910154835191825291810191909152f35b34610240576116d736610434565b906116e1836123bc565b15610240576117486108847f8f15ed4b723ef428f250961da8315675b507046737e19319fc1a4d81bfe87f8593855f525f6020526001600160401b0360405f205416805f52600560205260405f20875f5260205261174f60405f206040519586809261208d565b0385610faa565b5f5260056020526117708185610ddc8960405f20905f5260205260405f2090565b604051938493846122ee565b346102405760403660031901126102405760043560243561179c816111a4565b6117a5826123bc565b1561024057604051906bffffffffffffffffffffffff199060601b166020820152601481526117d5603482610faa565b6117de826123bc565b1561024057805180151590816118bb575b50806118ad575b6118905761110c61188283610619947f65412581168e88a1e60c6459d7f44ae83ad0832e670826c05a4e2476b57af752604051806118348882610773565b0390a2807f52d7d861f09ab3d26239d492e8968629f95e9e318cf0b73bfddc441522a15fd2611868611148611142886121e9565b0390a26110ff6110e86104a1835f525f60205260405f2090565b603c5f5260205260405f2090565b60405163046b337b60e51b81529081906111859060048301610c69565b506118b6612a21565b6117f6565b6014915014155f6117ef565b34610240576020366003190112610240576004355f525f60205260206001600160401b0360405f205416604051908152f35b34610240576040366003190112610240576004356024356001600160401b0381116102405761192c9036906004016114b5565b90919061193881612a58565b926119466040519485610faa565b818452601f1961195583612a58565b015f5b8181106119fa575050821515925f5b83811061197c57604051806102a688826114e5565b600190856119ce575b5f80611992838888612a6f565b906119a260405180938193611c96565b0390305af46119b26115ee611e6d565b6119bc8289612b46565b526119c78188612b46565b5001611967565b6119f5836119ef6119e96119e3858a8a612a6f565b90612ab0565b90612ac1565b14612add565b611985565b806060602080938901015201611958565b3461024057606036600319011261024057600435611a27610244565b9060443591611a35836111a4565b611a3e826123bc565b15610240576107117f7c69f06bea0bdef565b709e93a147836b0063ba2dd89f02d0b7e8d931e6a6daa91835f525f6020526001600160401b0360405f2054165f52600860205260405f20845f52602052611aac8160405f209063ffffffff60e01b165f5260205260405f2090565b80546001600160a01b0319166001600160a01b039690961695861790556040519485526001600160e01b031916939081906020820190565b3461024057604036600319011261024057602060ff611b3c600435611b08816111a4565b60243590611b15826111a4565b60018060a01b03165f52600c845260405f209060018060a01b03165f5260205260405f2090565b54166040519015158152f35b34610240576102a6610cda610ce16020611b6136610434565b9291805f525f83526001600160401b0360405f2054165f526004835260405f20905f52825260405f208360405194859384378201908152030190206040519283809261208d565b34610240576040366003190112610240576102a660043560243590805f525f6020526001600160401b0360405f2054165f52600260205260405f20905f5260205260405f20815f5280602052611c0060405f2061210e565b918251159081611c43575b50611c1e575b5060405191829182610c69565b611c3d9150611c389063800000005f5260205260405f2090565b61210e565b5f611c11565b63ffffffff9150611c5390612b5a565b1615155f611c0b565b1561024057565b634e487b7160e01b5f52601160045260245ffd5b91908203918211610b0e57565b805191908290602001825e015f815290565b908092918237015f815290565b90600182811c92168015611cd1575b6020831014611cbd57565b634e487b7160e01b5f52602260045260245ffd5b91607f1691611cb2565b818110611ce6575050565b5f8155600101611cdb565b9190601f8111611d0057505050565b611d2a925f5260205f20906020601f840160051c83019310611d2c575b601f0160051c0190611cdb565b565b9091508190611d1d565b9092916001600160401b0381116109e857611d5b81611d558454611ca3565b84611cf1565b5f601f8211600114611d99578190611d8a9394955f92611d8e575b50508160011b915f199060031b1c19161790565b9055565b013590505f80611d76565b601f19821694611dac845f5260205f2090565b915f5b878110611de6575083600195969710611dcd575b505050811b019055565b01355f19600384901b60f8161c191690555f8080611dc3565b90926020600181928686013581550194019101611daf565b81604051928392833781015f815203902090565b908060209392818452848401375f828201840152601f01601f1916010190565b9290611e4b9061078b9593604086526040860191611e12565b926020818503910152611e12565b60405190611e68602083610faa565b5f8252565b3d15611e97573d90611e7e82610fcb565b91611e8c6040519384610faa565b82523d5f602084013e565b606090565b634e487b7160e01b5f52603260045260245ffd5b8051601f1015611ec057603f0190565b611e9c565b611f21611f1483611efe846110ff611ee76104a1835f525f60205260405f2090565b6001600160401b03165f52600860205260405f2090565b9063ffffffff60e01b165f5260205260405f2090565b546001600160a01b031690565b6001600160a01b03811661207d5750611f45611f45611142610b34611f5194612305565b6001600160a01b031690565b906001600160a01b0382161561204a576040516301ffc9a760e01b6020820181815260248301919091525f91829190611f8d8160448101610519565b5190855afa611f9a611e6d565b9015908115612070575b8115612050575b5061204a576040516301ffc9a760e01b602082019081526001600160e01b031990921660248201525f918291611fe48160448101610519565b5190845afa611ff1611e6d565b901590811561203d575b811561200f575b5061200a5790565b505f90565b6001600160f81b031991506120359061202790611eb0565b516001600160f81b03191690565b16155f612002565b9050602081511090611ffb565b50505f90565b6001600160f81b031991506120689061202790611eb0565b16155f611fab565b9050602081511090611fa4565b91505090565b61078b9054611ca3565b5f929181549161209c83611ca3565b80835292600181169081156120f157506001146120b857505050565b5f9081526020812093945091925b8383106120d7575060209250010190565b6001816020929493945483858701015201910191906120c6565b915050602093945060ff929192191683830152151560051b010190565b90611d2a612122926040519384809261208d565b0383610faa565b61215d90929192805f525f6020526001600160401b0360405f2054165f52600160205260405f20905f5260205260405f2090565b60015b801515806121ce575b156121be5783811615158061219c575b6121855760011b612160565b9250611c388361078b92905f5260205260405f2090565b506121b76121b28284905f5260205260405f2090565b612083565b1515612179565b505090506121ca611e59565b5f91565b5083811115612169565b91602061078b938181520191611e12565b9060208251920151916bffffffffffffffffffffffff198316926014821061220f575050565b6bffffffffffffffffffffffff1960149290920360031b82901b16169150565b91909182516001600160401b0381116109e85761225081611d558454611ca3565b6020601f821160011461228a578190611d8a9394955f9261227f5750508160011b915f199060031b1c19161790565b015190505f80611d76565b601f1982169061229d845f5260205f2090565b915f5b8181106122d6575095836001959697106122be57505050811b019055565b01515f1960f88460031b161c191690555f8080611dc3565b9192602060018192868b0151815501940192016122a0565b91611e4b61078b949260408552604085019061074f565b9061234f91805f525f6020526001600160401b0360405f2054165f52600260205260405f20905f5260205260405f20603c5f528060205261235660405f206040519485809261208d565b0384610faa565b82511580612384575b6123665750565b610cda91925061142a61078b9163800000005f5260205260405f2090565b5063ffffffff612394603c612b5a565b16151561235f565b90816020910312610240575161078b816111a4565b6040513d5f823e3d90fd5b337f00000000000000000000000000000000000000000000000000000000000000006001600160a01b0316148015612585575b61257f576040516302571be360e01b8152600481018290526020816024816001600160a01b037f0000000000000000000000000000000000000000000000000000000000000000165afa90811561255b575f91612560575b506001600160a01b037f0000000000000000000000000000000000000000000000000000000000000000811690821681146124f5575b506001600160a01b03811633149182156124cc575b821561249d57505090565b61078b9250906112246124c5926110ff339360018060a01b03165f52600d60205260405f2090565b5460ff1690565b91506124ef6124c5336112248460018060a01b03165f52600c60205260405f2090565b91612492565b6040516331a9108f60e11b8152600481018490529150602090829060249082905afa90811561255b575f9161252c575b505f61247d565b61254e915060203d602011612554575b6125468183610faa565b81019061239c565b5f612525565b503d61253c565b6123b1565b612579915060203d602011612554576125468183610faa565b5f612447565b50600190565b50337f00000000000000000000000000000000000000000000000000000000000000006001600160a01b0316146123ef565b9060405160e08101908082106001600160401b038311176109e857611d2a916040525f60208201525f60408201525f60608201525f60808201525f60a0820152809381525f60c082015261263d565b9060028201809211610b0e57565b9060048201809211610b0e57565b9060018201809211610b0e57565b91908201809211610b0e57565b60c0810190815190816020820152805180518310156126f5578261266091612b7e565b8201809211610b0e5760a06126cf6126af612696856126916126866126f1988851612be9565b61ffff166040880152565b612606565b6126916126a4828751612be9565b61ffff166060870152565b6126ca6126bd828651612c0b565b63ffffffff166080860152565b612614565b916126e76126e161056d858451612be9565b93612606565b9182910152612630565b9052565b50505050565b61078b90602081519101516127108183612b7e565b91612c2d565b908151815190818114938461272d575b5050505090565b602092939450820120920120145f808080612726565b61ffff1661ffff8114610b0e5760010190565b61ffff61276f61078b959360608452606084019061074f565b93166020820152604081840391015261074f565b61ffff168015610b0e575f190190565b61279d8154611ca3565b90816127a7575050565b81601f5f93116001146127b8575055565b818352602083206127d491601f0160051c810190600101611cdb565b808252602082209081548360011b9084198560031b1c191617905555565b9061ffff61280d60209295949560408552604085019061074f565b9416910152565b96919461282d9088949792958651602088012098612c2d565b9015612938575083612892866110ff856110ff866128a36121b2886128927f03528ed0c2a3ebc993b12ce3c16bb382f9c7d88ef7d8a1bf290eaf35955a12079f6110ff6128c39e6110ff6128be9f6001600160401b03165f52600660205260405f2090565b9061ffff165f5260205260405f2090565b6128d7576001600160401b03165f52600660205260405f2090565b612793565b6128d2604051928392836127f2565b0390a2565b6129216128fd866110ff866110ff866001600160401b03165f52600760205260405f2090565b61291161290c825461ffff1690565b612783565b61ffff1661ffff19825416179055565b6001600160401b03165f52600660205260405f2090565b908161110c86612892896110ff886110ff8861299e7f52a608b3303a48862d07a73d82fa221318c0027fbbcfb1b2329bface3f19ff2b9f886128926128d29f926110ff6129ba9f946110ff6121b2966001600160401b03165f52600660205260405f2090565b156129c6576001600160401b03165f52600660205260405f2090565b60405193849384612756565b6129216129ec866110ff866110ff866001600160401b03165f52600760205260405f2090565b6129116129fb825461ffff1690565b612743565b80519060c060a082015191015190808203918211610b0e5761078b92612c2d565b63ffffffff612a30603c612b5a565b16151590565b63800000008114908115612a48575090565b63ffffffff9150612a3090612b5a565b6001600160401b0381116109e85760051b60200190565b9190811015611ec05760051b81013590601e19813603018212156102405701908135916001600160401b038311610240576020018236038113610240579190565b906024116102405760040190602090565b359060208110612acf575090565b5f199060200360031b1b1690565b15612ae457565b60405162461bcd60e51b815260206004820152603460248201527f6d756c746963616c6c3a20416c6c207265636f726473206d7573742068617665604482015273040c240dac2e8c6d0d2dcce40dcc2dacad0c2e6d60631b6064820152608490fd5b8051821015611ec05760209160051b010190565b603c811461257f57638000000018638000000081105f1461200a5763ffffffff1690565b81905b8051831015612bd55760018301808411610b0e57612b9f9082612cce565b8051831015611ec0578083016020015160f81c92612bc690612bc085612622565b90612630565b92612b81575061078b91611c77565b634e487b7160e01b5f52600160045260245ffd5b906002810191828211610b0e57612c0260209382612cce565b01015160f01c90565b906004810191828211610b0e57612c2460209382612cce565b01015160e01c90565b90929192612c3a84610fcb565b612c476040519182610faa565b848152612c5385610fcb565b602082019290601f1901368437819580820192838311610b0e5781612c8391612c7e60209689612cce565b612cce565b93010190915b601f8111612cb75780612c9b57505050565b60015f199160200360031b1b0190811990511690825116179052565b8151835260209283019290910190601f1901612c89565b5190818111612cdb575050565b638a3c1cfb60e01b5f5260045260245260445ffdfea164736f6c634300081c000a",
  "linkReferences": {},
  "deployedLinkReferences": {},
  "immutableReferences": {
    "1972": [
      {
        "length": 32,
        "start": 9239
      }
    ],
    "1975": [
      {
        "length": 32,
        "start": 9298
      }
    ],
    "1977": [
      {
        "length": 32,
        "start": 9151
      }
    ],
    "1979": [
      {
        "length": 32,
        "start": 9609
      }
    ]
  },
  "inputSourceName": "project/contracts/upstream/PublicResolver.sol",
  "buildInfoId": "solc-0_8_28-6fb0a565f7d9f20f44c274883d8b6236f1bc9001"
}