{
  "_format": "hh3-artifact-1",
  "contractName": "GNSRegistrarController",
  "sourceName": "contracts/GNSRegistrarController.sol",
  "abi": [
    {
      "inputs": [
        {
          "internalType": "contract BaseRegistrarImplementation",
          "name": "_baseRegistrar",
          "type": "address"
        },
        {
          "internalType": "contract GNSPriceBook",
          "name": "_priceBook",
          "type": "address"
        },
        {
          "internalType": "uint256",
          "name": "_minCommitmentAge",
          "type": "uint256"
        },
        {
          "internalType": "uint256",
          "name": "_maxCommitmentAge",
          "type": "uint256"
        },
        {
          "internalType": "contract IReverseRegistrar",
          "name": "_reverseRegistrar",
          "type": "address"
        },
        {
          "internalType": "contract ENS",
          "name": "_ens",
          "type": "address"
        },
        {
          "internalType": "address",
          "name": "_treasury",
          "type": "address"
        }
      ],
      "stateMutability": "nonpayable",
      "type": "constructor"
    },
    {
      "inputs": [
        {
          "internalType": "bytes32",
          "name": "commitment",
          "type": "bytes32"
        }
      ],
      "name": "CommitmentNotFound",
      "type": "error"
    },
    {
      "inputs": [
        {
          "internalType": "bytes32",
          "name": "commitment",
          "type": "bytes32"
        },
        {
          "internalType": "uint256",
          "name": "minimumCommitmentTimestamp",
          "type": "uint256"
        },
        {
          "internalType": "uint256",
          "name": "currentTimestamp",
          "type": "uint256"
        }
      ],
      "name": "CommitmentTooNew",
      "type": "error"
    },
    {
      "inputs": [
        {
          "internalType": "bytes32",
          "name": "commitment",
          "type": "bytes32"
        },
        {
          "internalType": "uint256",
          "name": "maximumCommitmentTimestamp",
          "type": "uint256"
        },
        {
          "internalType": "uint256",
          "name": "currentTimestamp",
          "type": "uint256"
        }
      ],
      "name": "CommitmentTooOld",
      "type": "error"
    },
    {
      "inputs": [
        {
          "internalType": "uint256",
          "name": "duration",
          "type": "uint256"
        }
      ],
      "name": "DurationTooShort",
      "type": "error"
    },
    {
      "inputs": [
        {
          "internalType": "uint256",
          "name": "length",
          "type": "uint256"
        }
      ],
      "name": "InvalidLabelLength",
      "type": "error"
    },
    {
      "inputs": [
        {
          "internalType": "address",
          "name": "treasury",
          "type": "address"
        }
      ],
      "name": "InvalidTreasury",
      "type": "error"
    },
    {
      "inputs": [],
      "name": "MaxCommitmentAgeTooHigh",
      "type": "error"
    },
    {
      "inputs": [],
      "name": "MaxCommitmentAgeTooLow",
      "type": "error"
    },
    {
      "inputs": [
        {
          "internalType": "uint256",
          "name": "actualPaymentAmount",
          "type": "uint256"
        },
        {
          "internalType": "uint256",
          "name": "maxPaymentAmount",
          "type": "uint256"
        }
      ],
      "name": "MaxPaymentExceeded",
      "type": "error"
    },
    {
      "inputs": [
        {
          "internalType": "string",
          "name": "label",
          "type": "string"
        }
      ],
      "name": "NameNotAvailable",
      "type": "error"
    },
    {
      "inputs": [],
      "name": "ResolverRequiredForReverseRecord",
      "type": "error"
    },
    {
      "inputs": [],
      "name": "ResolverRequiredWhenDataSupplied",
      "type": "error"
    },
    {
      "inputs": [
        {
          "internalType": "bytes32",
          "name": "commitment",
          "type": "bytes32"
        }
      ],
      "name": "UnexpiredCommitmentExists",
      "type": "error"
    },
    {
      "anonymous": false,
      "inputs": [
        {
          "indexed": false,
          "internalType": "string",
          "name": "label",
          "type": "string"
        },
        {
          "indexed": true,
          "internalType": "bytes32",
          "name": "labelhash",
          "type": "bytes32"
        },
        {
          "indexed": true,
          "internalType": "address",
          "name": "owner",
          "type": "address"
        },
        {
          "indexed": true,
          "internalType": "address",
          "name": "paymentToken",
          "type": "address"
        },
        {
          "indexed": false,
          "internalType": "uint256",
          "name": "cost",
          "type": "uint256"
        },
        {
          "indexed": false,
          "internalType": "uint256",
          "name": "expires",
          "type": "uint256"
        }
      ],
      "name": "NameRegistered",
      "type": "event"
    },
    {
      "anonymous": false,
      "inputs": [
        {
          "indexed": false,
          "internalType": "string",
          "name": "label",
          "type": "string"
        },
        {
          "indexed": true,
          "internalType": "bytes32",
          "name": "labelhash",
          "type": "bytes32"
        },
        {
          "indexed": true,
          "internalType": "address",
          "name": "paymentToken",
          "type": "address"
        },
        {
          "indexed": false,
          "internalType": "uint256",
          "name": "cost",
          "type": "uint256"
        },
        {
          "indexed": false,
          "internalType": "uint256",
          "name": "expires",
          "type": "uint256"
        }
      ],
      "name": "NameRenewed",
      "type": "event"
    },
    {
      "anonymous": false,
      "inputs": [
        {
          "indexed": true,
          "internalType": "address",
          "name": "previousOwner",
          "type": "address"
        },
        {
          "indexed": true,
          "internalType": "address",
          "name": "newOwner",
          "type": "address"
        }
      ],
      "name": "OwnershipTransferred",
      "type": "event"
    },
    {
      "anonymous": false,
      "inputs": [
        {
          "indexed": true,
          "internalType": "address",
          "name": "treasury",
          "type": "address"
        }
      ],
      "name": "TreasuryUpdated",
      "type": "event"
    },
    {
      "inputs": [],
      "name": "MIN_REGISTRATION_DURATION",
      "outputs": [
        {
          "internalType": "uint256",
          "name": "",
          "type": "uint256"
        }
      ],
      "stateMutability": "view",
      "type": "function"
    },
    {
      "inputs": [
        {
          "internalType": "string",
          "name": "label",
          "type": "string"
        }
      ],
      "name": "available",
      "outputs": [
        {
          "internalType": "bool",
          "name": "isAvailable",
          "type": "bool"
        }
      ],
      "stateMutability": "view",
      "type": "function"
    },
    {
      "inputs": [],
      "name": "baseNode",
      "outputs": [
        {
          "internalType": "bytes32",
          "name": "",
          "type": "bytes32"
        }
      ],
      "stateMutability": "view",
      "type": "function"
    },
    {
      "inputs": [],
      "name": "baseRegistrar",
      "outputs": [
        {
          "internalType": "contract BaseRegistrarImplementation",
          "name": "",
          "type": "address"
        }
      ],
      "stateMutability": "view",
      "type": "function"
    },
    {
      "inputs": [
        {
          "internalType": "bytes32",
          "name": "commitment",
          "type": "bytes32"
        }
      ],
      "name": "commit",
      "outputs": [],
      "stateMutability": "nonpayable",
      "type": "function"
    },
    {
      "inputs": [
        {
          "internalType": "bytes32",
          "name": "",
          "type": "bytes32"
        }
      ],
      "name": "commitments",
      "outputs": [
        {
          "internalType": "uint256",
          "name": "",
          "type": "uint256"
        }
      ],
      "stateMutability": "view",
      "type": "function"
    },
    {
      "inputs": [],
      "name": "ens",
      "outputs": [
        {
          "internalType": "contract ENS",
          "name": "",
          "type": "address"
        }
      ],
      "stateMutability": "view",
      "type": "function"
    },
    {
      "inputs": [],
      "name": "interfaceId",
      "outputs": [
        {
          "internalType": "bytes4",
          "name": "id",
          "type": "bytes4"
        }
      ],
      "stateMutability": "pure",
      "type": "function"
    },
    {
      "inputs": [
        {
          "components": [
            {
              "internalType": "string",
              "name": "label",
              "type": "string"
            },
            {
              "internalType": "address",
              "name": "owner",
              "type": "address"
            },
            {
              "internalType": "uint256",
              "name": "duration",
              "type": "uint256"
            },
            {
              "internalType": "bytes32",
              "name": "secret",
              "type": "bytes32"
            },
            {
              "internalType": "address",
              "name": "resolver",
              "type": "address"
            },
            {
              "internalType": "bytes[]",
              "name": "data",
              "type": "bytes[]"
            },
            {
              "internalType": "uint8",
              "name": "reverseRecord",
              "type": "uint8"
            },
            {
              "internalType": "bytes32",
              "name": "referrer",
              "type": "bytes32"
            }
          ],
          "internalType": "struct IETHRegistrarController.Registration",
          "name": "registration",
          "type": "tuple"
        },
        {
          "components": [
            {
              "internalType": "address",
              "name": "paymentToken",
              "type": "address"
            },
            {
              "internalType": "uint256",
              "name": "maxPaymentAmount",
              "type": "uint256"
            }
          ],
          "internalType": "struct IGNSRegistrarController.PaymentRequest",
          "name": "payment",
          "type": "tuple"
        }
      ],
      "name": "makeCommitment",
      "outputs": [
        {
          "internalType": "bytes32",
          "name": "commitment",
          "type": "bytes32"
        }
      ],
      "stateMutability": "pure",
      "type": "function"
    },
    {
      "inputs": [],
      "name": "maxCommitmentAge",
      "outputs": [
        {
          "internalType": "uint256",
          "name": "",
          "type": "uint256"
        }
      ],
      "stateMutability": "view",
      "type": "function"
    },
    {
      "inputs": [],
      "name": "minCommitmentAge",
      "outputs": [
        {
          "internalType": "uint256",
          "name": "",
          "type": "uint256"
        }
      ],
      "stateMutability": "view",
      "type": "function"
    },
    {
      "inputs": [],
      "name": "owner",
      "outputs": [
        {
          "internalType": "address",
          "name": "",
          "type": "address"
        }
      ],
      "stateMutability": "view",
      "type": "function"
    },
    {
      "inputs": [],
      "name": "priceBook",
      "outputs": [
        {
          "internalType": "contract GNSPriceBook",
          "name": "",
          "type": "address"
        }
      ],
      "stateMutability": "view",
      "type": "function"
    },
    {
      "inputs": [
        {
          "components": [
            {
              "internalType": "string",
              "name": "label",
              "type": "string"
            },
            {
              "internalType": "address",
              "name": "owner",
              "type": "address"
            },
            {
              "internalType": "uint256",
              "name": "duration",
              "type": "uint256"
            },
            {
              "internalType": "bytes32",
              "name": "secret",
              "type": "bytes32"
            },
            {
              "internalType": "address",
              "name": "resolver",
              "type": "address"
            },
            {
              "internalType": "bytes[]",
              "name": "data",
              "type": "bytes[]"
            },
            {
              "internalType": "uint8",
              "name": "reverseRecord",
              "type": "uint8"
            },
            {
              "internalType": "bytes32",
              "name": "referrer",
              "type": "bytes32"
            }
          ],
          "internalType": "struct IETHRegistrarController.Registration",
          "name": "registration",
          "type": "tuple"
        },
        {
          "components": [
            {
              "internalType": "address",
              "name": "paymentToken",
              "type": "address"
            },
            {
              "internalType": "uint256",
              "name": "maxPaymentAmount",
              "type": "uint256"
            }
          ],
          "internalType": "struct IGNSRegistrarController.PaymentRequest",
          "name": "payment",
          "type": "tuple"
        }
      ],
      "name": "register",
      "outputs": [],
      "stateMutability": "nonpayable",
      "type": "function"
    },
    {
      "inputs": [
        {
          "components": [
            {
              "internalType": "string",
              "name": "label",
              "type": "string"
            },
            {
              "internalType": "address",
              "name": "owner",
              "type": "address"
            },
            {
              "internalType": "uint256",
              "name": "duration",
              "type": "uint256"
            },
            {
              "internalType": "bytes32",
              "name": "secret",
              "type": "bytes32"
            },
            {
              "internalType": "address",
              "name": "resolver",
              "type": "address"
            },
            {
              "internalType": "bytes[]",
              "name": "data",
              "type": "bytes[]"
            },
            {
              "internalType": "uint8",
              "name": "reverseRecord",
              "type": "uint8"
            },
            {
              "internalType": "bytes32",
              "name": "referrer",
              "type": "bytes32"
            }
          ],
          "internalType": "struct IETHRegistrarController.Registration",
          "name": "registration",
          "type": "tuple"
        },
        {
          "components": [
            {
              "internalType": "address",
              "name": "paymentToken",
              "type": "address"
            },
            {
              "internalType": "uint256",
              "name": "maxPaymentAmount",
              "type": "uint256"
            }
          ],
          "internalType": "struct IGNSRegistrarController.PaymentRequest",
          "name": "payment",
          "type": "tuple"
        },
        {
          "components": [
            {
              "internalType": "uint256",
              "name": "value",
              "type": "uint256"
            },
            {
              "internalType": "uint256",
              "name": "deadline",
              "type": "uint256"
            },
            {
              "internalType": "uint8",
              "name": "v",
              "type": "uint8"
            },
            {
              "internalType": "bytes32",
              "name": "r",
              "type": "bytes32"
            },
            {
              "internalType": "bytes32",
              "name": "s",
              "type": "bytes32"
            }
          ],
          "internalType": "struct IGNSRegistrarController.PermitParams",
          "name": "permit",
          "type": "tuple"
        }
      ],
      "name": "registerWithPermit",
      "outputs": [],
      "stateMutability": "nonpayable",
      "type": "function"
    },
    {
      "inputs": [
        {
          "internalType": "string",
          "name": "label",
          "type": "string"
        },
        {
          "components": [
            {
              "internalType": "address",
              "name": "paymentToken",
              "type": "address"
            },
            {
              "internalType": "uint256",
              "name": "maxPaymentAmount",
              "type": "uint256"
            }
          ],
          "internalType": "struct IGNSRegistrarController.PaymentRequest",
          "name": "payment",
          "type": "tuple"
        },
        {
          "internalType": "uint256",
          "name": "duration",
          "type": "uint256"
        }
      ],
      "name": "renew",
      "outputs": [],
      "stateMutability": "nonpayable",
      "type": "function"
    },
    {
      "inputs": [
        {
          "internalType": "string",
          "name": "label",
          "type": "string"
        },
        {
          "components": [
            {
              "internalType": "address",
              "name": "paymentToken",
              "type": "address"
            },
            {
              "internalType": "uint256",
              "name": "maxPaymentAmount",
              "type": "uint256"
            }
          ],
          "internalType": "struct IGNSRegistrarController.PaymentRequest",
          "name": "payment",
          "type": "tuple"
        },
        {
          "internalType": "uint256",
          "name": "duration",
          "type": "uint256"
        },
        {
          "components": [
            {
              "internalType": "uint256",
              "name": "value",
              "type": "uint256"
            },
            {
              "internalType": "uint256",
              "name": "deadline",
              "type": "uint256"
            },
            {
              "internalType": "uint8",
              "name": "v",
              "type": "uint8"
            },
            {
              "internalType": "bytes32",
              "name": "r",
              "type": "bytes32"
            },
            {
              "internalType": "bytes32",
              "name": "s",
              "type": "bytes32"
            }
          ],
          "internalType": "struct IGNSRegistrarController.PermitParams",
          "name": "permit",
          "type": "tuple"
        }
      ],
      "name": "renewWithPermit",
      "outputs": [],
      "stateMutability": "nonpayable",
      "type": "function"
    },
    {
      "inputs": [],
      "name": "renounceOwnership",
      "outputs": [],
      "stateMutability": "nonpayable",
      "type": "function"
    },
    {
      "inputs": [
        {
          "internalType": "string",
          "name": "label",
          "type": "string"
        },
        {
          "internalType": "address",
          "name": "paymentToken",
          "type": "address"
        },
        {
          "internalType": "uint256",
          "name": "duration",
          "type": "uint256"
        }
      ],
      "name": "rentPrice",
      "outputs": [
        {
          "internalType": "uint256",
          "name": "amount",
          "type": "uint256"
        }
      ],
      "stateMutability": "view",
      "type": "function"
    },
    {
      "inputs": [],
      "name": "reverseRegistrar",
      "outputs": [
        {
          "internalType": "contract IReverseRegistrar",
          "name": "",
          "type": "address"
        }
      ],
      "stateMutability": "view",
      "type": "function"
    },
    {
      "inputs": [
        {
          "internalType": "address",
          "name": "newTreasury",
          "type": "address"
        }
      ],
      "name": "setTreasury",
      "outputs": [],
      "stateMutability": "nonpayable",
      "type": "function"
    },
    {
      "inputs": [
        {
          "internalType": "bytes4",
          "name": "interfaceId_",
          "type": "bytes4"
        }
      ],
      "name": "supportsInterface",
      "outputs": [
        {
          "internalType": "bool",
          "name": "",
          "type": "bool"
        }
      ],
      "stateMutability": "view",
      "type": "function"
    },
    {
      "inputs": [
        {
          "internalType": "address",
          "name": "newOwner",
          "type": "address"
        }
      ],
      "name": "transferOwnership",
      "outputs": [],
      "stateMutability": "nonpayable",
      "type": "function"
    },
    {
      "inputs": [],
      "name": "treasury",
      "outputs": [
        {
          "internalType": "address",
          "name": "",
          "type": "address"
        }
      ],
      "stateMutability": "view",
      "type": "function"
    },
    {
      "inputs": [
        {
          "internalType": "string",
          "name": "label",
          "type": "string"
        }
      ],
      "name": "valid",
      "outputs": [
        {
          "internalType": "bool",
          "name": "isValid",
          "type": "bool"
        }
      ],
      "stateMutability": "pure",
      "type": "function"
    }
  ],
  "bytecode": "0x610160806040523461025e5760e0816128a6803803809161002082856102a6565b83398101031261025e5780516001600160a01b0381169081810361025e576020830151916001600160a01b038316830361025e5760408401519160608501519360808601519160018060a01b038316830361025e5760a0870151966001600160a01b038816880361025e5760c001516001600160a01b038116979088900361025e575f8054336001600160a01b0319821681178355604051979290916001600160a01b0316907f8be0079c531659141344cd1fd0a4f28419497f9722a3daafe3b4186f6b6457e09080a38688111561029757428811610288578815610275576020948694600494869460805260a05260c05260e052630ddf7fcb60e41b82525afa90811561026a575f91610234575b50610100526101205261014052600180546001600160a01b0319169190911790556040516125c890816102de8239608051818181610bc1015281816111790152611581015260a05181818161077901528181610a2f01528181610b3f015281816113c701528181611500015281816121da0152612382015260c0518181816101cb0152818161055d015281816108c601528181611267015261210e015260e05181818161073401528181610d7901526116e101526101005181818161042801528181610b8601526115460152610120518181816106b30152818161095201526112ed0152610140518181816103460152818161052401528181610984015261131f0152f35b90506020813d602011610262575b8161024f602093836102a6565b8101031261025e57515f61012f565b5f80fd5b3d9150610242565b6040513d5f823e3d90fd5b886312b31bfd60e11b5f5260045260245ffd5b630b4319e560e21b5f5260045ffd5b6307cb550760e31b5f5260045ffd5b601f909101601f19168101906001600160401b038211908210176102c957604052565b634e487b7160e01b5f52604160045260245ffdfe6080806040526004361015610012575f80fd5b5f905f3560e01c90816301ffc9a714611a265750806329d4a221146111a85780633f15457f1461116357806361d027b31461113a5780636cfab867146108615780636d604d3a14610802578063715018a6146107a857806374f0456514610763578063808698531461071e578063839df945146106f45780638a95b09f146106d65780638d839ffe1461069b5780638da5cb5b146106745780639791c097146106285780639b53a07c14610606578063a64d0cd4146105e3578063aeb8ce9b1461058c578063c1b7bf7414610547578063ce1e09c01461050c578063cf2f028d1461044b578063ddf7fcb014610410578063f0f4426014610394578063f14fcbc81461031f578063f2fde38b146102595763f6eba50614610131575f80fd5b34610256576060366003190112610256576004356001600160401b03811161025457610161903690600401611ad3565b60243591906001600160a01b0383168303610250579161019161018c6020936101c796953691611e21565b61240d565b604051639e8cc04b60e01b81526001600160a01b0390921660048301526024820152604480359082015292839081906064820190565b03817f00000000000000000000000000000000000000000000000000000000000000006001600160a01b03165afa908115610244579061020d575b602090604051908152f35b506020813d60201161023c575b8161022760209383611b83565b810103126102385760209051610202565b5f80fd5b3d915061021a565b604051903d90823e3d90fd5b8380fd5b505b80fd5b503461025657602036600319011261025657610273611b00565b61027b612294565b6001600160a01b031680156102cb5781546001600160a01b03198116821783556001600160a01b03167f8be0079c531659141344cd1fd0a4f28419497f9722a3daafe3b4186f6b6457e08380a380f35b60405162461bcd60e51b815260206004820152602660248201527f4f776e61626c653a206e6577206f776e657220697320746865207a65726f206160448201526564647265737360d01b6064820152608490fd5b503461025657602036600319011261025657600435808252600260205261036b60408320547f000000000000000000000000000000000000000000000000000000000000000090611e57565b421115610382578152600260205242604082205580f35b630a059d7160e01b8252600452602490fd5b5034610256576020366003190112610256576103ae611b00565b6103b6612294565b6001600160a01b031680156103fe57600180546001600160a01b031916821790557f7dae230f18360d76a040c81f050aa14eb9d6dc7901b20fc5d855e2a20fe814d18280a280f35b6312b31bfd60e11b8252600452602490fd5b503461025657806003193601126102565760206040517f00000000000000000000000000000000000000000000000000000000000000008152f35b503461025657610120366003190112610256576004356001600160401b0381116102545761047d903690600401611ad3565b906040366023190112610508576064359060a036608319011261025057816104a96104b19385846120b2565b93849261219f565b6104b9611b2a565b90604051906104c782611b54565b608435825260a435602083015260c4359260ff841684036105045761050193604084015260e4356060840152610104356080840152611ece565b80f35b8480fd5b8280fd5b503461025657806003193601126102565760206040517f00000000000000000000000000000000000000000000000000000000000000008152f35b50346102565780600319360112610256576040517f00000000000000000000000000000000000000000000000000000000000000006001600160a01b03168152602090f35b503461025657602036600319011261025657600435906001600160401b0382116102565760206105d96105c23660048601611ad3565b6105cd368284611e21565b84815191012091612346565b6040519015158152f35b5034610256578060031936011261025657604051631aa5cabb60e31b8152602090f35b503461025657602061062061061a36611a91565b90611bf5565b604051908152f35b503461025657602036600319011261025657600435906001600160401b038211610256576020600361066a61018c6106633660048801611ad3565b3691611e21565b1015604051908152f35b5034610256578060031936011261025657546040516001600160a01b039091168152602090f35b503461025657806003193601126102565760206040517f00000000000000000000000000000000000000000000000000000000000000008152f35b503461025657806003193601126102565760206040516224ea008152f35b50346102565760203660031901126102565760406020916004358152600283522054604051908152f35b50346102565780600319360112610256576040517f00000000000000000000000000000000000000000000000000000000000000006001600160a01b03168152602090f35b50346102565780600319360112610256576040517f00000000000000000000000000000000000000000000000000000000000000006001600160a01b03168152602090f35b50346102565780600319360112610256576107c1612294565b80546001600160a01b03198116825581906001600160a01b03167f8be0079c531659141344cd1fd0a4f28419497f9722a3daafe3b4186f6b6457e08280a380f35b5034610256576080366003190112610256576004356001600160401b03811161025457610833903690600401611ad3565b604036602319011261050857610854610501926064356104a98185846120b2565b61085c611b2a565b611f66565b50346102565761087036611a91565b61087981611b40565b9061088a61018c6106638580611e78565b60408051639e8cc04b60e01b81526001600160a01b039094166004850152602484019190915283013560448301819052602083806064810103817f00000000000000000000000000000000000000000000000000000000000000006001600160a01b03165afa92831561112f5785936110fb575b5060208201358084116110e457506109196106638580611e78565b602081519101206109348161092e8780611e78565b90612346565b156110b2576109438386611bf5565b808752600260205260408720547f000000000000000000000000000000000000000000000000000000000000000061097b8183611e57565b421061108d57507f000000000000000000000000000000000000000000000000000000000000000090426109af8383611e57565b111561104d5750508652600260205260408620869055608085016001600160a01b036109da82611b40565b16610b135750906020610a2a916109f2828801611b40565b604051633f2891eb60e21b8152600481018690526001600160a01b039091166024820152604481019190915291829081906064820190565b0381897f00000000000000000000000000000000000000000000000000000000000000006001600160a01b03165af1908115610b08578691610ace575b506105019461085c93925b5f51602061259c5f395f51905f526020610a98610a8f8580611e78565b92909501611b40565b94610ac6610aa588611b40565b6040516001600160a01b03918216989091169690938493918c919085611eaa565b0390a4611b40565b929190506020833d602011610b00575b81610aeb60209383611b83565b81010312610238579151909190610501610a67565b3d9150610ade565b6040513d88823e3d90fd5b604051633f2891eb60e21b81526004810183905230602482015260448101939093526001600160a01b037f00000000000000000000000000000000000000000000000000000000000000001692879060208160648185895af1908115610e07578291611018575b509360405160208101907f0000000000000000000000000000000000000000000000000000000000000000825285604082015260408152610bbc606082611b83565b5190207f00000000000000000000000000000000000000000000000000000000000000006001600160a01b0316610bf560208b01611b40565b610bfe86611b40565b823b15610dd85760405163cf40882360e01b8152600481018590526001600160a01b03928316602482015291166044820152606481018590529084908290608490829084905af190811561100d578491610ff8575b505060a08901610c63818b6122eb565b9050610e12575b5050610c7860208901611b40565b90803b15610508576040516323b872dd60e01b81523060048201526001600160a01b039290921660248301526044820185905282908290606490829084905af18015610e0757610dee575b50506001610cd360c08801612320565b16610ce9575b50906105019461085c9392610a72565b602080610cf8610d7493611b40565b610d336005610d078b80611e78565b949085604051968792848401378101640b99dbd85d60da1b838201520301601a19810185520183611b83565b604051637a806d6b60e01b8152336004820181905260248201526001600160a01b0390911660448201526080606482015292839182919060848301906123e9565b03818a7f00000000000000000000000000000000000000000000000000000000000000006001600160a01b03165af18015610de35715610cd95760209081949392943d8311610ddc575b610dc88183611b83565b81010312610dd85790915f610cd9565b8580fd5b503d610dbe565b6040513d89823e3d90fd5b81610df891611b83565b610e0357865f610cc3565b8680fd5b6040513d84823e3d90fd5b610e2e6001600160a01b03610e2687611b40565b16918b6122eb565b806040519463e32954eb60e01b8652604486019060048701526040602487015252606484019060648160051b86010192809288915b838310610fb85750505050508491838381809403925af18015610fad57610e8b575b80610c6a565b9091503d808a833e610e9d8183611b83565b810190602081830312610fa5578051906001600160401b038211610fa9570181601f82011215610fa55780516001600160401b038111610f91576020808260051b9260405190610eef83860183611b83565b8152019183010191838311610f8d57908160208d9695949301915b838310610f1a5750505050610e85565b90919293949583516001600160401b0381116102545783019186603f8401121561025457602083015191610f4d83611e06565b90610f5b6040519283611b83565b83825260408585010189106102565760208481969560408397018386015e830101528152019201908c95949392610f0a565b8b80fd5b634e487b7160e01b8b52604160045260248bfd5b8980fd5b8a80fd5b6040513d85823e3d90fd5b919395969798509193602080610fe36001936063198c8203018752610fdd8a87611ba4565b90611bd5565b97019301930190928f98979695949293610e63565b8161100291611b83565b61050857825f610c53565b6040513d86823e3d90fd5b9150506020813d602011611045575b8161103460209383611b83565b81010312610238578790515f610b7a565b3d9150611027565b82818a92156110795760649361106291611e57565b906312b7110b60e11b835260045260245242604452fd5b63836588c960e01b83526004829052602483fd5b9161109b6064938a93611e57565b906374480cc960e01b835260045260245242604452fd5b6110bc8580611e78565b6110e06040519283926308eee0fd60e31b8452602060048501526024840191611bd5565b0390fd5b6358c8c43760e01b86526004849052602452604485fd5b9092506020813d602011611127575b8161111760209383611b83565b810103126102385751915f6108fe565b3d915061110a565b6040513d87823e3d90fd5b50346102565780600319360112610256576001546040516001600160a01b039091168152602090f35b50346102565780600319360112610256576040517f00000000000000000000000000000000000000000000000000000000000000006001600160a01b03168152602090f35b503461023857610100366003190112610238576004356001600160401b03811161023857806004019061010060031982360301126102385760403660231901126102385760a0366063190112610238576024356001600160a01b0381169190829003610238576112639261122261018c6106638380611e78565b906020604484013580936040519788928392639e8cc04b60e01b845260243560048501604091949392606082019560018060a01b0316825260208201520152565b03817f00000000000000000000000000000000000000000000000000000000000000006001600160a01b03165afa948515611936575f956119f2575b506044358086116119dc57506112b86106638280611e78565b60208151910120916112ce8361092e8480611e78565b156119d2576112de602483611bf5565b805f52600260205260405f20547f00000000000000000000000000000000000000000000000000000000000000006113168183611e57565b42106119af57507f0000000000000000000000000000000000000000000000000000000000000000426113498284611e57565b11156119735750505f908152600260205260408120556001600160a01b0361137360848601611b40565b166114d45760206113c29161138a60248701611b40565b604051633f2891eb60e21b8152600481018790526001600160a01b039091166024820152604481019190915291829081906064820190565b03818a7f00000000000000000000000000000000000000000000000000000000000000006001600160a01b03165af1908115610de3578791611495575b505f51602061259c5f395f51905f529161144361142c611423602494935b80611e78565b94909701611b40565b918860405194859460018060a01b03169885611eaa565b0390a461144e611b2a565b906040519061145c82611b54565b6064358252608435602083015260a4359260ff841684036105045761050193604084015260c435606084015260e4356080840152611ece565b90506020813d6020116114cc575b816114b060209383611b83565b8101031261023857515f51602061259c5f395f51905f526113ff565b3d91506114a3565b604051633f2891eb60e21b81526004810184905230602482015260448101919091526001600160a01b037f00000000000000000000000000000000000000000000000000000000000000001691906020816064815f875af1908115611936575f91611941575b509160405160208101907f000000000000000000000000000000000000000000000000000000000000000082528560408201526040815261157c606082611b83565b5190207f00000000000000000000000000000000000000000000000000000000000000006001600160a01b03166115b560248801611b40565b6115c160848901611b40565b823b156102385760405163cf40882360e01b8152600481018590526001600160a01b039283166024820152911660448201525f6064820181905290918290608490829084905af180156119365761191f575b5090889160a4870161162581866122eb565b9050611767575b505061163a60248701611b40565b90803b15610508576040516323b872dd60e01b81523060048201526001600160a01b039290921660248301526044820186905282908290606490829084905af18015610e0757611752575b5050600161169560c48601612320565b166116bb575b5f51602061259c5f395f51905f529161144361142c61142360249461141d565b6116dc6020806116cd60848801611b40565b610d336005610d078780611e78565b03818b7f00000000000000000000000000000000000000000000000000000000000000006001600160a01b03165af180156117475761171c575b5061169b565b602090813d8311611740575b6117328183611b83565b81010312610e03575f611716565b503d611728565b6040513d8a823e3d90fd5b8161175c91611b83565b610e0357865f611685565b6117866001600160a01b0361177e60848b01611b40565b1691866122eb565b806040519463e32954eb60e01b8652604486019060048701526040602487015252606484019060648160051b86010192809288915b8383106118e55750505050508491838381809403925af18015610fad576117e3575b8061162c565b9091503d808a833e6117f58183611b83565b810190602081830312610fa5578051906001600160401b038211610fa9570181601f82011215610fa55780516001600160401b038111610f91576020808260051b926040519061184783860183611b83565b8152019183010191838311610f8d57908160208d9695949301915b83831061187257505050506117dd565b90919293949583516001600160401b0381116102545783019186603f84011215610254576020830151916118a583611e06565b906118b36040519283611b83565b83825260408585010189106102565760208481969560408397018386015e830101528152019201908c95949392611862565b91939596979850919360208061190a6001936063198c8203018752610fdd8a87611ba4565b97019301930190928f989796959492936117bb565b61192d919299505f90611b83565b5f97905f611613565b6040513d5f823e3d90fd5b90506020813d60201161196b575b8161195c60209383611b83565b8101031261023857515f61153a565b3d915061194f565b811561199c5761198291611e57565b906312b7110b60e11b5f526004526024524260445260645ffd5b8263836588c960e01b5f5260045260245ffd5b6119b891611e57565b906374480cc960e01b5f526004526024524260445260645ffd5b6110bc8280611e78565b856358c8c43760e01b5f5260045260245260445ffd5b9094506020813d602011611a1e575b81611a0e60209383611b83565b810103126102385751935f61129f565b3d9150611a01565b34610238576020366003190112610238576004359063ffffffff60e01b821680920361023857602091631aa5cabb60e31b8114908115611a80575b8115611a6f575b5015158152f35b6301ffc9a760e01b14905083611a68565b6301ffc9a760e01b81149150611a61565b906060600319830112610238576004356001600160401b0381116102385761010081840360031901126102385760409060040192602319011261023857602490565b9181601f84011215610238578235916001600160401b038311610238576020838186019501011161023857565b600435906001600160a01b038216820361023857565b35906001600160a01b038216820361023857565b6024356001600160a01b03811681036102385790565b356001600160a01b03811681036102385790565b60a081019081106001600160401b03821117611b6f57604052565b634e487b7160e01b5f52604160045260245ffd5b90601f801991011681019081106001600160401b03821117611b6f57604052565b9035601e19823603018112156102385701602081359101916001600160401b03821161023857813603831361023857565b908060209392818452848401375f828201840152601f01601f1916010190565b60a0810191611c0483836122eb565b9050151580611dea575b611ddb5760c082019160ff611c2284612320565b16151580611dbf575b611db05760408101356224ea008110611d9e5760405193602085019560608752611c6b611c588580611ba4565b61010060808a0152610180890191611bd5565b926001600160a01b03611c8060208701611b16565b1660a088015260c0870152606084013560e08701526001600160a01b03611ca960808601611b16565b1661010087015235601e1984360301811215610238578301602081359101926001600160401b038211610238578160051b90813603851361023857607f94929194198882030161012089015281815260208082019582010194835f925b848410611d6c57505050505050359160ff8316830361023857611d669360e060209260ff889616610140870152013561016085015260018060a01b03611d4b82611b16565b1660408501520135606083015203601f198101835282611b83565b51902090565b909192939496602080611d8e600193601f19868203018852610fdd8c88611ba4565b9901940194019294939190611d06565b639a71997b60e01b5f5260045260245ffd5b633ea501a560e11b5f5260045ffd5b506001600160a01b03611dd460808301611b40565b1615611c2b565b6334fd817160e21b5f5260045ffd5b506001600160a01b03611dff60808401611b40565b1615611c0e565b6001600160401b038111611b6f57601f01601f191660200190565b929192611e2d82611e06565b91611e3b6040519384611b83565b829481845281830111610238578281602093845f960137010152565b91908201809211611e6457565b634e487b7160e01b5f52601160045260245ffd5b903590601e198136030182121561023857018035906001600160401b0382116102385760200191813603831361023857565b90611ec49060409396959496606084526060840191611bd5565b9460208201520152565b825160208401516040850151606086015160809096015160ff909116956001600160a01b0385169390843b15610238575f9460e49386926040519a8b97889663d505accf60e01b885233600489015230602489015260448801526064870152608486015260a485015260c48401525af192831561193657611f5493611f56575b50611f66565b565b5f611f6091611b83565b5f611f4e565b6001546040516323b872dd60e01b602082019081523360248301526001600160a01b039283166044830152606480830195909552938152612022939092909116905f908190611fb6608486611b83565b60405194611fc5604087611b83565b602086527f5361666545524332303a206c6f772d6c6576656c2063616c6c206661696c65646020870152519082855af13d156120aa573d9161200683611e06565b926120146040519485611b83565b83523d5f602085013e612502565b8051908115918215612090575b50501561203857565b60405162461bcd60e51b815260206004820152602a60248201527f5361666545524332303a204552433230206f7065726174696f6e20646964206e6044820152691bdd081cdd58d8d9595960b21b6064820152608490fd5b6120a3925060208091830101910161232e565b5f8061202f565b606091612502565b919291602435906001600160a01b03821682036102385761018c6120da916020943691611e21565b604051639e8cc04b60e01b81526001600160a01b0390921660048301526024820152604481019390935282806064810103817f00000000000000000000000000000000000000000000000000000000000000006001600160a01b03165afa918215611936575f9261216b575b5060443582818111612156575050565b6358c8c43760e01b5f5260045260245260445ffd5b9091506020813d602011612197575b8161218760209383611b83565b810103126102385751905f612146565b3d915061217a565b9192906121ad368285611e21565b805160209182012060405163c475abff60e01b81526004810182905260248101969096529390856044815f7f00000000000000000000000000000000000000000000000000000000000000006001600160a01b03165af1948515611936575f95612260575b506024356001600160a01b03811695868203610238577f42ad0fb3f431843882fafa6483115d093f86443f4952c2c75bd298aa3e8531de9461225b925060405194859485611eaa565b0390a3565b9094506020813d60201161228c575b8161227c60209383611b83565b810103126102385751935f612212565b3d915061226f565b5f546001600160a01b031633036122a757565b606460405162461bcd60e51b815260206004820152602060248201527f4f776e61626c653a2063616c6c6572206973206e6f7420746865206f776e65726044820152fd5b903590601e198136030182121561023857018035906001600160401b03821161023857602001918160051b3603831361023857565b3560ff811681036102385790565b90816020910312610238575180151581036102385790565b61018c612357916003933691611e21565b10159081612363575090565b6040516312dc929d60e31b8152600481019190915290506020816024817f00000000000000000000000000000000000000000000000000000000000000006001600160a01b03165afa908115611936575f916123bd575090565b6123df915060203d6020116123e2575b6123d78183611b83565b81019061232e565b90565b503d6123cd565b805180835260209291819084018484015e5f828201840152601f01601f1916010190565b5f8151915f915b838110612422575050905090565b81518110156124ee57818101602001516001600160f81b031916600160ff1b811015612467575060018101809111611e6457915b5f198114611e645760010191612414565b600760fd1b811015612485575060028101809111611e645791612456565b600f60fc1b8110156124a3575060038101809111611e645791612456565b601f60fb1b8110156124c1575060048101809111611e645791612456565b603f60fa1b11156124dd5760058101809111611e645791612456565b60068101809111611e645791612456565b634e487b7160e01b5f52603260045260245ffd5b919290156125645750815115612516575090565b3b1561251f5790565b60405162461bcd60e51b815260206004820152601d60248201527f416464726573733a2063616c6c20746f206e6f6e2d636f6e74726163740000006044820152606490fd5b8251909150156125775750805190602001fd5b60405162461bcd60e51b8152602060048201529081906110e09060248301906123e956fe91320868493f5723a1155e47068ada28879e9eb1b0559a66b325c65332489e28a164736f6c634300081c000a",
  "linkReferences": {},
  "deployedLinkReferences": {},
  "immutableReferences": {
    "5280": [
      {
        "length": 32,
        "start": 3009
      },
      {
        "length": 32,
        "start": 4473
      },
      {
        "length": 32,
        "start": 5505
      }
    ],
    "5284": [
      {
        "length": 32,
        "start": 1913
      },
      {
        "length": 32,
        "start": 2607
      },
      {
        "length": 32,
        "start": 2879
      },
      {
        "length": 32,
        "start": 5063
      },
      {
        "length": 32,
        "start": 5376
      },
      {
        "length": 32,
        "start": 8666
      },
      {
        "length": 32,
        "start": 9090
      }
    ],
    "5288": [
      {
        "length": 32,
        "start": 459
      },
      {
        "length": 32,
        "start": 1373
      },
      {
        "length": 32,
        "start": 2246
      },
      {
        "length": 32,
        "start": 4711
      },
      {
        "length": 32,
        "start": 8462
      }
    ],
    "5292": [
      {
        "length": 32,
        "start": 1844
      },
      {
        "length": 32,
        "start": 3449
      },
      {
        "length": 32,
        "start": 5857
      }
    ],
    "5295": [
      {
        "length": 32,
        "start": 1064
      },
      {
        "length": 32,
        "start": 2950
      },
      {
        "length": 32,
        "start": 5446
      }
    ],
    "5298": [
      {
        "length": 32,
        "start": 1715
      },
      {
        "length": 32,
        "start": 2386
      },
      {
        "length": 32,
        "start": 4845
      }
    ],
    "5301": [
      {
        "length": 32,
        "start": 838
      },
      {
        "length": 32,
        "start": 1316
      },
      {
        "length": 32,
        "start": 2436
      },
      {
        "length": 32,
        "start": 4895
      }
    ]
  },
  "inputSourceName": "project/contracts/GNSRegistrarController.sol",
  "buildInfoId": "solc-0_8_28-57979f790ce8048402003e5311331354f3757b51"
}