{
  "_format": "hh3-artifact-1",
  "contractName": "GNSPriceBook",
  "sourceName": "contracts/GNSPriceBook.sol",
  "abi": [
    {
      "inputs": [
        {
          "internalType": "uint256",
          "name": "length",
          "type": "uint256"
        }
      ],
      "name": "InvalidLabelLength",
      "type": "error"
    },
    {
      "inputs": [
        {
          "internalType": "address",
          "name": "token",
          "type": "address"
        }
      ],
      "name": "InvalidPaymentToken",
      "type": "error"
    },
    {
      "inputs": [
        {
          "internalType": "address",
          "name": "token",
          "type": "address"
        }
      ],
      "name": "UnsupportedPaymentToken",
      "type": "error"
    },
    {
      "inputs": [],
      "name": "ZeroTokenAddress",
      "type": "error"
    },
    {
      "anonymous": false,
      "inputs": [
        {
          "indexed": true,
          "internalType": "address",
          "name": "previousOwner",
          "type": "address"
        },
        {
          "indexed": true,
          "internalType": "address",
          "name": "newOwner",
          "type": "address"
        }
      ],
      "name": "OwnershipTransferred",
      "type": "event"
    },
    {
      "anonymous": false,
      "inputs": [
        {
          "indexed": true,
          "internalType": "address",
          "name": "token",
          "type": "address"
        },
        {
          "indexed": false,
          "internalType": "uint256",
          "name": "price3",
          "type": "uint256"
        },
        {
          "indexed": false,
          "internalType": "uint256",
          "name": "price4",
          "type": "uint256"
        },
        {
          "indexed": false,
          "internalType": "uint256",
          "name": "price5Plus",
          "type": "uint256"
        }
      ],
      "name": "TokenConfigured",
      "type": "event"
    },
    {
      "anonymous": false,
      "inputs": [
        {
          "indexed": true,
          "internalType": "address",
          "name": "token",
          "type": "address"
        }
      ],
      "name": "TokenDisabled",
      "type": "event"
    },
    {
      "inputs": [],
      "name": "YEAR",
      "outputs": [
        {
          "internalType": "uint256",
          "name": "",
          "type": "uint256"
        }
      ],
      "stateMutability": "view",
      "type": "function"
    },
    {
      "inputs": [
        {
          "internalType": "address",
          "name": "token",
          "type": "address"
        }
      ],
      "name": "disableToken",
      "outputs": [],
      "stateMutability": "nonpayable",
      "type": "function"
    },
    {
      "inputs": [
        {
          "internalType": "address",
          "name": "token",
          "type": "address"
        }
      ],
      "name": "isSupported",
      "outputs": [
        {
          "internalType": "bool",
          "name": "supported",
          "type": "bool"
        }
      ],
      "stateMutability": "view",
      "type": "function"
    },
    {
      "inputs": [],
      "name": "owner",
      "outputs": [
        {
          "internalType": "address",
          "name": "",
          "type": "address"
        }
      ],
      "stateMutability": "view",
      "type": "function"
    },
    {
      "inputs": [
        {
          "internalType": "address",
          "name": "token",
          "type": "address"
        },
        {
          "internalType": "uint256",
          "name": "normalizedLabelLength",
          "type": "uint256"
        },
        {
          "internalType": "uint256",
          "name": "duration",
          "type": "uint256"
        }
      ],
      "name": "quote",
      "outputs": [
        {
          "internalType": "uint256",
          "name": "amount",
          "type": "uint256"
        }
      ],
      "stateMutability": "view",
      "type": "function"
    },
    {
      "inputs": [],
      "name": "renounceOwnership",
      "outputs": [],
      "stateMutability": "nonpayable",
      "type": "function"
    },
    {
      "inputs": [
        {
          "internalType": "address",
          "name": "token",
          "type": "address"
        },
        {
          "internalType": "uint256",
          "name": "price3",
          "type": "uint256"
        },
        {
          "internalType": "uint256",
          "name": "price4",
          "type": "uint256"
        },
        {
          "internalType": "uint256",
          "name": "price5Plus",
          "type": "uint256"
        }
      ],
      "name": "setTokenConfig",
      "outputs": [],
      "stateMutability": "nonpayable",
      "type": "function"
    },
    {
      "inputs": [
        {
          "internalType": "address",
          "name": "token",
          "type": "address"
        }
      ],
      "name": "tokenConfig",
      "outputs": [
        {
          "components": [
            {
              "internalType": "bool",
              "name": "enabled",
              "type": "bool"
            },
            {
              "internalType": "uint256",
              "name": "price3",
              "type": "uint256"
            },
            {
              "internalType": "uint256",
              "name": "price4",
              "type": "uint256"
            },
            {
              "internalType": "uint256",
              "name": "price5Plus",
              "type": "uint256"
            }
          ],
          "internalType": "struct GNSPriceBook.TokenConfig",
          "name": "config",
          "type": "tuple"
        }
      ],
      "stateMutability": "view",
      "type": "function"
    },
    {
      "inputs": [
        {
          "internalType": "address",
          "name": "newOwner",
          "type": "address"
        }
      ],
      "name": "transferOwnership",
      "outputs": [],
      "stateMutability": "nonpayable",
      "type": "function"
    }
  ],
  "bytecode": "0x608080604052346059575f8054336001600160a01b0319821681178355916001600160a01b03909116907f8be0079c531659141344cd1fd0a4f28419497f9722a3daafe3b4186f6b6457e09080a361075b908161005e8239f35b5f80fdfe60806040526004361015610011575f80fd5b5f3560e01c806323e27a641461051e5780633f954f3b146103975780634f129c531461035a578063715018a61461030357806383914540146102e55780638da5cb5b146102be5780639e8cc04b146101d2578063f2fde38b1461010c5763fe136c4e1461007c575f80fd5b3461010857602036600319011261010857610095610594565b61009d6105e8565b5060018060a01b03165f526001602052608060405f206040516100bf816105aa565b60ff825416151591828252600181015460208301908152606060036002840154936040860194855201549301928352604051938452516020840152516040830152516060820152f35b5f80fd5b3461010857602036600319011261010857610125610594565b61012d61060c565b6001600160a01b0316801561017e575f80546001600160a01b03198116831782556001600160a01b0316907f8be0079c531659141344cd1fd0a4f28419497f9722a3daafe3b4186f6b6457e09080a3005b60405162461bcd60e51b815260206004820152602660248201527f4f776e61626c653a206e6577206f776e657220697320746865207a65726f206160448201526564647265737360d01b6064820152608490fd5b34610108576060366003190112610108576101eb610594565b604435906101f76105e8565b506001600160a01b031680156102af57805f52600160205260405f209060405191610221836105aa565b600360ff82541615918215855260018101546020860152600281015460408601520154606084015261029d57506102606301e133809160243590610663565b9161026b81846106a3565b920961027d575b602090604051908152f35b600181018091111561027257634e487b7160e01b5f52601160045260245ffd5b6311c0451960e11b5f5260045260245ffd5b636b093aad60e01b5f5260045ffd5b34610108575f366003190112610108575f546040516001600160a01b039091168152602090f35b34610108575f3660031901126101085760206040516301e133808152f35b34610108575f3660031901126101085761031b61060c565b5f80546001600160a01b0319811682556001600160a01b03167f8be0079c531659141344cd1fd0a4f28419497f9722a3daafe3b4186f6b6457e08280a3005b34610108576020366003190112610108576001600160a01b0361037b610594565b165f526001602052602060ff60405f2054166040519015158152f35b34610108576080366003190112610108576103b0610594565b6064356044356024356103c161060c565b6001600160a01b0384169384156102af575f8091604051602081019063313ce56760e01b8252600481526103f66024826105c6565b51915afa3d15610516573d9067ffffffffffffffff82116105025760405191610429601f8201601f1916602001846105c6565b82523d5f602084013e5b1580156104f7575b6104e457602081805181010312610108576020015160ff811603610108577fad9889fd56650c6ab654c1935e17c4fe3996e689f3caf15dd8fad5b7144172e19260609260405161048a816105aa565b6001815260036020820185815260408301848152878401918683528a5f52600160205260405f209451151560ff801987541691161785555160018501555160028401555191015560405192835260208301526040820152a2005b84634e34486d60e01b5f5260045260245ffd5b50602081511061043b565b634e487b7160e01b5f52604160045260245ffd5b606090610433565b3461010857602036600319011261010857610537610594565b61053f61060c565b6001600160a01b031680156102af57805f5260016020525f60036040822082815582600182015582600282015501557f1fac2d788f45089e4f2b9e3484b1163143fdeab5eb480ab9a44b459d2dc476a25f80a2005b600435906001600160a01b038216820361010857565b6080810190811067ffffffffffffffff82111761050257604052565b90601f8019910116810190811067ffffffffffffffff82111761050257604052565b604051906105f5826105aa565b5f6060838281528260208201528260408201520152565b5f546001600160a01b0316330361061f57565b606460405162461bcd60e51b815260206004820152602060248201527f4f776e61626c653a2063616c6c6572206973206e6f7420746865206f776e65726044820152fd5b9060038110610691576003811461068957600414610682576060015190565b6040015190565b506020015190565b631afdf51560e11b5f5260045260245ffd5b5f198282098282029182808310920391808303921461074157816301e133801115610704577f98f5be4dd1e14769fbd6666224dc1eb80dd2e0a3d2c8b328f57e76b7ae103957936301e13380910990828211900360f91b910360071c170290565b60405162461bcd60e51b81526020600482015260156024820152744d6174683a206d756c446976206f766572666c6f7760581b6044820152606490fd5b50506301e133809150049056fea164736f6c634300081c000a",
  "linkReferences": {},
  "deployedLinkReferences": {},
  "immutableReferences": {},
  "inputSourceName": "project/contracts/GNSPriceBook.sol",
  "buildInfoId": "solc-0_8_28-d51e28dd20455e979b62fa1678da1327fdbacab3"
}