{
  "_format": "hh3-artifact-1",
  "contractName": "GoatNameWrapper",
  "sourceName": "contracts/GoatNameWrapper.sol",
  "abi": [
    {
      "inputs": [
        {
          "internalType": "contract ENS",
          "name": "_ens",
          "type": "address"
        },
        {
          "internalType": "contract IBaseRegistrar",
          "name": "_registrar",
          "type": "address"
        },
        {
          "internalType": "contract IMetadataService",
          "name": "_metadataService",
          "type": "address"
        }
      ],
      "stateMutability": "nonpayable",
      "type": "constructor"
    },
    {
      "inputs": [],
      "name": "CannotUpgrade",
      "type": "error"
    },
    {
      "inputs": [],
      "name": "IncompatibleParent",
      "type": "error"
    },
    {
      "inputs": [
        {
          "internalType": "address",
          "name": "owner",
          "type": "address"
        }
      ],
      "name": "IncorrectTargetOwner",
      "type": "error"
    },
    {
      "inputs": [],
      "name": "IncorrectTokenType",
      "type": "error"
    },
    {
      "inputs": [
        {
          "internalType": "bytes32",
          "name": "labelHash",
          "type": "bytes32"
        },
        {
          "internalType": "bytes32",
          "name": "expectedLabelhash",
          "type": "bytes32"
        }
      ],
      "name": "LabelMismatch",
      "type": "error"
    },
    {
      "inputs": [
        {
          "internalType": "string",
          "name": "label",
          "type": "string"
        }
      ],
      "name": "LabelTooLong",
      "type": "error"
    },
    {
      "inputs": [],
      "name": "LabelTooShort",
      "type": "error"
    },
    {
      "inputs": [],
      "name": "NameIsNotWrapped",
      "type": "error"
    },
    {
      "inputs": [
        {
          "internalType": "uint256",
          "name": "offset",
          "type": "uint256"
        },
        {
          "internalType": "uint256",
          "name": "length",
          "type": "uint256"
        }
      ],
      "name": "OffsetOutOfBoundsError",
      "type": "error"
    },
    {
      "inputs": [
        {
          "internalType": "bytes32",
          "name": "node",
          "type": "bytes32"
        }
      ],
      "name": "OperationProhibited",
      "type": "error"
    },
    {
      "inputs": [
        {
          "internalType": "bytes32",
          "name": "node",
          "type": "bytes32"
        },
        {
          "internalType": "address",
          "name": "addr",
          "type": "address"
        }
      ],
      "name": "Unauthorised",
      "type": "error"
    },
    {
      "anonymous": false,
      "inputs": [
        {
          "indexed": true,
          "internalType": "address",
          "name": "owner",
          "type": "address"
        },
        {
          "indexed": true,
          "internalType": "address",
          "name": "approved",
          "type": "address"
        },
        {
          "indexed": true,
          "internalType": "uint256",
          "name": "tokenId",
          "type": "uint256"
        }
      ],
      "name": "Approval",
      "type": "event"
    },
    {
      "anonymous": false,
      "inputs": [
        {
          "indexed": true,
          "internalType": "address",
          "name": "account",
          "type": "address"
        },
        {
          "indexed": true,
          "internalType": "address",
          "name": "operator",
          "type": "address"
        },
        {
          "indexed": false,
          "internalType": "bool",
          "name": "approved",
          "type": "bool"
        }
      ],
      "name": "ApprovalForAll",
      "type": "event"
    },
    {
      "anonymous": false,
      "inputs": [
        {
          "indexed": true,
          "internalType": "address",
          "name": "controller",
          "type": "address"
        },
        {
          "indexed": false,
          "internalType": "bool",
          "name": "active",
          "type": "bool"
        }
      ],
      "name": "ControllerChanged",
      "type": "event"
    },
    {
      "anonymous": false,
      "inputs": [
        {
          "indexed": true,
          "internalType": "bytes32",
          "name": "node",
          "type": "bytes32"
        },
        {
          "indexed": false,
          "internalType": "uint64",
          "name": "expiry",
          "type": "uint64"
        }
      ],
      "name": "ExpiryExtended",
      "type": "event"
    },
    {
      "anonymous": false,
      "inputs": [
        {
          "indexed": true,
          "internalType": "bytes32",
          "name": "node",
          "type": "bytes32"
        },
        {
          "indexed": false,
          "internalType": "uint32",
          "name": "fuses",
          "type": "uint32"
        }
      ],
      "name": "FusesSet",
      "type": "event"
    },
    {
      "anonymous": false,
      "inputs": [
        {
          "indexed": true,
          "internalType": "bytes32",
          "name": "node",
          "type": "bytes32"
        },
        {
          "indexed": false,
          "internalType": "address",
          "name": "owner",
          "type": "address"
        }
      ],
      "name": "NameUnwrapped",
      "type": "event"
    },
    {
      "anonymous": false,
      "inputs": [
        {
          "indexed": true,
          "internalType": "bytes32",
          "name": "node",
          "type": "bytes32"
        },
        {
          "indexed": false,
          "internalType": "bytes",
          "name": "name",
          "type": "bytes"
        },
        {
          "indexed": false,
          "internalType": "address",
          "name": "owner",
          "type": "address"
        },
        {
          "indexed": false,
          "internalType": "uint32",
          "name": "fuses",
          "type": "uint32"
        },
        {
          "indexed": false,
          "internalType": "uint64",
          "name": "expiry",
          "type": "uint64"
        }
      ],
      "name": "NameWrapped",
      "type": "event"
    },
    {
      "anonymous": false,
      "inputs": [
        {
          "indexed": true,
          "internalType": "address",
          "name": "previousOwner",
          "type": "address"
        },
        {
          "indexed": true,
          "internalType": "address",
          "name": "newOwner",
          "type": "address"
        }
      ],
      "name": "OwnershipTransferred",
      "type": "event"
    },
    {
      "anonymous": false,
      "inputs": [
        {
          "indexed": true,
          "internalType": "address",
          "name": "operator",
          "type": "address"
        },
        {
          "indexed": true,
          "internalType": "address",
          "name": "from",
          "type": "address"
        },
        {
          "indexed": true,
          "internalType": "address",
          "name": "to",
          "type": "address"
        },
        {
          "indexed": false,
          "internalType": "uint256[]",
          "name": "ids",
          "type": "uint256[]"
        },
        {
          "indexed": false,
          "internalType": "uint256[]",
          "name": "values",
          "type": "uint256[]"
        }
      ],
      "name": "TransferBatch",
      "type": "event"
    },
    {
      "anonymous": false,
      "inputs": [
        {
          "indexed": true,
          "internalType": "address",
          "name": "operator",
          "type": "address"
        },
        {
          "indexed": true,
          "internalType": "address",
          "name": "from",
          "type": "address"
        },
        {
          "indexed": true,
          "internalType": "address",
          "name": "to",
          "type": "address"
        },
        {
          "indexed": false,
          "internalType": "uint256",
          "name": "id",
          "type": "uint256"
        },
        {
          "indexed": false,
          "internalType": "uint256",
          "name": "value",
          "type": "uint256"
        }
      ],
      "name": "TransferSingle",
      "type": "event"
    },
    {
      "anonymous": false,
      "inputs": [
        {
          "indexed": false,
          "internalType": "string",
          "name": "value",
          "type": "string"
        },
        {
          "indexed": true,
          "internalType": "uint256",
          "name": "id",
          "type": "uint256"
        }
      ],
      "name": "URI",
      "type": "event"
    },
    {
      "inputs": [
        {
          "internalType": "uint256",
          "name": "",
          "type": "uint256"
        }
      ],
      "name": "_tokens",
      "outputs": [
        {
          "internalType": "uint256",
          "name": "",
          "type": "uint256"
        }
      ],
      "stateMutability": "view",
      "type": "function"
    },
    {
      "inputs": [
        {
          "internalType": "bytes32",
          "name": "node",
          "type": "bytes32"
        },
        {
          "internalType": "uint32",
          "name": "fuseMask",
          "type": "uint32"
        }
      ],
      "name": "allFusesBurned",
      "outputs": [
        {
          "internalType": "bool",
          "name": "",
          "type": "bool"
        }
      ],
      "stateMutability": "view",
      "type": "function"
    },
    {
      "inputs": [
        {
          "internalType": "address",
          "name": "to",
          "type": "address"
        },
        {
          "internalType": "uint256",
          "name": "tokenId",
          "type": "uint256"
        }
      ],
      "name": "approve",
      "outputs": [],
      "stateMutability": "nonpayable",
      "type": "function"
    },
    {
      "inputs": [
        {
          "internalType": "address",
          "name": "account",
          "type": "address"
        },
        {
          "internalType": "uint256",
          "name": "id",
          "type": "uint256"
        }
      ],
      "name": "balanceOf",
      "outputs": [
        {
          "internalType": "uint256",
          "name": "",
          "type": "uint256"
        }
      ],
      "stateMutability": "view",
      "type": "function"
    },
    {
      "inputs": [
        {
          "internalType": "address[]",
          "name": "accounts",
          "type": "address[]"
        },
        {
          "internalType": "uint256[]",
          "name": "ids",
          "type": "uint256[]"
        }
      ],
      "name": "balanceOfBatch",
      "outputs": [
        {
          "internalType": "uint256[]",
          "name": "",
          "type": "uint256[]"
        }
      ],
      "stateMutability": "view",
      "type": "function"
    },
    {
      "inputs": [
        {
          "internalType": "bytes32",
          "name": "node",
          "type": "bytes32"
        },
        {
          "internalType": "address",
          "name": "addr",
          "type": "address"
        }
      ],
      "name": "canExtendSubnames",
      "outputs": [
        {
          "internalType": "bool",
          "name": "",
          "type": "bool"
        }
      ],
      "stateMutability": "view",
      "type": "function"
    },
    {
      "inputs": [
        {
          "internalType": "bytes32",
          "name": "node",
          "type": "bytes32"
        },
        {
          "internalType": "address",
          "name": "addr",
          "type": "address"
        }
      ],
      "name": "canModifyName",
      "outputs": [
        {
          "internalType": "bool",
          "name": "",
          "type": "bool"
        }
      ],
      "stateMutability": "view",
      "type": "function"
    },
    {
      "inputs": [
        {
          "internalType": "address",
          "name": "",
          "type": "address"
        }
      ],
      "name": "controllers",
      "outputs": [
        {
          "internalType": "bool",
          "name": "",
          "type": "bool"
        }
      ],
      "stateMutability": "view",
      "type": "function"
    },
    {
      "inputs": [],
      "name": "ens",
      "outputs": [
        {
          "internalType": "contract ENS",
          "name": "",
          "type": "address"
        }
      ],
      "stateMutability": "view",
      "type": "function"
    },
    {
      "inputs": [
        {
          "internalType": "bytes32",
          "name": "parentNode",
          "type": "bytes32"
        },
        {
          "internalType": "bytes32",
          "name": "labelhash",
          "type": "bytes32"
        },
        {
          "internalType": "uint64",
          "name": "expiry",
          "type": "uint64"
        }
      ],
      "name": "extendExpiry",
      "outputs": [
        {
          "internalType": "uint64",
          "name": "",
          "type": "uint64"
        }
      ],
      "stateMutability": "nonpayable",
      "type": "function"
    },
    {
      "inputs": [
        {
          "internalType": "uint256",
          "name": "id",
          "type": "uint256"
        }
      ],
      "name": "getApproved",
      "outputs": [
        {
          "internalType": "address",
          "name": "operator",
          "type": "address"
        }
      ],
      "stateMutability": "view",
      "type": "function"
    },
    {
      "inputs": [
        {
          "internalType": "uint256",
          "name": "id",
          "type": "uint256"
        }
      ],
      "name": "getData",
      "outputs": [
        {
          "internalType": "address",
          "name": "owner",
          "type": "address"
        },
        {
          "internalType": "uint32",
          "name": "fuses",
          "type": "uint32"
        },
        {
          "internalType": "uint64",
          "name": "expiry",
          "type": "uint64"
        }
      ],
      "stateMutability": "view",
      "type": "function"
    },
    {
      "inputs": [],
      "name": "interfaceId",
      "outputs": [
        {
          "internalType": "bytes4",
          "name": "id",
          "type": "bytes4"
        }
      ],
      "stateMutability": "pure",
      "type": "function"
    },
    {
      "inputs": [
        {
          "internalType": "address",
          "name": "account",
          "type": "address"
        },
        {
          "internalType": "address",
          "name": "operator",
          "type": "address"
        }
      ],
      "name": "isApprovedForAll",
      "outputs": [
        {
          "internalType": "bool",
          "name": "",
          "type": "bool"
        }
      ],
      "stateMutability": "view",
      "type": "function"
    },
    {
      "inputs": [
        {
          "internalType": "bytes32",
          "name": "parentNode",
          "type": "bytes32"
        },
        {
          "internalType": "bytes32",
          "name": "labelhash",
          "type": "bytes32"
        }
      ],
      "name": "isWrapped",
      "outputs": [
        {
          "internalType": "bool",
          "name": "",
          "type": "bool"
        }
      ],
      "stateMutability": "view",
      "type": "function"
    },
    {
      "inputs": [
        {
          "internalType": "bytes32",
          "name": "node",
          "type": "bytes32"
        }
      ],
      "name": "isWrapped",
      "outputs": [
        {
          "internalType": "bool",
          "name": "",
          "type": "bool"
        }
      ],
      "stateMutability": "view",
      "type": "function"
    },
    {
      "inputs": [],
      "name": "metadataService",
      "outputs": [
        {
          "internalType": "contract IMetadataService",
          "name": "",
          "type": "address"
        }
      ],
      "stateMutability": "view",
      "type": "function"
    },
    {
      "inputs": [],
      "name": "name",
      "outputs": [
        {
          "internalType": "string",
          "name": "",
          "type": "string"
        }
      ],
      "stateMutability": "view",
      "type": "function"
    },
    {
      "inputs": [
        {
          "internalType": "bytes32",
          "name": "",
          "type": "bytes32"
        }
      ],
      "name": "names",
      "outputs": [
        {
          "internalType": "bytes",
          "name": "",
          "type": "bytes"
        }
      ],
      "stateMutability": "view",
      "type": "function"
    },
    {
      "inputs": [
        {
          "internalType": "address",
          "name": "to",
          "type": "address"
        },
        {
          "internalType": "address",
          "name": "",
          "type": "address"
        },
        {
          "internalType": "uint256",
          "name": "tokenId",
          "type": "uint256"
        },
        {
          "internalType": "bytes",
          "name": "data",
          "type": "bytes"
        }
      ],
      "name": "onERC721Received",
      "outputs": [
        {
          "internalType": "bytes4",
          "name": "",
          "type": "bytes4"
        }
      ],
      "stateMutability": "nonpayable",
      "type": "function"
    },
    {
      "inputs": [],
      "name": "owner",
      "outputs": [
        {
          "internalType": "address",
          "name": "",
          "type": "address"
        }
      ],
      "stateMutability": "view",
      "type": "function"
    },
    {
      "inputs": [
        {
          "internalType": "uint256",
          "name": "id",
          "type": "uint256"
        }
      ],
      "name": "ownerOf",
      "outputs": [
        {
          "internalType": "address",
          "name": "owner",
          "type": "address"
        }
      ],
      "stateMutability": "view",
      "type": "function"
    },
    {
      "inputs": [
        {
          "internalType": "address",
          "name": "_token",
          "type": "address"
        },
        {
          "internalType": "address",
          "name": "_to",
          "type": "address"
        },
        {
          "internalType": "uint256",
          "name": "_amount",
          "type": "uint256"
        }
      ],
      "name": "recoverFunds",
      "outputs": [],
      "stateMutability": "nonpayable",
      "type": "function"
    },
    {
      "inputs": [
        {
          "internalType": "string",
          "name": "label",
          "type": "string"
        },
        {
          "internalType": "address",
          "name": "wrappedOwner",
          "type": "address"
        },
        {
          "internalType": "uint256",
          "name": "duration",
          "type": "uint256"
        },
        {
          "internalType": "address",
          "name": "resolver",
          "type": "address"
        },
        {
          "internalType": "uint16",
          "name": "ownerControlledFuses",
          "type": "uint16"
        }
      ],
      "name": "registerAndWrapETH2LD",
      "outputs": [
        {
          "internalType": "uint256",
          "name": "registrarExpiry",
          "type": "uint256"
        }
      ],
      "stateMutability": "nonpayable",
      "type": "function"
    },
    {
      "inputs": [
        {
          "internalType": "string",
          "name": "label",
          "type": "string"
        },
        {
          "internalType": "address",
          "name": "wrappedOwner",
          "type": "address"
        },
        {
          "internalType": "uint256",
          "name": "duration",
          "type": "uint256"
        },
        {
          "internalType": "address",
          "name": "resolver",
          "type": "address"
        },
        {
          "internalType": "uint16",
          "name": "ownerControlledFuses",
          "type": "uint16"
        }
      ],
      "name": "registerAndWrapGoat2LD",
      "outputs": [
        {
          "internalType": "uint256",
          "name": "registrarExpiry",
          "type": "uint256"
        }
      ],
      "stateMutability": "nonpayable",
      "type": "function"
    },
    {
      "inputs": [],
      "name": "registrar",
      "outputs": [
        {
          "internalType": "contract IBaseRegistrar",
          "name": "",
          "type": "address"
        }
      ],
      "stateMutability": "view",
      "type": "function"
    },
    {
      "inputs": [
        {
          "internalType": "uint256",
          "name": "tokenId",
          "type": "uint256"
        },
        {
          "internalType": "uint256",
          "name": "duration",
          "type": "uint256"
        }
      ],
      "name": "renew",
      "outputs": [
        {
          "internalType": "uint256",
          "name": "expires",
          "type": "uint256"
        }
      ],
      "stateMutability": "nonpayable",
      "type": "function"
    },
    {
      "inputs": [],
      "name": "renounceOwnership",
      "outputs": [],
      "stateMutability": "nonpayable",
      "type": "function"
    },
    {
      "inputs": [
        {
          "internalType": "address",
          "name": "from",
          "type": "address"
        },
        {
          "internalType": "address",
          "name": "to",
          "type": "address"
        },
        {
          "internalType": "uint256[]",
          "name": "ids",
          "type": "uint256[]"
        },
        {
          "internalType": "uint256[]",
          "name": "amounts",
          "type": "uint256[]"
        },
        {
          "internalType": "bytes",
          "name": "data",
          "type": "bytes"
        }
      ],
      "name": "safeBatchTransferFrom",
      "outputs": [],
      "stateMutability": "nonpayable",
      "type": "function"
    },
    {
      "inputs": [
        {
          "internalType": "address",
          "name": "from",
          "type": "address"
        },
        {
          "internalType": "address",
          "name": "to",
          "type": "address"
        },
        {
          "internalType": "uint256",
          "name": "id",
          "type": "uint256"
        },
        {
          "internalType": "uint256",
          "name": "amount",
          "type": "uint256"
        },
        {
          "internalType": "bytes",
          "name": "data",
          "type": "bytes"
        }
      ],
      "name": "safeTransferFrom",
      "outputs": [],
      "stateMutability": "nonpayable",
      "type": "function"
    },
    {
      "inputs": [
        {
          "internalType": "address",
          "name": "operator",
          "type": "address"
        },
        {
          "internalType": "bool",
          "name": "approved",
          "type": "bool"
        }
      ],
      "name": "setApprovalForAll",
      "outputs": [],
      "stateMutability": "nonpayable",
      "type": "function"
    },
    {
      "inputs": [
        {
          "internalType": "bytes32",
          "name": "parentNode",
          "type": "bytes32"
        },
        {
          "internalType": "bytes32",
          "name": "labelhash",
          "type": "bytes32"
        },
        {
          "internalType": "uint32",
          "name": "fuses",
          "type": "uint32"
        },
        {
          "internalType": "uint64",
          "name": "expiry",
          "type": "uint64"
        }
      ],
      "name": "setChildFuses",
      "outputs": [],
      "stateMutability": "nonpayable",
      "type": "function"
    },
    {
      "inputs": [
        {
          "internalType": "address",
          "name": "controller",
          "type": "address"
        },
        {
          "internalType": "bool",
          "name": "active",
          "type": "bool"
        }
      ],
      "name": "setController",
      "outputs": [],
      "stateMutability": "nonpayable",
      "type": "function"
    },
    {
      "inputs": [
        {
          "internalType": "bytes32",
          "name": "node",
          "type": "bytes32"
        },
        {
          "internalType": "uint16",
          "name": "ownerControlledFuses",
          "type": "uint16"
        }
      ],
      "name": "setFuses",
      "outputs": [
        {
          "internalType": "uint32",
          "name": "",
          "type": "uint32"
        }
      ],
      "stateMutability": "nonpayable",
      "type": "function"
    },
    {
      "inputs": [
        {
          "internalType": "contract IMetadataService",
          "name": "_metadataService",
          "type": "address"
        }
      ],
      "name": "setMetadataService",
      "outputs": [],
      "stateMutability": "nonpayable",
      "type": "function"
    },
    {
      "inputs": [
        {
          "internalType": "bytes32",
          "name": "node",
          "type": "bytes32"
        },
        {
          "internalType": "address",
          "name": "owner",
          "type": "address"
        },
        {
          "internalType": "address",
          "name": "resolver",
          "type": "address"
        },
        {
          "internalType": "uint64",
          "name": "ttl",
          "type": "uint64"
        }
      ],
      "name": "setRecord",
      "outputs": [],
      "stateMutability": "nonpayable",
      "type": "function"
    },
    {
      "inputs": [
        {
          "internalType": "bytes32",
          "name": "node",
          "type": "bytes32"
        },
        {
          "internalType": "address",
          "name": "resolver",
          "type": "address"
        }
      ],
      "name": "setResolver",
      "outputs": [],
      "stateMutability": "nonpayable",
      "type": "function"
    },
    {
      "inputs": [
        {
          "internalType": "bytes32",
          "name": "parentNode",
          "type": "bytes32"
        },
        {
          "internalType": "string",
          "name": "label",
          "type": "string"
        },
        {
          "internalType": "address",
          "name": "owner",
          "type": "address"
        },
        {
          "internalType": "uint32",
          "name": "fuses",
          "type": "uint32"
        },
        {
          "internalType": "uint64",
          "name": "expiry",
          "type": "uint64"
        }
      ],
      "name": "setSubnodeOwner",
      "outputs": [
        {
          "internalType": "bytes32",
          "name": "node",
          "type": "bytes32"
        }
      ],
      "stateMutability": "nonpayable",
      "type": "function"
    },
    {
      "inputs": [
        {
          "internalType": "bytes32",
          "name": "parentNode",
          "type": "bytes32"
        },
        {
          "internalType": "string",
          "name": "label",
          "type": "string"
        },
        {
          "internalType": "address",
          "name": "owner",
          "type": "address"
        },
        {
          "internalType": "address",
          "name": "resolver",
          "type": "address"
        },
        {
          "internalType": "uint64",
          "name": "ttl",
          "type": "uint64"
        },
        {
          "internalType": "uint32",
          "name": "fuses",
          "type": "uint32"
        },
        {
          "internalType": "uint64",
          "name": "expiry",
          "type": "uint64"
        }
      ],
      "name": "setSubnodeRecord",
      "outputs": [
        {
          "internalType": "bytes32",
          "name": "node",
          "type": "bytes32"
        }
      ],
      "stateMutability": "nonpayable",
      "type": "function"
    },
    {
      "inputs": [
        {
          "internalType": "bytes32",
          "name": "node",
          "type": "bytes32"
        },
        {
          "internalType": "uint64",
          "name": "ttl",
          "type": "uint64"
        }
      ],
      "name": "setTTL",
      "outputs": [],
      "stateMutability": "nonpayable",
      "type": "function"
    },
    {
      "inputs": [
        {
          "internalType": "contract INameWrapperUpgrade",
          "name": "_upgradeAddress",
          "type": "address"
        }
      ],
      "name": "setUpgradeContract",
      "outputs": [],
      "stateMutability": "nonpayable",
      "type": "function"
    },
    {
      "inputs": [
        {
          "internalType": "bytes4",
          "name": "_interfaceId",
          "type": "bytes4"
        }
      ],
      "name": "supportsInterface",
      "outputs": [
        {
          "internalType": "bool",
          "name": "",
          "type": "bool"
        }
      ],
      "stateMutability": "view",
      "type": "function"
    },
    {
      "inputs": [
        {
          "internalType": "address",
          "name": "newOwner",
          "type": "address"
        }
      ],
      "name": "transferOwnership",
      "outputs": [],
      "stateMutability": "nonpayable",
      "type": "function"
    },
    {
      "inputs": [
        {
          "internalType": "bytes32",
          "name": "parentNode",
          "type": "bytes32"
        },
        {
          "internalType": "bytes32",
          "name": "labelhash",
          "type": "bytes32"
        },
        {
          "internalType": "address",
          "name": "controller",
          "type": "address"
        }
      ],
      "name": "unwrap",
      "outputs": [],
      "stateMutability": "nonpayable",
      "type": "function"
    },
    {
      "inputs": [
        {
          "internalType": "bytes32",
          "name": "labelhash",
          "type": "bytes32"
        },
        {
          "internalType": "address",
          "name": "registrant",
          "type": "address"
        },
        {
          "internalType": "address",
          "name": "controller",
          "type": "address"
        }
      ],
      "name": "unwrapETH2LD",
      "outputs": [],
      "stateMutability": "nonpayable",
      "type": "function"
    },
    {
      "inputs": [
        {
          "internalType": "bytes32",
          "name": "labelhash",
          "type": "bytes32"
        },
        {
          "internalType": "address",
          "name": "registrant",
          "type": "address"
        },
        {
          "internalType": "address",
          "name": "controller",
          "type": "address"
        }
      ],
      "name": "unwrapGoat2LD",
      "outputs": [],
      "stateMutability": "nonpayable",
      "type": "function"
    },
    {
      "inputs": [
        {
          "internalType": "bytes",
          "name": "_name",
          "type": "bytes"
        },
        {
          "internalType": "bytes",
          "name": "extraData",
          "type": "bytes"
        }
      ],
      "name": "upgrade",
      "outputs": [],
      "stateMutability": "nonpayable",
      "type": "function"
    },
    {
      "inputs": [],
      "name": "upgradeContract",
      "outputs": [
        {
          "internalType": "contract INameWrapperUpgrade",
          "name": "",
          "type": "address"
        }
      ],
      "stateMutability": "view",
      "type": "function"
    },
    {
      "inputs": [
        {
          "internalType": "uint256",
          "name": "tokenId",
          "type": "uint256"
        }
      ],
      "name": "uri",
      "outputs": [
        {
          "internalType": "string",
          "name": "",
          "type": "string"
        }
      ],
      "stateMutability": "view",
      "type": "function"
    },
    {
      "inputs": [
        {
          "internalType": "bytes",
          "name": "_name",
          "type": "bytes"
        },
        {
          "internalType": "address",
          "name": "wrappedOwner",
          "type": "address"
        },
        {
          "internalType": "address",
          "name": "resolver",
          "type": "address"
        }
      ],
      "name": "wrap",
      "outputs": [],
      "stateMutability": "nonpayable",
      "type": "function"
    },
    {
      "inputs": [
        {
          "internalType": "string",
          "name": "label",
          "type": "string"
        },
        {
          "internalType": "address",
          "name": "wrappedOwner",
          "type": "address"
        },
        {
          "internalType": "uint16",
          "name": "ownerControlledFuses",
          "type": "uint16"
        },
        {
          "internalType": "address",
          "name": "resolver",
          "type": "address"
        }
      ],
      "name": "wrapETH2LD",
      "outputs": [
        {
          "internalType": "uint64",
          "name": "expiry",
          "type": "uint64"
        }
      ],
      "stateMutability": "nonpayable",
      "type": "function"
    },
    {
      "inputs": [
        {
          "internalType": "string",
          "name": "label",
          "type": "string"
        },
        {
          "internalType": "address",
          "name": "wrappedOwner",
          "type": "address"
        },
        {
          "internalType": "uint16",
          "name": "ownerControlledFuses",
          "type": "uint16"
        },
        {
          "internalType": "address",
          "name": "resolver",
          "type": "address"
        }
      ],
      "name": "wrapGoat2LD",
      "outputs": [
        {
          "internalType": "uint64",
          "name": "expiry",
          "type": "uint64"
        }
      ],
      "stateMutability": "nonpayable",
      "type": "function"
    }
  ],
  "bytecode": "0x60c080604052346103975760608161533f803803809161001f82856103f0565b8339810103126103975780516001600160a01b0381169190828103610397576020820151916001600160a01b038316830361039757604001516001600160a01b0381169390849003610397575f8054336001600160a01b031982168117835560405193602093859360249385939290916001600160a01b0316907f8be0079c531659141344cd1fd0a4f28419497f9722a3daafe3b4186f6b6457e09080a36302571be360e01b82527f91d1777781884d03a6757a803996e38de2a42967fb37eeaca72729271025a9e260048301525afa9081156103a2575f916103ad575b50604051630f41a04d60e11b815233600482015290602090829060249082905f906001600160a01b03165af180156103a257610373575b5060805260a052600580546001600160a01b031916919091179055600163fffeffff60a01b03197f8c252897927f8bbc8c5ac87cc6acb78f89a399008ccf71238344eb34edc461518190555f80527fa6eef7e35abe7026729641147f7915573c7e97b47efa546f5f6e3230263bcb495560066020527f54cdd369e4e8a8515e52ca72ec816c2101831ad1f18bf44102ed171459c9b4f880546101d590610427565b601f8111610349575b50600290557f5b00879fb3cf6886271b2d0f62386525acf379cdbc8d0987bf35fd164141e5075f5260066020527f460034ca4f11caa1595b3ecdcaa53a78a7d867fa7800123e24917bad14776d7f805461023790610427565b601f811161031f575b50600c640119dbd85d60da1b019055604051614edf9081610460823960805181818161057101528181610cae015281816110a0015281816112680152818161136301528181611b6c01528181611d0c015281816122e1015281816123c0015281816125370152818161287401528181613a2801528181613da501528181613fdc01528181614184015281816145dc015261468c015260a0518181816111f9015281816112f1015281816115e9015281816121bc0152818161265401528181612c1d015281816130070152818161388f015281816139530152613b4b0152f35b815f52601f60205f20910160051c8101905b81811061033e5750610240565b5f8155600101610331565b815f52601f60205f20910160051c8101905b81811061036857506101de565b5f815560010161035b565b602090813d831161039b575b61038981836103f0565b81010312610397575f610134565b5f80fd5b503d61037f565b6040513d5f823e3d90fd5b90506020813d6020116103e8575b816103c8602093836103f0565b8101031261039757516001600160a01b03811681036103975760206100fd565b3d91506103bb565b601f909101601f19168101906001600160401b0382119082101761041357604052565b634e487b7160e01b5f52604160045260245ffd5b90600182811c92168015610455575b602083101461044157565b634e487b7160e01b5f52602260045260245ffd5b91607f169161043656fe60806040526004361015610011575f80fd5b5f5f3560e01c8062fdd58e14612e1a5780630178fe3f14612dcd57806301ffc9a714612d2d57806306fdde0314612cdc578063073a15c014612bbc578063081812fc14612b8b5780630944c6bc1461157f578063095ea7b3146129db5780630e4cd725146129b45780630e89341c146128d557806314ab903814612820578063150b7a021461260b5780631534e177146125c65780631896f70a146124ef5780631f4e1504146124c657806320c38e2b1461248757806324c1af44146121eb5780632b20e397146121a65780632eb2c2d614611d7557806333c69ea914611b9b5780633b6b02d6146114635780633f15457f14611b56578063402906fc14611aaa57806341415eab14611a835780634e1273f4146118ea57806353095467146118c15780635d3590d51461183c5780636352211e146118075780636e5d6ad2146116c2578063715018a6146116685780638b4dfa75146115845780638cf8b41e1461157f5780638da5cb5b14611558578063a22cb46514611483578063a401498214611463578063a64d0cd414611440578063adf4960a146113f8578063b6bcad261461119a578063c475abff14611160578063c658e08614610f7e578063c93ab3fd14610de4578063cf40882314610c52578063d8c9921a14610b97578063d9a50c1214610b75578063da8c229e14610b36578063e0dba60f14610aca578063e985e9c514610a72578063eb8ae53014610472578063ed70554d14610448578063f242432a14610346578063f2fde38b146102805763fd0cd0d914610255575f80fd5b3461027d57602036600319011261027d576020610273600435613c0a565b6040519015158152f35b80fd5b503461027d57602036600319011261027d5761029a612e41565b6102a2613e9e565b6001600160a01b031680156102f25781546001600160a01b03198116821783556001600160a01b03167f8be0079c531659141344cd1fd0a4f28419497f9722a3daafe3b4186f6b6457e08380a380f35b60405162461bcd60e51b815260206004820152602660248201527f4f776e61626c653a206e6577206f776e657220697320746865207a65726f206160448201526564647265737360d01b6064820152608490fd5b503461027d5760a036600319011261027d57610360612e41565b610368612e57565b6084356001600160401b03811161044457610387903690600401613379565b9061039c6001600160a01b038216151561365f565b6001600160a01b038316338114908115610422575b50156103cb576103c8926064359160443591614a46565b80f35b60405162461bcd60e51b815260206004820152602960248201527f455243313135353a2063616c6c6572206973206e6f74206f776e6572206e6f7260448201526808185c1c1c9bdd995960ba1b6064820152608490fd5b855250600260209081526040808620335f908152925281205460ff16906103b1565b8380fd5b503461027d57602036600319011261027d5760406020916004358152600183522054604051908152f35b503461027d57606036600319011261027d576004356001600160401b038111610898576104a66104e0913690600401612f45565b6104ae612e57565b916104b7612e6d565b6104e76104cd6104c8368686613343565b614aeb565b6104db979197368787613343565b614897565b9586613f27565b94858752600660205260408720906001600160401b038511610a5e5761051785610511845461326b565b84613bbb565b879185601f81116001146109ea5780610553915f516020614e935f395f51905f52958c916109df575b508160011b915f199060031b1c19161790565b90555b146109d0576040516302571be360e01b8152600481018690527f00000000000000000000000000000000000000000000000000000000000000006001600160a01b03169190602081602481865afa9081156109965788916109a1575b506001600160a01b0381163314159081610922575b5061090a578691906001600160a01b03811661089c575b50803b1561089857604051635b0fc9c360e01b8152600481018790523060248201529082908290604490829084905af1801561088d57610871575b5050610626913691613343565b6106308484614cc6565b61063983613c40565b50506001600160a01b031661084b575b83908161066261065886613c40565b9291908391613c6b565b90916001600160401b0381169081610843575b50421115610835575b506001600160a01b03166107f0576001600160a01b0384169081156107a15730821461073f57846106d861071392610727967f8ce7013e8abebc55c3890a68f5a27c67c3f7efa64e584de5fb22363c606fd340988a6143df565b8288604051898152600160208201525f516020614e735f395f51905f5260403392a4866040519161070a602084612e97565b89835233614cec565b604051928392608084526080840190612ee7565b9060208301528560408301528560608301520390a280f35b60405162461bcd60e51b815260206004820152603460248201527f455243313135353a206e65774f776e65722063616e6e6f74206265207468652060448201527313985b5955dc985c1c195c8818dbdb9d1c9858dd60621b6064820152608490fd5b60405162461bcd60e51b815260206004820152602160248201527f455243313135353a206d696e7420746f20746865207a65726f206164647265736044820152607360f81b6064820152608490fd5b60405162461bcd60e51b815260206004820152601f60248201527f455243313135353a206d696e74206f66206578697374696e6720746f6b656e006044820152606490fd5b63ffff00001693505f61067e565b93505f610675565b61085483614932565b825f516020614eb35f395f51905f526020604051878152a2610649565b9061087b91612e97565b845f1261088957845f610619565b8480fd5b6040513d84823e3d90fd5b5080fd5b813b1561090657604051630c4b7b8560e11b8152600481018890526001600160a01b03919091166024820152828160448183865af180156108fb5783906108e4575b506105de565b6108ed91612e97565b815f12610898575f826108de565b6040513d85823e3d90fd5b8280fd5b63168ab55d60e31b8752600486905233602452604487fd5b60405163e985e9c560e01b81526001600160a01b039190911660048201523360248201529050602081604481865afa908115610996578891610967575b50155f6105c7565b610989915060203d60201161098f575b6109818183612e97565b8101906137bf565b5f61095f565b503d610977565b6040513d8a823e3d90fd5b6109c3915060203d6020116109c9575b6109bb8183612e97565b810190613740565b5f6105b2565b503d6109b1565b63615a470360e01b8652600486fd5b90508701355f610540565b5080895260208920899387601f1981165b808710610a40575f516020614e935f395f51905f52965010610a27575b5050600186811b019055610556565b8601355f19600389901b60f8161c191690555f80610a18565b888301358455602096870196600190940193909201918991506109fb565b634e487b7160e01b88526041600452602488fd5b503461027d57604036600319011261027d576040610a8e612e41565b91610a97612e57565b9260018060a01b031681526002602052209060018060a01b03165f52602052602060ff60405f2054166040519015158152f35b503461027d5760207f4c97694570a07277810af7e5669ffd5f6a2d6b74b6e9a274b8b870fd5114cf87610afc366134a7565b9290610b06613e9e565b6001600160a01b03168085526004825260408520805460ff191660ff86151516179055926040519015158152a280f35b503461027d57602036600319011261027d5760209060ff906040906001600160a01b03610b61612e41565b168152600484522054166040519015158152f35b503461027d57604036600319011261027d576020610273602435600435613b07565b503461027d57606036600319011261027d5760243590600435610bb8612e6d565b90610bc38482613f27565b610bcd338261375f565b15610c3c57505f516020614e935f395f51905f528114610c2d576001600160a01b03821680158015610c24575b610c1257506103c89293610c0d91613f27565b614669565b632ca49b0d60e11b8452600452602483fd5b50308114610bfa565b63615a470360e01b8352600483fd5b63168ab55d60e31b845260045233602452604483fd5b503461027d57608036600319011261027d57600435610c6f612e57565b610c77612e6d565b610c7f613255565b90610c8a338561375f565b15610dcc57601c610ca3610c9d86613c40565b91613c6b565b905016610db85784917f00000000000000000000000000000000000000000000000000000000000000006001600160a01b03169190823b156104445760405163cf40882360e01b8152600481018790523060248201526001600160a01b0390921660448301526001600160401b031660648201529082908290608490829084905af1801561088d57610da3575b50506001600160a01b0381169081610d7857506202000080610d54610c9d85613c40565b90501614610d6657506103c8906145b9565b632ca49b0d60e11b8352600452602482fd5b905081610d8a610c9d6103c894613c40565b509160405192610d9b602085612e97565b8584526149c0565b81610dad91612e97565b61090657825f610d30565b63a2a7201360e01b85526004849052602485fd5b63168ab55d60e31b8552600484905233602452604485fd5b503461027d57604036600319011261027d576004356001600160401b03811161089857610e15903690600401612f45565b6024356001600160401b03811161044457610e34903690600401612f45565b92610e44856104db368685613343565b6007546001600160a01b031615610f6f57610e5f338261375f565b15610f595791859391610e809593610e7681613c40565b9891908991613c6b565b949093610e95610e8f84613563565b93614932565b6007546001600160a01b031694853b15610f5557889788946040519b8c998a9889976348cc613b60e11b89526004890160c0905260c4890190610ed792613ae7565b6001600160a01b03958616602489015263ffffffff9190911660448801526001600160401b03919091166064870152921660848501528382036003190160a4850152610f2292613ae7565b03925af18015610f4857610f335780f35b610f3c91612e97565b805f1261027d575f8180f35b50604051903d90823e3d90fd5b8880fd5b63168ab55d60e31b865260045233602452604485fd5b63093075b560e21b8652600486fd5b503461027d5760a036600319011261027d57600435906024356001600160401b03811161089857610fb3903690600401612f45565b929091610fbe612e6d565b906064359263ffffffff8416840361089857610fd861323f565b91610fe3338361375f565b1561114a57610ff3368888613343565b602081519101206110048184613f27565b9661100f8885613f47565b6110198789614043565b61106761105a61103461102d368d86613343565b8b8861405a565b9661103e8b613c40565b929150506110628c8c6110508b613c40565b9791908891613c6b565b9290506144c7565b6144ec565b9861107189614143565b6111235750506040516306ab592360e01b815260048101939093526024830152306044830152602082606481847f00000000000000000000000000000000000000000000000000000000000000006001600160a01b03165af18015610f48576110ee575b505091602094916110e6938561472f565b604051908152f35b6020823d60201161111b575b8161110760209383612e97565b8101031261027d57508290506110e66110d5565b3d91506110fa565b611145979550602099969493508892509061113f913691613343565b916141ea565b6110e6565b60449163168ab55d60e31b825260045233602452fd5b503461027d57604036600319011261027d5760ff604061118a9233815260046020522054166137d7565b60206110e660243560043561392b565b503461027d57602036600319011261027d57806004356001600160a01b038116908190036113db576111ca613e9e565b6007546001600160a01b0316806112ef575b50600780546001600160a01b03191682179055806111f75750f35b7f00000000000000000000000000000000000000000000000000000000000000006001600160a01b031690813b156112d657829160448392604051948593849263a22cb46560e01b84526004840152600160248401525af1801561088d576112da575b506007546001600160a01b037f000000000000000000000000000000000000000000000000000000000000000081169116813b156112d657829160448392604051948593849263a22cb46560e01b84526004840152600160248401525af1801561088d576112c55750f35b816112cf91612e97565b61027d5780f35b5050fd5b816112e491612e97565b61027d57805f61125a565b7f00000000000000000000000000000000000000000000000000000000000000006001600160a01b031690813b156113de57839160448392604051948593849263a22cb46560e01b845260048401528160248401525af19081156108fb5783916113e3575b50506007546001600160a01b037f000000000000000000000000000000000000000000000000000000000000000081169116813b156113de57839160448392604051948593849263a22cb46560e01b845260048401528160248401525af19081156108fb5783916113c6575b506111dc565b816113d091612e97565b6113db57815f6113c0565b50fd5b505050fd5b816113ed91612e97565b6113db57815f611354565b503461027d57604036600319011261027d5760243563ffffffff8116808203610906576020925063ffffffff611432610c9d600435613c40565b939050604051931616148152f35b503461027d578060031936011261027d57604051631b05885b60e31b8152602090f35b503461027d5760206110e66114773661340b565b94939093929192613834565b503461027d57611492366134a7565b6001600160a01b039091169033821461150157338352600260205260408320825f526020526114d08160405f209060ff801983541691151516179055565b60405190151581527f17307eab39ab6107e8899845ad3d59bd9653f200f220920489ca2b5937696c3160203392a380f35b60405162461bcd60e51b815260206004820152602960248201527f455243313135353a2073657474696e6720617070726f76616c20737461747573604482015268103337b91039b2b63360b91b6064820152608490fd5b503461027d578060031936011261027d57546040516001600160a01b039091168152602090f35b612f72565b503461027d5761159336612f0b565b92919061159f82613ef5565b6115a9338261375f565b15610c3c57506001600160a01b038116308114610c1257506001600160a01b0384168015801561165f575b610c1257506115e78394610c0d84613ef5565b7f00000000000000000000000000000000000000000000000000000000000000006001600160a01b031691823b156113de57604051632142170760e11b81523060048201526001600160a01b03909216602483015260448201529082908290818381606481015b03925af1801561088d576112c55750f35b503081146115d4565b503461027d578060031936011261027d57611681613e9e565b80546001600160a01b03198116825581906001600160a01b03167f8be0079c531659141344cd1fd0a4f28419497f9722a3daafe3b4186f6b6457e08280a380f35b503461027d57606036600319011261027d57600435906044356001600160401b0381168103610898576116f760243584613f27565b9061170182614143565b156117f857611710338561359d565b159384806117e7575b6117cf576117349061172a84613c40565b9391908491613c6b565b959096806117c2575b6117ae5750611772926020969261175661175f93613c40565b939150506144ec565b93849161176c8286614cc6565b846143df565b7ff675815a0817338f93a7da433f6bd5f5542f1029b11b455191ac96c7f6a9b132836001600160401b03604051941693848152a2604051908152f35b63a2a7201360e01b81526004859052602490fd5b506204000086161561173d565b63168ab55d60e31b8452600483905233602452604484fd5b506117f2338461375f565b15611719565b635374b59960e01b8352600483fd5b503461027d57602036600319011261027d576020611829610c9d600435613c40565b506040516001600160a01b039091168152f35b503461027d57606036600319011261027d57806020611859612e41565b6044611863612e57565b61186b613e9e565b60405163a9059cbb60e01b81526001600160a01b039182166004820152823560248201529485938492165af1801561088d576118a5575080f35b6118bd9060203d60201161098f576109818183612e97565b5080f35b503461027d578060031936011261027d576005546040516001600160a01b039091168152602090f35b503461027d57604036600319011261027d576004356001600160401b03811161089857366023820112156108985780600401359061192782613397565b916119356040519384612e97565b8083526024602084019160051b8301019136831161088957602401905b828210611a6b575050506024356001600160401b0381116109065761197b9036906004016133ae565b8151815103611a145781519261199084613397565b9361199e6040519586612e97565b8085526119ad601f1991613397565b013660208601375b82518110156119fa576001906119e96001600160a01b036119d683876136b9565b51166119e283866136b9565b51906134d6565b6119f382876136b9565b52016119b5565b60405160208082528190611a1090820187613474565b0390f35b60405162461bcd60e51b815260206004820152602960248201527f455243313135353a206163636f756e747320616e6420696473206c656e677468604482015268040dad2e6dac2e8c6d60bb1b6064820152608490fd5b60208091611a7884612e83565b815201910190611952565b503461027d57604036600319011261027d576020610273611aa2612e57565b60043561375f565b503461027d57604036600319011261027d57600435906024359061ffff821680920361027d57611ada338461375f565b15611b3e576002611aed610c9d85613c40565b905016611b2a5750611b1c82611b13611b07602095613c40565b80949291819492613c6b565b8096179161452d565b63ffffffff60405191168152f35b63a2a7201360e01b81526004839052602490fd5b63168ab55d60e31b8152600483905233602452604490fd5b503461027d578060031936011261027d576040517f00000000000000000000000000000000000000000000000000000000000000006001600160a01b03168152602090f35b503461027d57608036600319011261027d576044359060043563ffffffff8316830361089857611bf7611bcc613255565b91611bd960243582613f27565b90611be48683614043565b611bed82613c40565b9491908591613c6b565b9490916001600160a01b038316158015611cef575b611ce0579081611bed611c1e93613c40565b91905080611cab5750611c31338661375f565b15611c9357611c48929161106287925b8b886144c7565b93620100008116151580611c7b575b611c67576103c89596179161452d565b63a2a7201360e01b86526004839052602486fd5b5063ffffffff811663ffffffff888317161415611c57565b63168ab55d60e31b8852600485905233602452604488fd5b611cb5338261375f565b15611cca5750611c4892916110628792611c41565b63168ab55d60e31b895260045233602452604488fd5b635374b59960e01b8752600487fd5b506040516302571be360e01b8152600481018590526020816024817f00000000000000000000000000000000000000000000000000000000000000006001600160a01b03165afa908115610996578891611d56575b506001600160a01b0316301415611c0c565b611d6f915060203d6020116109c9576109bb8183612e97565b5f611d44565b503461027d5760a036600319011261027d57611d8f612e41565b611d97612e57565b6044356001600160401b03811161044457611db69036906004016133ae565b6064356001600160401b03811161088957611dd59036906004016133ae565b906084356001600160401b0381116121a257611df5903690600401613379565b90805183510361214c576001600160a01b03841694611e1586151561365f565b6001600160a01b031691338314801561212a575b156120ca57865b878351821015611ea3575080611e8b611e69600189611e508296896136b9565b51611e86611e5e878d6136b9565b518b610e7684613c40565b969092611e7789898861435a565b149182611e91575b50506136e1565b6143df565b01611e30565b909150898060a01b0316148b5f611e7f565b919496939590508386887f4a39dc06d4c0dbc64b70af90fd698a233a518aa5d07e595d983b8c0526c8f7fb6040516040815280611ef5611ee6604083018b613474565b82810360208401523395613474565b0390a43b611f005780f35b602094611f61611f3d95611f4f604051998a988997889663bc197c8160e01b8852336004890152602488015260a0604488015260a4870190613474565b85810360031901606487015290613474565b83810360031901608485015290612ee7565b03925af1829181612099575b5061202357611f7a61443a565b6308c379a014611fec575b60405162461bcd60e51b815260206004820152603460248201527f455243313135353a207472616e7366657220746f206e6f6e20455243313135356044820152732932b1b2b4bb32b91034b6b83632b6b2b73a32b960611b606482015280608481015b0390fd5b611ff4614455565b80611fff5750611f85565b60405162461bcd60e51b815260206004820152908190611fe8906024830190612ee7565b6001600160e01b0319166343e6837f60e01b01612043575f808080808580f35b60405162461bcd60e51b815260206004820152602860248201527f455243313135353a204552433131353552656365697665722072656a656374656044820152676420746f6b656e7360c01b6064820152608490fd5b6120bc91925060203d6020116120c3575b6120b48183612e97565b81019061441a565b905f611f6d565b503d6120aa565b60405162461bcd60e51b815260206004820152603260248201527f455243313135353a207472616e736665722063616c6c6572206973206e6f74206044820152711bdddb995c881b9bdc88185c1c1c9bdd995960721b6064820152608490fd5b50828752600260209081526040808920335f908152925290205460ff16611e29565b60405162461bcd60e51b815260206004820152602860248201527f455243313135353a2069647320616e6420616d6f756e7473206c656e677468206044820152670dad2e6dac2e8c6d60c31b6064820152608490fd5b8580fd5b503461027d578060031936011261027d576040517f00000000000000000000000000000000000000000000000000000000000000006001600160a01b03168152602090f35b503461027d5760e036600319011261027d576004356024356001600160401b0381116109065761221f903690600401613379565b90612228612e6d565b60643591906001600160a01b03831683036108895761224561323f565b9360a4359263ffffffff841684036123a95760c435956001600160401b038716870361248357612275338361375f565b1561246b5782516020840120906122ce61105a6122928486613f27565b9961229d8b87613f47565b6122a7898c614043565b6122b2878c8861405a565b506122bc8b613c40565b929150506110628c8b6110508a613c40565b966122d889614143565b6123ad578991907f00000000000000000000000000000000000000000000000000000000000000006001600160a01b031690813b15610444576040516305ef2c7f60e41b81526004810187905260248101959095523060448601526001600160a01b031660648501526001600160401b03919091166084840152829060a490829084905af1801561099657612394575b506110e69493929161238860408961238e9460209b5260068b52206132a3565b90614c34565b8561472f565b61239f888092612e97565b6123a9575f612368565b8680fd5b60018060a09b95969798999b9493941b037f00000000000000000000000000000000000000000000000000000000000000001691823b15610889576040516305ef2c7f60e41b81526004810187905260248101919091523060448201526001600160a01b0390911660648201526001600160401b0390921660848301528290829081838160a4810103925af1801561088d57612456575b505091611145939185602097946141ea565b612461828092612e97565b61027d5780612444565b63168ab55d60e31b8852600482905233602452604488fd5b8780fd5b503461027d57602036600319011261027d576124b26040611a109260043581526006602052206132a3565b604051918291602083526020830190612ee7565b503461027d578060031936011261027d576007546040516001600160a01b039091168152602090f35b503461027d57604036600319011261027d576004359061250d612e57565b612517338461375f565b156125af57600861252a610c9d85613c40565b90501661259c57909182917f00000000000000000000000000000000000000000000000000000000000000006001600160a01b03169190823b156113de57604051630c4b7b8560e11b815260048101929092526001600160a01b0316602482015290829082908183816044810161164e565b5060249163a2a7201360e01b8252600452fd5b5060449163168ab55d60e31b825260045233602452fd5b503461027d57602036600319011261027d576004356001600160a01b03811690819003610898576125f5613e9e565b6001600160601b0360a01b600554161760055580f35b503461027d57608036600319011261027d57612625612e41565b5061262e612e57565b50604435906064356001600160401b03811161089857612652903690600401612f45565b7f00000000000000000000000000000000000000000000000000000000000000006001600160a01b031690338290036128115782016080838203126104445782356001600160401b03811161088957906126ad918401613379565b6126b960208401612e83565b9160408401359361ffff851685036127c45760606126d79101612e83565b95825160208401208181036127fc5750813b156121a257604051630a3b53db60e21b815260048101829052306024820152868160448183875af180156127f1579087916127dc575b5050602090602460405180948193636b727d4360e11b835260048301525afa9485156127d05794612794575b50612782946001600160a01b03169361ffff90612770906001600160401b031661362b565b9316916001600160a01b031690613ce6565b604051630a85bd0160e11b8152602090f35b9493506020853d6020116127c8575b816127b060209383612e97565b810103126127c4579351929361ffff61274b565b5f80fd5b3d91506127a3565b604051903d90823e3d90fd5b816127e691612e97565b6121a257855f61271f565b6040513d89823e3d90fd5b6331970f3360e21b8752600452602452604485fd5b63032634a760e31b8452600484fd5b503461027d57604036600319011261027d57600435906024356001600160401b03811680910361089857612854338461375f565b156125af576010612867610c9d85613c40565b90501661259c57909182917f00000000000000000000000000000000000000000000000000000000000000006001600160a01b03169190823b156113de5760448492836040519586948593630295720760e31b8552600485015260248401525af1801561088d576112c55750f35b503461027d57602036600319011261027d576005546040516303a24d0760e21b81526004803590820152908290829060249082906001600160a01b03165afa90811561088d578291612938575b60405160208082528190611a1090820185612ee7565b90503d8083833e6129498183612e97565b810190602081830312610906578051906001600160401b038211610444570181601f820112156109065780519061297f82612ecc565b9261298d6040519485612e97565b828452602083830101116104445781611a10949260208093018386015e830101525f612922565b503461027d57604036600319011261027d5760206102736129d3612e57565b60043561359d565b503461027d57604036600319011261027d576129f5612e41565b60243590604080612a08610c9d85613c40565b90501614612b7757612a1c610c9d83613c40565b506001600160a01b039182169116818114612b2857803314908115612b06575b5015612a9b5781835260036020526040832080546001600160a01b03191682179055612a6a610c9d83613c40565b506001600160a01b03167f8c5be1e5ebec7d5bd14f71427d1e84f3dd0314c0f7b2291e5b200ac8c7c3b9258480a480f35b60405162461bcd60e51b815260206004820152603d60248201527f4552433732313a20617070726f76652063616c6c6572206973206e6f7420746f60448201527f6b656e206f776e6572206f7220617070726f76656420666f7220616c6c0000006064820152608490fd5b845250600260209081526040808520335f908152925281205460ff1690612a3c565b60405162461bcd60e51b815260206004820152602160248201527f4552433732313a20617070726f76616c20746f2063757272656e74206f776e656044820152603960f91b6064820152608490fd5b63a2a7201360e01b83526004829052602483fd5b503461027d57602036600319011261027d576020612baa600435613563565b6040516001600160a01b039091168152f35b50346127c457612bcb36612f0b565b612bd483613ef5565b612bde338261375f565b15612cc657506001600160a01b038216308114612cab57506001600160a01b03811680158015612cbd575b612cab5750612c1b90610c0d84613ef5565b7f00000000000000000000000000000000000000000000000000000000000000006001600160a01b031691823b156127c457604051632142170760e11b81523060048201526001600160a01b039290921660248301526044820152905f908290606490829084905af18015612ca057612c92575080f35b612c9e91505f90612e97565b005b6040513d5f823e3d90fd5b632ca49b0d60e11b5f5260045260245ffd5b50308114612c09565b63168ab55d60e31b5f526004523360245260445ffd5b346127c4575f3660031901126127c457611a10604051612cfd604082612e97565b600f81526e23b7b0ba2730b6b2abb930b83832b960891b6020820152604051918291602083526020830190612ee7565b346127c45760203660031901126127c45760043563ffffffff60e01b81168091036127c457602090631b05885b60e31b8114908115612dbc575b8115612d79575b506040519015158152f35b636cdb3d1360e11b811491508115612dab575b8115612d9a575b5082612d6e565b6301ffc9a760e01b14905082612d93565b6303a24d0760e21b81149150612d8c565b630a85bd0160e11b81149150612d67565b346127c45760203660031901126127c457606063ffffffff6001600160401b03612dfb610658600435613c40565b6040949194519460018060a01b03168552166020840152166040820152f35b346127c45760403660031901126127c45760206110e6612e38612e41565b602435906134d6565b600435906001600160a01b03821682036127c457565b602435906001600160a01b03821682036127c457565b604435906001600160a01b03821682036127c457565b35906001600160a01b03821682036127c457565b90601f801991011681019081106001600160401b03821117612eb857604052565b634e487b7160e01b5f52604160045260245ffd5b6001600160401b038111612eb857601f01601f191660200190565b805180835260209291819084018484015e5f828201840152601f01601f1916010190565b60609060031901126127c457600435906024356001600160a01b03811681036127c457906044356001600160a01b03811681036127c45790565b9181601f840112156127c4578235916001600160401b0383116127c457602083818601950101116127c457565b346127c45760803660031901126127c4576004356001600160401b0381116127c457612fa2903690600401612f45565b60243591906001600160a01b03831683036127c4576044359061ffff8216918281036127c45750606435916001600160a01b03831683036127c4575f612fe9368487613343565b80516020918201206040516331a9108f60e11b8152600481018290527f00000000000000000000000000000000000000000000000000000000000000006001600160a01b03169281602481865afa908115612ca0575f91613220575b506001600160a01b038116331415806131c0575b6131b757823b156127c4576040516323b872dd60e01b81526001600160a01b03919091166004820152306024820152604481018290525f8160648183875af18015612ca0576131a2575b50813b1561090657604051630a3b53db60e21b815260048101829052306024820152838160448183875af1801561319757908491613182575b5050602090602460405180948193636b727d4360e11b835260048301525afa9182156127d05791613147575b50906020956131316131276001600160401b036131369796951661362b565b9687943691613343565b613ce6565b6001600160401b0360405191168152f35b93929190506020843d60201161317a575b8161316560209383612e97565b810103126127c4579251919290916020613108565b3d9150613158565b8161318c91612e97565b61090657825f6130dc565b6040513d86823e3d90fd5b6131af9193505f90612e97565b5f915f6130a3565b612cc682613ef5565b5060405163e985e9c560e01b81526001600160a01b0382166004820152336024820152602081604481875afa908115612ca0575f91613201575b5015613059565b61321a915060203d60201161098f576109818183612e97565b5f6131fa565b613239915060203d6020116109c9576109bb8183612e97565b5f613045565b608435906001600160401b03821682036127c457565b606435906001600160401b03821682036127c457565b90600182811c92168015613299575b602083101461328557565b634e487b7160e01b5f52602260045260245ffd5b91607f169161327a565b9060405191825f8254926132b68461326b565b808452936001811690811561332157506001146132dd575b506132db92500383612e97565b565b90505f9291925260205f20905f915b8183106133055750509060206132db928201015f6132ce565b60209193508060019154838589010152019101909184926132ec565b9050602092506132db94915060ff191682840152151560051b8201015f6132ce565b92919261334f82612ecc565b9161335d6040519384612e97565b8294818452818301116127c4578281602093845f960137010152565b9080601f830112156127c45781602061339493359101613343565b90565b6001600160401b038111612eb85760051b60200190565b9080601f830112156127c45781356133c581613397565b926133d36040519485612e97565b81845260208085019260051b8201019283116127c457602001905b8282106133fb5750505090565b81358152602091820191016133ee565b60a06003198201126127c457600435906001600160401b0382116127c45761343591600401612f45565b90916024356001600160a01b03811681036127c45790604435906064356001600160a01b03811681036127c4579060843561ffff811681036127c45790565b90602080835192838152019201905f5b8181106134915750505090565b8251845260209384019390920191600101613484565b60409060031901126127c4576004356001600160a01b03811681036127c4579060243580151581036127c45790565b6001600160a01b031690811561350a57610c9d6134f291613c40565b506001600160a01b031614613505575f90565b600190565b60405162461bcd60e51b815260206004820152602b60248201527f455243313135353a2062616c616e636520717565727920666f7220746865207a60448201526a65726f206164647265737360a81b6064820152608490fd5b61356f610c9d82613c40565b506001600160a01b031615613598575f908152600360205260409020546001600160a01b031690565b505f90565b906135ab9061172a83613c40565b6001600160a01b039283169190921681811494908515613608575b5084156135e8575b5050826135da57505090565b6135e49250613cbb565b1590565b919350906001600160a01b03906135fe90613563565b1614915f806135ce565b9094505f52600260205260405f20815f5260205260ff60405f205416935f6135c6565b6001600160401b036276a700911601906001600160401b03821161364b57565b634e487b7160e01b5f52601160045260245ffd5b1561366657565b60405162461bcd60e51b815260206004820152602560248201527f455243313135353a207472616e7366657220746f20746865207a65726f206164604482015264647265737360d81b6064820152608490fd5b80518210156136cd5760209160051b010190565b634e487b7160e01b5f52603260045260245ffd5b156136e857565b60405162461bcd60e51b815260206004820152602a60248201527f455243313135353a20696e73756666696369656e742062616c616e636520666f60448201526939103a3930b739b332b960b11b6064820152608490fd5b908160209103126127c457516001600160a01b03811681036127c45790565b61065861376b91613c40565b6001600160a01b0384811692169182149390918415613790575050826135da57505090565b5f9081526002602090815260408083206001600160a01b0390941683529290529081205460ff169350806135ce565b908160209103126127c4575180151581036127c45790565b156137de57565b60405162461bcd60e51b815260206004820152602860248201527f436f6e74726f6c6c61626c653a2043616c6c6572206973206e6f74206120636f604482015267373a3937b63632b960c11b6064820152608490fd5b949091939293335f52600460205261385260ff60405f2054166137d7565b61385d368488613343565b8051602091820120604051633f2891eb60e21b815260048101919091523060248201526044810196909652856064815f7f00000000000000000000000000000000000000000000000000000000000000006001600160a01b03165af1948515612ca0575f956138f5575b5061ffff6138ed86976138e56001600160401b03613394991661362b565b953691613343565b921691613ce6565b94506020853d602011613923575b8161391060209383612e97565b810103126127c45793519361ffff6138c7565b3d9150613903565b61393481613ef5565b60405163c475abff60e01b8152600481018390526024810193909352907f00000000000000000000000000000000000000000000000000000000000000006001600160a01b0316906020846044815f865af1938415612ca0575f94613ab2575b506020906024604051809481936331a9108f60e11b835260048301525afa5f9181613a91575b506139c457505090565b6001600160a01b03163014801590613a0b575b613a0757613394906139f16001600160401b03841661362b565b906139fb81613c40565b5091611e868382614cc6565b5090565b506040516302571be360e01b8152600481018290526020816024817f00000000000000000000000000000000000000000000000000000000000000006001600160a01b03165afa908115612ca0575f91613a72575b506001600160a01b03163014156139d7565b613a8b915060203d6020116109c9576109bb8183612e97565b5f613a60565b613aab91925060203d6020116109c9576109bb8183612e97565b905f6139ba565b9093506020813d602011613adf575b81613ace60209383612e97565b810103126127c45751926020613994565b3d9150613ac1565b908060209392818452848401375f828201840152601f01601f1916010190565b5f516020614e935f395f51905f52613b27613b228484613f27565b614143565b9103613bb657506040516331a9108f60e11b815260048101919091526020816024817f00000000000000000000000000000000000000000000000000000000000000006001600160a01b03165afa5f9181613b95575b50613b8757505f90565b6001600160a01b0316301490565b613baf91925060203d6020116109c9576109bb8183612e97565b905f613b7d565b905090565b601f8211613bc857505050565b5f5260205f20906020601f840160051c83019310613c00575b601f0160051c01905b818110613bf5575050565b5f8155600101613bea565b9091508190613be1565b5f526006602052613c1d60405f206132a3565b8051156135985780613c3b613c3461339493614aeb565b9092614897565b613b07565b5f908152600160205260409020546001600160a01b0381169160a082901c63ffffffff169160c01c90565b9092916001600160401b0342911610613c82579190565b916201000080911614613c93575f90565b5f91505f90565b6001600160401b036276a6ff19911601906001600160401b03821161364b57565b62020000809116149081613ccd575090565b613cd79150613c9a565b6001600160401b034291161090565b929091613cf884516020860120613ef5565b92613d23604095865190613d0c8883612e97565b60068252640119dbd85d60da1b6020830152614c34565b91845f526006602052855f2083516001600160401b038111612eb857613d4d81610511845461326b565b6020601f8211600114613e325791613d8582613d90989796959362030000955f91613e2757508160011b915f199060031b1c19161790565b90555b17918561472f565b6001600160a01b038316613da357505050565b7f00000000000000000000000000000000000000000000000000000000000000006001600160a01b031692833b156127c4578251630c4b7b8560e11b815260048101929092526001600160a01b03166024820152915f908390604490829084905af1908115613e1e5750613e145750565b5f6132db91612e97565b513d5f823e3d90fd5b90508701515f610540565b601f19821690835f52805f20915f5b818110613e8657509262030000949260019282613d909b9a99989610613e6e575b5050811b019055613d88565b8801515f1960f88460031b161c191690555f80613e62565b9192602060018192868c015181550194019201613e41565b5f546001600160a01b03163303613eb157565b606460405162461bcd60e51b815260206004820152602060248201527f4f776e61626c653a2063616c6c6572206973206e6f7420746865206f776e65726044820152fd5b60405160208101915f516020614e935f395f51905f528352604082015260408152613f21606082612e97565b51902090565b906040519060208201928352604082015260408152613f21606082612e97565b613f5361065883613c40565b916001600160401b03429116109081613fa6575b5015613f985750613f7c610c9d602092613c40565b905016613f865750565b63a2a7201360e01b5f5260045260245ffd5b62010000915016613f865750565b6001600160a01b03161590508015613fbf575b5f613f67565b506040516302571be360e01b8152600481018490526020816024817f00000000000000000000000000000000000000000000000000000000000000006001600160a01b03165afa908115612ca0575f91614024575b506001600160a01b031615613fb9565b61403d915060203d6020116109c9576109bb8183612e97565b5f614014565b9063ffffffff63fffdffff8092171603613f865750565b916140749193925f52600660205261238860405f206132a3565b915f52600660205260405f20918051926001600160401b038411612eb8576140a6846140a0835461326b565b83613bbb565b602093601f81116001146140e557806140d5929394955f916140da57508160011b915f199060031b1c19161790565b905590565b90508401515f610540565b601f19811694825f52805f20905f5b87811061412b57508260019495969710614113575b5050811b01905590565b8501515f1960f88460031b161c191690555f80614109565b909160206001819285890151815501930191016140f4565b61414f610c9d82613c40565b506001600160a01b031615159081614165575090565b6040516302571be360e01b8152600481019190915290506020816024817f00000000000000000000000000000000000000000000000000000000000000006001600160a01b03165afa908115612ca0575f916141cb575b506001600160a01b0316301490565b6141e4915060203d6020116109c9576109bb8183612e97565b5f6141bc565b92919594909361420090614216611bed87613c40565b9990965f52600660205261238860405f206132a3565b97865f52600660205261422c60405f205461326b565b15614278575b61424394959697985017858761452d565b6001600160a01b03811661425c5750506132db906145b9565b916132db9260405192614270602085612e97565b5f84526149c0565b865f52600660205260405f2089516001600160401b038111612eb8576142a281610511845461326b565b6020601f82116001146142f15790806142d892614243999a9b9c9d5f926142e6575b50508160011b915f199060031b1c19161790565b90555b889796959450614232565b015190505f806142c4565b601f1982169b835f52815f209c5f5b818110614342575091614243999a9b9c9d9184600195941061432a575b505050811b0190556142db565b01515f1960f88460031b161c191690555f808061431d565b838301518f556001909e019d60209384019301614300565b9162020000808316146143d1575b6001600160401b03429116105f146143ae576201000081166136e8576040905b16156143915750565b5f52600360205260405f206001600160601b0360a01b8154169055565b600481166143be57604090614388565b5063a2a7201360e01b5f5260045260245ffd5b6143da90613c9a565b614368565b929091925f5260016020526001600160401b0360c01b9060c01b169163ffffffff60a01b9060a01b169060018060a01b0316171760405f2055565b908160209103126127c457516001600160e01b0319811681036127c45790565b5f9060033d1161444657565b905060045f803e5f5160e01c90565b5f60443d10613394576040513d600319016004823e8051913d60248401116001600160401b038411176144c157828201928351916001600160401b0383116144b9573d840160031901858401602001116144b9575061339492910160200190612e97565b949350505050565b92915050565b919063ffff000016151590816144e0575b50613f865750565b6001915016155f6144d8565b916001600160401b0381166001600160401b03841611614525575b506001600160401b0381166001600160401b03831610613bb6575090565b91505f614507565b93847f39873f00c80f4f94b7bd1594aebcf650f003545b74824d57ddf4939e3ff3a34b602085614572856001600160401b0398899861456c8289614cc6565b876143df565b63ffffffff60405191168152a2169116811161458c575050565b60207ff675815a0817338f93a7da433f6bd5f5542f1029b11b455191ac96c7f6a9b13291604051908152a2565b5f6001806145c9610c9d85613c40565b905016146143be576145da82614932565b7f00000000000000000000000000000000000000000000000000000000000000006001600160a01b0316803b156127c4575f8091604460405180948193635b0fc9c360e01b83528860048401528160248401525af18015612ca057614655575b5060205f516020614eb35f395f51905f5291604051908152a2565b61466191505f90612e97565b5f602061463a565b90600180614679610c9d85613c40565b905016146143be5761468a82614932565b7f00000000000000000000000000000000000000000000000000000000000000006001600160a01b031690813b156127c457604051635b0fc9c360e01b8152600481018490526001600160a01b0382166024820152915f908390604490829084905af1908115612ca0575f516020614eb35f395f51905f529260209261471f575b506040516001600160a01b039091168152a2565b5f61472991612e97565b5f61470b565b939261473b8186614cc6565b61474485613c40565b50506001600160a01b0316614871575b61477481856001600160401b0361476a89613c40565b9591908691613c6b565b91909216936001600160401b03811690858211614869575b50421115614859575b506001600160a01b03166107f0576001600160a01b0385169283156107a15730841461073f5761482f866147f47f8ce7013e8abebc55c3890a68f5a27c67c3f7efa64e584de5fb22363c606fd3409963ffffffff956148439a8d6143df565b855f6040518c8152600160208201525f516020614e735f395f51905f5260403392a48960405191614826602084612e97565b5f835233614cec565b604051958695608087526080870190612ee7565b93602086015216604084015260608301520390a2565b63ffff000016841791505f614795565b98505f61478c565b61487a85614932565b845f516020614eb35f395f51905f5260206040515f8152a2614754565b6148a18282614bc1565b909182156148d4576148b4929350614897565b604080516020810192835280820193909352825290613f21606082612e97565b515f1981019392508311905061364b57036148ed575f90565b60405162461bcd60e51b815260206004820152601d60248201527f6e616d65686173683a204a756e6b20617420656e64206f66206e616d650000006044820152606490fd5b5f9061494a61494082613c40565b8293918193613c6b565b9190508385526003602052604085206001600160601b0360a01b815416905583855260016020526001600160401b0360c01b9060c01b169063ffffffff60a01b9060a01b161760408420556040519182526001602083015260018060a01b0316905f516020614e735f395f51905f5260403392a4565b92916149cf91611bed82613c40565b95906149dc85888661435a565b6001600160a01b039081169082166149f58282146136e1565b6001600160a01b038416918214614a3c57614a176001966132db9986886143df565b6040518581528660208201525f516020614e735f395f51905f5260403392a433614dab565b5050505050505050565b90614a579493929161105083613c40565b614a6288828761435a565b6001861480614ac9575b614a75906136e1565b6001600160a01b0384811692168214614a3c576132db97614a979185876143df565b60408051858152602081018790526001600160a01b0384169133915f516020614e735f395f51905f529190a433614dab565b506001600160a01b0382811690841614614a6c565b9190820180921161364b57565b905f91805115614b7c578051156136cd57602081015160f81c928315614b7057505f90836001018060011161364b57815190818111614b5b575050836021614b37920120935b82614ade565b9060018201809211614b47575090565b634e487b7160e01b81526011600452602490fd5b638a3c1cfb60e01b5f5260045260245260445ffd5b9050614b375f93614b31565b60405162461bcd60e51b815260206004820152601e60248201527f726561644c6162656c3a20496e646578206f7574206f6620626f756e647300006044820152606490fd5b9190918051831015614b7c5780518310156136cd57828101602081015160f81c918215614c27576001850180861161364b5783614bfd91614ade565b905190818111614b5b57505090806021614c1993012093614ade565b6001810180911161364b5790565b5050614c19905f93614ade565b906001825110614cb75760ff825111614c955761339490602160208451928160405196879560ff60f81b9060f81b16828701528051918291018587015e8401908382015f8152815193849201905e01015f815203601f198101835282612e97565b60405163e3ba295f60e01b81526020600482015280611fe86024820185612ee7565b631406d65b60e11b5f5260045ffd5b9061ffff811615159081614cdc5750613f865750565b620100019150811614155f6144d8565b919290803b614cfc575b50505050565b614d48935f6020946040519687958694859363f23a6e6160e01b855260018060a01b0316600485015284602485015260448401526001606484015260a0608484015260a4830190612ee7565b03926001600160a01b03165af15f9181614d8a575b50614d6a57611f7a61443a565b6001600160e01b031916630dc5919f60e01b01612043575f808080614cf6565b614da491925060203d6020116120c3576120b48183612e97565b905f614d5d565b9394823b614dbc575b505050505050565b602094614e0d5f926040519889978896879563f23a6e6160e01b875260018060a01b0316600487015260018060a01b031660248601526044850152606484015260a0608484015260a4830190612ee7565b03926001600160a01b03165af15f9181614e51575b50614e2f57611f7a61443a565b6001600160e01b031916630dc5919f60e01b01612043575f8080808080614db4565b614e6b91925060203d6020116120c3576120b48183612e97565b905f614e2256fec3d58168c5ae7397731d063d5bbf3d657854427343f4c083240f7aacaa2d0f625b00879fb3cf6886271b2d0f62386525acf379cdbc8d0987bf35fd164141e507ee2ba1195c65bcf218a83d874335c6bf9d9067b4c672f3c3bf16cf40de7586c4a164736f6c634300081c000a",
  "linkReferences": {},
  "deployedLinkReferences": {},
  "immutableReferences": {
    "3696": [
      {
        "length": 32,
        "start": 1393
      },
      {
        "length": 32,
        "start": 3246
      },
      {
        "length": 32,
        "start": 4256
      },
      {
        "length": 32,
        "start": 4712
      },
      {
        "length": 32,
        "start": 4963
      },
      {
        "length": 32,
        "start": 7020
      },
      {
        "length": 32,
        "start": 7436
      },
      {
        "length": 32,
        "start": 8929
      },
      {
        "length": 32,
        "start": 9152
      },
      {
        "length": 32,
        "start": 9527
      },
      {
        "length": 32,
        "start": 10356
      },
      {
        "length": 32,
        "start": 14888
      },
      {
        "length": 32,
        "start": 15781
      },
      {
        "length": 32,
        "start": 16348
      },
      {
        "length": 32,
        "start": 16772
      },
      {
        "length": 32,
        "start": 17884
      },
      {
        "length": 32,
        "start": 18060
      }
    ],
    "3699": [
      {
        "length": 32,
        "start": 4601
      },
      {
        "length": 32,
        "start": 4849
      },
      {
        "length": 32,
        "start": 5609
      },
      {
        "length": 32,
        "start": 8636
      },
      {
        "length": 32,
        "start": 9812
      },
      {
        "length": 32,
        "start": 11293
      },
      {
        "length": 32,
        "start": 12295
      },
      {
        "length": 32,
        "start": 14479
      },
      {
        "length": 32,
        "start": 14675
      },
      {
        "length": 32,
        "start": 15179
      }
    ]
  },
  "inputSourceName": "project/contracts/GoatNameWrapper.sol",
  "buildInfoId": "solc-0_8_28-110c3819761808c4a6a33039a709f07921ac9249"
}