{
  "_format": "hh3-artifact-1",
  "contractName": "GoatNameWrapper",
  "sourceName": "contracts/GoatNameWrapper.sol",
  "abi": [
    {
      "inputs": [
        {
          "internalType": "contract ENS",
          "name": "_ens",
          "type": "address"
        },
        {
          "internalType": "contract IBaseRegistrar",
          "name": "_registrar",
          "type": "address"
        },
        {
          "internalType": "contract IMetadataService",
          "name": "_metadataService",
          "type": "address"
        }
      ],
      "stateMutability": "nonpayable",
      "type": "constructor"
    },
    {
      "inputs": [],
      "name": "CannotUpgrade",
      "type": "error"
    },
    {
      "inputs": [],
      "name": "IncompatibleParent",
      "type": "error"
    },
    {
      "inputs": [
        {
          "internalType": "address",
          "name": "owner",
          "type": "address"
        }
      ],
      "name": "IncorrectTargetOwner",
      "type": "error"
    },
    {
      "inputs": [],
      "name": "IncorrectTokenType",
      "type": "error"
    },
    {
      "inputs": [
        {
          "internalType": "bytes32",
          "name": "labelHash",
          "type": "bytes32"
        },
        {
          "internalType": "bytes32",
          "name": "expectedLabelhash",
          "type": "bytes32"
        }
      ],
      "name": "LabelMismatch",
      "type": "error"
    },
    {
      "inputs": [
        {
          "internalType": "string",
          "name": "label",
          "type": "string"
        }
      ],
      "name": "LabelTooLong",
      "type": "error"
    },
    {
      "inputs": [],
      "name": "LabelTooShort",
      "type": "error"
    },
    {
      "inputs": [],
      "name": "NameIsNotWrapped",
      "type": "error"
    },
    {
      "inputs": [
        {
          "internalType": "uint256",
          "name": "offset",
          "type": "uint256"
        },
        {
          "internalType": "uint256",
          "name": "length",
          "type": "uint256"
        }
      ],
      "name": "OffsetOutOfBoundsError",
      "type": "error"
    },
    {
      "inputs": [
        {
          "internalType": "bytes32",
          "name": "node",
          "type": "bytes32"
        }
      ],
      "name": "OperationProhibited",
      "type": "error"
    },
    {
      "inputs": [
        {
          "internalType": "bytes32",
          "name": "node",
          "type": "bytes32"
        },
        {
          "internalType": "address",
          "name": "addr",
          "type": "address"
        }
      ],
      "name": "Unauthorised",
      "type": "error"
    },
    {
      "anonymous": false,
      "inputs": [
        {
          "indexed": true,
          "internalType": "address",
          "name": "owner",
          "type": "address"
        },
        {
          "indexed": true,
          "internalType": "address",
          "name": "approved",
          "type": "address"
        },
        {
          "indexed": true,
          "internalType": "uint256",
          "name": "tokenId",
          "type": "uint256"
        }
      ],
      "name": "Approval",
      "type": "event"
    },
    {
      "anonymous": false,
      "inputs": [
        {
          "indexed": true,
          "internalType": "address",
          "name": "account",
          "type": "address"
        },
        {
          "indexed": true,
          "internalType": "address",
          "name": "operator",
          "type": "address"
        },
        {
          "indexed": false,
          "internalType": "bool",
          "name": "approved",
          "type": "bool"
        }
      ],
      "name": "ApprovalForAll",
      "type": "event"
    },
    {
      "anonymous": false,
      "inputs": [
        {
          "indexed": true,
          "internalType": "address",
          "name": "controller",
          "type": "address"
        },
        {
          "indexed": false,
          "internalType": "bool",
          "name": "active",
          "type": "bool"
        }
      ],
      "name": "ControllerChanged",
      "type": "event"
    },
    {
      "anonymous": false,
      "inputs": [
        {
          "indexed": true,
          "internalType": "bytes32",
          "name": "node",
          "type": "bytes32"
        },
        {
          "indexed": false,
          "internalType": "uint64",
          "name": "expiry",
          "type": "uint64"
        }
      ],
      "name": "ExpiryExtended",
      "type": "event"
    },
    {
      "anonymous": false,
      "inputs": [
        {
          "indexed": true,
          "internalType": "bytes32",
          "name": "node",
          "type": "bytes32"
        },
        {
          "indexed": false,
          "internalType": "uint32",
          "name": "fuses",
          "type": "uint32"
        }
      ],
      "name": "FusesSet",
      "type": "event"
    },
    {
      "anonymous": false,
      "inputs": [
        {
          "indexed": true,
          "internalType": "bytes32",
          "name": "node",
          "type": "bytes32"
        },
        {
          "indexed": false,
          "internalType": "address",
          "name": "owner",
          "type": "address"
        }
      ],
      "name": "NameUnwrapped",
      "type": "event"
    },
    {
      "anonymous": false,
      "inputs": [
        {
          "indexed": true,
          "internalType": "bytes32",
          "name": "node",
          "type": "bytes32"
        },
        {
          "indexed": false,
          "internalType": "bytes",
          "name": "name",
          "type": "bytes"
        },
        {
          "indexed": false,
          "internalType": "address",
          "name": "owner",
          "type": "address"
        },
        {
          "indexed": false,
          "internalType": "uint32",
          "name": "fuses",
          "type": "uint32"
        },
        {
          "indexed": false,
          "internalType": "uint64",
          "name": "expiry",
          "type": "uint64"
        }
      ],
      "name": "NameWrapped",
      "type": "event"
    },
    {
      "anonymous": false,
      "inputs": [
        {
          "indexed": true,
          "internalType": "address",
          "name": "previousOwner",
          "type": "address"
        },
        {
          "indexed": true,
          "internalType": "address",
          "name": "newOwner",
          "type": "address"
        }
      ],
      "name": "OwnershipTransferred",
      "type": "event"
    },
    {
      "anonymous": false,
      "inputs": [
        {
          "indexed": true,
          "internalType": "address",
          "name": "operator",
          "type": "address"
        },
        {
          "indexed": true,
          "internalType": "address",
          "name": "from",
          "type": "address"
        },
        {
          "indexed": true,
          "internalType": "address",
          "name": "to",
          "type": "address"
        },
        {
          "indexed": false,
          "internalType": "uint256[]",
          "name": "ids",
          "type": "uint256[]"
        },
        {
          "indexed": false,
          "internalType": "uint256[]",
          "name": "values",
          "type": "uint256[]"
        }
      ],
      "name": "TransferBatch",
      "type": "event"
    },
    {
      "anonymous": false,
      "inputs": [
        {
          "indexed": true,
          "internalType": "address",
          "name": "operator",
          "type": "address"
        },
        {
          "indexed": true,
          "internalType": "address",
          "name": "from",
          "type": "address"
        },
        {
          "indexed": true,
          "internalType": "address",
          "name": "to",
          "type": "address"
        },
        {
          "indexed": false,
          "internalType": "uint256",
          "name": "id",
          "type": "uint256"
        },
        {
          "indexed": false,
          "internalType": "uint256",
          "name": "value",
          "type": "uint256"
        }
      ],
      "name": "TransferSingle",
      "type": "event"
    },
    {
      "anonymous": false,
      "inputs": [
        {
          "indexed": false,
          "internalType": "string",
          "name": "value",
          "type": "string"
        },
        {
          "indexed": true,
          "internalType": "uint256",
          "name": "id",
          "type": "uint256"
        }
      ],
      "name": "URI",
      "type": "event"
    },
    {
      "inputs": [
        {
          "internalType": "uint256",
          "name": "",
          "type": "uint256"
        }
      ],
      "name": "_tokens",
      "outputs": [
        {
          "internalType": "uint256",
          "name": "",
          "type": "uint256"
        }
      ],
      "stateMutability": "view",
      "type": "function"
    },
    {
      "inputs": [
        {
          "internalType": "bytes32",
          "name": "node",
          "type": "bytes32"
        },
        {
          "internalType": "uint32",
          "name": "fuseMask",
          "type": "uint32"
        }
      ],
      "name": "allFusesBurned",
      "outputs": [
        {
          "internalType": "bool",
          "name": "",
          "type": "bool"
        }
      ],
      "stateMutability": "view",
      "type": "function"
    },
    {
      "inputs": [
        {
          "internalType": "address",
          "name": "to",
          "type": "address"
        },
        {
          "internalType": "uint256",
          "name": "tokenId",
          "type": "uint256"
        }
      ],
      "name": "approve",
      "outputs": [],
      "stateMutability": "nonpayable",
      "type": "function"
    },
    {
      "inputs": [
        {
          "internalType": "address",
          "name": "account",
          "type": "address"
        },
        {
          "internalType": "uint256",
          "name": "id",
          "type": "uint256"
        }
      ],
      "name": "balanceOf",
      "outputs": [
        {
          "internalType": "uint256",
          "name": "",
          "type": "uint256"
        }
      ],
      "stateMutability": "view",
      "type": "function"
    },
    {
      "inputs": [
        {
          "internalType": "address[]",
          "name": "accounts",
          "type": "address[]"
        },
        {
          "internalType": "uint256[]",
          "name": "ids",
          "type": "uint256[]"
        }
      ],
      "name": "balanceOfBatch",
      "outputs": [
        {
          "internalType": "uint256[]",
          "name": "",
          "type": "uint256[]"
        }
      ],
      "stateMutability": "view",
      "type": "function"
    },
    {
      "inputs": [
        {
          "internalType": "bytes32",
          "name": "node",
          "type": "bytes32"
        },
        {
          "internalType": "address",
          "name": "addr",
          "type": "address"
        }
      ],
      "name": "canExtendSubnames",
      "outputs": [
        {
          "internalType": "bool",
          "name": "",
          "type": "bool"
        }
      ],
      "stateMutability": "view",
      "type": "function"
    },
    {
      "inputs": [
        {
          "internalType": "bytes32",
          "name": "node",
          "type": "bytes32"
        },
        {
          "internalType": "address",
          "name": "addr",
          "type": "address"
        }
      ],
      "name": "canModifyName",
      "outputs": [
        {
          "internalType": "bool",
          "name": "",
          "type": "bool"
        }
      ],
      "stateMutability": "view",
      "type": "function"
    },
    {
      "inputs": [
        {
          "internalType": "address",
          "name": "",
          "type": "address"
        }
      ],
      "name": "controllers",
      "outputs": [
        {
          "internalType": "bool",
          "name": "",
          "type": "bool"
        }
      ],
      "stateMutability": "view",
      "type": "function"
    },
    {
      "inputs": [],
      "name": "ens",
      "outputs": [
        {
          "internalType": "contract ENS",
          "name": "",
          "type": "address"
        }
      ],
      "stateMutability": "view",
      "type": "function"
    },
    {
      "inputs": [
        {
          "internalType": "bytes32",
          "name": "parentNode",
          "type": "bytes32"
        },
        {
          "internalType": "bytes32",
          "name": "labelhash",
          "type": "bytes32"
        },
        {
          "internalType": "uint64",
          "name": "expiry",
          "type": "uint64"
        }
      ],
      "name": "extendExpiry",
      "outputs": [
        {
          "internalType": "uint64",
          "name": "",
          "type": "uint64"
        }
      ],
      "stateMutability": "nonpayable",
      "type": "function"
    },
    {
      "inputs": [
        {
          "internalType": "uint256",
          "name": "id",
          "type": "uint256"
        }
      ],
      "name": "getApproved",
      "outputs": [
        {
          "internalType": "address",
          "name": "operator",
          "type": "address"
        }
      ],
      "stateMutability": "view",
      "type": "function"
    },
    {
      "inputs": [
        {
          "internalType": "uint256",
          "name": "id",
          "type": "uint256"
        }
      ],
      "name": "getData",
      "outputs": [
        {
          "internalType": "address",
          "name": "owner",
          "type": "address"
        },
        {
          "internalType": "uint32",
          "name": "fuses",
          "type": "uint32"
        },
        {
          "internalType": "uint64",
          "name": "expiry",
          "type": "uint64"
        }
      ],
      "stateMutability": "view",
      "type": "function"
    },
    {
      "inputs": [],
      "name": "interfaceId",
      "outputs": [
        {
          "internalType": "bytes4",
          "name": "id",
          "type": "bytes4"
        }
      ],
      "stateMutability": "pure",
      "type": "function"
    },
    {
      "inputs": [
        {
          "internalType": "address",
          "name": "account",
          "type": "address"
        },
        {
          "internalType": "address",
          "name": "operator",
          "type": "address"
        }
      ],
      "name": "isApprovedForAll",
      "outputs": [
        {
          "internalType": "bool",
          "name": "",
          "type": "bool"
        }
      ],
      "stateMutability": "view",
      "type": "function"
    },
    {
      "inputs": [
        {
          "internalType": "bytes32",
          "name": "parentNode",
          "type": "bytes32"
        },
        {
          "internalType": "bytes32",
          "name": "labelhash",
          "type": "bytes32"
        }
      ],
      "name": "isWrapped",
      "outputs": [
        {
          "internalType": "bool",
          "name": "",
          "type": "bool"
        }
      ],
      "stateMutability": "view",
      "type": "function"
    },
    {
      "inputs": [
        {
          "internalType": "bytes32",
          "name": "node",
          "type": "bytes32"
        }
      ],
      "name": "isWrapped",
      "outputs": [
        {
          "internalType": "bool",
          "name": "",
          "type": "bool"
        }
      ],
      "stateMutability": "view",
      "type": "function"
    },
    {
      "inputs": [],
      "name": "metadataService",
      "outputs": [
        {
          "internalType": "contract IMetadataService",
          "name": "",
          "type": "address"
        }
      ],
      "stateMutability": "view",
      "type": "function"
    },
    {
      "inputs": [],
      "name": "name",
      "outputs": [
        {
          "internalType": "string",
          "name": "",
          "type": "string"
        }
      ],
      "stateMutability": "view",
      "type": "function"
    },
    {
      "inputs": [
        {
          "internalType": "bytes32",
          "name": "",
          "type": "bytes32"
        }
      ],
      "name": "names",
      "outputs": [
        {
          "internalType": "bytes",
          "name": "",
          "type": "bytes"
        }
      ],
      "stateMutability": "view",
      "type": "function"
    },
    {
      "inputs": [
        {
          "internalType": "address",
          "name": "to",
          "type": "address"
        },
        {
          "internalType": "address",
          "name": "",
          "type": "address"
        },
        {
          "internalType": "uint256",
          "name": "tokenId",
          "type": "uint256"
        },
        {
          "internalType": "bytes",
          "name": "data",
          "type": "bytes"
        }
      ],
      "name": "onERC721Received",
      "outputs": [
        {
          "internalType": "bytes4",
          "name": "",
          "type": "bytes4"
        }
      ],
      "stateMutability": "nonpayable",
      "type": "function"
    },
    {
      "inputs": [],
      "name": "owner",
      "outputs": [
        {
          "internalType": "address",
          "name": "",
          "type": "address"
        }
      ],
      "stateMutability": "view",
      "type": "function"
    },
    {
      "inputs": [
        {
          "internalType": "uint256",
          "name": "id",
          "type": "uint256"
        }
      ],
      "name": "ownerOf",
      "outputs": [
        {
          "internalType": "address",
          "name": "owner",
          "type": "address"
        }
      ],
      "stateMutability": "view",
      "type": "function"
    },
    {
      "inputs": [
        {
          "internalType": "address",
          "name": "_token",
          "type": "address"
        },
        {
          "internalType": "address",
          "name": "_to",
          "type": "address"
        },
        {
          "internalType": "uint256",
          "name": "_amount",
          "type": "uint256"
        }
      ],
      "name": "recoverFunds",
      "outputs": [],
      "stateMutability": "nonpayable",
      "type": "function"
    },
    {
      "inputs": [
        {
          "internalType": "string",
          "name": "label",
          "type": "string"
        },
        {
          "internalType": "address",
          "name": "wrappedOwner",
          "type": "address"
        },
        {
          "internalType": "uint256",
          "name": "duration",
          "type": "uint256"
        },
        {
          "internalType": "address",
          "name": "resolver",
          "type": "address"
        },
        {
          "internalType": "uint16",
          "name": "ownerControlledFuses",
          "type": "uint16"
        }
      ],
      "name": "registerAndWrapETH2LD",
      "outputs": [
        {
          "internalType": "uint256",
          "name": "registrarExpiry",
          "type": "uint256"
        }
      ],
      "stateMutability": "nonpayable",
      "type": "function"
    },
    {
      "inputs": [
        {
          "internalType": "string",
          "name": "label",
          "type": "string"
        },
        {
          "internalType": "address",
          "name": "wrappedOwner",
          "type": "address"
        },
        {
          "internalType": "uint256",
          "name": "duration",
          "type": "uint256"
        },
        {
          "internalType": "address",
          "name": "resolver",
          "type": "address"
        },
        {
          "internalType": "uint16",
          "name": "ownerControlledFuses",
          "type": "uint16"
        }
      ],
      "name": "registerAndWrapGoat2LD",
      "outputs": [
        {
          "internalType": "uint256",
          "name": "registrarExpiry",
          "type": "uint256"
        }
      ],
      "stateMutability": "nonpayable",
      "type": "function"
    },
    {
      "inputs": [],
      "name": "registrar",
      "outputs": [
        {
          "internalType": "contract IBaseRegistrar",
          "name": "",
          "type": "address"
        }
      ],
      "stateMutability": "view",
      "type": "function"
    },
    {
      "inputs": [
        {
          "internalType": "uint256",
          "name": "tokenId",
          "type": "uint256"
        },
        {
          "internalType": "uint256",
          "name": "duration",
          "type": "uint256"
        }
      ],
      "name": "renew",
      "outputs": [
        {
          "internalType": "uint256",
          "name": "expires",
          "type": "uint256"
        }
      ],
      "stateMutability": "nonpayable",
      "type": "function"
    },
    {
      "inputs": [],
      "name": "renounceOwnership",
      "outputs": [],
      "stateMutability": "nonpayable",
      "type": "function"
    },
    {
      "inputs": [
        {
          "internalType": "address",
          "name": "from",
          "type": "address"
        },
        {
          "internalType": "address",
          "name": "to",
          "type": "address"
        },
        {
          "internalType": "uint256[]",
          "name": "ids",
          "type": "uint256[]"
        },
        {
          "internalType": "uint256[]",
          "name": "amounts",
          "type": "uint256[]"
        },
        {
          "internalType": "bytes",
          "name": "data",
          "type": "bytes"
        }
      ],
      "name": "safeBatchTransferFrom",
      "outputs": [],
      "stateMutability": "nonpayable",
      "type": "function"
    },
    {
      "inputs": [
        {
          "internalType": "address",
          "name": "from",
          "type": "address"
        },
        {
          "internalType": "address",
          "name": "to",
          "type": "address"
        },
        {
          "internalType": "uint256",
          "name": "id",
          "type": "uint256"
        },
        {
          "internalType": "uint256",
          "name": "amount",
          "type": "uint256"
        },
        {
          "internalType": "bytes",
          "name": "data",
          "type": "bytes"
        }
      ],
      "name": "safeTransferFrom",
      "outputs": [],
      "stateMutability": "nonpayable",
      "type": "function"
    },
    {
      "inputs": [
        {
          "internalType": "address",
          "name": "operator",
          "type": "address"
        },
        {
          "internalType": "bool",
          "name": "approved",
          "type": "bool"
        }
      ],
      "name": "setApprovalForAll",
      "outputs": [],
      "stateMutability": "nonpayable",
      "type": "function"
    },
    {
      "inputs": [
        {
          "internalType": "bytes32",
          "name": "parentNode",
          "type": "bytes32"
        },
        {
          "internalType": "bytes32",
          "name": "labelhash",
          "type": "bytes32"
        },
        {
          "internalType": "uint32",
          "name": "fuses",
          "type": "uint32"
        },
        {
          "internalType": "uint64",
          "name": "expiry",
          "type": "uint64"
        }
      ],
      "name": "setChildFuses",
      "outputs": [],
      "stateMutability": "nonpayable",
      "type": "function"
    },
    {
      "inputs": [
        {
          "internalType": "address",
          "name": "controller",
          "type": "address"
        },
        {
          "internalType": "bool",
          "name": "active",
          "type": "bool"
        }
      ],
      "name": "setController",
      "outputs": [],
      "stateMutability": "nonpayable",
      "type": "function"
    },
    {
      "inputs": [
        {
          "internalType": "bytes32",
          "name": "node",
          "type": "bytes32"
        },
        {
          "internalType": "uint16",
          "name": "ownerControlledFuses",
          "type": "uint16"
        }
      ],
      "name": "setFuses",
      "outputs": [
        {
          "internalType": "uint32",
          "name": "",
          "type": "uint32"
        }
      ],
      "stateMutability": "nonpayable",
      "type": "function"
    },
    {
      "inputs": [
        {
          "internalType": "contract IMetadataService",
          "name": "_metadataService",
          "type": "address"
        }
      ],
      "name": "setMetadataService",
      "outputs": [],
      "stateMutability": "nonpayable",
      "type": "function"
    },
    {
      "inputs": [
        {
          "internalType": "bytes32",
          "name": "node",
          "type": "bytes32"
        },
        {
          "internalType": "address",
          "name": "owner",
          "type": "address"
        },
        {
          "internalType": "address",
          "name": "resolver",
          "type": "address"
        },
        {
          "internalType": "uint64",
          "name": "ttl",
          "type": "uint64"
        }
      ],
      "name": "setRecord",
      "outputs": [],
      "stateMutability": "nonpayable",
      "type": "function"
    },
    {
      "inputs": [
        {
          "internalType": "bytes32",
          "name": "node",
          "type": "bytes32"
        },
        {
          "internalType": "address",
          "name": "resolver",
          "type": "address"
        }
      ],
      "name": "setResolver",
      "outputs": [],
      "stateMutability": "nonpayable",
      "type": "function"
    },
    {
      "inputs": [
        {
          "internalType": "bytes32",
          "name": "parentNode",
          "type": "bytes32"
        },
        {
          "internalType": "string",
          "name": "label",
          "type": "string"
        },
        {
          "internalType": "address",
          "name": "owner",
          "type": "address"
        },
        {
          "internalType": "uint32",
          "name": "fuses",
          "type": "uint32"
        },
        {
          "internalType": "uint64",
          "name": "expiry",
          "type": "uint64"
        }
      ],
      "name": "setSubnodeOwner",
      "outputs": [
        {
          "internalType": "bytes32",
          "name": "node",
          "type": "bytes32"
        }
      ],
      "stateMutability": "nonpayable",
      "type": "function"
    },
    {
      "inputs": [
        {
          "internalType": "bytes32",
          "name": "parentNode",
          "type": "bytes32"
        },
        {
          "internalType": "string",
          "name": "label",
          "type": "string"
        },
        {
          "internalType": "address",
          "name": "owner",
          "type": "address"
        },
        {
          "internalType": "address",
          "name": "resolver",
          "type": "address"
        },
        {
          "internalType": "uint64",
          "name": "ttl",
          "type": "uint64"
        },
        {
          "internalType": "uint32",
          "name": "fuses",
          "type": "uint32"
        },
        {
          "internalType": "uint64",
          "name": "expiry",
          "type": "uint64"
        }
      ],
      "name": "setSubnodeRecord",
      "outputs": [
        {
          "internalType": "bytes32",
          "name": "node",
          "type": "bytes32"
        }
      ],
      "stateMutability": "nonpayable",
      "type": "function"
    },
    {
      "inputs": [
        {
          "internalType": "bytes32",
          "name": "node",
          "type": "bytes32"
        },
        {
          "internalType": "uint64",
          "name": "ttl",
          "type": "uint64"
        }
      ],
      "name": "setTTL",
      "outputs": [],
      "stateMutability": "nonpayable",
      "type": "function"
    },
    {
      "inputs": [
        {
          "internalType": "contract INameWrapperUpgrade",
          "name": "_upgradeAddress",
          "type": "address"
        }
      ],
      "name": "setUpgradeContract",
      "outputs": [],
      "stateMutability": "nonpayable",
      "type": "function"
    },
    {
      "inputs": [
        {
          "internalType": "bytes4",
          "name": "_interfaceId",
          "type": "bytes4"
        }
      ],
      "name": "supportsInterface",
      "outputs": [
        {
          "internalType": "bool",
          "name": "",
          "type": "bool"
        }
      ],
      "stateMutability": "view",
      "type": "function"
    },
    {
      "inputs": [
        {
          "internalType": "address",
          "name": "newOwner",
          "type": "address"
        }
      ],
      "name": "transferOwnership",
      "outputs": [],
      "stateMutability": "nonpayable",
      "type": "function"
    },
    {
      "inputs": [
        {
          "internalType": "bytes32",
          "name": "parentNode",
          "type": "bytes32"
        },
        {
          "internalType": "bytes32",
          "name": "labelhash",
          "type": "bytes32"
        },
        {
          "internalType": "address",
          "name": "controller",
          "type": "address"
        }
      ],
      "name": "unwrap",
      "outputs": [],
      "stateMutability": "nonpayable",
      "type": "function"
    },
    {
      "inputs": [
        {
          "internalType": "bytes32",
          "name": "labelhash",
          "type": "bytes32"
        },
        {
          "internalType": "address",
          "name": "registrant",
          "type": "address"
        },
        {
          "internalType": "address",
          "name": "controller",
          "type": "address"
        }
      ],
      "name": "unwrapETH2LD",
      "outputs": [],
      "stateMutability": "nonpayable",
      "type": "function"
    },
    {
      "inputs": [
        {
          "internalType": "bytes32",
          "name": "labelhash",
          "type": "bytes32"
        },
        {
          "internalType": "address",
          "name": "registrant",
          "type": "address"
        },
        {
          "internalType": "address",
          "name": "controller",
          "type": "address"
        }
      ],
      "name": "unwrapGoat2LD",
      "outputs": [],
      "stateMutability": "nonpayable",
      "type": "function"
    },
    {
      "inputs": [
        {
          "internalType": "bytes",
          "name": "_name",
          "type": "bytes"
        },
        {
          "internalType": "bytes",
          "name": "extraData",
          "type": "bytes"
        }
      ],
      "name": "upgrade",
      "outputs": [],
      "stateMutability": "nonpayable",
      "type": "function"
    },
    {
      "inputs": [],
      "name": "upgradeContract",
      "outputs": [
        {
          "internalType": "contract INameWrapperUpgrade",
          "name": "",
          "type": "address"
        }
      ],
      "stateMutability": "view",
      "type": "function"
    },
    {
      "inputs": [
        {
          "internalType": "uint256",
          "name": "tokenId",
          "type": "uint256"
        }
      ],
      "name": "uri",
      "outputs": [
        {
          "internalType": "string",
          "name": "",
          "type": "string"
        }
      ],
      "stateMutability": "view",
      "type": "function"
    },
    {
      "inputs": [
        {
          "internalType": "bytes",
          "name": "_name",
          "type": "bytes"
        },
        {
          "internalType": "address",
          "name": "wrappedOwner",
          "type": "address"
        },
        {
          "internalType": "address",
          "name": "resolver",
          "type": "address"
        }
      ],
      "name": "wrap",
      "outputs": [],
      "stateMutability": "nonpayable",
      "type": "function"
    },
    {
      "inputs": [
        {
          "internalType": "string",
          "name": "label",
          "type": "string"
        },
        {
          "internalType": "address",
          "name": "wrappedOwner",
          "type": "address"
        },
        {
          "internalType": "uint16",
          "name": "ownerControlledFuses",
          "type": "uint16"
        },
        {
          "internalType": "address",
          "name": "resolver",
          "type": "address"
        }
      ],
      "name": "wrapETH2LD",
      "outputs": [
        {
          "internalType": "uint64",
          "name": "expiry",
          "type": "uint64"
        }
      ],
      "stateMutability": "nonpayable",
      "type": "function"
    },
    {
      "inputs": [
        {
          "internalType": "string",
          "name": "label",
          "type": "string"
        },
        {
          "internalType": "address",
          "name": "wrappedOwner",
          "type": "address"
        },
        {
          "internalType": "uint16",
          "name": "ownerControlledFuses",
          "type": "uint16"
        },
        {
          "internalType": "address",
          "name": "resolver",
          "type": "address"
        }
      ],
      "name": "wrapGoat2LD",
      "outputs": [
        {
          "internalType": "uint64",
          "name": "expiry",
          "type": "uint64"
        }
      ],
      "stateMutability": "nonpayable",
      "type": "function"
    }
  ],
  "bytecode": "0x60c060405234801561000f575f5ffd5b50604051615bd9380380615bd983398101604081905261002e916102da565b823361003981610274565b6040516302571be360e01b81527f91d1777781884d03a6757a803996e38de2a42967fb37eeaca72729271025a9e260048201525f906001600160a01b038416906302571be390602401602060405180830381865afa15801561009d573d5f5f3e3d5ffd5b505050506040513d601f19601f820116820180604052508101906100c19190610324565b604051630f41a04d60e11b81526001600160a01b03848116600483015291925090821690631e83409a906024016020604051808303815f875af115801561010a573d5f5f3e3d5ffd5b505050506040513d601f19601f8201168201806040525081019061012e9190610346565b505050506001600160a01b0383811660805282811660a052600580546001600160a01b031916918316919091179055600163fffeffff60a01b03197f8c252897927f8bbc8c5ac87cc6acb78f89a399008ccf71238344eb34edc461518190557fa6eef7e35abe7026729641147f7915573c7e97b47efa546f5f6e3230263bcb495560408051808201909152600181525f6020808301829052908052600690527f54cdd369e4e8a8515e52ca72ec816c2101831ad1f18bf44102ed171459c9b4f8906101f990826103f5565b50604080518082019091526006808252640119dbd85d60da1b6020808401919091527f5b00879fb3cf6886271b2d0f62386525acf379cdbc8d0987bf35fd164141e5075f52527f460034ca4f11caa1595b3ecdcaa53a78a7d867fa7800123e24917bad14776d7f9061026b90826103f5565b505050506104af565b5f80546001600160a01b038381166001600160a01b0319831681178455604051919092169283917f8be0079c531659141344cd1fd0a4f28419497f9722a3daafe3b4186f6b6457e09190a35050565b6001600160a01b03811681146102d7575f5ffd5b50565b5f5f5f606084860312156102ec575f5ffd5b83516102f7816102c3565b6020850151909350610308816102c3565b6040850151909250610319816102c3565b809150509250925092565b5f60208284031215610334575f5ffd5b815161033f816102c3565b9392505050565b5f60208284031215610356575f5ffd5b5051919050565b634e487b7160e01b5f52604160045260245ffd5b600181811c9082168061038557607f821691505b6020821081036103a357634e487b7160e01b5f52602260045260245ffd5b50919050565b601f8211156103f057805f5260205f20601f840160051c810160208510156103ce5750805b601f840160051c820191505b818110156103ed575f81556001016103da565b50505b505050565b81516001600160401b0381111561040e5761040e61035d565b6104228161041c8454610371565b846103a9565b6020601f821160018114610454575f831561043d5750848201515b5f19600385901b1c1916600184901b1784556103ed565b5f84815260208120601f198516915b828110156104835787850151825560209485019460019092019101610463565b50848210156104a057868401515f19600387901b60f8161c191681555b50505050600190811b01905550565b60805160a0516156226105b75f395f818161051301528181610ba001528181610c4201528181610ccb01528181611951015281816119e001528181611a8c01528181611b5b01528181611bc701528181611c4701528181611e5501528181611f8b015281816120b2015281816121fc0152818161227f015261299801525f818161057301528181610b2c01528181610e1201528181610f9d01528181611049015281816113490152818161200a015281816121320152818161232a015281816124d40152818161279501528181612bc601528181612c7201528181612d2501528181612da101528181613297015281816133e20152818161363d0152613bd401526156225ff3fe608060405234801561000f575f5ffd5b50600436106102fe575f3560e01c80635d3590d511610195578063c658e086116100e4578063e0dba60f1161009e578063ed70554d11610079578063ed70554d146107a0578063f242432a146107bf578063f2fde38b146107d2578063fd0cd0d9146107e5575f5ffd5b8063e0dba60f14610767578063e985e9c51461077a578063eb8ae5301461078d575f5ffd5b8063c658e086146106e6578063c93ab3fd146106f9578063cf4088231461070c578063d8c9921a1461071f578063d9a50c1214610732578063da8c229e14610745575f5ffd5b80638da5cb5b1161014f578063a64d0cd41161012a578063a64d0cd4146106a0578063adf4960a146106ad578063b6bcad26146106c0578063c475abff146106d3575f5ffd5b80638da5cb5b1461066a578063a22cb4651461067a578063a40149821461068d575f5ffd5b80635d3590d5146106035780636352211e146106165780636e5d6ad214610629578063715018a61461063c5780638b4dfa75146106445780638cf8b41e14610657575f5ffd5b80631896f70a1161025157806333c69ea91161020b578063402906fc116101e6578063402906fc1461059557806341415eab146105bd5780634e1273f4146105d057806353095467146105f0575f5ffd5b806333c69ea9146105485780633b6b02d61461055b5780633f15457f1461056e575f5ffd5b80631896f70a146104c25780631f4e1504146104d557806320c38e2b146104e857806324c1af44146104fb5780632b20e3971461050e5780632eb2c2d614610535575f5ffd5b80630944c6bc116102bc5780630e89341c116102975780630e89341c1461045d57806314ab903814610470578063150b7a02146104835780631534e177146104af575f5ffd5b80630944c6bc1461040c578063095ea7b3146104375780630e4cd7251461044a575f5ffd5b8062fdd58e146103025780630178fe3f1461032857806301ffc9a71461036e57806306fdde0314610391578063073a15c0146103cc578063081812fc146103e1575b5f5ffd5b610315610310366004614431565b6107f8565b6040519081526020015b60405180910390f35b61033b61033636600461445b565b6108a2565b604080516001600160a01b03909416845263ffffffff90921660208401526001600160401b03169082015260600161031f565b61038161037c366004614487565b6108d1565b604051901515815260200161031f565b6103bf6040518060400160405280600f81526020016e23b7b0ba2730b6b2abb930b83832b960891b81525081565b60405161031f91906144d0565b6103df6103da3660046144e2565b610910565b005b6103f46103ef36600461445b565b610920565b6040516001600160a01b03909116815260200161031f565b61041f61041a36600461457b565b610962565b6040516001600160401b03909116815260200161031f565b6103df610445366004614431565b61097a565b6103816104583660046145f0565b6109ba565b6103bf61046b36600461445b565b610a32565b6103df61047e366004614634565b610aa0565b61049661049136600461465e565b610b94565b6040516001600160e01b0319909116815260200161031f565b6103df6104bd3660046146cb565b610d6a565b6103df6104d03660046145f0565b610d94565b6007546103f4906001600160a01b031681565b6103bf6104f636600461445b565b610e49565b6103156105093660046147bc565b610ee0565b6103f47f000000000000000000000000000000000000000000000000000000000000000081565b6103df6105433660046148e6565b6110bb565b6103df610556366004614996565b6112ee565b6103156105693660046149d9565b6114ba565b6103f47f000000000000000000000000000000000000000000000000000000000000000081565b6105a86105a3366004614a54565b6114d4565b60405163ffffffff909116815260200161031f565b6103816105cb3660046145f0565b61156e565b6105e36105de366004614a75565b6115a6565b60405161031f9190614b74565b6005546103f4906001600160a01b031681565b6103df610611366004614b86565b6116c5565b6103f461062436600461445b565b611743565b61041f610637366004614bc4565b61174d565b6103df61187c565b6103df6106523660046144e2565b61188f565b61041f61066536600461457b565b6119ae565b5f546001600160a01b03166103f4565b6103df610688366004614c03565b611d16565b61031561069b3660046149d9565b611deb565b631b05885b60e31b610496565b6103816106bb366004614c2f565b611f26565b6103df6106ce3660046146cb565b611f4a565b6103156106e1366004614c50565b61218c565b6103156106f4366004614c70565b6123eb565b6103df610707366004614cdd565b6125ab565b6103df61071a366004614d47565b6126f3565b6103df61072d366004614d7c565b612882565b610381610740366004614c50565b61294b565b6103816107533660046146cb565b60046020525f908152604090205460ff1681565b6103df610775366004614c03565b612a26565b610381610788366004614da7565b612a8d565b6103df61079b366004614dd3565b612aba565b6103156107ae36600461445b565b60016020525f908152604090205481565b6103df6107cd366004614e36565b612e47565b6103df6107e03660046146cb565b612ef4565b6103816107f336600461445b565b612f6a565b5f6001600160a01b0383166108685760405162461bcd60e51b815260206004820152602b60248201527f455243313135353a2062616c616e636520717565727920666f7220746865207a60448201526a65726f206164647265737360a81b60648201526084015b60405180910390fd5b5f61087283611743565b9050836001600160a01b0316816001600160a01b03160361089757600191505061089c565b5f9150505b92915050565b5f8181526001602052604090205460a081901c60c082901c6108c583838361303b565b90959094509092509050565b5f6001600160e01b03198216631b05885b60e31b148061090157506001600160e01b03198216630a85bd0160e11b145b8061089c575061089c8261306e565b61091b83838361188f565b505050565b5f5f61092b83611743565b90506001600160a01b03811661094357505f92915050565b5f838152600360205260409020546001600160a01b03165b9392505050565b5f61097086868686866119ae565b9695505050505050565b5f610984826108a2565b50915050603f1960408216016109b05760405163a2a7201360e01b81526004810183905260240161085f565b61091b83836130bd565b5f8080806109c7866108a2565b925092509250846001600160a01b0316836001600160a01b031614806109f257506109f28386612a8d565b80610a1657506001600160a01b038516610a0b87610920565b6001600160a01b0316145b80156109705750610a2782826131cc565b159695505050505050565b6005546040516303a24d0760e21b8152600481018390526060916001600160a01b031690630e89341c906024015f60405180830381865afa158015610a79573d5f5f3e3d5ffd5b505050506040513d5f823e601f3d908101601f1916820160405261089c9190810190614e8d565b81610aab813361156e565b610acc57803360405163168ab55d60e31b815260040161085f929190614f0c565b8260105f610ad9836108a2565b5091505063ffffffff8282161615610b075760405163a2a7201360e01b81526004810184905260240161085f565b604051630295720760e31b8152600481018790526001600160401b03861660248201527f00000000000000000000000000000000000000000000000000000000000000006001600160a01b0316906314ab9038906044015b5f604051808303815f87803b158015610b76575f5ffd5b505af1158015610b88573d5f5f3e3d5ffd5b50505050505050505050565b5f336001600160a01b037f00000000000000000000000000000000000000000000000000000000000000001614610bde5760405163032634a760e31b815260040160405180910390fd5b5f808080610bee86880188614f23565b83516020850120939750919550935091508890808214610c2b576040516331970f3360e21b8152600481018290526024810183905260440161085f565b604051630a3b53db60e21b81526001600160a01b037f000000000000000000000000000000000000000000000000000000000000000016906328ed4f6c90610c799085903090600401614f0c565b5f604051808303815f87803b158015610c90575f5ffd5b505af1158015610ca2573d5f5f3e3d5ffd5b5050604051636b727d4360e11b8152600481018d90525f92506276a70091506001600160a01b037f0000000000000000000000000000000000000000000000000000000000000000169063d6e4fa8690602401602060405180830381865afa158015610d10573d5f5f3e3d5ffd5b505050506040513d601f19601f82011682018060405250810190610d349190614f86565b610d3e9190614fb1565b9050610d5187878761ffff1684886131fb565b50630a85bd0160e11b9c9b505050505050505050505050565b610d72613305565b600580546001600160a01b0319166001600160a01b0392909216919091179055565b81610d9f813361156e565b610dc057803360405163168ab55d60e31b815260040161085f929190614f0c565b8260085f610dcd836108a2565b5091505063ffffffff8282161615610dfb5760405163a2a7201360e01b81526004810184905260240161085f565b604051630c4b7b8560e11b81526001600160a01b037f00000000000000000000000000000000000000000000000000000000000000001690631896f70a90610b5f9089908990600401614f0c565b60066020525f908152604090208054610e6190614fd0565b80601f0160208091040260200160405190810160405280929190818152602001828054610e8d90614fd0565b8015610ed85780601f10610eaf57610100808354040283529160200191610ed8565b820191905f5260205f20905b815481529060010190602001808311610ebb57829003601f168201915b505050505081565b5f87610eec813361156e565b610f0d57803360405163168ab55d60e31b815260040161085f929190614f0c565b87516020890120610f1e8a8261335e565b9250610f2a8a8461338a565b610f3483866134c3565b610f3f8a848b6134f6565b50610f4c8a8487876135bd565b9350610f5783613600565b611007576040516305ef2c7f60e41b8152600481018b9052602481018290523060448201526001600160a01b0388811660648301526001600160401b03881660848301527f00000000000000000000000000000000000000000000000000000000000000001690635ef2c7f09060a4015f604051808303815f87803b158015610fde575f5ffd5b505af1158015610ff0573d5f5f3e3d5ffd5b505050506110028a848b8b89896136b6565b6110ae565b6040516305ef2c7f60e41b8152600481018b9052602481018290523060448201526001600160a01b0388811660648301526001600160401b03881660848301527f00000000000000000000000000000000000000000000000000000000000000001690635ef2c7f09060a4015f604051808303815f87803b15801561108a575f5ffd5b505af115801561109c573d5f5f3e3d5ffd5b505050506110ae8a848b8b89896136ec565b5050979650505050505050565b815183511461111d5760405162461bcd60e51b815260206004820152602860248201527f455243313135353a2069647320616e6420616d6f756e7473206c656e677468206044820152670dad2e6dac2e8c6d60c31b606482015260840161085f565b6001600160a01b0384166111435760405162461bcd60e51b815260040161085f90615008565b6001600160a01b03851633148061115f575061115f8533612a8d565b6111c65760405162461bcd60e51b815260206004820152603260248201527f455243313135353a207472616e736665722063616c6c6572206973206e6f74206044820152711bdddb995c881b9bdc88185c1c1c9bdd995960721b606482015260840161085f565b5f5b8351811015611281575f8482815181106111e4576111e461504d565b602002602001015190505f8483815181106112015761120161504d565b602002602001015190505f5f5f611217856108a2565b9250925092506112288583836137a6565b83600114801561124957508a6001600160a01b0316836001600160a01b0316145b6112655760405162461bcd60e51b815260040161085f90615061565b611271858b848461384d565b50505050508060010190506111c8565b50836001600160a01b0316856001600160a01b0316336001600160a01b03167f4a39dc06d4c0dbc64b70af90fd698a233a518aa5d07e595d983b8c0526c8f7fb86866040516112d19291906150ab565b60405180910390a46112e733868686868661388d565b5050505050565b5f6112f9858561335e565b905061130581846134c3565b5f8080611311846108a2565b919450925090506001600160a01b03831615806113be57506040516302571be360e01b81526004810185905230906001600160a01b037f000000000000000000000000000000000000000000000000000000000000000016906302571be390602401602060405180830381865afa15801561138e573d5f5f3e3d5ffd5b505050506040513d601f19601f820116820180604052508101906113b291906150d8565b6001600160a01b031614155b156113dc57604051635374b59960e01b815260040160405180910390fd5b5f806113e78a6108a2565b90935091508a9050611423576113fd863361156e565b61141e57853360405163168ab55d60e31b815260040161085f929190614f0c565b61144e565b61142d8a3361156e565b61144e57893360405163168ab55d60e31b815260040161085f929190614f0c565b6114598689846139e7565b611464878483613a22565b96506201000084161580159061148857508363ffffffff1688851763ffffffff1614155b156114a95760405163a2a7201360e01b81526004810187905260240161085f565b96831796610b8886868a868b613a67565b5f6114c9878787878787611deb565b979650505050505050565b5f826114e0813361156e565b61150157803360405163168ab55d60e31b815260040161085f929190614f0c565b8360025f61150e836108a2565b5091505063ffffffff828216161561153c5760405163a2a7201360e01b81526004810184905260240161085f565b5f80806115488a6108a2565b9250925092506115618a84848c61ffff16178485613a67565b5098975050505050505050565b5f80808061157b866108a2565b925092509250846001600160a01b0316836001600160a01b03161480610a165750610a168386612a8d565b6060815183511461160b5760405162461bcd60e51b815260206004820152602960248201527f455243313135353a206163636f756e747320616e6420696473206c656e677468604482015268040dad2e6dac2e8c6d60bb1b606482015260840161085f565b5f83516001600160401b03811115611625576116256146e6565b60405190808252806020026020018201604052801561164e578160200160208202803683370190505b5090505f5b84518110156116bd576116988582815181106116715761167161504d565b602002602001015185838151811061168b5761168b61504d565b60200260200101516107f8565b8282815181106116aa576116aa61504d565b6020908102919091010152600101611653565b509392505050565b6116cd613305565b60405163a9059cbb60e01b81526001600160a01b0383811660048301526024820183905284169063a9059cbb906044016020604051808303815f875af1158015611719573d5f5f3e3d5ffd5b505050506040513d601f19601f8201168201806040525081019061173d91906150f3565b50505050565b5f61089c82613b0e565b5f5f611759858561335e565b905061176481613600565b61178157604051635374b59960e01b815260040160405180910390fd5b5f61178c86336109ba565b9050801580156117a357506117a1823361156e565b155b156117c557813360405163168ab55d60e31b815260040161085f929190614f0c565b5f80806117d1856108a2565b925092509250831580156117e85750620400008216155b156118095760405163a2a7201360e01b81526004810186905260240161085f565b5f6118138a6108a2565b92505050611822888383613a22565b97506118308685858b613b23565b6040516001600160401b038916815286907ff675815a0817338f93a7da433f6bd5f5542f1029b11b455191ac96c7f6a9b1329060200160405180910390a2509598975050505050505050565b611884613305565b61188d5f613b39565b565b6118a65f5160206155f65f395f51905f528461335e565b6118b0813361156e565b6118d157803360405163168ab55d60e31b815260040161085f929190614f0c565b306001600160a01b0384160361190557604051632ca49b0d60e11b81526001600160a01b038416600482015260240161085f565b61192561191f5f5160206155f65f395f51905f528661335e565b83613b88565b604051632142170760e11b81523060048201526001600160a01b038481166024830152604482018690527f000000000000000000000000000000000000000000000000000000000000000016906342842e0e906064015f604051808303815f87803b158015611992575f5ffd5b505af11580156119a4573d5f5f3e3d5ffd5b5050505050505050565b5f5f86866040516119c092919061510e565b6040519081900381206331a9108f60e11b82526004820181905291505f907f00000000000000000000000000000000000000000000000000000000000000006001600160a01b031690636352211e90602401602060405180830381865afa158015611a2d573d5f5f3e3d5ffd5b505050506040513d601f19601f82011682018060405250810190611a5191906150d8565b90506001600160a01b0381163314801590611af7575060405163e985e9c560e01b81526001600160a01b0382811660048301523360248301527f0000000000000000000000000000000000000000000000000000000000000000169063e985e9c590604401602060405180830381865afa158015611ad1573d5f5f3e3d5ffd5b505050506040513d601f19601f82011682018060405250810190611af591906150f3565b155b15611b2f57611b135f5160206155f65f395f51905f528361335e565b3360405163168ab55d60e31b815260040161085f929190614f0c565b6040516323b872dd60e01b81526001600160a01b038281166004830152306024830152604482018490527f000000000000000000000000000000000000000000000000000000000000000016906323b872dd906064015f604051808303815f87803b158015611b9c575f5ffd5b505af1158015611bae573d5f5f3e3d5ffd5b5050604051630a3b53db60e21b81526001600160a01b037f00000000000000000000000000000000000000000000000000000000000000001692506328ed4f6c9150611c009085903090600401614f0c565b5f604051808303815f87803b158015611c17575f5ffd5b505af1158015611c29573d5f5f3e3d5ffd5b5050604051636b727d4360e11b8152600481018590526276a70092507f00000000000000000000000000000000000000000000000000000000000000006001600160a01b0316915063d6e4fa8690602401602060405180830381865afa158015611c95573d5f5f3e3d5ffd5b505050506040513d601f19601f82011682018060405250810190611cb99190614f86565b611cc39190614fb1565b9250611d0b88888080601f0160208091040260200160405190810160405280939291908181526020018383808284375f920191909152508a9250505061ffff881686886131fb565b505095945050505050565b6001600160a01b0382163303611d805760405162461bcd60e51b815260206004820152602960248201527f455243313135353a2073657474696e6720617070726f76616c20737461747573604482015268103337b91039b2b63360b91b606482015260840161085f565b335f8181526002602090815260408083206001600160a01b03871680855290835292819020805460ff191686151590811790915590519081529192917f17307eab39ab6107e8899845ad3d59bd9653f200f220920489ca2b5937696c31910160405180910390a35050565b335f9081526004602052604081205460ff16611e195760405162461bcd60e51b815260040161085f9061511d565b5f8787604051611e2a92919061510e565b604051908190038120633f2891eb60e21b8252600482018190523060248301526044820187905291507f00000000000000000000000000000000000000000000000000000000000000006001600160a01b03169063fca247ac906064016020604051808303815f875af1158015611ea3573d5f5f3e3d5ffd5b505050506040513d601f19601f82011682018060405250810190611ec79190614f86565b9150611f1b88888080601f0160208091040260200160405190810160405280939291908181526020018383808284375f920191909152508a9250505061ffff8616611f156276a70087614fb1565b886131fb565b509695505050505050565b5f80611f31846108a2565b50841663ffffffff908116908516149250505092915050565b611f52613305565b6007546001600160a01b0316156120665760075460405163a22cb46560e01b81526001600160a01b0391821660048201525f60248201527f00000000000000000000000000000000000000000000000000000000000000009091169063a22cb465906044015f604051808303815f87803b158015611fce575f5ffd5b505af1158015611fe0573d5f5f3e3d5ffd5b505060075460405163a22cb46560e01b81526001600160a01b0391821660048201525f60248201527f0000000000000000000000000000000000000000000000000000000000000000909116925063a22cb46591506044015f604051808303815f87803b15801561204f575f5ffd5b505af1158015612061573d5f5f3e3d5ffd5b505050505b600780546001600160a01b0319166001600160a01b038316908117909155156121895760075460405163a22cb46560e01b81526001600160a01b039182166004820152600160248201527f00000000000000000000000000000000000000000000000000000000000000009091169063a22cb465906044015f604051808303815f87803b1580156120f5575f5ffd5b505af1158015612107573d5f5f3e3d5ffd5b505060075460405163a22cb46560e01b81526001600160a01b039182166004820152600160248201527f0000000000000000000000000000000000000000000000000000000000000000909116925063a22cb46591506044015f604051808303815f87803b158015612177575f5ffd5b505af11580156112e7573d5f5f3e3d5ffd5b50565b335f9081526004602052604081205460ff166121ba5760405162461bcd60e51b815260040161085f9061511d565b5f6121d25f5160206155f65f395f51905f528561335e565b60405163c475abff60e01b815260048101869052602481018590529091505f906001600160a01b037f0000000000000000000000000000000000000000000000000000000000000000169063c475abff906044016020604051808303815f875af1158015612242573d5f5f3e3d5ffd5b505050506040513d601f19601f820116820180604052508101906122669190614f86565b6040516331a9108f60e11b8152600481018790529091507f00000000000000000000000000000000000000000000000000000000000000006001600160a01b031690636352211e90602401602060405180830381865afa9250505080156122ea575060408051601f3d908101601f191682019092526122e7918101906150d8565b60015b6122f757915061089c9050565b6001600160a01b0381163014158061239f57506040516302571be360e01b81526004810184905230906001600160a01b037f000000000000000000000000000000000000000000000000000000000000000016906302571be390602401602060405180830381865afa15801561236f573d5f5f3e3d5ffd5b505050506040513d601f19601f8201168201806040525081019061239391906150d8565b6001600160a01b031614155b156123ae5750915061089c9050565b505f6123bd6276a70083614fb1565b5f8481526001602052604090205490915060a081901c6123df85838386613b23565b50919695505050505050565b5f866123f7813361156e565b61241857803360405163168ab55d60e31b815260040161085f929190614f0c565b5f878760405161242992919061510e565b6040518091039020905061243d898261335e565b9250612449898461338a565b61245383866134c3565b5f6124948a858b8b8080601f0160208091040260200160405190810160405280939291908181526020018383808284375f920191909152506134f692505050565b90506124a28a8588886135bd565b94506124ad84613600565b612559576040516306ab592360e01b8152600481018b9052602481018390523060448201527f00000000000000000000000000000000000000000000000000000000000000006001600160a01b0316906306ab5923906064016020604051808303815f875af1158015612522573d5f5f3e3d5ffd5b505050506040513d601f19601f820116820180604052508101906125469190614f86565b506125548482898989613c73565b61259e565b61259e8a858b8b8080601f0160208091040260200160405190810160405280939291908181526020018383808284375f920191909152508d92508c91508b90506136ec565b5050509695505050505050565b5f6125ee5f86868080601f0160208091040260200160405190810160405280939291908181526020018383808284375f920191909152509293925050613cb59050565b6007549091506001600160a01b031661261a5760405163093075b560e21b815260040160405180910390fd5b612624813361156e565b61264557803360405163168ab55d60e31b815260040161085f929190614f0c565b5f8080612651846108a2565b919450925090505f61266285610920565b905061266d85613d71565b60075f9054906101000a90046001600160a01b03166001600160a01b0316639198c2768a8a878787878e8e6040518963ffffffff1660e01b81526004016126bb98979695949392919061518d565b5f604051808303815f87803b1580156126d2575f5ffd5b505af11580156126e4573d5f5f3e3d5ffd5b50505050505050505050505050565b836126fe813361156e565b61271f57803360405163168ab55d60e31b815260040161085f929190614f0c565b84601c5f61272c836108a2565b5091505063ffffffff828216161561275a5760405163a2a7201360e01b81526004810184905260240161085f565b60405163cf40882360e01b8152600481018990523060248201526001600160a01b0387811660448301526001600160401b03871660648301527f0000000000000000000000000000000000000000000000000000000000000000169063cf408823906084015f604051808303815f87803b1580156127d6575f5ffd5b505af11580156127e8573d5f5f3e3d5ffd5b5050506001600160a01b038816905061284d575f612805896108a2565b509150506201ffff196202000082160161283d57604051632ca49b0d60e11b81526001600160a01b038916600482015260240161085f565b612847895f613b88565b506119a4565b5f61285789611743565b905061287781898b5f1c600160405180602001604052805f815250613e0e565b505050505050505050565b61288c838361335e565b612896813361156e565b6128b757803360405163168ab55d60e31b815260040161085f929190614f0c565b7fa4ff78604c309779d8e4d2f09dc79ada530c86324372f67840ca02e9bebe1af984016128f75760405163615a470360e01b815260040160405180910390fd5b6001600160a01b038216158061291557506001600160a01b03821630145b1561293e57604051632ca49b0d60e11b81526001600160a01b038316600482015260240161085f565b61173d61191f858561335e565b5f5f612957848461335e565b90505f61296382613600565b90505f5160206155f65f395f51905f52851461298257915061089c9050565b6040516331a9108f60e11b8152600481018590527f00000000000000000000000000000000000000000000000000000000000000006001600160a01b031690636352211e90602401602060405180830381865afa925050508015612a03575060408051601f3d908101601f19168201909252612a00918101906150d8565b60015b612a11575f9250505061089c565b6001600160a01b03163014925061089c915050565b612a2e613305565b6001600160a01b0382165f81815260046020908152604091829020805460ff191685151590811790915591519182527f4c97694570a07277810af7e5669ffd5f6a2d6b74b6e9a274b8b870fd5114cf8791015b60405180910390a25050565b6001600160a01b039182165f90815260026020908152604080832093909416825291909152205460ff1690565b5f5f612afe5f87878080601f0160208091040260200160405190810160405280939291908181526020018383808284375f920191909152509293925050613eee9050565b915091505f612b458288888080601f0160208091040260200160405190810160405280939291908181526020018383808284375f920191909152509293925050613cb59050565b90505f612b52828561335e565b5f818152600660205260409020909150612b6d888a83615238565b507fa4ff78604c309779d8e4d2f09dc79ada530c86324372f67840ca02e9bebe1af98201612bae5760405163615a470360e01b815260040160405180910390fd5b6040516302571be360e01b8152600481018290525f907f00000000000000000000000000000000000000000000000000000000000000006001600160a01b0316906302571be390602401602060405180830381865afa158015612c13573d5f5f3e3d5ffd5b505050506040513d601f19601f82011682018060405250810190612c3791906150d8565b90506001600160a01b0381163314801590612cdd575060405163e985e9c560e01b81526001600160a01b0382811660048301523360248301527f0000000000000000000000000000000000000000000000000000000000000000169063e985e9c590604401602060405180830381865afa158015612cb7573d5f5f3e3d5ffd5b505050506040513d601f19601f82011682018060405250810190612cdb91906150f3565b155b15612cff57813360405163168ab55d60e31b815260040161085f929190614f0c565b6001600160a01b03861615612d8a57604051630c4b7b8560e11b81526001600160a01b037f00000000000000000000000000000000000000000000000000000000000000001690631896f70a90612d5c9085908a90600401614f0c565b5f604051808303815f87803b158015612d73575f5ffd5b505af1158015612d85573d5f5f3e3d5ffd5b505050505b604051635b0fc9c360e01b81526001600160a01b037f00000000000000000000000000000000000000000000000000000000000000001690635b0fc9c390612dd89085903090600401614f0c565b5f604051808303815f87803b158015612def575f5ffd5b505af1158015612e01573d5f5f3e3d5ffd5b50505050612877828a8a8080601f0160208091040260200160405190810160405280939291908181526020018383808284375f9201829052508d93509150819050613c73565b6001600160a01b038416612e6d5760405162461bcd60e51b815260040161085f90615008565b6001600160a01b038516331480612e895750612e898533612a8d565b612ee75760405162461bcd60e51b815260206004820152602960248201527f455243313135353a2063616c6c6572206973206e6f74206f776e6572206e6f7260448201526808185c1c1c9bdd995960ba1b606482015260840161085f565b6112e78585858585613e0e565b612efc613305565b6001600160a01b038116612f615760405162461bcd60e51b815260206004820152602660248201527f4f776e61626c653a206e6577206f776e657220697320746865207a65726f206160448201526564647265737360d01b606482015260840161085f565b61218981613b39565b5f8181526006602052604081208054829190612f8590614fd0565b80601f0160208091040260200160405190810160405280929190818152602001828054612fb190614fd0565b8015612ffc5780601f10612fd357610100808354040283529160200191612ffc565b820191905f5260205f20905b815481529060010190602001808311612fdf57829003601f168201915b5050505050905080515f0361301357505f92915050565b5f8061301f8382613eee565b90925090505f61302f8483613cb5565b9050610970818461294b565b5f5f42836001600160401b031610156130655761ffff1962010000851601613061575f94505b5f93505b50929391925050565b5f6001600160e01b03198216636cdb3d1360e11b148061309e57506001600160e01b031982166303a24d0760e21b145b8061089c57506301ffc9a760e01b6001600160e01b031983161461089c565b5f6130c782611743565b9050806001600160a01b0316836001600160a01b0316036131345760405162461bcd60e51b815260206004820152602160248201527f4552433732313a20617070726f76616c20746f2063757272656e74206f776e656044820152603960f91b606482015260840161085f565b336001600160a01b038216148061315057506131508133612a8d565b6131c25760405162461bcd60e51b815260206004820152603d60248201527f4552433732313a20617070726f76652063616c6c6572206973206e6f7420746f60448201527f6b656e206f776e6572206f7220617070726f76656420666f7220616c6c000000606482015260840161085f565b61091b8383613fa2565b5f6202000083811614801561095b5750426131ea6276a700846152f1565b6001600160401b0316109392505050565b845160208601205f61321a5f5160206155f65f395f51905f528361335e565b90505f61324488604051806040016040528060068152602001640119dbd85d60da1b81525061400f565b5f83815260066020526040902090915061325e8282615310565b50613271828289620300008a1789613c73565b6001600160a01b038416156119a457604051630c4b7b8560e11b81526001600160a01b037f00000000000000000000000000000000000000000000000000000000000000001690631896f70a906132ce9085908890600401614f0c565b5f604051808303815f87803b1580156132e5575f5ffd5b505af11580156132f7573d5f5f3e3d5ffd5b505050505050505050505050565b5f546001600160a01b0316331461188d5760405162461bcd60e51b815260206004820181905260248201527f4f776e61626c653a2063616c6c6572206973206e6f7420746865206f776e6572604482015260640161085f565b604080516020808201949094528082019290925280518083038201815260609092019052805191012090565b5f8080613396846108a2565b91945092509050426001600160401b0382161080801561345657506001600160a01b038416158061345657506040516302571be360e01b8152600481018690525f906001600160a01b037f000000000000000000000000000000000000000000000000000000000000000016906302571be390602401602060405180830381865afa158015613427573d5f5f3e3d5ffd5b505050506040513d601f19601f8201168201806040525081019061344b91906150d8565b6001600160a01b0316145b15613494575f613465876108a2565b50915050602081161561348e5760405163a2a7201360e01b81526004810187905260240161085f565b506134bb565b620100008316156134bb5760405163a2a7201360e01b81526004810186905260240161085f565b505050505050565b63fffdffff81811763ffffffff16146134f25760405163a2a7201360e01b81526004810183905260240161085f565b5050565b60605f61359a8360065f8881526020019081526020015f20805461351990614fd0565b80601f016020809104026020016040519081016040528092919081815260200182805461354590614fd0565b80156135905780601f1061356757610100808354040283529160200191613590565b820191905f5260205f20905b81548152906001019060200180831161357357829003601f168201915b505050505061400f565b5f8581526006602052604090209091506135b48282615310565b50949350505050565b5f806135c8856108a2565b925050505f5f6135d9885f1c6108a2565b92509250506135e98787846139e7565b6135f4858483613a22565b98975050505050505050565b5f8061360b83611743565b6001600160a01b03161415801561089c57506040516302571be360e01b81526004810183905230906001600160a01b037f000000000000000000000000000000000000000000000000000000000000000016906302571be390602401602060405180830381865afa158015613682573d5f5f3e3d5ffd5b505050506040513d601f19601f820116820180604052508101906136a691906150d8565b6001600160a01b03161492915050565b5f86815260066020526040812080546136d491879161351990614fd0565b90506136e38682868686613c73565b50505050505050565b5f80806136f8886108a2565b9250925092505f61371f8860065f8d81526020019081526020015f20805461351990614fd0565b5f8a815260066020526040902080549192509061373b90614fd0565b90505f0361375c575f89815260066020526040902061375a8282615310565b505b61376b89858886178589613a67565b6001600160a01b03871661378857613783895f613b88565b610b88565b610b8884888b5f1c600160405180602001604052805f815250613e0e565b6201ffff19620200008316016137c6576137c36276a700826152f1565b90505b42816001600160401b031610156137ff57620100008216156137fa5760405162461bcd60e51b815260040161085f90615061565b613824565b60048216156138245760405163a2a7201360e01b81526004810184905260240161085f565b604082165f0361091b5750505f90815260036020526040902080546001600160a01b0319169055565b60c0816001600160401b0316901b60a08363ffffffff16901b846001600160a01b0316171760015f8681526020019081526020015f208190555050505050565b6001600160a01b0384163b156134bb5760405163bc197c8160e01b81526001600160a01b0385169063bc197c81906138d190899089908890889088906004016153ca565b6020604051808303815f875af192505050801561390b575060408051601f3d908101601f191682019092526139089181019061541b565b60015b6139b757613917615436565b806308c379a003613950575061392b61544f565b806139365750613952565b8060405162461bcd60e51b815260040161085f91906144d0565b505b60405162461bcd60e51b815260206004820152603460248201527f455243313135353a207472616e7366657220746f206e6f6e20455243313135356044820152732932b1b2b4bb32b91034b6b83632b6b2b73a32b960611b606482015260840161085f565b6001600160e01b0319811663bc197c8160e01b146136e35760405162461bcd60e51b815260040161085f906154c9565b63ffff00008216158015906001831615908290613a015750805b156112e75760405163a2a7201360e01b81526004810186905260240161085f565b5f816001600160401b0316846001600160401b03161115613a41578193505b826001600160401b0316846001600160401b03161015613a5f578293505b509192915050565b613a7385858584613b23565b60405163ffffffff8416815285907f39873f00c80f4f94b7bd1594aebcf650f003545b74824d57ddf4939e3ff3a34b9060200160405180910390a2816001600160401b0316816001600160401b031611156112e7576040516001600160401b038216815285907ff675815a0817338f93a7da433f6bd5f5542f1029b11b455191ac96c7f6a9b132906020015b60405180910390a25050505050565b5f5f613b19836108a2565b5090949350505050565b613b2d8483614086565b61173d8484848461384d565b5f80546001600160a01b038381166001600160a01b0319831681178455604051919092169283917f8be0079c531659141344cd1fd0a4f28419497f9722a3daafe3b4186f6b6457e09190a35050565b613b93826001611f26565b15613bb45760405163a2a7201360e01b81526004810183905260240161085f565b613bbd82613d71565b604051635b0fc9c360e01b81526001600160a01b037f00000000000000000000000000000000000000000000000000000000000000001690635b0fc9c390613c0b9085908590600401614f0c565b5f604051808303815f87803b158015613c22575f5ffd5b505af1158015613c34573d5f5f3e3d5ffd5b50506040516001600160a01b03841681528492507fee2ba1195c65bcf218a83d874335c6bf9d9067b4c672f3c3bf16cf40de7586c49150602001612a81565b613c7f858484846140bf565b847f8ce7013e8abebc55c3890a68f5a27c67c3f7efa64e584de5fb22363c606fd34085858585604051613aff9493929190615511565b5f5f5f613cc28585613eee565b909250905081613d335760018551613cda9190615557565b8414613d285760405162461bcd60e51b815260206004820152601d60248201527f6e616d65686173683a204a756e6b20617420656e64206f66206e616d65000000604482015260640161085f565b505f915061089c9050565b613d3d8582613cb5565b6040805160208101929092528101839052606001604051602081830303815290604052805190602001209250505092915050565b5f8181526001602052604090205460a081901c60c082901c613d9483838361303b565b5f86815260036020526040812080546001600160a01b0319169055909350613dc091508590848461384d565b60408051858152600160208201525f916001600160a01b0386169133917fc3d58168c5ae7397731d063d5bbf3d657854427343f4c083240f7aacaa2d0f62910160405180910390a450505050565b5f5f5f613e1a866108a2565b925092509250613e2b8683836137a6565b846001148015613e4c5750876001600160a01b0316836001600160a01b0316145b613e685760405162461bcd60e51b815260040161085f90615061565b866001600160a01b0316836001600160a01b031603613e89575050506112e7565b613e958688848461384d565b60408051878152602081018790526001600160a01b03808a1692908b169133917fc3d58168c5ae7397731d063d5bbf3d657854427343f4c083240f7aacaa2d0f62910160405180910390a46119a4338989898989614131565b5f5f83518310613f405760405162461bcd60e51b815260206004820152601e60248201527f726561644c6162656c3a20496e646578206f7574206f6620626f756e64730000604482015260640161085f565b5f848481518110613f5357613f5361504d565b016020015160f81c90508015613f7f57613f7885613f7286600161556a565b836141eb565b9250613f83565b5f92505b613f8d818561556a565b613f9890600161556a565b9150509250929050565b5f81815260036020526040902080546001600160a01b0319166001600160a01b0384169081179091558190613fd682611743565b6001600160a01b03167f8c5be1e5ebec7d5bd14f71427d1e84f3dd0314c0f7b2291e5b200ac8c7c3b92560405160405180910390a45050565b606060018351101561403457604051631406d65b60e11b815260040160405180910390fd5b60ff83511115614059578260405163e3ba295f60e01b815260040161085f91906144d0565b8251838360405160200161406f93929190615594565b604051602081830303815290604052905092915050565b61ffff81161580159061409e57506201000181811614155b156134f25760405163a2a7201360e01b81526004810183905260240161085f565b6140c98483614086565b5f848152600160205260409020546001600160a01b03811615614125576140ef85613d71565b6040515f815285907fee2ba1195c65bcf218a83d874335c6bf9d9067b4c672f3c3bf16cf40de7586c49060200160405180910390a25b6112e785858585614209565b6001600160a01b0384163b156134bb5760405163f23a6e6160e01b81526001600160a01b0385169063f23a6e619061417590899089908890889088906004016155bc565b6020604051808303815f875af19250505080156141af575060408051601f3d908101601f191682019092526141ac9181019061541b565b60015b6141bb57613917615436565b6001600160e01b0319811663f23a6e6160e01b146136e35760405162461bcd60e51b815260040161085f906154c9565b5f6141ff846141fa848661556a565b6143ee565b5091016020012090565b835f8080614216846108a2565b9194509250905063ffff000082166001600160401b03808716908316111561423c578195505b42826001600160401b03161061425157958617955b6001600160a01b038416156142a85760405162461bcd60e51b815260206004820152601f60248201527f455243313135353a206d696e74206f66206578697374696e6720746f6b656e00604482015260640161085f565b6001600160a01b0388166143085760405162461bcd60e51b815260206004820152602160248201527f455243313135353a206d696e7420746f20746865207a65726f206164647265736044820152607360f81b606482015260840161085f565b306001600160a01b0389160361437d5760405162461bcd60e51b815260206004820152603460248201527f455243313135353a206e65774f776e65722063616e6e6f74206265207468652060448201527313985b5955dc985c1c195c8818dbdb9d1c9858dd60621b606482015260840161085f565b6143898589898961384d565b60408051868152600160208201526001600160a01b038a16915f9133917fc3d58168c5ae7397731d063d5bbf3d657854427343f4c083240f7aacaa2d0f62910160405180910390a4612877335f8a88600160405180602001604052805f815250614131565b81518111156134f2578151604051638a3c1cfb60e01b815261085f918391600401918252602082015260400190565b6001600160a01b0381168114612189575f5ffd5b5f5f60408385031215614442575f5ffd5b823561444d8161441d565b946020939093013593505050565b5f6020828403121561446b575f5ffd5b5035919050565b6001600160e01b031981168114612189575f5ffd5b5f60208284031215614497575f5ffd5b813561095b81614472565b5f81518084528060208401602086015e5f602082860101526020601f19601f83011685010191505092915050565b602081525f61095b60208301846144a2565b5f5f5f606084860312156144f4575f5ffd5b8335925060208401356145068161441d565b915060408401356145168161441d565b809150509250925092565b5f5f83601f840112614531575f5ffd5b5081356001600160401b03811115614547575f5ffd5b60208301915083602082850101111561455e575f5ffd5b9250929050565b803561ffff81168114614576575f5ffd5b919050565b5f5f5f5f5f6080868803121561458f575f5ffd5b85356001600160401b038111156145a4575f5ffd5b6145b088828901614521565b90965094505060208601356145c48161441d565b92506145d260408701614565565b915060608601356145e28161441d565b809150509295509295909350565b5f5f60408385031215614601575f5ffd5b8235915060208301356146138161441d565b809150509250929050565b80356001600160401b0381168114614576575f5ffd5b5f5f60408385031215614645575f5ffd5b823591506146556020840161461e565b90509250929050565b5f5f5f5f5f60808688031215614672575f5ffd5b853561467d8161441d565b9450602086013561468d8161441d565b93506040860135925060608601356001600160401b038111156146ae575f5ffd5b6146ba88828901614521565b969995985093965092949392505050565b5f602082840312156146db575f5ffd5b813561095b8161441d565b634e487b7160e01b5f52604160045260245ffd5b601f8201601f191681016001600160401b038111828210171561471f5761471f6146e6565b6040525050565b5f6001600160401b0382111561473e5761473e6146e6565b50601f01601f191660200190565b5f82601f83011261475b575f5ffd5b8135602083015f61476b83614726565b60405161477882826146fa565b80925084815287858501111561478c575f5ffd5b848460208301375f60208683010152809550505050505092915050565b803563ffffffff81168114614576575f5ffd5b5f5f5f5f5f5f5f60e0888a0312156147d2575f5ffd5b8735965060208801356001600160401b038111156147ee575f5ffd5b6147fa8a828b0161474c565b965050604088013561480b8161441d565b9450606088013561481b8161441d565b93506148296080890161461e565b925061483760a089016147a9565b915061484560c0890161461e565b905092959891949750929550565b5f6001600160401b0382111561486b5761486b6146e6565b5060051b60200190565b5f82601f830112614884575f5ffd5b813561488f81614853565b60405161489c82826146fa565b80915082815260208101915060208360051b8601019250858311156148bf575f5ffd5b602085015b838110156148dc5780358352602092830192016148c4565b5095945050505050565b5f5f5f5f5f60a086880312156148fa575f5ffd5b85356149058161441d565b945060208601356149158161441d565b935060408601356001600160401b0381111561492f575f5ffd5b61493b88828901614875565b93505060608601356001600160401b03811115614956575f5ffd5b61496288828901614875565b92505060808601356001600160401b0381111561497d575f5ffd5b6149898882890161474c565b9150509295509295909350565b5f5f5f5f608085870312156149a9575f5ffd5b84359350602085013592506149c0604086016147a9565b91506149ce6060860161461e565b905092959194509250565b5f5f5f5f5f5f60a087890312156149ee575f5ffd5b86356001600160401b03811115614a03575f5ffd5b614a0f89828a01614521565b9097509550506020870135614a238161441d565b9350604087013592506060870135614a3a8161441d565b9150614a4860808801614565565b90509295509295509295565b5f5f60408385031215614a65575f5ffd5b8235915061465560208401614565565b5f5f60408385031215614a86575f5ffd5b82356001600160401b03811115614a9b575f5ffd5b8301601f81018513614aab575f5ffd5b8035614ab681614853565b604051614ac382826146fa565b80915082815260208101915060208360051b850101925087831115614ae6575f5ffd5b6020840193505b82841015614b11578335614b008161441d565b825260209384019390910190614aed565b945050505060208301356001600160401b03811115614b2e575f5ffd5b613f9885828601614875565b5f8151808452602084019350602083015f5b82811015614b6a578151865260209586019590910190600101614b4c565b5093949350505050565b602081525f61095b6020830184614b3a565b5f5f5f60608486031215614b98575f5ffd5b8335614ba38161441d565b92506020840135614bb38161441d565b929592945050506040919091013590565b5f5f5f60608486031215614bd6575f5ffd5b8335925060208401359150614bed6040850161461e565b90509250925092565b8015158114612189575f5ffd5b5f5f60408385031215614c14575f5ffd5b8235614c1f8161441d565b9150602083013561461381614bf6565b5f5f60408385031215614c40575f5ffd5b82359150614655602084016147a9565b5f5f60408385031215614c61575f5ffd5b50508035926020909101359150565b5f5f5f5f5f5f60a08789031215614c85575f5ffd5b8635955060208701356001600160401b03811115614ca1575f5ffd5b614cad89828a01614521565b9096509450506040870135614cc18161441d565b9250614ccf606088016147a9565b9150614a486080880161461e565b5f5f5f5f60408587031215614cf0575f5ffd5b84356001600160401b03811115614d05575f5ffd5b614d1187828801614521565b90955093505060208501356001600160401b03811115614d2f575f5ffd5b614d3b87828801614521565b95989497509550505050565b5f5f5f5f60808587031215614d5a575f5ffd5b843593506020850135614d6c8161441d565b925060408501356149c08161441d565b5f5f5f60608486031215614d8e575f5ffd5b833592506020840135915060408401356145168161441d565b5f5f60408385031215614db8575f5ffd5b8235614dc38161441d565b915060208301356146138161441d565b5f5f5f5f60608587031215614de6575f5ffd5b84356001600160401b03811115614dfb575f5ffd5b614e0787828801614521565b9095509350506020850135614e1b8161441d565b91506040850135614e2b8161441d565b939692955090935050565b5f5f5f5f5f60a08688031215614e4a575f5ffd5b8535614e558161441d565b94506020860135614e658161441d565b9350604086013592506060860135915060808601356001600160401b0381111561497d575f5ffd5b5f60208284031215614e9d575f5ffd5b81516001600160401b03811115614eb2575f5ffd5b8201601f81018413614ec2575f5ffd5b8051614ecd81614726565b604051614eda82826146fa565b828152866020848601011115614eee575f5ffd5b8260208501602083015e5f9281016020019290925250949350505050565b9182526001600160a01b0316602082015260400190565b5f5f5f5f60808587031215614f36575f5ffd5b84356001600160401b03811115614f4b575f5ffd5b614f578782880161474c565b9450506020850135614f688161441d565b9250614f7660408601614565565b91506060850135614e2b8161441d565b5f60208284031215614f96575f5ffd5b5051919050565b634e487b7160e01b5f52601160045260245ffd5b6001600160401b03818116838216019081111561089c5761089c614f9d565b600181811c90821680614fe457607f821691505b60208210810361500257634e487b7160e01b5f52602260045260245ffd5b50919050565b60208082526025908201527f455243313135353a207472616e7366657220746f20746865207a65726f206164604082015264647265737360d81b606082015260800190565b634e487b7160e01b5f52603260045260245ffd5b6020808252602a908201527f455243313135353a20696e73756666696369656e742062616c616e636520666f60408201526939103a3930b739b332b960b11b606082015260800190565b604081525f6150bd6040830185614b3a565b82810360208401526150cf8185614b3a565b95945050505050565b5f602082840312156150e8575f5ffd5b815161095b8161441d565b5f60208284031215615103575f5ffd5b815161095b81614bf6565b818382375f9101908152919050565b60208082526028908201527f436f6e74726f6c6c61626c653a2043616c6c6572206973206e6f74206120636f604082015267373a3937b63632b960c11b606082015260800190565b81835281816020850137505f828201602090810191909152601f909101601f19169091010190565b60c081525f6151a060c083018a8c615165565b6001600160a01b03898116602085015263ffffffff891660408501526001600160401b03881660608501528616608084015282810360a08401526151e5818587615165565b9b9a5050505050505050505050565b601f82111561091b57805f5260205f20601f840160051c810160208510156152195750805b601f840160051c820191505b818110156112e7575f8155600101615225565b6001600160401b0383111561524f5761524f6146e6565b6152638361525d8354614fd0565b836151f4565b5f601f841160018114615294575f851561527d5750838201355b5f19600387901b1c1916600186901b1783556112e7565b5f83815260208120601f198716915b828110156152c357868501358255602094850194600190920191016152a3565b50868210156152df575f1960f88860031b161c19848701351681555b505060018560011b0183555050505050565b6001600160401b03828116828216039081111561089c5761089c614f9d565b81516001600160401b03811115615329576153296146e6565b61533d816153378454614fd0565b846151f4565b6020601f82116001811461536f575f83156153585750848201515b5f19600385901b1c1916600184901b1784556112e7565b5f84815260208120601f198516915b8281101561539e578785015182556020948501946001909201910161537e565b50848210156153bb57868401515f19600387901b60f8161c191681555b50505050600190811b01905550565b6001600160a01b0386811682528516602082015260a0604082018190525f906153f590830186614b3a565b82810360608401526154078186614b3a565b905082810360808401526135f481856144a2565b5f6020828403121561542b575f5ffd5b815161095b81614472565b5f60033d111561544c5760045f5f3e505f5160e01c5b90565b5f60443d101561545c5790565b6040513d600319016004823e80513d60248201116001600160401b038211171561548557505090565b80820180516001600160401b038111156154a0575050505090565b3d84016003190182820160200111156154ba575050505090565b6116bd602082850101856146fa565b60208082526028908201527f455243313135353a204552433131353552656365697665722072656a656374656040820152676420746f6b656e7360c01b606082015260800190565b608081525f61552360808301876144a2565b6001600160a01b039590951660208301525063ffffffff9290921660408301526001600160401b0316606090910152919050565b8181038181111561089c5761089c614f9d565b8082018082111561089c5761089c614f9d565b5f81518060208401855e5f93019283525090919050565b60f884901b6001600160f81b03191681525f6150cf6155b6600184018661557d565b8461557d565b6001600160a01b03868116825285166020820152604081018490526060810183905260a0608082018190525f906114c9908301846144a256fe5b00879fb3cf6886271b2d0f62386525acf379cdbc8d0987bf35fd164141e507a164736f6c634300081c000a",
  "linkReferences": {},
  "deployedLinkReferences": {},
  "immutableReferences": {
    "3696": [
      {
        "length": 32,
        "start": 1395
      },
      {
        "length": 32,
        "start": 2860
      },
      {
        "length": 32,
        "start": 3602
      },
      {
        "length": 32,
        "start": 3997
      },
      {
        "length": 32,
        "start": 4169
      },
      {
        "length": 32,
        "start": 4937
      },
      {
        "length": 32,
        "start": 8202
      },
      {
        "length": 32,
        "start": 8498
      },
      {
        "length": 32,
        "start": 9002
      },
      {
        "length": 32,
        "start": 9428
      },
      {
        "length": 32,
        "start": 10133
      },
      {
        "length": 32,
        "start": 11206
      },
      {
        "length": 32,
        "start": 11378
      },
      {
        "length": 32,
        "start": 11557
      },
      {
        "length": 32,
        "start": 11681
      },
      {
        "length": 32,
        "start": 12951
      },
      {
        "length": 32,
        "start": 13282
      },
      {
        "length": 32,
        "start": 13885
      },
      {
        "length": 32,
        "start": 15316
      }
    ],
    "3699": [
      {
        "length": 32,
        "start": 1299
      },
      {
        "length": 32,
        "start": 2976
      },
      {
        "length": 32,
        "start": 3138
      },
      {
        "length": 32,
        "start": 3275
      },
      {
        "length": 32,
        "start": 6481
      },
      {
        "length": 32,
        "start": 6624
      },
      {
        "length": 32,
        "start": 6796
      },
      {
        "length": 32,
        "start": 7003
      },
      {
        "length": 32,
        "start": 7111
      },
      {
        "length": 32,
        "start": 7239
      },
      {
        "length": 32,
        "start": 7765
      },
      {
        "length": 32,
        "start": 8075
      },
      {
        "length": 32,
        "start": 8370
      },
      {
        "length": 32,
        "start": 8700
      },
      {
        "length": 32,
        "start": 8831
      },
      {
        "length": 32,
        "start": 10648
      }
    ]
  },
  "inputSourceName": "project/contracts/GoatNameWrapper.sol",
  "buildInfoId": "solc-0_8_28-d9530e472546fb09f063c8a9bf59eea6b5445d54"
}