{
  "_format": "hh3-artifact-1",
  "contractName": "GNSRegistrarController",
  "sourceName": "contracts/GNSRegistrarController.sol",
  "abi": [
    {
      "inputs": [
        {
          "internalType": "contract BaseRegistrarImplementation",
          "name": "_baseRegistrar",
          "type": "address"
        },
        {
          "internalType": "contract GNSPriceBook",
          "name": "_priceBook",
          "type": "address"
        },
        {
          "internalType": "uint256",
          "name": "_minCommitmentAge",
          "type": "uint256"
        },
        {
          "internalType": "uint256",
          "name": "_maxCommitmentAge",
          "type": "uint256"
        },
        {
          "internalType": "contract IReverseRegistrar",
          "name": "_reverseRegistrar",
          "type": "address"
        },
        {
          "internalType": "contract ENS",
          "name": "_ens",
          "type": "address"
        },
        {
          "internalType": "address",
          "name": "_treasury",
          "type": "address"
        }
      ],
      "stateMutability": "nonpayable",
      "type": "constructor"
    },
    {
      "inputs": [
        {
          "internalType": "bytes32",
          "name": "commitment",
          "type": "bytes32"
        }
      ],
      "name": "CommitmentNotFound",
      "type": "error"
    },
    {
      "inputs": [
        {
          "internalType": "bytes32",
          "name": "commitment",
          "type": "bytes32"
        },
        {
          "internalType": "uint256",
          "name": "minimumCommitmentTimestamp",
          "type": "uint256"
        },
        {
          "internalType": "uint256",
          "name": "currentTimestamp",
          "type": "uint256"
        }
      ],
      "name": "CommitmentTooNew",
      "type": "error"
    },
    {
      "inputs": [
        {
          "internalType": "bytes32",
          "name": "commitment",
          "type": "bytes32"
        },
        {
          "internalType": "uint256",
          "name": "maximumCommitmentTimestamp",
          "type": "uint256"
        },
        {
          "internalType": "uint256",
          "name": "currentTimestamp",
          "type": "uint256"
        }
      ],
      "name": "CommitmentTooOld",
      "type": "error"
    },
    {
      "inputs": [
        {
          "internalType": "uint256",
          "name": "duration",
          "type": "uint256"
        }
      ],
      "name": "DurationTooShort",
      "type": "error"
    },
    {
      "inputs": [
        {
          "internalType": "uint256",
          "name": "length",
          "type": "uint256"
        }
      ],
      "name": "InvalidLabelLength",
      "type": "error"
    },
    {
      "inputs": [],
      "name": "MaxCommitmentAgeTooHigh",
      "type": "error"
    },
    {
      "inputs": [],
      "name": "MaxCommitmentAgeTooLow",
      "type": "error"
    },
    {
      "inputs": [
        {
          "internalType": "uint256",
          "name": "actualPaymentAmount",
          "type": "uint256"
        },
        {
          "internalType": "uint256",
          "name": "maxPaymentAmount",
          "type": "uint256"
        }
      ],
      "name": "MaxPaymentExceeded",
      "type": "error"
    },
    {
      "inputs": [
        {
          "internalType": "string",
          "name": "label",
          "type": "string"
        }
      ],
      "name": "NameNotAvailable",
      "type": "error"
    },
    {
      "inputs": [],
      "name": "ResolverRequiredForReverseRecord",
      "type": "error"
    },
    {
      "inputs": [],
      "name": "ResolverRequiredWhenDataSupplied",
      "type": "error"
    },
    {
      "inputs": [
        {
          "internalType": "bytes32",
          "name": "commitment",
          "type": "bytes32"
        }
      ],
      "name": "UnexpiredCommitmentExists",
      "type": "error"
    },
    {
      "anonymous": false,
      "inputs": [
        {
          "indexed": false,
          "internalType": "string",
          "name": "label",
          "type": "string"
        },
        {
          "indexed": true,
          "internalType": "bytes32",
          "name": "labelhash",
          "type": "bytes32"
        },
        {
          "indexed": true,
          "internalType": "address",
          "name": "owner",
          "type": "address"
        },
        {
          "indexed": true,
          "internalType": "address",
          "name": "paymentToken",
          "type": "address"
        },
        {
          "indexed": false,
          "internalType": "uint256",
          "name": "cost",
          "type": "uint256"
        },
        {
          "indexed": false,
          "internalType": "uint256",
          "name": "expires",
          "type": "uint256"
        }
      ],
      "name": "NameRegistered",
      "type": "event"
    },
    {
      "anonymous": false,
      "inputs": [
        {
          "indexed": false,
          "internalType": "string",
          "name": "label",
          "type": "string"
        },
        {
          "indexed": true,
          "internalType": "bytes32",
          "name": "labelhash",
          "type": "bytes32"
        },
        {
          "indexed": true,
          "internalType": "address",
          "name": "paymentToken",
          "type": "address"
        },
        {
          "indexed": false,
          "internalType": "uint256",
          "name": "cost",
          "type": "uint256"
        },
        {
          "indexed": false,
          "internalType": "uint256",
          "name": "expires",
          "type": "uint256"
        }
      ],
      "name": "NameRenewed",
      "type": "event"
    },
    {
      "anonymous": false,
      "inputs": [
        {
          "indexed": true,
          "internalType": "address",
          "name": "previousOwner",
          "type": "address"
        },
        {
          "indexed": true,
          "internalType": "address",
          "name": "newOwner",
          "type": "address"
        }
      ],
      "name": "OwnershipTransferred",
      "type": "event"
    },
    {
      "anonymous": false,
      "inputs": [
        {
          "indexed": true,
          "internalType": "address",
          "name": "treasury",
          "type": "address"
        }
      ],
      "name": "TreasuryUpdated",
      "type": "event"
    },
    {
      "inputs": [],
      "name": "MIN_REGISTRATION_DURATION",
      "outputs": [
        {
          "internalType": "uint256",
          "name": "",
          "type": "uint256"
        }
      ],
      "stateMutability": "view",
      "type": "function"
    },
    {
      "inputs": [
        {
          "internalType": "string",
          "name": "label",
          "type": "string"
        }
      ],
      "name": "available",
      "outputs": [
        {
          "internalType": "bool",
          "name": "isAvailable",
          "type": "bool"
        }
      ],
      "stateMutability": "view",
      "type": "function"
    },
    {
      "inputs": [],
      "name": "baseNode",
      "outputs": [
        {
          "internalType": "bytes32",
          "name": "",
          "type": "bytes32"
        }
      ],
      "stateMutability": "view",
      "type": "function"
    },
    {
      "inputs": [],
      "name": "baseRegistrar",
      "outputs": [
        {
          "internalType": "contract BaseRegistrarImplementation",
          "name": "",
          "type": "address"
        }
      ],
      "stateMutability": "view",
      "type": "function"
    },
    {
      "inputs": [
        {
          "internalType": "bytes32",
          "name": "commitment",
          "type": "bytes32"
        }
      ],
      "name": "commit",
      "outputs": [],
      "stateMutability": "nonpayable",
      "type": "function"
    },
    {
      "inputs": [
        {
          "internalType": "bytes32",
          "name": "",
          "type": "bytes32"
        }
      ],
      "name": "commitments",
      "outputs": [
        {
          "internalType": "uint256",
          "name": "",
          "type": "uint256"
        }
      ],
      "stateMutability": "view",
      "type": "function"
    },
    {
      "inputs": [],
      "name": "ens",
      "outputs": [
        {
          "internalType": "contract ENS",
          "name": "",
          "type": "address"
        }
      ],
      "stateMutability": "view",
      "type": "function"
    },
    {
      "inputs": [],
      "name": "interfaceId",
      "outputs": [
        {
          "internalType": "bytes4",
          "name": "id",
          "type": "bytes4"
        }
      ],
      "stateMutability": "pure",
      "type": "function"
    },
    {
      "inputs": [
        {
          "components": [
            {
              "internalType": "string",
              "name": "label",
              "type": "string"
            },
            {
              "internalType": "address",
              "name": "owner",
              "type": "address"
            },
            {
              "internalType": "uint256",
              "name": "duration",
              "type": "uint256"
            },
            {
              "internalType": "bytes32",
              "name": "secret",
              "type": "bytes32"
            },
            {
              "internalType": "address",
              "name": "resolver",
              "type": "address"
            },
            {
              "internalType": "bytes[]",
              "name": "data",
              "type": "bytes[]"
            },
            {
              "internalType": "uint8",
              "name": "reverseRecord",
              "type": "uint8"
            },
            {
              "internalType": "bytes32",
              "name": "referrer",
              "type": "bytes32"
            }
          ],
          "internalType": "struct IETHRegistrarController.Registration",
          "name": "registration",
          "type": "tuple"
        },
        {
          "components": [
            {
              "internalType": "address",
              "name": "paymentToken",
              "type": "address"
            },
            {
              "internalType": "uint256",
              "name": "maxPaymentAmount",
              "type": "uint256"
            }
          ],
          "internalType": "struct IGNSRegistrarController.PaymentRequest",
          "name": "payment",
          "type": "tuple"
        }
      ],
      "name": "makeCommitment",
      "outputs": [
        {
          "internalType": "bytes32",
          "name": "commitment",
          "type": "bytes32"
        }
      ],
      "stateMutability": "pure",
      "type": "function"
    },
    {
      "inputs": [],
      "name": "maxCommitmentAge",
      "outputs": [
        {
          "internalType": "uint256",
          "name": "",
          "type": "uint256"
        }
      ],
      "stateMutability": "view",
      "type": "function"
    },
    {
      "inputs": [],
      "name": "minCommitmentAge",
      "outputs": [
        {
          "internalType": "uint256",
          "name": "",
          "type": "uint256"
        }
      ],
      "stateMutability": "view",
      "type": "function"
    },
    {
      "inputs": [],
      "name": "owner",
      "outputs": [
        {
          "internalType": "address",
          "name": "",
          "type": "address"
        }
      ],
      "stateMutability": "view",
      "type": "function"
    },
    {
      "inputs": [],
      "name": "priceBook",
      "outputs": [
        {
          "internalType": "contract GNSPriceBook",
          "name": "",
          "type": "address"
        }
      ],
      "stateMutability": "view",
      "type": "function"
    },
    {
      "inputs": [
        {
          "components": [
            {
              "internalType": "string",
              "name": "label",
              "type": "string"
            },
            {
              "internalType": "address",
              "name": "owner",
              "type": "address"
            },
            {
              "internalType": "uint256",
              "name": "duration",
              "type": "uint256"
            },
            {
              "internalType": "bytes32",
              "name": "secret",
              "type": "bytes32"
            },
            {
              "internalType": "address",
              "name": "resolver",
              "type": "address"
            },
            {
              "internalType": "bytes[]",
              "name": "data",
              "type": "bytes[]"
            },
            {
              "internalType": "uint8",
              "name": "reverseRecord",
              "type": "uint8"
            },
            {
              "internalType": "bytes32",
              "name": "referrer",
              "type": "bytes32"
            }
          ],
          "internalType": "struct IETHRegistrarController.Registration",
          "name": "registration",
          "type": "tuple"
        },
        {
          "components": [
            {
              "internalType": "address",
              "name": "paymentToken",
              "type": "address"
            },
            {
              "internalType": "uint256",
              "name": "maxPaymentAmount",
              "type": "uint256"
            }
          ],
          "internalType": "struct IGNSRegistrarController.PaymentRequest",
          "name": "payment",
          "type": "tuple"
        }
      ],
      "name": "register",
      "outputs": [],
      "stateMutability": "nonpayable",
      "type": "function"
    },
    {
      "inputs": [
        {
          "components": [
            {
              "internalType": "string",
              "name": "label",
              "type": "string"
            },
            {
              "internalType": "address",
              "name": "owner",
              "type": "address"
            },
            {
              "internalType": "uint256",
              "name": "duration",
              "type": "uint256"
            },
            {
              "internalType": "bytes32",
              "name": "secret",
              "type": "bytes32"
            },
            {
              "internalType": "address",
              "name": "resolver",
              "type": "address"
            },
            {
              "internalType": "bytes[]",
              "name": "data",
              "type": "bytes[]"
            },
            {
              "internalType": "uint8",
              "name": "reverseRecord",
              "type": "uint8"
            },
            {
              "internalType": "bytes32",
              "name": "referrer",
              "type": "bytes32"
            }
          ],
          "internalType": "struct IETHRegistrarController.Registration",
          "name": "registration",
          "type": "tuple"
        },
        {
          "components": [
            {
              "internalType": "address",
              "name": "paymentToken",
              "type": "address"
            },
            {
              "internalType": "uint256",
              "name": "maxPaymentAmount",
              "type": "uint256"
            }
          ],
          "internalType": "struct IGNSRegistrarController.PaymentRequest",
          "name": "payment",
          "type": "tuple"
        },
        {
          "components": [
            {
              "internalType": "uint256",
              "name": "value",
              "type": "uint256"
            },
            {
              "internalType": "uint256",
              "name": "deadline",
              "type": "uint256"
            },
            {
              "internalType": "uint8",
              "name": "v",
              "type": "uint8"
            },
            {
              "internalType": "bytes32",
              "name": "r",
              "type": "bytes32"
            },
            {
              "internalType": "bytes32",
              "name": "s",
              "type": "bytes32"
            }
          ],
          "internalType": "struct IGNSRegistrarController.PermitParams",
          "name": "permit",
          "type": "tuple"
        }
      ],
      "name": "registerWithPermit",
      "outputs": [],
      "stateMutability": "nonpayable",
      "type": "function"
    },
    {
      "inputs": [
        {
          "internalType": "string",
          "name": "label",
          "type": "string"
        },
        {
          "components": [
            {
              "internalType": "address",
              "name": "paymentToken",
              "type": "address"
            },
            {
              "internalType": "uint256",
              "name": "maxPaymentAmount",
              "type": "uint256"
            }
          ],
          "internalType": "struct IGNSRegistrarController.PaymentRequest",
          "name": "payment",
          "type": "tuple"
        },
        {
          "internalType": "uint256",
          "name": "duration",
          "type": "uint256"
        }
      ],
      "name": "renew",
      "outputs": [],
      "stateMutability": "nonpayable",
      "type": "function"
    },
    {
      "inputs": [
        {
          "internalType": "string",
          "name": "label",
          "type": "string"
        },
        {
          "components": [
            {
              "internalType": "address",
              "name": "paymentToken",
              "type": "address"
            },
            {
              "internalType": "uint256",
              "name": "maxPaymentAmount",
              "type": "uint256"
            }
          ],
          "internalType": "struct IGNSRegistrarController.PaymentRequest",
          "name": "payment",
          "type": "tuple"
        },
        {
          "internalType": "uint256",
          "name": "duration",
          "type": "uint256"
        },
        {
          "components": [
            {
              "internalType": "uint256",
              "name": "value",
              "type": "uint256"
            },
            {
              "internalType": "uint256",
              "name": "deadline",
              "type": "uint256"
            },
            {
              "internalType": "uint8",
              "name": "v",
              "type": "uint8"
            },
            {
              "internalType": "bytes32",
              "name": "r",
              "type": "bytes32"
            },
            {
              "internalType": "bytes32",
              "name": "s",
              "type": "bytes32"
            }
          ],
          "internalType": "struct IGNSRegistrarController.PermitParams",
          "name": "permit",
          "type": "tuple"
        }
      ],
      "name": "renewWithPermit",
      "outputs": [],
      "stateMutability": "nonpayable",
      "type": "function"
    },
    {
      "inputs": [],
      "name": "renounceOwnership",
      "outputs": [],
      "stateMutability": "nonpayable",
      "type": "function"
    },
    {
      "inputs": [
        {
          "internalType": "string",
          "name": "label",
          "type": "string"
        },
        {
          "internalType": "address",
          "name": "paymentToken",
          "type": "address"
        },
        {
          "internalType": "uint256",
          "name": "duration",
          "type": "uint256"
        }
      ],
      "name": "rentPrice",
      "outputs": [
        {
          "internalType": "uint256",
          "name": "amount",
          "type": "uint256"
        }
      ],
      "stateMutability": "view",
      "type": "function"
    },
    {
      "inputs": [],
      "name": "reverseRegistrar",
      "outputs": [
        {
          "internalType": "contract IReverseRegistrar",
          "name": "",
          "type": "address"
        }
      ],
      "stateMutability": "view",
      "type": "function"
    },
    {
      "inputs": [
        {
          "internalType": "address",
          "name": "newTreasury",
          "type": "address"
        }
      ],
      "name": "setTreasury",
      "outputs": [],
      "stateMutability": "nonpayable",
      "type": "function"
    },
    {
      "inputs": [
        {
          "internalType": "bytes4",
          "name": "interfaceId_",
          "type": "bytes4"
        }
      ],
      "name": "supportsInterface",
      "outputs": [
        {
          "internalType": "bool",
          "name": "",
          "type": "bool"
        }
      ],
      "stateMutability": "view",
      "type": "function"
    },
    {
      "inputs": [
        {
          "internalType": "address",
          "name": "newOwner",
          "type": "address"
        }
      ],
      "name": "transferOwnership",
      "outputs": [],
      "stateMutability": "nonpayable",
      "type": "function"
    },
    {
      "inputs": [],
      "name": "treasury",
      "outputs": [
        {
          "internalType": "address",
          "name": "",
          "type": "address"
        }
      ],
      "stateMutability": "view",
      "type": "function"
    },
    {
      "inputs": [
        {
          "internalType": "string",
          "name": "label",
          "type": "string"
        }
      ],
      "name": "valid",
      "outputs": [
        {
          "internalType": "bool",
          "name": "isValid",
          "type": "bool"
        }
      ],
      "stateMutability": "pure",
      "type": "function"
    }
  ],
  "bytecode": "0x610160604052348015610010575f5ffd5b5060405161245038038061245083398101604081905261002f91610196565b61003833610130565b848411610058576040516307cb550760e31b815260040160405180910390fd5b4284111561007957604051630b4319e560e21b815260040160405180910390fd5b6001600160a01b0380831660805287811660a081905287821660c05290841660e05260408051630ddf7fcb60e41b8152905163ddf7fcb0916004808201926020929091908290030181865afa1580156100d4573d5f5f3e3d5ffd5b505050506040513d601f19601f820116820180604052508101906100f8919061021a565b6101005261012094909452505061014052600180546001600160a01b0319166001600160a01b03909216919091179055506102319050565b5f80546001600160a01b038381166001600160a01b0319831681178455604051919092169283917f8be0079c531659141344cd1fd0a4f28419497f9722a3daafe3b4186f6b6457e09190a35050565b6001600160a01b0381168114610193575f5ffd5b50565b5f5f5f5f5f5f5f60e0888a0312156101ac575f5ffd5b87516101b78161017f565b60208901519097506101c88161017f565b604089015160608a015160808b015192985090965094506101e88161017f565b60a08901519093506101f98161017f565b60c089015190925061020a8161017f565b8091505092959891949750929550565b5f6020828403121561022a575f5ffd5b5051919050565b60805160a05160c05160e05161010051610120516101405161215e6102f25f395f818161036401528181610634015281816109c10152610a1401525f81816102b80152818161093d015261096e01525f818161039e015261118701525f818161025a01526113f301525f818161033d0152818161070d015281816107cb0152610d3901525f818161023301528181610a9a01528181610b7501528181610e5301528181611110015261133301525f81816101b301526111d5015261215e5ff3fe608060405234801561000f575f5ffd5b506004361061016d575f3560e01c80638da5cb5b116100d9578063ce1e09c011610093578063f0f442601161006e578063f0f44260146103c0578063f14fcbc8146103d3578063f2fde38b146103e6578063f6eba506146103f9575f5ffd5b8063ce1e09c01461035f578063cf2f028d14610386578063ddf7fcb014610399575f5ffd5b80638da5cb5b146102da5780639791c097146102ea5780639b53a07c146102fd578063a64d0cd414610310578063aeb8ce9b14610325578063c1b7bf7414610338575f5ffd5b8063715018a61161012a578063715018a61461022657806374f045651461022e5780638086985314610255578063839df9451461027c5780638a95b09f146102a95780638d839ffe146102b3575f5ffd5b806301ffc9a71461017157806329d4a221146101995780633f15457f146101ae57806361d027b3146101ed5780636cfab867146102005780636d604d3a14610213575b5f5ffd5b61018461017f3660046117fe565b61040c565b60405190151581526020015b60405180910390f35b6101ac6101a736600461185c565b61045d565b005b6101d57f000000000000000000000000000000000000000000000000000000000000000081565b6040516001600160a01b039091168152602001610190565b6001546101d5906001600160a01b031681565b6101ac61020e3660046118b8565b6104a0565b6101ac610221366004611947565b6104d3565b6101ac610506565b6101d57f000000000000000000000000000000000000000000000000000000000000000081565b6101d57f000000000000000000000000000000000000000000000000000000000000000081565b61029b61028a36600461199f565b60026020525f908152604090205481565b604051908152602001610190565b61029b6224ea0081565b61029b7f000000000000000000000000000000000000000000000000000000000000000081565b5f546001600160a01b03166101d5565b6101846102f83660046119b6565b610519565b61029b61030b3660046118b8565b61052f565b604051631aa5cabb60e31b8152602001610190565b6101846103333660046119b6565b61056a565b6101d57f000000000000000000000000000000000000000000000000000000000000000081565b61029b7f000000000000000000000000000000000000000000000000000000000000000081565b6101ac6103943660046119f4565b610599565b61029b7f000000000000000000000000000000000000000000000000000000000000000081565b6101ac6103ce366004611a7b565b6105cd565b6101ac6103e136600461199f565b61061e565b6101ac6103f4366004611a7b565b610691565b61029b610407366004611a94565b61070a565b5f6001600160e01b03198216631aa5cabb60e31b148061043c57506001600160e01b031982166301ffc9a760e01b145b8061045757506301ffc9a760e01b6001600160e01b03198316145b92915050565b5f61046884846107c0565b90506104758484836108ba565b61049a6104856020850185611a7b565b8261049536869003860186611b3f565b610c73565b50505050565b5f6104ab83836107c0565b90506104b88383836108ba565b6104ce6104c86020840184611a7b565b82610d0e565b505050565b5f6104e085858585610d2e565b90506104ef8585858585610e1b565b6104ff6104c86020850185611a7b565b5050505050565b61050e610f24565b6105175f610f7d565b565b5f60036105268484610fcc565b10159392505050565b5f61053983611012565b828260405160200161054c929190611ce0565b60405160208183030381529060405280519060200120905092915050565b5f5f838360405161057c929190611dad565b604051809103902090506105918484836110e8565b949350505050565b5f6105a686868686610d2e565b90506105b58686868685610e1b565b6105c56104856020860186611a7b565b505050505050565b6105d5610f24565b600180546001600160a01b0319166001600160a01b0383169081179091556040517f7dae230f18360d76a040c81f050aa14eb9d6dc7901b20fc5d855e2a20fe814d1905f90a250565b5f818152600260205260409020544290610659907f000000000000000000000000000000000000000000000000000000000000000090611dd0565b1061067f57604051630a059d7160e01b8152600481018290526024015b60405180910390fd5b5f908152600260205260409020429055565b610699610f24565b6001600160a01b0381166106fe5760405162461bcd60e51b815260206004820152602660248201527f4f776e61626c653a206e6577206f776e657220697320746865207a65726f206160448201526564647265737360d01b6064820152608401610676565b61070781610f7d565b50565b5f7f00000000000000000000000000000000000000000000000000000000000000006001600160a01b0316639e8cc04b846107458888610fcc565b6040516001600160e01b031960e085901b1681526001600160a01b039092166004830152602482015260448101859052606401602060405180830381865afa158015610793573d5f5f3e3d5ffd5b505050506040513d601f19601f820116820180604052508101906107b79190611de3565b95945050505050565b5f6001600160a01b037f000000000000000000000000000000000000000000000000000000000000000016639e8cc04b6107fd6020850185611a7b565b61080f61080a8780611dfa565b610fcc565b604080516001600160e01b031960e086901b1681526001600160a01b03909316600484015260248301919091528601356044820152606401602060405180830381865afa158015610862573d5f5f3e3d5ffd5b505050506040513d601f19601f820116820180604052508101906108869190611de3565b90508160200135811115610457576040516358c8c43760e01b81526004810182905260208301356024820152604401610676565b5f6108c58480611dfa565b6040516108d3929190611dad565b6040519081900390209050806108f26108ec8680611dfa565b846110e8565b61091b576109008580611dfa565b6040516308eee0fd60e31b8152600401610676929190611e3c565b5f610926868661052f565b5f81815260026020526040902054909150426109627f000000000000000000000000000000000000000000000000000000000000000083611dd0565b11156109bb57816109937f000000000000000000000000000000000000000000000000000000000000000083611dd0565b6040516374480cc960e01b815260048101929092526024820152426044820152606401610676565b426109e67f000000000000000000000000000000000000000000000000000000000000000083611dd0565b11610a6157805f03610a0e5760405163836588c960e01b815260048101839052602401610676565b81610a397f000000000000000000000000000000000000000000000000000000000000000083611dd0565b6040516312b7110b60e11b815260048101929092526024820152426044820152606401610676565b5f82815260026020526040812081905580610a8260a08a0160808b01611a7b565b6001600160a01b031603610b4f576001600160a01b037f00000000000000000000000000000000000000000000000000000000000000001663fca247ac85610ad060408c0160208d01611a7b565b604080516001600160e01b031960e086901b16815260048101939093526001600160a01b0390911660248301528b013560448201526064016020604051808303815f875af1158015610b24573d5f5f3e3d5ffd5b505050506040513d601f19601f82011682018060405250810190610b489190611de3565b9050610bf4565b60408051633f2891eb60e21b8152600481018690523060248201529089013560448201527f00000000000000000000000000000000000000000000000000000000000000006001600160a01b03169063fca247ac906064016020604051808303815f875af1158015610bc3573d5f5f3e3d5ffd5b505050506040513d601f19601f82011682018060405250810190610be79190611de3565b9050610bf4888686611181565b610c016020880188611a7b565b6001600160a01b0316610c1a60408a0160208b01611a7b565b6001600160a01b0316867f91320868493f5723a1155e47068ada28879e9eb1b0559a66b325c65332489e28610c4f8c80611dfa565b8b87604051610c619493929190611e4f565b60405180910390a45050505050505050565b8051602082015160408084015160608501516080860151925163d505accf60e01b81523360048201523060248201526044810195909552606485019390935260ff16608484015260a483019190915260c48201526001600160a01b0384169063d505accf9060e4015f604051808303815f87803b158015610cf2575f5ffd5b505af1158015610d04573d5f5f3e3d5ffd5b505050506104ce83835b600154610d2a906001600160a01b0384811691339116846114b3565b5050565b5f6001600160a01b037f000000000000000000000000000000000000000000000000000000000000000016639e8cc04b610d6b6020860186611a7b565b610d758888610fcc565b6040516001600160e01b031960e085901b1681526001600160a01b039092166004830152602482015260448101859052606401602060405180830381865afa158015610dc3573d5f5f3e3d5ffd5b505050506040513d601f19601f82011682018060405250810190610de79190611de3565b90508260200135811115610591576040516358c8c43760e01b81526004810182905260208401356024820152604401610676565b5f8585604051610e2c929190611dad565b60405190819003812063c475abff60e01b8252600482018190526024820185905291505f907f00000000000000000000000000000000000000000000000000000000000000006001600160a01b03169063c475abff906044016020604051808303815f875af1158015610ea1573d5f5f3e3d5ffd5b505050506040513d601f19601f82011682018060405250810190610ec59190611de3565b9050610ed46020860186611a7b565b6001600160a01b0316827f42ad0fb3f431843882fafa6483115d093f86443f4952c2c75bd298aa3e8531de89898786604051610f139493929190611e4f565b60405180910390a350505050505050565b5f546001600160a01b031633146105175760405162461bcd60e51b815260206004820181905260248201527f4f776e61626c653a2063616c6c6572206973206e6f7420746865206f776e65726044820152606401610676565b5f80546001600160a01b038381166001600160a01b0319831681178455604051919092169283917f8be0079c531659141344cd1fd0a4f28419497f9722a3daafe3b4186f6b6457e09190a35050565b5f61100b83838080601f0160208091040260200160405190810160405280939291908181526020018383808284375f9201919091525061150d92505050565b9392505050565b5f61102060a0830183611e75565b905011801561104657505f61103b60a0830160808401611a7b565b6001600160a01b0316145b15611064576040516334fd817160e21b815260040160405180910390fd5b61107460e0820160c08301611eba565b60ff161580159061109c57505f61109160a0830160808401611a7b565b6001600160a01b0316145b156110ba57604051633ea501a560e11b815260040160405180910390fd5b6224ea00816040013510156107075760408051639a71997b60e01b8152908201356004820152602401610676565b5f6110f38484610519565b801561059157506040516312dc929d60e31b8152600481018390527f00000000000000000000000000000000000000000000000000000000000000006001600160a01b0316906396e494e890602401602060405180830381865afa15801561115d573d5f5f3e3d5ffd5b505050506040513d601f19601f820116820180604052508101906105919190611ed3565b604080517f0000000000000000000000000000000000000000000000000000000000000000602080830191909152818301859052825180830384018152606090920190925280519101206001600160a01b037f00000000000000000000000000000000000000000000000000000000000000001663cf4088238261120b6040880160208901611a7b565b61121b60a0890160808a01611a7b565b6040516001600160e01b031960e086901b16815260048101939093526001600160a01b0391821660248401521660448201525f60648201526084015f604051808303815f87803b15801561126d575f5ffd5b505af115801561127f573d5f5f3e3d5ffd5b505f925061129391505060a0860186611e75565b90501115611329576112ab60a0850160808601611a7b565b6001600160a01b031663e32954eb826112c760a0880188611e75565b6040518463ffffffff1660e01b81526004016112e593929190611ef2565b5f604051808303815f875af1158015611300573d5f5f3e3d5ffd5b505050506040513d5f823e601f3d908101601f191682016040526113279190810190611f5f565b505b6001600160a01b037f0000000000000000000000000000000000000000000000000000000000000000166323b872dd306113696040880160208901611a7b565b6040516001600160e01b031960e085901b1681526001600160a01b03928316600482015291166024820152604481018590526064015f604051808303815f87803b1580156113b5575f5ffd5b505af11580156113c7573d5f5f3e3d5ffd5b50600192506113df91505060e0860160c08701611eba565b1660ff165f1461049a576001600160a01b037f000000000000000000000000000000000000000000000000000000000000000016637a806d6b338061142a60a0890160808a01611a7b565b6114348980611dfa565b604051602001611445929190612078565b6040516020818303038152906040526040518563ffffffff1660e01b815260040161147394939291906120c0565b6020604051808303815f875af115801561148f573d5f5f3e3d5ffd5b505050506040513d601f19601f820116820180604052508101906104ff9190611de3565b604080516001600160a01b0385811660248301528416604482015260648082018490528251808303909101815260849091019091526020810180516001600160e01b03166323b872dd60e01b17905261049a90859061160e565b80515f90819081905b80821015611605575f858381518110611531576115316120fd565b01602001516001600160f81b0319169050600160ff1b81101561156057611559600184611dd0565b92506115f2565b600760fd1b6001600160f81b03198216101561158157611559600284611dd0565b600f60fc1b6001600160f81b0319821610156115a257611559600384611dd0565b601f60fb1b6001600160f81b0319821610156115c357611559600484611dd0565b603f60fa1b6001600160f81b0319821610156115e457611559600584611dd0565b6115ef600684611dd0565b92505b50826115fd81612111565b935050611516565b50909392505050565b5f611662826040518060400160405280602081526020017f5361666545524332303a206c6f772d6c6576656c2063616c6c206661696c6564815250856001600160a01b03166116e19092919063ffffffff16565b905080515f14806116825750808060200190518101906116829190611ed3565b6104ce5760405162461bcd60e51b815260206004820152602a60248201527f5361666545524332303a204552433230206f7065726174696f6e20646964206e6044820152691bdd081cdd58d8d9595960b21b6064820152608401610676565b606061059184845f85855f5f866001600160a01b031685876040516117069190612129565b5f6040518083038185875af1925050503d805f8114611740576040519150601f19603f3d011682016040523d82523d5f602084013e611745565b606091505b509150915061175687838387611761565b979650505050505050565b606083156117cf5782515f036117c8576001600160a01b0385163b6117c85760405162461bcd60e51b815260206004820152601d60248201527f416464726573733a2063616c6c20746f206e6f6e2d636f6e74726163740000006044820152606401610676565b5081610591565b61059183838151156117e45781518083602001fd5b8060405162461bcd60e51b8152600401610676919061213f565b5f6020828403121561180e575f5ffd5b81356001600160e01b03198116811461100b575f5ffd5b5f6101008284031215611836575f5ffd5b50919050565b5f60408284031215611836575f5ffd5b5f60a08284031215611836575f5ffd5b5f5f5f610100848603121561186f575f5ffd5b83356001600160401b03811115611884575f5ffd5b61189086828701611825565b9350506118a0856020860161183c565b91506118af856060860161184c565b90509250925092565b5f5f606083850312156118c9575f5ffd5b82356001600160401b038111156118de575f5ffd5b6118ea85828601611825565b9250506118fa846020850161183c565b90509250929050565b5f5f83601f840112611913575f5ffd5b5081356001600160401b03811115611929575f5ffd5b602083019150836020828501011115611940575f5ffd5b9250929050565b5f5f5f5f6080858703121561195a575f5ffd5b84356001600160401b0381111561196f575f5ffd5b61197b87828801611903565b909550935061198f9050866020870161183c565b9396929550929360600135925050565b5f602082840312156119af575f5ffd5b5035919050565b5f5f602083850312156119c7575f5ffd5b82356001600160401b038111156119dc575f5ffd5b6119e885828601611903565b90969095509350505050565b5f5f5f5f5f6101208688031215611a09575f5ffd5b85356001600160401b03811115611a1e575f5ffd5b611a2a88828901611903565b9096509450611a3e9050876020880161183c565b925060608601359150611a54876080880161184c565b90509295509295909350565b80356001600160a01b0381168114611a76575f5ffd5b919050565b5f60208284031215611a8b575f5ffd5b61100b82611a60565b5f5f5f5f60608587031215611aa7575f5ffd5b84356001600160401b03811115611abc575f5ffd5b611ac887828801611903565b9095509350611adb905060208601611a60565b9396929550929360400135925050565b634e487b7160e01b5f52604160045260245ffd5b604051601f8201601f191681016001600160401b0381118282101715611b2757611b27611aeb565b604052919050565b803560ff81168114611a76575f5ffd5b5f60a0828403128015611b50575f5ffd5b5060405160a081016001600160401b0381118282101715611b7357611b73611aeb565b60409081528335825260208085013590830152611b91908401611b2f565b6040820152606083810135908201526080928301359281019290925250919050565b5f5f8335601e19843603018112611bc8575f5ffd5b83016020810192503590506001600160401b03811115611be6575f5ffd5b803603821315611940575f5ffd5b81835281816020850137505f828201602090810191909152601f909101601f19169091010190565b5f5f8335601e19843603018112611c31575f5ffd5b83016020810192503590506001600160401b03811115611c4f575f5ffd5b8060051b3603821315611940575f5ffd5b5f8383855260208501945060208460051b820101835f5b86811015611cb557838303601f19018852611c928287611bb3565b611c9d858284611bf4565b60209a8b019a90955093909301925050600101611c77565b50909695505050505050565b6001600160a01b03611cd282611a60565b168252602090810135910152565b606081525f611cef8485611bb3565b6101006060850152611d0661016085018284611bf4565b91506001600160a01b039050611d1e60208701611a60565b16608084810191909152604086013560a0850152606086013560c0850152611d47908601611a60565b6001600160a01b031660e0840152611d6260a0860186611c1c565b848303605f1901610100860152611d7a838284611c60565b92505050611d8a60c08601611b2f565b60ff1661012084015260e0850135610140840152905061100b6020830184611cc1565b818382375f9101908152919050565b634e487b7160e01b5f52601160045260245ffd5b8082018082111561045757610457611dbc565b5f60208284031215611df3575f5ffd5b5051919050565b5f5f8335601e19843603018112611e0f575f5ffd5b8301803591506001600160401b03821115611e28575f5ffd5b602001915036819003821315611940575f5ffd5b602081525f610591602083018486611bf4565b606081525f611e62606083018688611bf4565b6020830194909452506040015292915050565b5f5f8335601e19843603018112611e8a575f5ffd5b8301803591506001600160401b03821115611ea3575f5ffd5b6020019150600581901b3603821315611940575f5ffd5b5f60208284031215611eca575f5ffd5b61100b82611b2f565b5f60208284031215611ee3575f5ffd5b8151801515811461100b575f5ffd5b83815260406020820181905281018290525f6060600584901b8301810190830185835b86811015611f5257858403605f19018352611f308289611bb3565b611f3b868284611bf4565b955050506020928301929190910190600101611f15565b5091979650505050505050565b5f60208284031215611f6f575f5ffd5b81516001600160401b03811115611f84575f5ffd5b8201601f81018413611f94575f5ffd5b80516001600160401b03811115611fad57611fad611aeb565b8060051b611fbd60208201611aff565b91825260208184018101929081019087841115611fd8575f5ffd5b6020850192505b838310156117565782516001600160401b03811115611ffc575f5ffd5b8501603f8101891361200c575f5ffd5b60208101516001600160401b0381111561202857612028611aeb565b61203b601f8201601f1916602001611aff565b8181526040838301018b101561204f575f5ffd5b8160408401602083015e5f60208383010152808552505050602082019150602083019250611fdf565b81838237640b99dbd85d60da1b9101908152600501919050565b5f81518084528060208401602086015e5f602082860101526020601f19601f83011685010191505092915050565b6001600160a01b0385811682528481166020830152831660408201526080606082018190525f906120f390830184612092565b9695505050505050565b634e487b7160e01b5f52603260045260245ffd5b5f6001820161212257612122611dbc565b5060010190565b5f82518060208501845e5f920191825250919050565b602081525f61100b602083018461209256fea164736f6c634300081c000a",
  "linkReferences": {},
  "deployedLinkReferences": {},
  "immutableReferences": {
    "5280": [
      {
        "length": 32,
        "start": 435
      },
      {
        "length": 32,
        "start": 4565
      }
    ],
    "5284": [
      {
        "length": 32,
        "start": 563
      },
      {
        "length": 32,
        "start": 2714
      },
      {
        "length": 32,
        "start": 2933
      },
      {
        "length": 32,
        "start": 3667
      },
      {
        "length": 32,
        "start": 4368
      },
      {
        "length": 32,
        "start": 4915
      }
    ],
    "5288": [
      {
        "length": 32,
        "start": 829
      },
      {
        "length": 32,
        "start": 1805
      },
      {
        "length": 32,
        "start": 1995
      },
      {
        "length": 32,
        "start": 3385
      }
    ],
    "5292": [
      {
        "length": 32,
        "start": 602
      },
      {
        "length": 32,
        "start": 5107
      }
    ],
    "5295": [
      {
        "length": 32,
        "start": 926
      },
      {
        "length": 32,
        "start": 4487
      }
    ],
    "5298": [
      {
        "length": 32,
        "start": 696
      },
      {
        "length": 32,
        "start": 2365
      },
      {
        "length": 32,
        "start": 2414
      }
    ],
    "5301": [
      {
        "length": 32,
        "start": 868
      },
      {
        "length": 32,
        "start": 1588
      },
      {
        "length": 32,
        "start": 2497
      },
      {
        "length": 32,
        "start": 2580
      }
    ]
  },
  "inputSourceName": "project/contracts/GNSRegistrarController.sol",
  "buildInfoId": "solc-0_8_28-e4a339bcb3c6966edef060da3e2a66bae499602f"
}