{
  "_format": "hh3-artifact-1",
  "contractName": "GNSPriceBook",
  "sourceName": "contracts/GNSPriceBook.sol",
  "abi": [
    {
      "inputs": [
        {
          "internalType": "uint256",
          "name": "length",
          "type": "uint256"
        }
      ],
      "name": "InvalidLabelLength",
      "type": "error"
    },
    {
      "inputs": [
        {
          "internalType": "address",
          "name": "token",
          "type": "address"
        }
      ],
      "name": "InvalidPaymentToken",
      "type": "error"
    },
    {
      "inputs": [
        {
          "internalType": "address",
          "name": "token",
          "type": "address"
        }
      ],
      "name": "UnsupportedPaymentToken",
      "type": "error"
    },
    {
      "inputs": [],
      "name": "ZeroTokenAddress",
      "type": "error"
    },
    {
      "anonymous": false,
      "inputs": [
        {
          "indexed": true,
          "internalType": "address",
          "name": "previousOwner",
          "type": "address"
        },
        {
          "indexed": true,
          "internalType": "address",
          "name": "newOwner",
          "type": "address"
        }
      ],
      "name": "OwnershipTransferred",
      "type": "event"
    },
    {
      "anonymous": false,
      "inputs": [
        {
          "indexed": true,
          "internalType": "address",
          "name": "token",
          "type": "address"
        },
        {
          "indexed": false,
          "internalType": "uint256",
          "name": "price3",
          "type": "uint256"
        },
        {
          "indexed": false,
          "internalType": "uint256",
          "name": "price4",
          "type": "uint256"
        },
        {
          "indexed": false,
          "internalType": "uint256",
          "name": "price5Plus",
          "type": "uint256"
        }
      ],
      "name": "TokenConfigured",
      "type": "event"
    },
    {
      "anonymous": false,
      "inputs": [
        {
          "indexed": true,
          "internalType": "address",
          "name": "token",
          "type": "address"
        }
      ],
      "name": "TokenDisabled",
      "type": "event"
    },
    {
      "inputs": [],
      "name": "YEAR",
      "outputs": [
        {
          "internalType": "uint256",
          "name": "",
          "type": "uint256"
        }
      ],
      "stateMutability": "view",
      "type": "function"
    },
    {
      "inputs": [
        {
          "internalType": "address",
          "name": "token",
          "type": "address"
        }
      ],
      "name": "disableToken",
      "outputs": [],
      "stateMutability": "nonpayable",
      "type": "function"
    },
    {
      "inputs": [
        {
          "internalType": "address",
          "name": "token",
          "type": "address"
        }
      ],
      "name": "isSupported",
      "outputs": [
        {
          "internalType": "bool",
          "name": "supported",
          "type": "bool"
        }
      ],
      "stateMutability": "view",
      "type": "function"
    },
    {
      "inputs": [],
      "name": "owner",
      "outputs": [
        {
          "internalType": "address",
          "name": "",
          "type": "address"
        }
      ],
      "stateMutability": "view",
      "type": "function"
    },
    {
      "inputs": [
        {
          "internalType": "address",
          "name": "token",
          "type": "address"
        },
        {
          "internalType": "uint256",
          "name": "normalizedLabelLength",
          "type": "uint256"
        },
        {
          "internalType": "uint256",
          "name": "duration",
          "type": "uint256"
        }
      ],
      "name": "quote",
      "outputs": [
        {
          "internalType": "uint256",
          "name": "amount",
          "type": "uint256"
        }
      ],
      "stateMutability": "view",
      "type": "function"
    },
    {
      "inputs": [],
      "name": "renounceOwnership",
      "outputs": [],
      "stateMutability": "nonpayable",
      "type": "function"
    },
    {
      "inputs": [
        {
          "internalType": "address",
          "name": "token",
          "type": "address"
        },
        {
          "internalType": "uint256",
          "name": "price3",
          "type": "uint256"
        },
        {
          "internalType": "uint256",
          "name": "price4",
          "type": "uint256"
        },
        {
          "internalType": "uint256",
          "name": "price5Plus",
          "type": "uint256"
        }
      ],
      "name": "setTokenConfig",
      "outputs": [],
      "stateMutability": "nonpayable",
      "type": "function"
    },
    {
      "inputs": [
        {
          "internalType": "address",
          "name": "token",
          "type": "address"
        }
      ],
      "name": "tokenConfig",
      "outputs": [
        {
          "components": [
            {
              "internalType": "bool",
              "name": "enabled",
              "type": "bool"
            },
            {
              "internalType": "uint256",
              "name": "price3",
              "type": "uint256"
            },
            {
              "internalType": "uint256",
              "name": "price4",
              "type": "uint256"
            },
            {
              "internalType": "uint256",
              "name": "price5Plus",
              "type": "uint256"
            }
          ],
          "internalType": "struct GNSPriceBook.TokenConfig",
          "name": "config",
          "type": "tuple"
        }
      ],
      "stateMutability": "view",
      "type": "function"
    },
    {
      "inputs": [
        {
          "internalType": "address",
          "name": "newOwner",
          "type": "address"
        }
      ],
      "name": "transferOwnership",
      "outputs": [],
      "stateMutability": "nonpayable",
      "type": "function"
    }
  ],
  "bytecode": "0x6080604052348015600e575f5ffd5b50601633601a565b6069565b5f80546001600160a01b038381166001600160a01b0319831681178455604051919092169283917f8be0079c531659141344cd1fd0a4f28419497f9722a3daafe3b4186f6b6457e09190a35050565b610955806100765f395ff3fe608060405234801561000f575f5ffd5b5060043610610090575f3560e01c8063839145401161006357806383914540146101045780638da5cb5b1461011d5780639e8cc04b14610137578063f2fde38b1461014a578063fe136c4e1461015d575f5ffd5b806323e27a64146100945780633f954f3b146100a95780634f129c53146100bc578063715018a6146100fc575b5f5ffd5b6100a76100a236600461084c565b6101a5565b005b6100a76100b7366004610865565b610233565b6100e76100ca36600461084c565b6001600160a01b03165f9081526001602052604090205460ff1690565b60405190151581526020015b60405180910390f35b6100a7610311565b61010f6301e1338081565b6040519081526020016100f3565b5f546040516001600160a01b0390911681526020016100f3565b61010f61014536600461089b565b610324565b6100a761015836600461084c565b61035b565b61017061016b36600461084c565b6103d9565b6040516100f3919081511515815260208083015190820152604080830151908201526060918201519181019190915260800190565b6101ad610453565b6001600160a01b0381166101d457604051636b093aad60e01b815260040160405180910390fd5b6001600160a01b0381165f818152600160208190526040808320805460ff19168155918201839055600282018390556003909101829055517f1fac2d788f45089e4f2b9e3484b1163143fdeab5eb480ab9a44b459d2dc476a29190a250565b61023b610453565b6001600160a01b03841661026257604051636b093aad60e01b815260040160405180910390fd5b61026b846104ac565b604080516080810182526001808252602080830187815283850187815260608086018881526001600160a01b038c165f8181528787528990209751885460ff1916901515178855935195870195909555905160028601559251600390940193909355835187815290810186905292830184905290917fad9889fd56650c6ab654c1935e17c4fe3996e689f3caf15dd8fad5b7144172e1910160405180910390a250505050565b610319610453565b6103225f610581565b565b5f5f61032f856105d0565b90505f61033c828661069d565b905061034f81856301e1338060016106f6565b925050505b9392505050565b610363610453565b6001600160a01b0381166103cd5760405162461bcd60e51b815260206004820152602660248201527f4f776e61626c653a206e6577206f776e657220697320746865207a65726f206160448201526564647265737360d01b60648201526084015b60405180910390fd5b6103d681610581565b50565b61040260405180608001604052805f151581526020015f81526020015f81526020015f81525090565b506001600160a01b03165f908152600160208181526040928390208351608081018552815460ff16151581529281015491830191909152600281015492820192909252600390910154606082015290565b5f546001600160a01b031633146103225760405162461bcd60e51b815260206004820181905260248201527f4f776e61626c653a2063616c6c6572206973206e6f7420746865206f776e657260448201526064016103c4565b60408051600481526024810182526020810180516001600160e01b031663313ce56760e01b17905290515f9182916001600160a01b038516916104ee916108cb565b5f60405180830381855afa9150503d805f8114610526576040519150601f19603f3d011682016040523d82523d5f602084013e61052b565b606091505b509150915081158061053e575060208151105b1561056757604051634e34486d60e01b81526001600160a01b03841660048201526024016103c4565b8080602001905181019061057b91906108e1565b50505050565b5f80546001600160a01b038381166001600160a01b0319831681178455604051919092169283917f8be0079c531659141344cd1fd0a4f28419497f9722a3daafe3b4186f6b6457e09190a35050565b6105f960405180608001604052805f151581526020015f81526020015f81526020015f81525090565b6001600160a01b03821661062057604051636b093aad60e01b815260040160405180910390fd5b506001600160a01b0381165f908152600160208181526040928390208351608081018552815460ff16151580825293820154928101929092526002810154938201939093526003909201546060830152610698576040516311c0451960e11b81526001600160a01b03831660048201526024016103c4565b919050565b5f60038210156106c357604051631afdf51560e11b8152600481018390526024016103c4565b816003036106d6575060208201516106f0565b816004036106e9575060408201516106f0565b5060608201515b92915050565b5f5f610703868686610751565b9050600183600281111561071957610719610901565b14801561073557505f848061073057610730610915565b868809115b1561074857610745600182610929565b90505b95945050505050565b5f80805f19858709858702925082811083820303915050805f036107885783828161077e5761077e610915565b0492505050610354565b8084116107cf5760405162461bcd60e51b81526020600482015260156024820152744d6174683a206d756c446976206f766572666c6f7760581b60448201526064016103c4565b5f8486880960026001871981018816978890046003810283188082028403028082028403028082028403028082028403028082028403029081029092039091025f889003889004909101858311909403939093029303949094049190911702949350505050565b80356001600160a01b0381168114610698575f5ffd5b5f6020828403121561085c575f5ffd5b61035482610836565b5f5f5f5f60808587031215610878575f5ffd5b61088185610836565b966020860135965060408601359560600135945092505050565b5f5f5f606084860312156108ad575f5ffd5b6108b684610836565b95602085013595506040909401359392505050565b5f82518060208501845e5f920191825250919050565b5f602082840312156108f1575f5ffd5b815160ff81168114610354575f5ffd5b634e487b7160e01b5f52602160045260245ffd5b634e487b7160e01b5f52601260045260245ffd5b808201808211156106f057634e487b7160e01b5f52601160045260245ffdfea164736f6c634300081c000a",
  "linkReferences": {},
  "deployedLinkReferences": {},
  "immutableReferences": {},
  "inputSourceName": "project/contracts/GNSPriceBook.sol",
  "buildInfoId": "solc-0_8_28-5e6817b75b704142f5d5eb40e82ce889a1043b0b"
}