{
  "_format": "hh3-artifact-1",
  "contractName": "PublicResolver",
  "sourceName": "contracts/upstream/PublicResolver.sol",
  "abi": [
    {
      "inputs": [
        {
          "internalType": "contract ENS",
          "name": "ens_",
          "type": "address"
        },
        {
          "internalType": "contract INameWrapper",
          "name": "wrapperAddress_",
          "type": "address"
        },
        {
          "internalType": "address",
          "name": "trustedController_",
          "type": "address"
        },
        {
          "internalType": "address",
          "name": "trustedReverseRegistrar_",
          "type": "address"
        }
      ],
      "stateMutability": "nonpayable",
      "type": "constructor"
    },
    {
      "inputs": [
        {
          "internalType": "bytes",
          "name": "addressBytes",
          "type": "bytes"
        }
      ],
      "name": "InvalidEVMAddress",
      "type": "error"
    },
    {
      "inputs": [
        {
          "internalType": "uint256",
          "name": "offset",
          "type": "uint256"
        },
        {
          "internalType": "uint256",
          "name": "length",
          "type": "uint256"
        }
      ],
      "name": "OffsetOutOfBoundsError",
      "type": "error"
    },
    {
      "anonymous": false,
      "inputs": [
        {
          "indexed": true,
          "internalType": "bytes32",
          "name": "node",
          "type": "bytes32"
        },
        {
          "indexed": true,
          "internalType": "uint256",
          "name": "contentType",
          "type": "uint256"
        }
      ],
      "name": "ABIChanged",
      "type": "event"
    },
    {
      "anonymous": false,
      "inputs": [
        {
          "indexed": true,
          "internalType": "bytes32",
          "name": "node",
          "type": "bytes32"
        },
        {
          "indexed": false,
          "internalType": "address",
          "name": "a",
          "type": "address"
        }
      ],
      "name": "AddrChanged",
      "type": "event"
    },
    {
      "anonymous": false,
      "inputs": [
        {
          "indexed": true,
          "internalType": "bytes32",
          "name": "node",
          "type": "bytes32"
        },
        {
          "indexed": false,
          "internalType": "uint256",
          "name": "coinType",
          "type": "uint256"
        },
        {
          "indexed": false,
          "internalType": "bytes",
          "name": "newAddress",
          "type": "bytes"
        }
      ],
      "name": "AddressChanged",
      "type": "event"
    },
    {
      "anonymous": false,
      "inputs": [
        {
          "indexed": true,
          "internalType": "address",
          "name": "owner",
          "type": "address"
        },
        {
          "indexed": true,
          "internalType": "address",
          "name": "operator",
          "type": "address"
        },
        {
          "indexed": false,
          "internalType": "bool",
          "name": "approved",
          "type": "bool"
        }
      ],
      "name": "ApprovalForAll",
      "type": "event"
    },
    {
      "anonymous": false,
      "inputs": [
        {
          "indexed": false,
          "internalType": "address",
          "name": "owner",
          "type": "address"
        },
        {
          "indexed": true,
          "internalType": "bytes32",
          "name": "node",
          "type": "bytes32"
        },
        {
          "indexed": true,
          "internalType": "address",
          "name": "delegate",
          "type": "address"
        },
        {
          "indexed": true,
          "internalType": "bool",
          "name": "approved",
          "type": "bool"
        }
      ],
      "name": "Approved",
      "type": "event"
    },
    {
      "anonymous": false,
      "inputs": [
        {
          "indexed": true,
          "internalType": "bytes32",
          "name": "node",
          "type": "bytes32"
        },
        {
          "indexed": false,
          "internalType": "bytes",
          "name": "hash",
          "type": "bytes"
        }
      ],
      "name": "ContenthashChanged",
      "type": "event"
    },
    {
      "anonymous": false,
      "inputs": [
        {
          "indexed": true,
          "internalType": "bytes32",
          "name": "node",
          "type": "bytes32"
        },
        {
          "indexed": false,
          "internalType": "bytes",
          "name": "name",
          "type": "bytes"
        },
        {
          "indexed": false,
          "internalType": "uint16",
          "name": "resource",
          "type": "uint16"
        },
        {
          "indexed": false,
          "internalType": "bytes",
          "name": "record",
          "type": "bytes"
        }
      ],
      "name": "DNSRecordChanged",
      "type": "event"
    },
    {
      "anonymous": false,
      "inputs": [
        {
          "indexed": true,
          "internalType": "bytes32",
          "name": "node",
          "type": "bytes32"
        },
        {
          "indexed": false,
          "internalType": "bytes",
          "name": "name",
          "type": "bytes"
        },
        {
          "indexed": false,
          "internalType": "uint16",
          "name": "resource",
          "type": "uint16"
        }
      ],
      "name": "DNSRecordDeleted",
      "type": "event"
    },
    {
      "anonymous": false,
      "inputs": [
        {
          "indexed": true,
          "internalType": "bytes32",
          "name": "node",
          "type": "bytes32"
        },
        {
          "indexed": false,
          "internalType": "bytes",
          "name": "lastzonehash",
          "type": "bytes"
        },
        {
          "indexed": false,
          "internalType": "bytes",
          "name": "zonehash",
          "type": "bytes"
        }
      ],
      "name": "DNSZonehashChanged",
      "type": "event"
    },
    {
      "anonymous": false,
      "inputs": [
        {
          "indexed": true,
          "internalType": "bytes32",
          "name": "node",
          "type": "bytes32"
        },
        {
          "indexed": true,
          "internalType": "string",
          "name": "indexedKey",
          "type": "string"
        },
        {
          "indexed": false,
          "internalType": "string",
          "name": "key",
          "type": "string"
        },
        {
          "indexed": true,
          "internalType": "bytes",
          "name": "indexedData",
          "type": "bytes"
        }
      ],
      "name": "DataChanged",
      "type": "event"
    },
    {
      "anonymous": false,
      "inputs": [
        {
          "indexed": true,
          "internalType": "bytes32",
          "name": "node",
          "type": "bytes32"
        },
        {
          "indexed": true,
          "internalType": "bytes4",
          "name": "interfaceID",
          "type": "bytes4"
        },
        {
          "indexed": false,
          "internalType": "address",
          "name": "implementer",
          "type": "address"
        }
      ],
      "name": "InterfaceChanged",
      "type": "event"
    },
    {
      "anonymous": false,
      "inputs": [
        {
          "indexed": true,
          "internalType": "bytes32",
          "name": "node",
          "type": "bytes32"
        },
        {
          "indexed": false,
          "internalType": "string",
          "name": "name",
          "type": "string"
        }
      ],
      "name": "NameChanged",
      "type": "event"
    },
    {
      "anonymous": false,
      "inputs": [
        {
          "indexed": true,
          "internalType": "bytes32",
          "name": "node",
          "type": "bytes32"
        },
        {
          "indexed": false,
          "internalType": "bytes32",
          "name": "x",
          "type": "bytes32"
        },
        {
          "indexed": false,
          "internalType": "bytes32",
          "name": "y",
          "type": "bytes32"
        }
      ],
      "name": "PubkeyChanged",
      "type": "event"
    },
    {
      "anonymous": false,
      "inputs": [
        {
          "indexed": true,
          "internalType": "bytes32",
          "name": "node",
          "type": "bytes32"
        },
        {
          "indexed": true,
          "internalType": "string",
          "name": "indexedKey",
          "type": "string"
        },
        {
          "indexed": false,
          "internalType": "string",
          "name": "key",
          "type": "string"
        },
        {
          "indexed": false,
          "internalType": "string",
          "name": "value",
          "type": "string"
        }
      ],
      "name": "TextChanged",
      "type": "event"
    },
    {
      "anonymous": false,
      "inputs": [
        {
          "indexed": true,
          "internalType": "bytes32",
          "name": "node",
          "type": "bytes32"
        },
        {
          "indexed": false,
          "internalType": "uint64",
          "name": "newVersion",
          "type": "uint64"
        }
      ],
      "name": "VersionChanged",
      "type": "event"
    },
    {
      "inputs": [
        {
          "internalType": "bytes32",
          "name": "node",
          "type": "bytes32"
        },
        {
          "internalType": "uint256",
          "name": "contentTypes",
          "type": "uint256"
        }
      ],
      "name": "ABI",
      "outputs": [
        {
          "internalType": "uint256",
          "name": "",
          "type": "uint256"
        },
        {
          "internalType": "bytes",
          "name": "",
          "type": "bytes"
        }
      ],
      "stateMutability": "view",
      "type": "function"
    },
    {
      "inputs": [
        {
          "internalType": "bytes32",
          "name": "node",
          "type": "bytes32"
        }
      ],
      "name": "addr",
      "outputs": [
        {
          "internalType": "address payable",
          "name": "",
          "type": "address"
        }
      ],
      "stateMutability": "view",
      "type": "function"
    },
    {
      "inputs": [
        {
          "internalType": "bytes32",
          "name": "node",
          "type": "bytes32"
        },
        {
          "internalType": "uint256",
          "name": "coinType",
          "type": "uint256"
        }
      ],
      "name": "addr",
      "outputs": [
        {
          "internalType": "bytes",
          "name": "addressBytes",
          "type": "bytes"
        }
      ],
      "stateMutability": "view",
      "type": "function"
    },
    {
      "inputs": [
        {
          "internalType": "bytes32",
          "name": "node",
          "type": "bytes32"
        },
        {
          "internalType": "address",
          "name": "delegate",
          "type": "address"
        },
        {
          "internalType": "bool",
          "name": "approved",
          "type": "bool"
        }
      ],
      "name": "approve",
      "outputs": [],
      "stateMutability": "nonpayable",
      "type": "function"
    },
    {
      "inputs": [
        {
          "internalType": "bytes32",
          "name": "node",
          "type": "bytes32"
        }
      ],
      "name": "clearRecords",
      "outputs": [],
      "stateMutability": "nonpayable",
      "type": "function"
    },
    {
      "inputs": [
        {
          "internalType": "bytes32",
          "name": "node",
          "type": "bytes32"
        }
      ],
      "name": "contenthash",
      "outputs": [
        {
          "internalType": "bytes",
          "name": "",
          "type": "bytes"
        }
      ],
      "stateMutability": "view",
      "type": "function"
    },
    {
      "inputs": [
        {
          "internalType": "bytes32",
          "name": "node",
          "type": "bytes32"
        },
        {
          "internalType": "string",
          "name": "key",
          "type": "string"
        }
      ],
      "name": "data",
      "outputs": [
        {
          "internalType": "bytes",
          "name": "",
          "type": "bytes"
        }
      ],
      "stateMutability": "view",
      "type": "function"
    },
    {
      "inputs": [
        {
          "internalType": "bytes32",
          "name": "node",
          "type": "bytes32"
        },
        {
          "internalType": "bytes32",
          "name": "name",
          "type": "bytes32"
        },
        {
          "internalType": "uint16",
          "name": "resource",
          "type": "uint16"
        }
      ],
      "name": "dnsRecord",
      "outputs": [
        {
          "internalType": "bytes",
          "name": "",
          "type": "bytes"
        }
      ],
      "stateMutability": "view",
      "type": "function"
    },
    {
      "inputs": [
        {
          "internalType": "bytes32",
          "name": "node",
          "type": "bytes32"
        },
        {
          "internalType": "uint256",
          "name": "coinType",
          "type": "uint256"
        }
      ],
      "name": "hasAddr",
      "outputs": [
        {
          "internalType": "bool",
          "name": "",
          "type": "bool"
        }
      ],
      "stateMutability": "view",
      "type": "function"
    },
    {
      "inputs": [
        {
          "internalType": "bytes32",
          "name": "node",
          "type": "bytes32"
        },
        {
          "internalType": "bytes32",
          "name": "name",
          "type": "bytes32"
        }
      ],
      "name": "hasDNSRecords",
      "outputs": [
        {
          "internalType": "bool",
          "name": "",
          "type": "bool"
        }
      ],
      "stateMutability": "view",
      "type": "function"
    },
    {
      "inputs": [
        {
          "internalType": "bytes32",
          "name": "node",
          "type": "bytes32"
        },
        {
          "internalType": "bytes4",
          "name": "interfaceID",
          "type": "bytes4"
        }
      ],
      "name": "interfaceImplementer",
      "outputs": [
        {
          "internalType": "address",
          "name": "",
          "type": "address"
        }
      ],
      "stateMutability": "view",
      "type": "function"
    },
    {
      "inputs": [
        {
          "internalType": "address",
          "name": "owner",
          "type": "address"
        },
        {
          "internalType": "bytes32",
          "name": "node",
          "type": "bytes32"
        },
        {
          "internalType": "address",
          "name": "delegate",
          "type": "address"
        }
      ],
      "name": "isApprovedFor",
      "outputs": [
        {
          "internalType": "bool",
          "name": "",
          "type": "bool"
        }
      ],
      "stateMutability": "view",
      "type": "function"
    },
    {
      "inputs": [
        {
          "internalType": "address",
          "name": "account",
          "type": "address"
        },
        {
          "internalType": "address",
          "name": "operator",
          "type": "address"
        }
      ],
      "name": "isApprovedForAll",
      "outputs": [
        {
          "internalType": "bool",
          "name": "",
          "type": "bool"
        }
      ],
      "stateMutability": "view",
      "type": "function"
    },
    {
      "inputs": [
        {
          "internalType": "bytes[]",
          "name": "data",
          "type": "bytes[]"
        }
      ],
      "name": "multicall",
      "outputs": [
        {
          "internalType": "bytes[]",
          "name": "results",
          "type": "bytes[]"
        }
      ],
      "stateMutability": "nonpayable",
      "type": "function"
    },
    {
      "inputs": [
        {
          "internalType": "bytes32",
          "name": "nodehash",
          "type": "bytes32"
        },
        {
          "internalType": "bytes[]",
          "name": "data",
          "type": "bytes[]"
        }
      ],
      "name": "multicallWithNodeCheck",
      "outputs": [
        {
          "internalType": "bytes[]",
          "name": "results",
          "type": "bytes[]"
        }
      ],
      "stateMutability": "nonpayable",
      "type": "function"
    },
    {
      "inputs": [
        {
          "internalType": "bytes32",
          "name": "node",
          "type": "bytes32"
        }
      ],
      "name": "name",
      "outputs": [
        {
          "internalType": "string",
          "name": "",
          "type": "string"
        }
      ],
      "stateMutability": "view",
      "type": "function"
    },
    {
      "inputs": [
        {
          "internalType": "bytes32",
          "name": "node",
          "type": "bytes32"
        }
      ],
      "name": "pubkey",
      "outputs": [
        {
          "internalType": "bytes32",
          "name": "x",
          "type": "bytes32"
        },
        {
          "internalType": "bytes32",
          "name": "y",
          "type": "bytes32"
        }
      ],
      "stateMutability": "view",
      "type": "function"
    },
    {
      "inputs": [
        {
          "internalType": "bytes32",
          "name": "",
          "type": "bytes32"
        }
      ],
      "name": "recordVersions",
      "outputs": [
        {
          "internalType": "uint64",
          "name": "",
          "type": "uint64"
        }
      ],
      "stateMutability": "view",
      "type": "function"
    },
    {
      "inputs": [
        {
          "internalType": "bytes32",
          "name": "node",
          "type": "bytes32"
        },
        {
          "internalType": "uint256",
          "name": "contentType",
          "type": "uint256"
        },
        {
          "internalType": "bytes",
          "name": "data",
          "type": "bytes"
        }
      ],
      "name": "setABI",
      "outputs": [],
      "stateMutability": "nonpayable",
      "type": "function"
    },
    {
      "inputs": [
        {
          "internalType": "bytes32",
          "name": "node",
          "type": "bytes32"
        },
        {
          "internalType": "uint256",
          "name": "coinType",
          "type": "uint256"
        },
        {
          "internalType": "bytes",
          "name": "addressBytes",
          "type": "bytes"
        }
      ],
      "name": "setAddr",
      "outputs": [],
      "stateMutability": "nonpayable",
      "type": "function"
    },
    {
      "inputs": [
        {
          "internalType": "bytes32",
          "name": "node",
          "type": "bytes32"
        },
        {
          "internalType": "address",
          "name": "_addr",
          "type": "address"
        }
      ],
      "name": "setAddr",
      "outputs": [],
      "stateMutability": "nonpayable",
      "type": "function"
    },
    {
      "inputs": [
        {
          "internalType": "address",
          "name": "operator",
          "type": "address"
        },
        {
          "internalType": "bool",
          "name": "approved",
          "type": "bool"
        }
      ],
      "name": "setApprovalForAll",
      "outputs": [],
      "stateMutability": "nonpayable",
      "type": "function"
    },
    {
      "inputs": [
        {
          "internalType": "bytes32",
          "name": "node",
          "type": "bytes32"
        },
        {
          "internalType": "bytes",
          "name": "hash",
          "type": "bytes"
        }
      ],
      "name": "setContenthash",
      "outputs": [],
      "stateMutability": "nonpayable",
      "type": "function"
    },
    {
      "inputs": [
        {
          "internalType": "bytes32",
          "name": "node",
          "type": "bytes32"
        },
        {
          "internalType": "bytes",
          "name": "data",
          "type": "bytes"
        }
      ],
      "name": "setDNSRecords",
      "outputs": [],
      "stateMutability": "nonpayable",
      "type": "function"
    },
    {
      "inputs": [
        {
          "internalType": "bytes32",
          "name": "node",
          "type": "bytes32"
        },
        {
          "internalType": "string",
          "name": "key",
          "type": "string"
        },
        {
          "internalType": "bytes",
          "name": "value",
          "type": "bytes"
        }
      ],
      "name": "setData",
      "outputs": [],
      "stateMutability": "nonpayable",
      "type": "function"
    },
    {
      "inputs": [
        {
          "internalType": "bytes32",
          "name": "node",
          "type": "bytes32"
        },
        {
          "internalType": "bytes4",
          "name": "interfaceID",
          "type": "bytes4"
        },
        {
          "internalType": "address",
          "name": "implementer",
          "type": "address"
        }
      ],
      "name": "setInterface",
      "outputs": [],
      "stateMutability": "nonpayable",
      "type": "function"
    },
    {
      "inputs": [
        {
          "internalType": "bytes32",
          "name": "node",
          "type": "bytes32"
        },
        {
          "internalType": "string",
          "name": "newName",
          "type": "string"
        }
      ],
      "name": "setName",
      "outputs": [],
      "stateMutability": "nonpayable",
      "type": "function"
    },
    {
      "inputs": [
        {
          "internalType": "bytes32",
          "name": "node",
          "type": "bytes32"
        },
        {
          "internalType": "bytes32",
          "name": "x",
          "type": "bytes32"
        },
        {
          "internalType": "bytes32",
          "name": "y",
          "type": "bytes32"
        }
      ],
      "name": "setPubkey",
      "outputs": [],
      "stateMutability": "nonpayable",
      "type": "function"
    },
    {
      "inputs": [
        {
          "internalType": "bytes32",
          "name": "node",
          "type": "bytes32"
        },
        {
          "internalType": "string",
          "name": "key",
          "type": "string"
        },
        {
          "internalType": "string",
          "name": "value",
          "type": "string"
        }
      ],
      "name": "setText",
      "outputs": [],
      "stateMutability": "nonpayable",
      "type": "function"
    },
    {
      "inputs": [
        {
          "internalType": "bytes32",
          "name": "node",
          "type": "bytes32"
        },
        {
          "internalType": "bytes",
          "name": "hash",
          "type": "bytes"
        }
      ],
      "name": "setZonehash",
      "outputs": [],
      "stateMutability": "nonpayable",
      "type": "function"
    },
    {
      "inputs": [
        {
          "internalType": "bytes4",
          "name": "interfaceID",
          "type": "bytes4"
        }
      ],
      "name": "supportsInterface",
      "outputs": [
        {
          "internalType": "bool",
          "name": "",
          "type": "bool"
        }
      ],
      "stateMutability": "view",
      "type": "function"
    },
    {
      "inputs": [
        {
          "internalType": "bytes32",
          "name": "node",
          "type": "bytes32"
        },
        {
          "internalType": "string",
          "name": "key",
          "type": "string"
        }
      ],
      "name": "text",
      "outputs": [
        {
          "internalType": "string",
          "name": "",
          "type": "string"
        }
      ],
      "stateMutability": "view",
      "type": "function"
    },
    {
      "inputs": [
        {
          "internalType": "bytes32",
          "name": "node",
          "type": "bytes32"
        }
      ],
      "name": "zonehash",
      "outputs": [
        {
          "internalType": "bytes",
          "name": "",
          "type": "bytes"
        }
      ],
      "stateMutability": "view",
      "type": "function"
    }
  ],
  "bytecode": "0x610100604052348015610010575f5ffd5b506040516132bc3803806132bc83398101604081905261002f91610174565b8383838383335f826001600160a01b03166302571be37f91d1777781884d03a6757a803996e38de2a42967fb37eeaca72729271025a9e25f1b6040518263ffffffff1660e01b815260040161008691815260200190565b602060405180830381865afa1580156100a1573d5f5f3e3d5ffd5b505050506040513d601f19601f820116820180604052508101906100c591906101d0565b604051630f41a04d60e11b81526001600160a01b03848116600483015291925090821690631e83409a906024016020604051808303815f875af115801561010e573d5f5f3e3d5ffd5b505050506040513d601f19601f8201168201806040525081019061013291906101f2565b5050506001600160a01b039485166080525091831660a052821660c0521660e0525061020992505050565b6001600160a01b0381168114610171575f5ffd5b50565b5f5f5f5f60808587031215610187575f5ffd5b84516101928161015d565b60208601519094506101a38161015d565b60408601519093506101b48161015d565b60608601519092506101c58161015d565b939692955090935050565b5f602082840312156101e0575f5ffd5b81516101eb8161015d565b9392505050565b5f60208284031215610202575f5ffd5b5051919050565b60805160a05160c05160e0516130796102435f395f611a2701525f6119f501525f8181611ae30152611b3001525f611a6e01526130795ff3fe608060405234801561000f575f5ffd5b50600436106101f2575f3560e01c80637737221311610114578063c8690233116100a9578063e32954eb11610079578063e32954eb14610539578063e59d895d1461054c578063e985e9c51461055f578063ecbfada31461059a578063f1cb7e06146105ad575f5ffd5b8063c86902331461047c578063ce3decdc146104d3578063d5fa2b00146104e6578063d700ff33146104f9575f5ffd5b8063a8fa5682116100e4578063a8fa5682146103f3578063a9784b3e14610406578063ac9650d814610449578063bc1c58d114610469575f5ffd5b806377372213146103a75780638b95dd71146103ba578063a22cb465146103cd578063a4b91a01146103e0575f5ffd5b80633603d7581161018a57806359d1d43c1161015a57806359d1d43c1461034e5780635c98042b1461036e578063623195b014610381578063691f343114610394575f5ffd5b80633603d758146102cb5780633b3b57de146102de5780634cbf6ba4146102f15780634eb9c45e1461033b575f5ffd5b80632203ab56116101c55780632203ab561461027157806329cd62ea14610292578063304e6ade146102a557806332f111d7146102b8575f5ffd5b806301ffc9a7146101f65780630af179d71461021e57806310f13a8c14610233578063124a319c14610246575b5f5ffd5b6102096102043660046125fe565b6105c0565b60405190151581526020015b60405180910390f35b61023161022c366004612654565b6105d0565b005b61023161024136600461269b565b6107d2565b610259610254366004612712565b61089c565b6040516001600160a01b039091168152602001610215565b61028461027f36600461273c565b610ae1565b60405161021592919061278a565b6102316102a03660046127a2565b610c1c565b6102316102b3366004612654565b610cb4565b6102096102c636600461273c565b610d2d565b6102316102d93660046127cb565b610d77565b6102596102ec3660046127cb565b610e15565b6102096102ff36600461273c565b5f82815260208181526040808320546001600160401b031683526007825280832094835293815283822092825291909152205461ffff16151590565b61023161034936600461269b565b610e33565b61036161035c366004612654565b610f83565b60405161021591906127e2565b61036161037c3660046127cb565b611060565b61023161038f3660046127f4565b61111b565b6103616103a23660046127cb565b6111b3565b6102316103b5366004612654565b6111eb565b6102316103c8366004612856565b611264565b6102316103db36600461293b565b611387565b6102316103ee366004612965565b61145c565b6103616104013660046129a0565b611528565b6102096104143660046129dc565b6001600160a01b039283165f908152600d60209081526040808320948352938152838220929094168152925290205460ff1690565b61045c610457366004612a50565b611574565b6040516102159190612a8e565b6103616104773660046127cb565b611581565b6104be61048a3660046127cb565b5f81815260208181526040808320546001600160401b03168352600a82528083209383529290522080546001909101549091565b60408051928352602083019190915201610215565b6102316104e1366004612654565b6115b9565b6102316104f4366004612af1565b6116f5565b6105216105073660046127cb565b5f602081905290815260409020546001600160401b031681565b6040516001600160401b039091168152602001610215565b61045c610547366004612b1f565b611748565b61023161055a366004612b59565b61175d565b61020961056d366004612b8b565b6001600160a01b039182165f908152600c6020908152604080832093909416825291909152205460ff1690565b6103616105a8366004612654565b611801565b6103616105bb36600461273c565b61183f565b5f6105ca826119c5565b92915050565b826105da816119e9565b6105e2575f5ffd5b5f84815260208181526040808320548151601f87018490048402810184019092528582528392606092839285926001600160401b039091169183916106459183918d908d90819084018382808284375f920191909152509293925050611c169050565b90505b8051516020820151101561076c578661ffff165f036106ac578060400151965061067181611c71565b9450846040516020016106849190612bb7565b6040516020818303038152906040528051906020012092506106a581611c92565b935061075e565b5f6106b682611c71565b9050816040015161ffff168861ffff161415806106da57506106d88682611cae565b155b1561075c576107358c878a8e8e8080601f0160208091040260200160405190810160405280939291908181526020018383808284375f92019190915250505060208801518d915061072c908290612be1565b8b51158a611cd2565b81604001519750816020015196508095508580519060200120935061075982611c92565b94505b505b61076781611f31565b610648565b508351156107c6576107c68a85888c8c8080601f0160208091040260200160405190810160405280939291908181526020018383808284375f920191909152508c92506107bd91508290508f612be1565b89511588611cd2565b50505050505050505050565b846107dc816119e9565b6107e4575f5ffd5b5f86815260208181526040808320546001600160401b03168352600b8252808320898452909152908190209051849184916108229089908990612bf4565b9081526020016040518091039020918261083d929190612c7f565b50848460405161084e929190612bf4565b6040518091039020867f448bc014f1536726cf8d54ff3d6481ed3cbc683c2591ca204274009afa09b1a18787878760405161088c9493929190612d60565b60405180910390a3505050505050565b5f82815260208181526040808320546001600160401b031683526008825280832085845282528083206001600160e01b0319851684529091528120546001600160a01b031680156108ee5790506105ca565b5f6108f885610e15565b90506001600160a01b038116610912575f925050506105ca565b6040516301ffc9a760e01b60248201525f9081906001600160a01b0384169060440160408051601f198184030181529181526020820180516001600160e01b03166301ffc9a760e01b179052516109699190612bb7565b5f60405180830381855afa9150503d805f81146109a1576040519150601f19603f3d011682016040523d82523d5f602084013e6109a6565b606091505b50915091508115806109b9575060208151105b806109e3575080601f815181106109d2576109d2612d91565b01602001516001600160f81b031916155b156109f4575f9450505050506105ca565b6040516001600160e01b0319871660248201526001600160a01b0384169060440160408051601f198184030181529181526020820180516001600160e01b03166301ffc9a760e01b17905251610a4a9190612bb7565b5f60405180830381855afa9150503d805f8114610a82576040519150601f19603f3d011682016040523d82523d5f602084013e610a87565b606091505b509092509050811580610a9b575060208151105b80610ac5575080601f81518110610ab457610ab4612d91565b01602001516001600160f81b031916155b15610ad6575f9450505050506105ca565b509095945050505050565b5f82815260208181526040808320546001600160401b03168352600180835281842086855290925282206060915b5f81118015610b1e5750848111155b15610bfe5780851615801590610b4b57505f8181526020839052604081208054610b4790612c03565b9050115b15610bf65780825f8381526020019081526020015f20808054610b6d90612c03565b80601f0160208091040260200160405190810160405280929190818152602001828054610b9990612c03565b8015610be45780601f10610bbb57610100808354040283529160200191610be4565b820191905f5260205f20905b815481529060010190602001808311610bc757829003601f168201915b50505050509050935093505050610c15565b60011b610b0f565b505f60405180602001604052805f81525092509250505b9250929050565b82610c26816119e9565b610c2e575f5ffd5b60408051808201825284815260208082018581525f888152808352848120546001600160401b03168152600a835284812089825283528490209251835551600190920191909155815185815290810184905285917f1d6f5e03d3f63eb58751986629a5439baee5079ff04f345becb66e23eb154e4691015b60405180910390a250505050565b82610cbe816119e9565b610cc6575f5ffd5b5f84815260208181526040808320546001600160401b03168352600382528083208784529091529020610cfa838583612c7f565b50837fe379c1624ed7e714cc0937528a32359d69d5281337765313dba4e081b72d75788484604051610ca6929190612da5565b5f82815260208181526040808320546001600160401b0316835260028252808320858452825280832084845290915281208054829190610d6c90612c03565b905011905092915050565b80610d81816119e9565b610d89575f5ffd5b5f82815260208190526040812080546001600160401b031691610dab83612db8565b82546101009290920a6001600160401b038181021990931691831602179091555f84815260208181526040918290205491519190921681528492507fc6621ccb8f3f5a04bb6502154b2caf6adf5983fe76dfef1cfc9c42e3579db444910160405180910390a25050565b5f610e2182603c61183f565b610e2a90612de2565b60601c92915050565b84610e3d816119e9565b610e45575f5ffd5b5f86815260208181526040808320546001600160401b031683526004825280832089845290915290819020905184918491610e839089908990612bf4565b90815260200160405180910390209182610e9e929190612c7f565b50610f118686868080601f0160208091040260200160405190810160405280939291908181526020018383808284375f9201919091525050604080516020601f8a0181900481028201810190925288815292508891508790819084018382808284375f9201919091525061174392505050565b8282604051610f21929190612bf4565b60405180910390208585604051610f39929190612bf4565b6040518091039020877f3b7ea3580e046bf897ca24f2f45fcf5491dafba8d1b3dd17ca92aa0e82b4dd218888604051610f73929190612da5565b60405180910390a4505050505050565b5f83815260208181526040808320546001600160401b03168352600b825280832086845290915290819020905160609190610fc19085908590612bf4565b90815260200160405180910390208054610fda90612c03565b80601f016020809104026020016040519081016040528092919081815260200182805461100690612c03565b80156110515780601f1061102857610100808354040283529160200191611051565b820191905f5260205f20905b81548152906001019060200180831161103457829003601f168201915b505050505090505b9392505050565b5f81815260208181526040808320546001600160401b0316835260058252808320848452909152902080546060919061109890612c03565b80601f01602080910402602001604051908101604052809291908181526020018280546110c490612c03565b801561110f5780601f106110e65761010080835404028352916020019161110f565b820191905f5260205f20905b8154815290600101906020018083116110f257829003601f168201915b50505050509050919050565b83611125816119e9565b61112d575f5ffd5b83611139600182612be1565b1615611143575f5ffd5b5f85815260208181526040808320546001600160401b03168352600182528083208884528252808320878452909152902061117f838583612c7f565b50604051849086907faa121bbeef5f32f5961a2a28966e769023910fc9479059ee3495d4c1a696efe3905f90a35050505050565b5f81815260208181526040808320546001600160401b0316835260098252808320848452909152902080546060919061109890612c03565b826111f5816119e9565b6111fd575f5ffd5b5f84815260208181526040808320546001600160401b03168352600982528083208784529091529020611231838583612c7f565b50837fb7d29e911041e8d9b843369e890bcb72c9388692ba48b65ac54e7214c4c348f78484604051610ca6929190612da5565b8261126e816119e9565b611276575f5ffd5b81511580159061128857508151601414155b8015611298575061129883612016565b156112c1578160405163046b337b60e51b81526004016112b891906127e2565b60405180910390fd5b837f65412581168e88a1e60c6459d7f44ae83ad0832e670826c05a4e2476b57af75284846040516112f392919061278a565b60405180910390a2603c830361134557837f52d7d861f09ab3d26239d492e8968629f95e9e318cf0b73bfddc441522a15fd261132e84612de2565b60405160609190911c815260200160405180910390a25b5f84815260208181526040808320546001600160401b0316835260028252808320878452825280832086845290915290206113808382612e35565b5050505050565b6001600160a01b03821633036113f15760405162461bcd60e51b815260206004820152602960248201527f455243313135353a2073657474696e6720617070726f76616c20737461747573604482015268103337b91039b2b63360b91b60648201526084016112b8565b335f818152600c602090815260408083206001600160a01b03871680855290835292819020805460ff191686151590811790915590519081529192917f17307eab39ab6107e8899845ad3d59bd9653f200f220920489ca2b5937696c31910160405180910390a35050565b6001600160a01b03821633036114b45760405162461bcd60e51b815260206004820181905260248201527f53657474696e672064656c65676174652073746174757320666f722073656c6660448201526064016112b8565b335f818152600d6020908152604080832087845282528083206001600160a01b03871680855290835292819020805460ff191686151590811790915590519384529286917ff0ddb3b04746704017f9aa8bd728fcc2c1d11675041205350018915f5e4750a0910160405180910390a4505050565b5f83815260208181526040808320546001600160401b03168352600682528083208684528252808320858452825280832061ffff851684529091529020805460609190610fda90612c03565b60606110595f848461203b565b5f81815260208181526040808320546001600160401b0316835260038252808320848452909152902080546060919061109890612c03565b826115c3816119e9565b6115cb575f5ffd5b5f84815260208181526040808320546001600160401b0316808452600583528184208885529092528220805491929161160390612c03565b80601f016020809104026020016040519081016040528092919081815260200182805461162f90612c03565b801561167a5780601f106116515761010080835404028352916020019161167a565b820191905f5260205f20905b81548152906001019060200180831161165d57829003601f168201915b505050506001600160401b0384165f9081526005602090815260408083208b845290915290209192506116b09050858783612c7f565b50857f8f15ed4b723ef428f250961da8315675b507046737e19319fc1a4d81bfe87f858287876040516116e593929190612eef565b60405180910390a2505050505050565b816116ff816119e9565b611707575f5ffd5b6040516bffffffffffffffffffffffff19606084901b166020820152611743908490603c90603401604051602081830303815290604052611264565b505050565b606061175584848461203b565b949350505050565b82611767816119e9565b61176f575f5ffd5b5f84815260208181526040808320546001600160401b031683526008825280832087845282528083206001600160e01b031987168085529083529281902080546001600160a01b0319166001600160a01b038716908117909155905190815286917f7c69f06bea0bdef565b709e93a147836b0063ba2dd89f02d0b7e8d931e6a6daa910160405180910390a350505050565b5f83815260208181526040808320546001600160401b031683526004825280832086845290915290819020905160609190610fc19085908590612bf4565b5f82815260208181526040808320546001600160401b03168352600282528083208584528252808320848452918290529091208054606092919061188290612c03565b80601f01602080910402602001604051908101604052809291908181526020018280546118ae90612c03565b80156118f95780601f106118d0576101008083540402835291602001916118f9565b820191905f5260205f20905b8154815290600101906020018083116118dc57829003601f168201915b5050505050915081515f14801561191d57505f611915846121f8565b63ffffffff16115b156119be5763800000005f908152602082905260409020805461193f90612c03565b80601f016020809104026020016040519081016040528092919081815260200182805461196b90612c03565b80156119b65780601f1061198d576101008083540402835291602001916119b6565b820191905f5260205f20905b81548152906001019060200180831161199957829003601f168201915b505050505091505b5092915050565b5f6001600160e01b03198216631674750f60e21b14806105ca57506105ca82612222565b5f336001600160a01b037f0000000000000000000000000000000000000000000000000000000000000000161480611a495750336001600160a01b037f000000000000000000000000000000000000000000000000000000000000000016145b15611a5657506001919050565b6040516302571be360e01b8152600481018390525f907f00000000000000000000000000000000000000000000000000000000000000006001600160a01b0316906302571be390602401602060405180830381865afa158015611abb573d5f5f3e3d5ffd5b505050506040513d601f19601f82011682018060405250810190611adf9190612f1e565b90507f00000000000000000000000000000000000000000000000000000000000000006001600160a01b0316816001600160a01b031603611ba4576040516331a9108f60e11b8152600481018490527f00000000000000000000000000000000000000000000000000000000000000006001600160a01b031690636352211e90602401602060405180830381865afa158015611b7d573d5f5f3e3d5ffd5b505050506040513d601f19601f82011682018060405250810190611ba19190612f1e565b90505b6001600160a01b038116331480611bdd57506001600160a01b0381165f908152600c6020908152604080832033845290915290205460ff165b8061105957506001600160a01b0381165f908152600d60209081526040808320868452825280832033845290915290205460ff16611059565b611c5e6040518060e00160405280606081526020015f81526020015f61ffff1681526020015f61ffff1681526020015f63ffffffff1681526020015f81526020015f81525090565b82815260c081018290526105ca81611f31565b602081015181516060916105ca91611c899082612246565b8451919061229d565b60a081015160c08201516060916105ca91611c89908290612be1565b5f815183511480156110595750508051602091820120825192909101919091201490565b865160208801205f611ce587878761229d565b90508315611e09576001600160401b0383165f9081526006602090815260408083208d84528252808320858452825280832061ffff8c16845290915290208054611d2e90612c03565b159050611d8b576001600160401b0383165f9081526007602090815260408083208d845282528083208584529091528120805461ffff1691611d6f83612f39565b91906101000a81548161ffff021916908361ffff160217905550505b6001600160401b0383165f9081526006602090815260408083208d84528252808320858452825280832061ffff8c1684529091528120611dca91612594565b897f03528ed0c2a3ebc993b12ce3c16bb382f9c7d88ef7d8a1bf290eaf35955a12078a8a604051611dfc929190612f55565b60405180910390a26107c6565b6001600160401b0383165f9081526006602090815260408083208d84528252808320858452825280832061ffff8c16845290915290208054611e4a90612c03565b90505f03611ea8576001600160401b0383165f9081526007602090815260408083208d845282528083208584529091528120805461ffff1691611e8c83612f7a565b91906101000a81548161ffff021916908361ffff160217905550505b6001600160401b0383165f9081526006602090815260408083208d84528252808320858452825280832061ffff8c1684529091529020611ee88282612e35565b50897f52a608b3303a48862d07a73d82fa221318c0027fbbcfb1b2329bface3f19ff2b8a8a84604051611f1d93929190612f91565b60405180910390a250505050505050505050565b60c08101516020820181905281515111611f485750565b5f611f5a825f01518360200151612246565b8260200151611f699190612fbf565b8251909150611f7890826122f1565b61ffff166040830152611f8c600282612fbf565b8251909150611f9b90826122f1565b61ffff166060830152611faf600282612fbf565b8251909150611fbe9082612312565b63ffffffff166080830152611fd4600482612fbf565b82519091505f90611fe590836122f1565b61ffff169050611ff6600283612fbf565b60a0840181905291506120098183612fbf565b60c0909301929092525050565b5f63800000008214806105ca57505f61202e836121f8565b63ffffffff161192915050565b6060816001600160401b0381111561205557612055612842565b60405190808252806020026020018201604052801561208857816020015b60608152602001906001900390816120735790505b5090505f5b828110156121f0578415612148575f8484838181106120ae576120ae612d91565b90506020028101906120c09190612fd2565b6120cf91602491600491613014565b6120d89161303b565b90508581146121465760405162461bcd60e51b815260206004820152603460248201527f6d756c746963616c6c3a20416c6c207265636f726473206d7573742068617665604482015273040c240dac2e8c6d0d2dcce40dcc2dacad0c2e6d60631b60648201526084016112b8565b505b5f803086868581811061215d5761215d612d91565b905060200281019061216f9190612fd2565b60405161217d929190612bf4565b5f60405180830381855af49150503d805f81146121b5576040519150601f19603f3d011682016040523d82523d5f602084013e6121ba565b606091505b5091509150816121c8575f5ffd5b808484815181106121db576121db612d91565b6020908102919091010152505060010161208d565b509392505050565b5f603c820361220957506001919050565b638000000091821891821061221e575f6105ca565b5090565b5f6001600160e01b0319821663c869023360e01b14806105ca57506105ca8261232e565b5f815b8351811061225957612259613058565b5f6122648583612352565b60ff169050612274816001612fbf565b61227e9083612fbf565b9150805f0361228d5750612293565b50612249565b6117558382612be1565b6060816001600160401b038111156122b7576122b7612842565b6040519080825280601f01601f1916602001820160405280156122e1576020820181803683370190505b5090506110598484835f86612384565b5f61230683612301846002612fbf565b6123b5565b50016020015160f01c90565b5f61232283612301846004612fbf565b50016020015160e01c90565b5f6001600160e01b0319821663691f343160e01b14806105ca57506105ca826123e8565b5f61236283612301846001612fbf565b82828151811061237457612374612d91565b016020015160f81c905092915050565b612392856123018387612fbf565b6123a0836123018385612fbf565b6113808260208501018560208801018361240c565b81518111156123e4578151604051638a3c1cfb60e01b81526112b8918391600401918252602082015260400190565b5050565b5f6001600160e01b031982166304928c6760e21b14806105ca57506105ca82612455565b5b601f81111561242d578151835260209283019290910190601f190161240d565b80156117435790518251600160209390930360031b9290921b5f190180199091169116179052565b5f6001600160e01b0319821663547d2b4160e11b148061248557506001600160e01b03198216635c98042b60e01b145b806105ca57506105ca825f6001600160e01b0319821663ecbfada360e01b14806105ca57506105ca825f6001600160e01b0319821663bc1c58d160e01b14806105ca57506105ca825f631d9dabef60e11b6001600160e01b0319831614806124fd57506378e5bf0360e11b6001600160e01b03198316145b8061251857506332f111d760e01b6001600160e01b03198316145b806105ca57506105ca825f6001600160e01b03198216631101d5ab60e11b14806105ca57506105ca825f6001600160e01b0319821663d700ff3360e01b14806105ca57506105ca825f6001600160e01b03198216634fbf043360e01b14806105ca57506301ffc9a760e01b6001600160e01b03198316146105ca565b5080546125a090612c03565b5f825580601f106125af575050565b601f0160209004905f5260205f20908101906125cb91906125ce565b50565b5b8082111561221e575f81556001016125cf565b80356001600160e01b0319811681146125f9575f5ffd5b919050565b5f6020828403121561260e575f5ffd5b611059826125e2565b5f5f83601f840112612627575f5ffd5b5081356001600160401b0381111561263d575f5ffd5b602083019150836020828501011115610c15575f5ffd5b5f5f5f60408486031215612666575f5ffd5b8335925060208401356001600160401b03811115612682575f5ffd5b61268e86828701612617565b9497909650939450505050565b5f5f5f5f5f606086880312156126af575f5ffd5b8535945060208601356001600160401b038111156126cb575f5ffd5b6126d788828901612617565b90955093505060408601356001600160401b038111156126f5575f5ffd5b61270188828901612617565b969995985093965092949392505050565b5f5f60408385031215612723575f5ffd5b82359150612733602084016125e2565b90509250929050565b5f5f6040838503121561274d575f5ffd5b50508035926020909101359150565b5f81518084528060208401602086015e5f602082860101526020601f19601f83011685010191505092915050565b828152604060208201525f611755604083018461275c565b5f5f5f606084860312156127b4575f5ffd5b505081359360208301359350604090920135919050565b5f602082840312156127db575f5ffd5b5035919050565b602081525f611059602083018461275c565b5f5f5f5f60608587031215612807575f5ffd5b843593506020850135925060408501356001600160401b0381111561282a575f5ffd5b61283687828801612617565b95989497509550505050565b634e487b7160e01b5f52604160045260245ffd5b5f5f5f60608486031215612868575f5ffd5b833592506020840135915060408401356001600160401b0381111561288b575f5ffd5b8401601f8101861361289b575f5ffd5b80356001600160401b038111156128b4576128b4612842565b604051601f8201601f19908116603f011681016001600160401b03811182821017156128e2576128e2612842565b6040528181528282016020018810156128f9575f5ffd5b816020840160208301375f602083830101528093505050509250925092565b6001600160a01b03811681146125cb575f5ffd5b803580151581146125f9575f5ffd5b5f5f6040838503121561294c575f5ffd5b823561295781612918565b91506127336020840161292c565b5f5f5f60608486031215612977575f5ffd5b83359250602084013561298981612918565b91506129976040850161292c565b90509250925092565b5f5f5f606084860312156129b2575f5ffd5b8335925060208401359150604084013561ffff811681146129d1575f5ffd5b809150509250925092565b5f5f5f606084860312156129ee575f5ffd5b83356129f981612918565b92506020840135915060408401356129d181612918565b5f5f83601f840112612a20575f5ffd5b5081356001600160401b03811115612a36575f5ffd5b6020830191508360208260051b8501011115610c15575f5ffd5b5f5f60208385031215612a61575f5ffd5b82356001600160401b03811115612a76575f5ffd5b612a8285828601612a10565b90969095509350505050565b5f602082016020835280845180835260408501915060408160051b8601019250602086015f5b82811015612ae557603f19878603018452612ad085835161275c565b94506020938401939190910190600101612ab4565b50929695505050505050565b5f5f60408385031215612b02575f5ffd5b823591506020830135612b1481612918565b809150509250929050565b5f5f5f60408486031215612b31575f5ffd5b8335925060208401356001600160401b03811115612b4d575f5ffd5b61268e86828701612a10565b5f5f5f60608486031215612b6b575f5ffd5b83359250612b7b602085016125e2565b915060408401356129d181612918565b5f5f60408385031215612b9c575f5ffd5b8235612ba781612918565b91506020830135612b1481612918565b5f82518060208501845e5f920191825250919050565b634e487b7160e01b5f52601160045260245ffd5b818103818111156105ca576105ca612bcd565b818382375f9101908152919050565b600181811c90821680612c1757607f821691505b602082108103612c3557634e487b7160e01b5f52602260045260245ffd5b50919050565b601f82111561174357805f5260205f20601f840160051c81016020851015612c605750805b601f840160051c820191505b81811015611380575f8155600101612c6c565b6001600160401b03831115612c9657612c96612842565b612caa83612ca48354612c03565b83612c3b565b5f601f841160018114612cdb575f8515612cc45750838201355b5f19600387901b1c1916600186901b178355611380565b5f83815260208120601f198716915b82811015612d0a5786850135825560209485019460019092019101612cea565b5086821015612d26575f1960f88860031b161c19848701351681555b505060018560011b0183555050505050565b81835281816020850137505f828201602090810191909152601f909101601f19169091010190565b604081525f612d73604083018688612d38565b8281036020840152612d86818587612d38565b979650505050505050565b634e487b7160e01b5f52603260045260245ffd5b602081525f611755602083018486612d38565b5f6001600160401b0382166001600160401b038103612dd957612dd9612bcd565b60010192915050565b805160208201516bffffffffffffffffffffffff19811691906014821015612e2e576bffffffffffffffffffffffff196bffffffffffffffffffffffff198360140360031b1b82161692505b5050919050565b81516001600160401b03811115612e4e57612e4e612842565b612e6281612e5c8454612c03565b84612c3b565b6020601f821160018114612e94575f8315612e7d5750848201515b5f19600385901b1c1916600184901b178455611380565b5f84815260208120601f198516915b82811015612ec35787850151825560209485019460019092019101612ea3565b5084821015612ee057868401515f19600387901b60f8161c191681555b50505050600190811b01905550565b604081525f612f01604083018661275c565b8281036020840152612f14818587612d38565b9695505050505050565b5f60208284031215612f2e575f5ffd5b815161105981612918565b5f61ffff821680612f4c57612f4c612bcd565b5f190192915050565b604081525f612f67604083018561275c565b905061ffff831660208301529392505050565b5f61ffff821661ffff8103612dd957612dd9612bcd565b606081525f612fa3606083018661275c565b61ffff851660208401528281036040840152612f14818561275c565b808201808211156105ca576105ca612bcd565b5f5f8335601e19843603018112612fe7575f5ffd5b8301803591506001600160401b03821115613000575f5ffd5b602001915036819003821315610c15575f5ffd5b5f5f85851115613022575f5ffd5b8386111561302e575f5ffd5b5050820193919092039150565b803560208310156105ca575f19602084900360031b1b1692915050565b634e487b7160e01b5f52600160045260245ffdfea164736f6c634300081c000a",
  "linkReferences": {},
  "deployedLinkReferences": {},
  "immutableReferences": {
    "1972": [
      {
        "length": 32,
        "start": 6766
      }
    ],
    "1975": [
      {
        "length": 32,
        "start": 6883
      },
      {
        "length": 32,
        "start": 6960
      }
    ],
    "1977": [
      {
        "length": 32,
        "start": 6645
      }
    ],
    "1979": [
      {
        "length": 32,
        "start": 6695
      }
    ]
  },
  "inputSourceName": "project/contracts/upstream/PublicResolver.sol",
  "buildInfoId": "solc-0_8_28-d1c261cd3938ae1226f52beefb32725ae3103310"
}