{
  "_format": "hh3-artifact-1",
  "contractName": "StaticMetadataService",
  "sourceName": "contracts/upstream/StaticMetadataService.sol",
  "abi": [
    {
      "inputs": [
        {
          "internalType": "string",
          "name": "metadataUri",
          "type": "string"
        }
      ],
      "stateMutability": "nonpayable",
      "type": "constructor"
    },
    {
      "inputs": [
        {
          "internalType": "uint256",
          "name": "",
          "type": "uint256"
        }
      ],
      "name": "uri",
      "outputs": [
        {
          "internalType": "string",
          "name": "",
          "type": "string"
        }
      ],
      "stateMutability": "view",
      "type": "function"
    }
  ],
  "bytecode": "0x608060405234801561000f575f5ffd5b506040516103c93803806103c983398101604081905261002e91610056565b805f61003a828261018a565b505050610244565b634e487b7160e01b5f52604160045260245ffd5b5f60208284031215610066575f5ffd5b81516001600160401b0381111561007b575f5ffd5b8201601f8101841361008b575f5ffd5b80516001600160401b038111156100a4576100a4610042565b604051601f8201601f19908116603f011681016001600160401b03811182821017156100d2576100d2610042565b6040528181528282016020018610156100e9575f5ffd5b8160208401602083015e5f91810160200191909152949350505050565b600181811c9082168061011a57607f821691505b60208210810361013857634e487b7160e01b5f52602260045260245ffd5b50919050565b601f82111561018557805f5260205f20601f840160051c810160208510156101635750805b601f840160051c820191505b81811015610182575f815560010161016f565b50505b505050565b81516001600160401b038111156101a3576101a3610042565b6101b7816101b18454610106565b8461013e565b6020601f8211600181146101e9575f83156101d25750848201515b5f19600385901b1c1916600184901b178455610182565b5f84815260208120601f198516915b8281101561021857878501518255602094850194600190920191016101f8565b508482101561023557868401515f19600387901b60f8161c191681555b50505050600190811b01905550565b610178806102515f395ff3fe608060405234801561000f575f5ffd5b5060043610610029575f3560e01c80630e89341c1461002d575b5f5ffd5b61004061003b3660046100e7565b610056565b60405161004d91906100fe565b60405180910390f35b60605f805461006490610133565b80601f016020809104026020016040519081016040528092919081815260200182805461009090610133565b80156100db5780601f106100b2576101008083540402835291602001916100db565b820191905f5260205f20905b8154815290600101906020018083116100be57829003601f168201915b50505050509050919050565b5f602082840312156100f7575f5ffd5b5035919050565b602081525f82518060208401528060208501604085015e5f604082850101526040601f19601f83011684010191505092915050565b600181811c9082168061014757607f821691505b60208210810361016557634e487b7160e01b5f52602260045260245ffd5b5091905056fea164736f6c634300081c000a",
  "linkReferences": {},
  "deployedLinkReferences": {},
  "immutableReferences": {},
  "inputSourceName": "project/contracts/upstream/StaticMetadataService.sol",
  "buildInfoId": "solc-0_8_28-031ab7337c461028da0099ae98f90652bf50e4e3"
}