{
  "_format": "hh3-artifact-1",
  "contractName": "GNSX402Adaptor",
  "sourceName": "contracts/GNSX402Adaptor.sol",
  "abi": [
    {
      "inputs": [
        {
          "internalType": "contract IGNSRegistrarController",
          "name": "_controller",
          "type": "address"
        },
        {
          "internalType": "address",
          "name": "initialAuthorizedCaller",
          "type": "address"
        }
      ],
      "stateMutability": "nonpayable",
      "type": "constructor"
    },
    {
      "inputs": [],
      "name": "CalldataDeadlineExpired",
      "type": "error"
    },
    {
      "inputs": [],
      "name": "CalldataNonceAlreadyUsed",
      "type": "error"
    },
    {
      "inputs": [],
      "name": "CallerNotAuthorized",
      "type": "error"
    },
    {
      "inputs": [
        {
          "internalType": "uint8",
          "name": "action",
          "type": "uint8"
        }
      ],
      "name": "InvalidCallbackAction",
      "type": "error"
    },
    {
      "inputs": [],
      "name": "InvalidCalldataSignature",
      "type": "error"
    },
    {
      "inputs": [],
      "name": "InvalidPermit2Address",
      "type": "error"
    },
    {
      "inputs": [],
      "name": "InvalidShortString",
      "type": "error"
    },
    {
      "inputs": [
        {
          "internalType": "bytes32",
          "name": "orderId",
          "type": "bytes32"
        }
      ],
      "name": "OrderAlreadyProcessed",
      "type": "error"
    },
    {
      "inputs": [
        {
          "internalType": "uint256",
          "name": "quotedAmount",
          "type": "uint256"
        },
        {
          "internalType": "uint256",
          "name": "paymentAmount",
          "type": "uint256"
        }
      ],
      "name": "PaymentAmountMismatch",
      "type": "error"
    },
    {
      "inputs": [
        {
          "internalType": "uint8",
          "name": "reverseRecord",
          "type": "uint8"
        }
      ],
      "name": "ReverseRecordNotSupported",
      "type": "error"
    },
    {
      "inputs": [
        {
          "internalType": "string",
          "name": "str",
          "type": "string"
        }
      ],
      "name": "StringTooLong",
      "type": "error"
    },
    {
      "inputs": [],
      "name": "UnsupportedSimpleCallback",
      "type": "error"
    },
    {
      "inputs": [],
      "name": "ZeroAuthorizedCaller",
      "type": "error"
    },
    {
      "anonymous": false,
      "inputs": [
        {
          "indexed": true,
          "internalType": "address",
          "name": "caller",
          "type": "address"
        },
        {
          "indexed": false,
          "internalType": "bool",
          "name": "authorized",
          "type": "bool"
        }
      ],
      "name": "AuthorizedCallerUpdated",
      "type": "event"
    },
    {
      "anonymous": false,
      "inputs": [
        {
          "indexed": true,
          "internalType": "address",
          "name": "originalPayer",
          "type": "address"
        },
        {
          "indexed": true,
          "internalType": "bytes32",
          "name": "orderId",
          "type": "bytes32"
        },
        {
          "indexed": false,
          "internalType": "uint256",
          "name": "calldataNonce",
          "type": "uint256"
        }
      ],
      "name": "CalldataVerified",
      "type": "event"
    },
    {
      "anonymous": false,
      "inputs": [],
      "name": "EIP712DomainChanged",
      "type": "event"
    },
    {
      "anonymous": false,
      "inputs": [
        {
          "indexed": true,
          "internalType": "address",
          "name": "previousOwner",
          "type": "address"
        },
        {
          "indexed": true,
          "internalType": "address",
          "name": "newOwner",
          "type": "address"
        }
      ],
      "name": "OwnershipTransferred",
      "type": "event"
    },
    {
      "anonymous": false,
      "inputs": [
        {
          "indexed": true,
          "internalType": "address",
          "name": "token",
          "type": "address"
        },
        {
          "indexed": true,
          "internalType": "address",
          "name": "originalPayer",
          "type": "address"
        },
        {
          "indexed": false,
          "internalType": "uint256",
          "name": "amount",
          "type": "uint256"
        },
        {
          "indexed": false,
          "internalType": "string",
          "name": "variant",
          "type": "string"
        }
      ],
      "name": "X402PaymentReceived",
      "type": "event"
    },
    {
      "anonymous": false,
      "inputs": [
        {
          "indexed": true,
          "internalType": "bytes32",
          "name": "orderId",
          "type": "bytes32"
        },
        {
          "indexed": true,
          "internalType": "address",
          "name": "payer",
          "type": "address"
        },
        {
          "indexed": true,
          "internalType": "address",
          "name": "owner",
          "type": "address"
        },
        {
          "indexed": false,
          "internalType": "string",
          "name": "label",
          "type": "string"
        },
        {
          "indexed": false,
          "internalType": "address",
          "name": "paymentToken",
          "type": "address"
        },
        {
          "indexed": false,
          "internalType": "uint256",
          "name": "amount",
          "type": "uint256"
        }
      ],
      "name": "X402RegistrationExecuted",
      "type": "event"
    },
    {
      "anonymous": false,
      "inputs": [
        {
          "indexed": true,
          "internalType": "bytes32",
          "name": "orderId",
          "type": "bytes32"
        },
        {
          "indexed": true,
          "internalType": "address",
          "name": "payer",
          "type": "address"
        },
        {
          "indexed": false,
          "internalType": "string",
          "name": "label",
          "type": "string"
        },
        {
          "indexed": true,
          "internalType": "address",
          "name": "paymentToken",
          "type": "address"
        },
        {
          "indexed": false,
          "internalType": "uint256",
          "name": "amount",
          "type": "uint256"
        },
        {
          "indexed": false,
          "internalType": "uint256",
          "name": "duration",
          "type": "uint256"
        }
      ],
      "name": "X402RenewalExecuted",
      "type": "event"
    },
    {
      "inputs": [],
      "name": "EIP3009_CALLDATA_TYPEHASH",
      "outputs": [
        {
          "internalType": "bytes32",
          "name": "",
          "type": "bytes32"
        }
      ],
      "stateMutability": "view",
      "type": "function"
    },
    {
      "inputs": [],
      "name": "PERMIT2_CALLDATA_TYPEHASH",
      "outputs": [
        {
          "internalType": "bytes32",
          "name": "",
          "type": "bytes32"
        }
      ],
      "stateMutability": "view",
      "type": "function"
    },
    {
      "inputs": [
        {
          "internalType": "address",
          "name": "",
          "type": "address"
        }
      ],
      "name": "authorizedCallers",
      "outputs": [
        {
          "internalType": "bool",
          "name": "",
          "type": "bool"
        }
      ],
      "stateMutability": "view",
      "type": "function"
    },
    {
      "inputs": [
        {
          "internalType": "address",
          "name": "",
          "type": "address"
        },
        {
          "internalType": "uint256",
          "name": "",
          "type": "uint256"
        }
      ],
      "name": "calldataNonceUsed",
      "outputs": [
        {
          "internalType": "bool",
          "name": "",
          "type": "bool"
        }
      ],
      "stateMutability": "view",
      "type": "function"
    },
    {
      "inputs": [],
      "name": "canonicalPermit2",
      "outputs": [
        {
          "internalType": "address",
          "name": "",
          "type": "address"
        }
      ],
      "stateMutability": "view",
      "type": "function"
    },
    {
      "inputs": [],
      "name": "controller",
      "outputs": [
        {
          "internalType": "contract IGNSRegistrarController",
          "name": "",
          "type": "address"
        }
      ],
      "stateMutability": "view",
      "type": "function"
    },
    {
      "inputs": [],
      "name": "eip712Domain",
      "outputs": [
        {
          "internalType": "bytes1",
          "name": "fields",
          "type": "bytes1"
        },
        {
          "internalType": "string",
          "name": "name",
          "type": "string"
        },
        {
          "internalType": "string",
          "name": "version",
          "type": "string"
        },
        {
          "internalType": "uint256",
          "name": "chainId",
          "type": "uint256"
        },
        {
          "internalType": "address",
          "name": "verifyingContract",
          "type": "address"
        },
        {
          "internalType": "bytes32",
          "name": "salt",
          "type": "bytes32"
        },
        {
          "internalType": "uint256[]",
          "name": "extensions",
          "type": "uint256[]"
        }
      ],
      "stateMutability": "view",
      "type": "function"
    },
    {
      "inputs": [],
      "name": "owner",
      "outputs": [
        {
          "internalType": "address",
          "name": "",
          "type": "address"
        }
      ],
      "stateMutability": "view",
      "type": "function"
    },
    {
      "inputs": [
        {
          "internalType": "bytes32",
          "name": "",
          "type": "bytes32"
        }
      ],
      "name": "processedOrders",
      "outputs": [
        {
          "internalType": "bool",
          "name": "",
          "type": "bool"
        }
      ],
      "stateMutability": "view",
      "type": "function"
    },
    {
      "inputs": [
        {
          "internalType": "address",
          "name": "token",
          "type": "address"
        },
        {
          "internalType": "address",
          "name": "to",
          "type": "address"
        },
        {
          "internalType": "uint256",
          "name": "amount",
          "type": "uint256"
        }
      ],
      "name": "recoverERC20",
      "outputs": [],
      "stateMutability": "nonpayable",
      "type": "function"
    },
    {
      "inputs": [],
      "name": "renounceOwnership",
      "outputs": [],
      "stateMutability": "nonpayable",
      "type": "function"
    },
    {
      "inputs": [
        {
          "internalType": "address",
          "name": "caller",
          "type": "address"
        },
        {
          "internalType": "bool",
          "name": "authorized",
          "type": "bool"
        }
      ],
      "name": "setAuthorizedCaller",
      "outputs": [],
      "stateMutability": "nonpayable",
      "type": "function"
    },
    {
      "inputs": [
        {
          "internalType": "address",
          "name": "newOwner",
          "type": "address"
        }
      ],
      "name": "transferOwnership",
      "outputs": [],
      "stateMutability": "nonpayable",
      "type": "function"
    },
    {
      "inputs": [
        {
          "internalType": "address",
          "name": "",
          "type": "address"
        },
        {
          "internalType": "address",
          "name": "",
          "type": "address"
        },
        {
          "internalType": "address",
          "name": "",
          "type": "address"
        },
        {
          "internalType": "uint256",
          "name": "",
          "type": "uint256"
        },
        {
          "internalType": "uint256",
          "name": "",
          "type": "uint256"
        },
        {
          "internalType": "uint256",
          "name": "",
          "type": "uint256"
        },
        {
          "internalType": "bytes32",
          "name": "",
          "type": "bytes32"
        },
        {
          "internalType": "uint8",
          "name": "",
          "type": "uint8"
        },
        {
          "internalType": "bytes32",
          "name": "",
          "type": "bytes32"
        },
        {
          "internalType": "bytes32",
          "name": "",
          "type": "bytes32"
        }
      ],
      "name": "x402SpentEip3009",
      "outputs": [],
      "stateMutability": "pure",
      "type": "function"
    },
    {
      "inputs": [
        {
          "internalType": "address",
          "name": "token",
          "type": "address"
        },
        {
          "internalType": "address",
          "name": "originalPayer",
          "type": "address"
        },
        {
          "internalType": "address",
          "name": "owner",
          "type": "address"
        },
        {
          "internalType": "uint256",
          "name": "amount",
          "type": "uint256"
        },
        {
          "internalType": "uint256",
          "name": "validAfter",
          "type": "uint256"
        },
        {
          "internalType": "uint256",
          "name": "validBefore",
          "type": "uint256"
        },
        {
          "internalType": "bytes32",
          "name": "nonce",
          "type": "bytes32"
        },
        {
          "internalType": "uint8",
          "name": "v",
          "type": "uint8"
        },
        {
          "internalType": "bytes32",
          "name": "r",
          "type": "bytes32"
        },
        {
          "internalType": "bytes32",
          "name": "s",
          "type": "bytes32"
        },
        {
          "internalType": "bytes",
          "name": "calldata_",
          "type": "bytes"
        },
        {
          "internalType": "bytes32",
          "name": "orderId",
          "type": "bytes32"
        },
        {
          "internalType": "uint256",
          "name": "calldataNonce",
          "type": "uint256"
        },
        {
          "internalType": "uint256",
          "name": "calldataDeadline",
          "type": "uint256"
        },
        {
          "internalType": "uint8",
          "name": "calldataV",
          "type": "uint8"
        },
        {
          "internalType": "bytes32",
          "name": "calldataR",
          "type": "bytes32"
        },
        {
          "internalType": "bytes32",
          "name": "calldataS",
          "type": "bytes32"
        }
      ],
      "name": "x402SpentEip3009WithCalldata",
      "outputs": [],
      "stateMutability": "nonpayable",
      "type": "function"
    },
    {
      "inputs": [
        {
          "internalType": "address",
          "name": "",
          "type": "address"
        },
        {
          "internalType": "address",
          "name": "",
          "type": "address"
        },
        {
          "internalType": "address",
          "name": "",
          "type": "address"
        },
        {
          "internalType": "address",
          "name": "",
          "type": "address"
        },
        {
          "internalType": "uint256",
          "name": "",
          "type": "uint256"
        },
        {
          "internalType": "uint256",
          "name": "",
          "type": "uint256"
        },
        {
          "internalType": "uint256",
          "name": "",
          "type": "uint256"
        },
        {
          "internalType": "bytes",
          "name": "",
          "type": "bytes"
        }
      ],
      "name": "x402SpentPermit2",
      "outputs": [],
      "stateMutability": "pure",
      "type": "function"
    },
    {
      "inputs": [
        {
          "internalType": "address",
          "name": "permit2",
          "type": "address"
        },
        {
          "internalType": "address",
          "name": "token",
          "type": "address"
        },
        {
          "internalType": "address",
          "name": "originalPayer",
          "type": "address"
        },
        {
          "internalType": "address",
          "name": "owner",
          "type": "address"
        },
        {
          "internalType": "uint256",
          "name": "amount",
          "type": "uint256"
        },
        {
          "internalType": "uint256",
          "name": "nonce",
          "type": "uint256"
        },
        {
          "internalType": "uint256",
          "name": "deadline",
          "type": "uint256"
        },
        {
          "internalType": "bytes",
          "name": "signature",
          "type": "bytes"
        },
        {
          "internalType": "bytes",
          "name": "calldata_",
          "type": "bytes"
        },
        {
          "internalType": "bytes32",
          "name": "orderId",
          "type": "bytes32"
        },
        {
          "internalType": "uint256",
          "name": "calldataNonce",
          "type": "uint256"
        },
        {
          "internalType": "uint256",
          "name": "calldataDeadline",
          "type": "uint256"
        },
        {
          "internalType": "uint8",
          "name": "calldataV",
          "type": "uint8"
        },
        {
          "internalType": "bytes32",
          "name": "calldataR",
          "type": "bytes32"
        },
        {
          "internalType": "bytes32",
          "name": "calldataS",
          "type": "bytes32"
        }
      ],
      "name": "x402SpentPermit2WithCalldata",
      "outputs": [],
      "stateMutability": "nonpayable",
      "type": "function"
    }
  ],
  "bytecode": "0x6101a08060405234610254576040816123ea80380380916100208285610258565b833981010312610254578051906001600160a01b038216820361025457602001516001600160a01b038116919082900361025457604051610062604082610258565b6010815260208101906f23a729902c1a18191020b230b83a37b960811b825260405191610090604084610258565b600183526020830191603160f81b83526100a98161028f565b610120526100b684610425565b61014052519020918260e05251902080610100524660a0526040519060208201927f8b73c3c69bb8fe3d512ecc4cf759cc79239f7b179b0ffacaa9a75d522b39400f8452604083015260608201524660808201523060a082015260a0815261011f60c082610258565b5190206080523060c05260028054336001600160a01b0319821681179092556040519291906001600160a01b03167f8be0079c531659141344cd1fd0a4f28419497f9722a3daafe3b4186f6b6457e05f80a360016003558215610245577fad857fa38c9319cb80848f1ef2f924383b90297eb5d71755738ff037d100faa191602091610160525f61018052835f526004825260405f20600160ff1982541617905560018152a2604051611e8c908161055e823960805181611b30015260a05181611bed015260c05181611afa015260e05181611b7f01526101005181611ba50152610120518161066d0152610140518161069701526101605181818160ea015281816113e60152818161159c01526119ab0152610180518181816108490152610d2f0152f35b632a7a48eb60e01b5f5260045ffd5b5f80fd5b601f909101601f19168101906001600160401b0382119082101761027b57604052565b634e487b7160e01b5f52604160045260245ffd5b908151602081105f14610309575090601f8151116102c95760208151910151602082106102ba571790565b5f198260200360031b1b161790565b604460209160405192839163305a27a960e01b83528160048401528051918291826024860152018484015e5f828201840152601f01601f19168101030190fd5b6001600160401b03811161027b575f54600181811c9116801561041b575b602082101461040757601f81116103d5575b50602092601f821160011461037657928192935f9261036b575b50508160011b915f199060031b1c1916175f5560ff90565b015190505f80610353565b601f198216935f8052805f20915f5b8681106103bd57508360019596106103a5575b505050811b015f5560ff90565b01515f1960f88460031b161c191690555f8080610398565b91926020600181928685015181550194019201610385565b5f8052601f60205f20910160051c810190601f830160051c015b8181106103fc5750610339565b5f81556001016103ef565b634e487b7160e01b5f52602260045260245ffd5b90607f1690610327565b908151602081105f14610450575090601f8151116102c95760208151910151602082106102ba571790565b6001600160401b03811161027b57600154600181811c91168015610553575b602082101461040757601f8111610520575b50602092601f82116001146104bf57928192935f926104b4575b50508160011b915f199060031b1c19161760015560ff90565b015190505f8061049b565b601f1982169360015f52805f20915f5b86811061050857508360019596106104f0575b505050811b0160015560ff90565b01515f1960f88460031b161c191690555f80806104e2565b919260206001819286850151815501940192016104cf565b60015f52601f60205f20910160051c810190601f830160051c015b8181106105485750610481565b5f815560010161053b565b90607f169061046f56fe60806040526004361015610011575f80fd5b5f5f3560e01c80630bf29d0014610de05780631171bda914610d5e57806325d34ed214610d1a578063454bbd2914610c875780634b5b4b3914610c58578063536fff6c14610c1b5780635f010bfd146107ac578063715018a61461074f57806384b0196e146106535780638da5cb5b1461062a578063b464c250146105ef578063c42315e4146102d4578063c86f30b014610299578063ed1a24331461022e578063ed1a4c1c146101e5578063f2fde38b1461011c5763f77c4791146100d5575f80fd5b346101195780600319360112610119576040517f00000000000000000000000000000000000000000000000000000000000000006001600160a01b03168152602090f35b80fd5b503461011957602036600319011261011957610136610e25565b61013e610f6f565b6001600160a01b0316801561019157600280546001600160a01b0319811683179091556001600160a01b03167f8be0079c531659141344cd1fd0a4f28419497f9722a3daafe3b4186f6b6457e08380a380f35b60405162461bcd60e51b815260206004820152602660248201527f4f776e61626c653a206e6577206f776e657220697320746865207a65726f206160448201526564647265737360d01b6064820152608490fd5b50346101195760403660031901126101195760209060ff906040906001600160a01b03610210610e25565b16815260058452818120602435825284522054166040519015158152f35b50346101195761010036600319011261011957610249610e25565b50610252610e3b565b5061025b610e51565b50610264610e67565b5060e43567ffffffffffffffff8111610295579061028760049236908401610e8d565b50506335794c4760e21b8152fd5b5080fd5b503461011957806003193601126101195760206040517f082d60f5b246ca2ecd4fbf27001655c2501a68eac0238bceeac444b0014c96de8152f35b503461011957610220366003190112610119576102ef610e25565b906102f8610e3b565b91610301610e51565b9060643561030d610e7d565b946101443567ffffffffffffffff81116105eb5761032f903690600401610e8d565b610164359561018435986101a435996101c43560ff811681036105e757610354610fc7565b61035c611213565b610367368688610f39565b9b8042116105d8578b9c60ff604060018060a01b038b169e8f815260056020528181208782526020522054166105c9576104468b8d8f94958d98979685602061044e9751910120926040519360208501957f082d60f5b246ca2ecd4fbf27001655c2501a68eac0238bceeac444b0014c96de875260018060a01b03169c8d604087015289606087015260018060a01b03169b8c608087015260a086015260c085015260e084015287610100840152610120830152610120825261042c61014083610efb565b61044161020435936101e4359351902061197b565b611c13565b919091611c8e565b6001600160a01b0316036105ba5790898b7f03ad388bc641d75d7e5f417550c4a77690e766fb9178402135fcfcb8bfafa90460208f96958388526005825260408820818952825260408820600160ff19825416179055604051908152a3833b156105b65760ff90604051926377aadf6360e11b84526004840152306024840152886044840152608435606484015260a435608484015260c43560a48401521660c48201526101043560e48201526101243561010482015281816101248183875af180156105ab5761058c575b5050906105849761057e93927f701fd54d729c625e21003fac76d2afb0494f7cdbb399f980fc11633a02666342608060405189815260406020820152601060408201526f656970333030392b63616c6c6461746160801b6060820152a33691610f39565b92611287565b600160035580f35b8161059a9195949395610efb565b6105a7579091885f61051a565b8880fd5b6040513d84823e3d90fd5b8280fd5b63699d7a1f60e11b8c5260048cfd5b63c25f65fd60e01b8e5260048efd5b637b3c78cb60e01b8c5260048cfd5b8a80fd5b8580fd5b503461011957806003193601126101195760206040517fd808dbbdc3080d1b2cb960db6f3590e8f7f42a6e92d376465c946806b32041c98152f35b50346101195780600319360112610119576002546040516001600160a01b039091168152602090f35b50346101195780600319360112610119576106f3906106917f000000000000000000000000000000000000000000000000000000000000000061101d565b906106bb7f0000000000000000000000000000000000000000000000000000000000000000611143565b906020610701604051936106cf8386610efb565b8385525f368137604051968796600f60f81b885260e08589015260e0880190610ebb565b908682036040880152610ebb565b904660608601523060808601528260a086015284820360c08601528080855193848152019401925b82811061073857505050500390f35b835185528695509381019392810192600101610729565b5034610119578060031936011261011957610768610f6f565b600280546001600160a01b0319811690915581906001600160a01b03167f8be0079c531659141344cd1fd0a4f28419497f9722a3daafe3b4186f6b6457e08280a380f35b5034610bb3576101e0366003190112610bb3576107c7610e25565b906107d0610e3b565b916107d9610e51565b6107e1610e67565b9360e43567ffffffffffffffff8111610bb357610802903690600401610e8d565b6101049491943567ffffffffffffffff8111610bb357610826903690600401610e8d565b9590976101843560ff81168103610bb35761083f610fc7565b610847611213565b7f00000000000000000000000000000000000000000000000000000000000000006001600160a01b03168015159081610c07575b50610bf85761088b36898c610f39565b610164354211610be95760018060a01b0388165f52600560205260405f20610144355f5260205260ff60405f205416610bda578051602091820120604080517fd808dbbdc3080d1b2cb960db6f3590e8f7f42a6e92d376465c946806b32041c9938101939093526001600160a01b03978816908301819052888816606084015289881660808401529390961660a0820181905260843560c083015260e082019690965261012435610100820152610144356101208201526101643561014080830191909152815261097f916104469161096661016082610efb565b6101c435916104416101a435926020815191012061197b565b6001600160a01b03878116911603610bcb576001600160a01b0386165f8181526005602090815260408083206101443580855290835292819020805460ff19166001179055519182526101243592917f03ad388bc641d75d7e5f417550c4a77690e766fb9178402135fcfcb8bfafa9049190a36040516109fe81610edf565b6001600160a01b03861681526084356020820152604051906060820167ffffffffffffffff811183821017610bb7576040528152602081019260a4358452604082019560c435875260405192610a5384610edf565b3084526084356020850152843b15610bb35760405163187945bd60e11b8152905180516001600160a01b03166004830152602001516024820152965f96889687958995610124958895859492939192610acf92919051604489015251606488015280516001600160a01b031660848801526020015160a4870152565b60c485015261010060e485015281610104850152848401378181018301849052601f01601f191681010301925af18015610ba857610b8e575b50610b846105849495604051608435815260406020820152601060408201526f7065726d6974322b63616c6c6461746160801b606082015260018060a01b038516907f701fd54d729c625e21003fac76d2afb0494f7cdbb399f980fc11633a02666342608060018060a01b03871692a361012435943691610f39565b9160843591611287565b61058494505f610b9d91610efb565b610b845f9450610b08565b6040513d5f823e3d90fd5b5f80fd5b634e487b7160e01b5f52604160045260245ffd5b63699d7a1f60e11b5f5260045ffd5b63c25f65fd60e01b5f5260045ffd5b637b3c78cb60e01b5f5260045ffd5b6359106c8960e01b5f5260045ffd5b6001600160a01b038716141590505f61087b565b34610bb3576020366003190112610bb3576001600160a01b03610c3c610e25565b165f526004602052602060ff60405f2054166040519015158152f35b34610bb3576020366003190112610bb3576004355f526006602052602060ff60405f2054166040519015158152f35b34610bb3576040366003190112610bb357610ca0610e25565b60243590811515809203610bb357610cb6610f6f565b6001600160a01b0316908115610d0b5760207fad857fa38c9319cb80848f1ef2f924383b90297eb5d71755738ff037d100faa191835f526004825260405f2060ff1981541660ff8316179055604051908152a2005b632a7a48eb60e01b5f5260045ffd5b34610bb3575f366003190112610bb3576040517f00000000000000000000000000000000000000000000000000000000000000006001600160a01b03168152602090f35b34610bb3576060366003190112610bb357610dde610dc2610d7d610e25565b610dd0610d88610e3b565b610d90610f6f565b60405163a9059cbb60e01b60208201526001600160a01b03909116602482015260448035908201529283906064820190565b03601f198101845283610efb565b6001600160a01b0316611863565b005b34610bb357610140366003190112610bb357610dfa610e25565b50610e03610e3b565b50610e0c610e51565b50610e15610e7d565b506335794c4760e21b5f5260045ffd5b600435906001600160a01b0382168203610bb357565b602435906001600160a01b0382168203610bb357565b604435906001600160a01b0382168203610bb357565b606435906001600160a01b0382168203610bb357565b60e4359060ff82168203610bb357565b9181601f84011215610bb35782359167ffffffffffffffff8311610bb35760208381860195010111610bb357565b805180835260209291819084018484015e5f828201840152601f01601f1916010190565b6040810190811067ffffffffffffffff821117610bb757604052565b90601f8019910116810190811067ffffffffffffffff821117610bb757604052565b67ffffffffffffffff8111610bb757601f01601f191660200190565b929192610f4582610f1d565b91610f536040519384610efb565b829481845281830111610bb3578281602093845f960137010152565b6002546001600160a01b03163303610f8357565b606460405162461bcd60e51b815260206004820152602060248201527f4f776e61626c653a2063616c6c6572206973206e6f7420746865206f776e65726044820152fd5b600260035414610fd8576002600355565b60405162461bcd60e51b815260206004820152601f60248201527f5265656e7472616e637947756172643a207265656e7472616e742063616c6c006044820152606490fd5b60ff81146110635760ff811690601f82116110545760405191611041604084610efb565b6020808452838101919036833783525290565b632cd44ac360e21b5f5260045ffd5b506040515f5f548060011c9160018216918215611139575b60208410831461112557838552849290811561110657506001146110a9575b6110a692500382610efb565b90565b505f80805290917f290decd9548b62a8d60345a988386fc84ba6bc95484008f6362f93160ef3e5635b8183106110ea5750509060206110a69282010161109a565b60209193508060019154838588010152019101909183926110d2565b602092506110a694915060ff191682840152151560051b82010161109a565b634e487b7160e01b5f52602260045260245ffd5b92607f169261107b565b60ff81146111675760ff811690601f82116110545760405191611041604084610efb565b506040515f6001548060011c9160018216918215611209575b60208410831461112557838552849290811561110657506001146111aa576110a692500382610efb565b5060015f90815290917fb10e2d527612073b26eecdfd717e6a320cf44b4afac2b0732d9fcbe2b7fa0cf65b8183106111ed5750509060206110a69282010161109a565b60209193508060019154838588010152019101909183926111d5565b92607f1692611180565b335f52600460205260ff60405f2054161561122a57565b63c183bcef60e01b5f5260045ffd5b519060ff82168203610bb357565b51906001600160a01b0382168203610bb357565b61127360409295949395606083526060830190610ebb565b6001600160a01b0390951660208201520152565b9493929190925f93815f52600660205260ff60405f20541661185057815f52600660205260405f20600160ff1982541617905583518401906101008560208401930312610bb3576112da60208601611239565b94604081015167ffffffffffffffff8111610bb357810183603f82011215610bb35760208101519061130b82610f1d565b946113196040519687610efb565b82865260408284010111610bb357815f926040602093018388015e8501015261134460608201611247565b9860808201519160a08101519061135d60c08201611247565b9160ff61010061136f60e08501611239565b93015192169c6001600160a01b0316918d61183d5760019b9c9d6040519461139686610edf565b60ff8e8060a01b0388169d8e88528d6020890152169d8e1461157f575050505050600289146113d357635210bb2b60e01b8a52600489905260248afd5b9092949698919395975060018060a01b037f0000000000000000000000000000000000000000000000000000000000000000169260405198637b75d28360e11b8a5260208a8061142889868d6004850161125b565b0381885afa998a1561157457849a611540575b5089810361152957508861144e916119a1565b823b1561029557816040518080936336b0269d60e11b82526080600483015261149a61147d608484018c610ebb565b82516001600160a01b031660248501526020909201516044840152565b876064830152038183875af180156105ab57611514575b5050917f3e5102d54e4e5ab7ab42906fb1d873af86bfc3506c99d69e4fa44637cfc18d8893916114e46114f89489611da6565b604051938493606085526060850190610ebb565b602084019790975260408301526001600160a01b0316940390a4565b61151f828092610efb565b61011957806114b1565b632368e10f60e21b845260048a9052602452604483fd5b9099506020813d60201161156c575b8161155c60209383610efb565b81010312610bb35751985f61143b565b3d915061154f565b6040513d86823e3d90fd5b909295999b9a8798999d508d9792949e5060208b60018060a01b037f000000000000000000000000000000000000000000000000000000000000000016996115db6040519c8d938493637b75d28360e11b85526004850161125b565b03818b5afa988915610ba8575f99611809575b508881036117f357508c979695949392918e91602096604051926116128985610efb565b5f84526040519b6101008d01908d821067ffffffffffffffff831117610bb75760409182528d52898d019586528c0190815260608c019182526001600160a01b0390921660808c0190815260a08c0193845260c08c0195865260e08c019687529161167d8b8f6119a1565b893b15610bb357604051636cfab86760e01b8152606060048201529b5161010060648e01528c9897969594939291906116bb906101648b0190610ebb565b94516001600160a01b0390811660848b0152905160a48a0152905160c489015290511660e487015251858203606319016101048701528051808352600581901b8301880197918201929091905f90828101905b8483106117bb575050935160ff1661012488015250509151610144850152505080516001600160a01b031660248301526020015160448201525f918190038183855af1908115610ba8577f0e2f8db9b2ac47bbc89d89ab76312724eb24af352f8039f823993c6c40840e71966117a69461178d936117ab575b50611da6565b6040516001600160a01b0390931696929384938461125b565b0390a4565b5f6117b591610efb565b5f611787565b9193959697985091939884806117dd600193601f198682030187528d51610ebb565b9b019301930190928c989796959394929461170e565b88632368e10f60e21b5f5260045260245260445ffd5b9098506020813d602011611835575b8161182560209383610efb565b81010312610bb35751975f6115ee565b3d9150611818565b8d639b1987f160e01b5f5260045260245ffd5b506327c8e3bb60e21b5f5260045260245ffd5b906118e29160018060a01b03165f8060405193611881604086610efb565b602085527f5361666545524332303a206c6f772d6c6576656c2063616c6c206661696c6564602086015260208151910182855af13d15611973573d916118c683610f1d565b926118d46040519485610efb565b83523d5f602085013e611de2565b8051908115918215611950575b5050156118f857565b60405162461bcd60e51b815260206004820152602a60248201527f5361666545524332303a204552433230206f7065726174696f6e20646964206e6044820152691bdd081cdd58d8d9595960b21b6064820152608490fd5b8192509060209181010312610bb357602001518015158103610bb3575f806118ef565b606091611de2565b604290611986611af7565b906040519161190160f01b8352600283015260228201522090565b6001600160a01b037f000000000000000000000000000000000000000000000000000000000000000081169291166119d98382611da6565b81158015611a8c575b15611a285760405163095ea7b360e01b60208201526001600160a01b0390931660248401526044830191909152611a269190611a218260648101610dc2565b611863565b565b60405162461bcd60e51b815260206004820152603660248201527f5361666545524332303a20617070726f76652066726f6d206e6f6e2d7a65726f60448201527520746f206e6f6e2d7a65726f20616c6c6f77616e636560501b6064820152608490fd5b50604051636eb1769f60e11b815230600482015260248101849052602081604481855afa908115610ba8575f91611ac5575b50156119e2565b90506020813d602011611aef575b81611ae060209383610efb565b81010312610bb357515f611abe565b3d9150611ad3565b307f00000000000000000000000000000000000000000000000000000000000000006001600160a01b03161480611bea575b15611b52577f000000000000000000000000000000000000000000000000000000000000000090565b60405160208101907f8b73c3c69bb8fe3d512ecc4cf759cc79239f7b179b0ffacaa9a75d522b39400f82527f000000000000000000000000000000000000000000000000000000000000000060408201527f000000000000000000000000000000000000000000000000000000000000000060608201524660808201523060a082015260a08152611be460c082610efb565b51902090565b507f00000000000000000000000000000000000000000000000000000000000000004614611b29565b7f7fffffffffffffffffffffffffffffff5d576e7357a4501ddfe92f46681b20a08411611c83576020935f9360ff60809460405194855216868401526040830152606082015282805260015afa15610ba8575f516001600160a01b03811615611c7b57905f90565b505f90600190565b505050505f90600390565b6005811015611d925780611c9f5750565b60018103611cec5760405162461bcd60e51b815260206004820152601860248201527f45434453413a20696e76616c6964207369676e617475726500000000000000006044820152606490fd5b60028103611d395760405162461bcd60e51b815260206004820152601f60248201527f45434453413a20696e76616c6964207369676e6174757265206c656e677468006044820152606490fd5b600314611d4257565b60405162461bcd60e51b815260206004820152602260248201527f45434453413a20696e76616c6964207369676e6174757265202773272076616c604482015261756560f01b6064820152608490fd5b634e487b7160e01b5f52602160045260245ffd5b60405163095ea7b360e01b60208201526001600160a01b0390921660248301525f6044808401919091528252611a269190611a21606483610efb565b91929015611e445750815115611df6575090565b3b15611dff5790565b60405162461bcd60e51b815260206004820152601d60248201527f416464726573733a2063616c6c20746f206e6f6e2d636f6e74726163740000006044820152606490fd5b825190915015611e575750805190602001fd5b60405162461bcd60e51b815260206004820152908190611e7b906024830190610ebb565b0390fdfea164736f6c634300081c000a",
  "linkReferences": {},
  "deployedLinkReferences": {},
  "immutableReferences": {
    "2070": [
      {
        "length": 32,
        "start": 6960
      }
    ],
    "2072": [
      {
        "length": 32,
        "start": 7149
      }
    ],
    "2074": [
      {
        "length": 32,
        "start": 6906
      }
    ],
    "2076": [
      {
        "length": 32,
        "start": 7039
      }
    ],
    "2078": [
      {
        "length": 32,
        "start": 7077
      }
    ],
    "2081": [
      {
        "length": 32,
        "start": 1645
      }
    ],
    "2084": [
      {
        "length": 32,
        "start": 1687
      }
    ],
    "3368": [
      {
        "length": 32,
        "start": 234
      },
      {
        "length": 32,
        "start": 5094
      },
      {
        "length": 32,
        "start": 5532
      },
      {
        "length": 32,
        "start": 6571
      }
    ],
    "3370": [
      {
        "length": 32,
        "start": 2121
      },
      {
        "length": 32,
        "start": 3375
      }
    ]
  },
  "inputSourceName": "project/contracts/GNSX402Adaptor.sol",
  "buildInfoId": "solc-0_8_28-a9c6272144e0b591a3730ebc69b7e4cf146a6798"
}