{
  "_format": "hh3-artifact-1",
  "contractName": "GNSX402Adaptor",
  "sourceName": "contracts/GNSX402Adaptor.sol",
  "abi": [
    {
      "inputs": [
        {
          "internalType": "contract IGNSRegistrarController",
          "name": "_controller",
          "type": "address"
        },
        {
          "internalType": "address",
          "name": "initialAuthorizedCaller",
          "type": "address"
        }
      ],
      "stateMutability": "nonpayable",
      "type": "constructor"
    },
    {
      "inputs": [],
      "name": "CalldataDeadlineExpired",
      "type": "error"
    },
    {
      "inputs": [],
      "name": "CalldataNonceAlreadyUsed",
      "type": "error"
    },
    {
      "inputs": [],
      "name": "CallerNotAuthorized",
      "type": "error"
    },
    {
      "inputs": [
        {
          "internalType": "uint8",
          "name": "action",
          "type": "uint8"
        }
      ],
      "name": "InvalidCallbackAction",
      "type": "error"
    },
    {
      "inputs": [],
      "name": "InvalidCalldataSignature",
      "type": "error"
    },
    {
      "inputs": [],
      "name": "InvalidPermit2Address",
      "type": "error"
    },
    {
      "inputs": [],
      "name": "InvalidShortString",
      "type": "error"
    },
    {
      "inputs": [
        {
          "internalType": "bytes32",
          "name": "orderId",
          "type": "bytes32"
        }
      ],
      "name": "OrderAlreadyProcessed",
      "type": "error"
    },
    {
      "inputs": [
        {
          "internalType": "uint256",
          "name": "quotedAmount",
          "type": "uint256"
        },
        {
          "internalType": "uint256",
          "name": "paymentAmount",
          "type": "uint256"
        }
      ],
      "name": "PaymentAmountMismatch",
      "type": "error"
    },
    {
      "inputs": [
        {
          "internalType": "uint8",
          "name": "reverseRecord",
          "type": "uint8"
        }
      ],
      "name": "ReverseRecordNotSupported",
      "type": "error"
    },
    {
      "inputs": [
        {
          "internalType": "string",
          "name": "str",
          "type": "string"
        }
      ],
      "name": "StringTooLong",
      "type": "error"
    },
    {
      "inputs": [],
      "name": "UnsupportedSimpleCallback",
      "type": "error"
    },
    {
      "inputs": [],
      "name": "ZeroAuthorizedCaller",
      "type": "error"
    },
    {
      "anonymous": false,
      "inputs": [
        {
          "indexed": true,
          "internalType": "address",
          "name": "caller",
          "type": "address"
        },
        {
          "indexed": false,
          "internalType": "bool",
          "name": "authorized",
          "type": "bool"
        }
      ],
      "name": "AuthorizedCallerUpdated",
      "type": "event"
    },
    {
      "anonymous": false,
      "inputs": [
        {
          "indexed": true,
          "internalType": "address",
          "name": "originalPayer",
          "type": "address"
        },
        {
          "indexed": true,
          "internalType": "bytes32",
          "name": "orderId",
          "type": "bytes32"
        },
        {
          "indexed": false,
          "internalType": "uint256",
          "name": "calldataNonce",
          "type": "uint256"
        }
      ],
      "name": "CalldataVerified",
      "type": "event"
    },
    {
      "anonymous": false,
      "inputs": [],
      "name": "EIP712DomainChanged",
      "type": "event"
    },
    {
      "anonymous": false,
      "inputs": [
        {
          "indexed": true,
          "internalType": "address",
          "name": "previousOwner",
          "type": "address"
        },
        {
          "indexed": true,
          "internalType": "address",
          "name": "newOwner",
          "type": "address"
        }
      ],
      "name": "OwnershipTransferred",
      "type": "event"
    },
    {
      "anonymous": false,
      "inputs": [
        {
          "indexed": true,
          "internalType": "address",
          "name": "token",
          "type": "address"
        },
        {
          "indexed": true,
          "internalType": "address",
          "name": "originalPayer",
          "type": "address"
        },
        {
          "indexed": false,
          "internalType": "uint256",
          "name": "amount",
          "type": "uint256"
        },
        {
          "indexed": false,
          "internalType": "string",
          "name": "variant",
          "type": "string"
        }
      ],
      "name": "X402PaymentReceived",
      "type": "event"
    },
    {
      "anonymous": false,
      "inputs": [
        {
          "indexed": true,
          "internalType": "bytes32",
          "name": "orderId",
          "type": "bytes32"
        },
        {
          "indexed": true,
          "internalType": "address",
          "name": "payer",
          "type": "address"
        },
        {
          "indexed": true,
          "internalType": "address",
          "name": "owner",
          "type": "address"
        },
        {
          "indexed": false,
          "internalType": "string",
          "name": "label",
          "type": "string"
        },
        {
          "indexed": false,
          "internalType": "address",
          "name": "paymentToken",
          "type": "address"
        },
        {
          "indexed": false,
          "internalType": "uint256",
          "name": "amount",
          "type": "uint256"
        }
      ],
      "name": "X402RegistrationExecuted",
      "type": "event"
    },
    {
      "anonymous": false,
      "inputs": [
        {
          "indexed": true,
          "internalType": "bytes32",
          "name": "orderId",
          "type": "bytes32"
        },
        {
          "indexed": true,
          "internalType": "address",
          "name": "payer",
          "type": "address"
        },
        {
          "indexed": false,
          "internalType": "string",
          "name": "label",
          "type": "string"
        },
        {
          "indexed": true,
          "internalType": "address",
          "name": "paymentToken",
          "type": "address"
        },
        {
          "indexed": false,
          "internalType": "uint256",
          "name": "amount",
          "type": "uint256"
        },
        {
          "indexed": false,
          "internalType": "uint256",
          "name": "duration",
          "type": "uint256"
        }
      ],
      "name": "X402RenewalExecuted",
      "type": "event"
    },
    {
      "inputs": [],
      "name": "EIP3009_CALLBACK_DATA_TYPEHASH",
      "outputs": [
        {
          "internalType": "bytes32",
          "name": "",
          "type": "bytes32"
        }
      ],
      "stateMutability": "view",
      "type": "function"
    },
    {
      "inputs": [],
      "name": "PERMIT2_CALLBACK_DATA_TYPEHASH",
      "outputs": [
        {
          "internalType": "bytes32",
          "name": "",
          "type": "bytes32"
        }
      ],
      "stateMutability": "view",
      "type": "function"
    },
    {
      "inputs": [
        {
          "internalType": "address",
          "name": "",
          "type": "address"
        }
      ],
      "name": "authorizedCallers",
      "outputs": [
        {
          "internalType": "bool",
          "name": "",
          "type": "bool"
        }
      ],
      "stateMutability": "view",
      "type": "function"
    },
    {
      "inputs": [
        {
          "internalType": "address",
          "name": "",
          "type": "address"
        },
        {
          "internalType": "uint256",
          "name": "",
          "type": "uint256"
        }
      ],
      "name": "calldataNonceUsed",
      "outputs": [
        {
          "internalType": "bool",
          "name": "",
          "type": "bool"
        }
      ],
      "stateMutability": "view",
      "type": "function"
    },
    {
      "inputs": [],
      "name": "canonicalPermit2",
      "outputs": [
        {
          "internalType": "address",
          "name": "",
          "type": "address"
        }
      ],
      "stateMutability": "view",
      "type": "function"
    },
    {
      "inputs": [],
      "name": "controller",
      "outputs": [
        {
          "internalType": "contract IGNSRegistrarController",
          "name": "",
          "type": "address"
        }
      ],
      "stateMutability": "view",
      "type": "function"
    },
    {
      "inputs": [],
      "name": "eip712Domain",
      "outputs": [
        {
          "internalType": "bytes1",
          "name": "fields",
          "type": "bytes1"
        },
        {
          "internalType": "string",
          "name": "name",
          "type": "string"
        },
        {
          "internalType": "string",
          "name": "version",
          "type": "string"
        },
        {
          "internalType": "uint256",
          "name": "chainId",
          "type": "uint256"
        },
        {
          "internalType": "address",
          "name": "verifyingContract",
          "type": "address"
        },
        {
          "internalType": "bytes32",
          "name": "salt",
          "type": "bytes32"
        },
        {
          "internalType": "uint256[]",
          "name": "extensions",
          "type": "uint256[]"
        }
      ],
      "stateMutability": "view",
      "type": "function"
    },
    {
      "inputs": [],
      "name": "owner",
      "outputs": [
        {
          "internalType": "address",
          "name": "",
          "type": "address"
        }
      ],
      "stateMutability": "view",
      "type": "function"
    },
    {
      "inputs": [
        {
          "internalType": "bytes32",
          "name": "",
          "type": "bytes32"
        }
      ],
      "name": "processedOrders",
      "outputs": [
        {
          "internalType": "bool",
          "name": "",
          "type": "bool"
        }
      ],
      "stateMutability": "view",
      "type": "function"
    },
    {
      "inputs": [
        {
          "internalType": "address",
          "name": "token",
          "type": "address"
        },
        {
          "internalType": "address",
          "name": "to",
          "type": "address"
        },
        {
          "internalType": "uint256",
          "name": "amount",
          "type": "uint256"
        }
      ],
      "name": "recoverERC20",
      "outputs": [],
      "stateMutability": "nonpayable",
      "type": "function"
    },
    {
      "inputs": [],
      "name": "renounceOwnership",
      "outputs": [],
      "stateMutability": "nonpayable",
      "type": "function"
    },
    {
      "inputs": [
        {
          "internalType": "address",
          "name": "caller",
          "type": "address"
        },
        {
          "internalType": "bool",
          "name": "authorized",
          "type": "bool"
        }
      ],
      "name": "setAuthorizedCaller",
      "outputs": [],
      "stateMutability": "nonpayable",
      "type": "function"
    },
    {
      "inputs": [
        {
          "internalType": "address",
          "name": "newOwner",
          "type": "address"
        }
      ],
      "name": "transferOwnership",
      "outputs": [],
      "stateMutability": "nonpayable",
      "type": "function"
    },
    {
      "inputs": [
        {
          "internalType": "address",
          "name": "",
          "type": "address"
        },
        {
          "internalType": "address",
          "name": "",
          "type": "address"
        },
        {
          "internalType": "address",
          "name": "",
          "type": "address"
        },
        {
          "internalType": "uint256",
          "name": "",
          "type": "uint256"
        },
        {
          "internalType": "uint256",
          "name": "",
          "type": "uint256"
        },
        {
          "internalType": "uint256",
          "name": "",
          "type": "uint256"
        },
        {
          "internalType": "bytes32",
          "name": "",
          "type": "bytes32"
        },
        {
          "internalType": "uint8",
          "name": "",
          "type": "uint8"
        },
        {
          "internalType": "bytes32",
          "name": "",
          "type": "bytes32"
        },
        {
          "internalType": "bytes32",
          "name": "",
          "type": "bytes32"
        }
      ],
      "name": "x402SpentEip3009",
      "outputs": [],
      "stateMutability": "pure",
      "type": "function"
    },
    {
      "inputs": [
        {
          "internalType": "address",
          "name": "token",
          "type": "address"
        },
        {
          "internalType": "address",
          "name": "originalPayer",
          "type": "address"
        },
        {
          "internalType": "address",
          "name": "owner",
          "type": "address"
        },
        {
          "internalType": "uint256",
          "name": "amount",
          "type": "uint256"
        },
        {
          "internalType": "uint256",
          "name": "validAfter",
          "type": "uint256"
        },
        {
          "internalType": "uint256",
          "name": "validBefore",
          "type": "uint256"
        },
        {
          "internalType": "bytes32",
          "name": "nonce",
          "type": "bytes32"
        },
        {
          "internalType": "uint8",
          "name": "v",
          "type": "uint8"
        },
        {
          "internalType": "bytes32",
          "name": "r",
          "type": "bytes32"
        },
        {
          "internalType": "bytes32",
          "name": "s",
          "type": "bytes32"
        },
        {
          "internalType": "bytes",
          "name": "calldata_",
          "type": "bytes"
        },
        {
          "internalType": "bytes32",
          "name": "orderId",
          "type": "bytes32"
        },
        {
          "internalType": "uint256",
          "name": "calldataNonce",
          "type": "uint256"
        },
        {
          "internalType": "uint256",
          "name": "calldataDeadline",
          "type": "uint256"
        },
        {
          "internalType": "uint8",
          "name": "calldataV",
          "type": "uint8"
        },
        {
          "internalType": "bytes32",
          "name": "calldataR",
          "type": "bytes32"
        },
        {
          "internalType": "bytes32",
          "name": "calldataS",
          "type": "bytes32"
        }
      ],
      "name": "x402SpentEip3009WithCalldata",
      "outputs": [],
      "stateMutability": "nonpayable",
      "type": "function"
    },
    {
      "inputs": [
        {
          "internalType": "address",
          "name": "",
          "type": "address"
        },
        {
          "internalType": "address",
          "name": "",
          "type": "address"
        },
        {
          "internalType": "address",
          "name": "",
          "type": "address"
        },
        {
          "internalType": "address",
          "name": "",
          "type": "address"
        },
        {
          "internalType": "uint256",
          "name": "",
          "type": "uint256"
        },
        {
          "internalType": "uint256",
          "name": "",
          "type": "uint256"
        },
        {
          "internalType": "uint256",
          "name": "",
          "type": "uint256"
        },
        {
          "internalType": "bytes",
          "name": "",
          "type": "bytes"
        }
      ],
      "name": "x402SpentPermit2",
      "outputs": [],
      "stateMutability": "pure",
      "type": "function"
    },
    {
      "inputs": [
        {
          "internalType": "address",
          "name": "permit2",
          "type": "address"
        },
        {
          "internalType": "address",
          "name": "token",
          "type": "address"
        },
        {
          "internalType": "address",
          "name": "originalPayer",
          "type": "address"
        },
        {
          "internalType": "address",
          "name": "owner",
          "type": "address"
        },
        {
          "internalType": "uint256",
          "name": "amount",
          "type": "uint256"
        },
        {
          "internalType": "uint256",
          "name": "nonce",
          "type": "uint256"
        },
        {
          "internalType": "uint256",
          "name": "deadline",
          "type": "uint256"
        },
        {
          "internalType": "bytes",
          "name": "signature",
          "type": "bytes"
        },
        {
          "internalType": "bytes",
          "name": "calldata_",
          "type": "bytes"
        },
        {
          "internalType": "bytes32",
          "name": "orderId",
          "type": "bytes32"
        },
        {
          "internalType": "uint256",
          "name": "calldataNonce",
          "type": "uint256"
        },
        {
          "internalType": "uint256",
          "name": "calldataDeadline",
          "type": "uint256"
        },
        {
          "internalType": "uint8",
          "name": "calldataV",
          "type": "uint8"
        },
        {
          "internalType": "bytes32",
          "name": "calldataR",
          "type": "bytes32"
        },
        {
          "internalType": "bytes32",
          "name": "calldataS",
          "type": "bytes32"
        }
      ],
      "name": "x402SpentPermit2WithCalldata",
      "outputs": [],
      "stateMutability": "nonpayable",
      "type": "function"
    }
  ],
  "bytecode": "0x6101a08060405234610254576040816123e680380380916100208285610258565b833981010312610254578051906001600160a01b038216820361025457602001516001600160a01b038116919082900361025457604051610062604082610258565b6010815260208101906f23a729902c1a18191020b230b83a37b960811b825260405191610090604084610258565b600183526020830191603160f81b83526100a98161028f565b610120526100b684610425565b61014052519020918260e05251902080610100524660a0526040519060208201927f8b73c3c69bb8fe3d512ecc4cf759cc79239f7b179b0ffacaa9a75d522b39400f8452604083015260608201524660808201523060a082015260a0815261011f60c082610258565b5190206080523060c05260028054336001600160a01b0319821681179092556040519291906001600160a01b03167f8be0079c531659141344cd1fd0a4f28419497f9722a3daafe3b4186f6b6457e05f80a360016003558215610245577fad857fa38c9319cb80848f1ef2f924383b90297eb5d71755738ff037d100faa191602091610160525f61018052835f526004825260405f20600160ff1982541617905560018152a2604051611e88908161055e823960805181611b2c015260a05181611be9015260c05181611af6015260e05181611b7b01526101005181611ba10152610120518161066d0152610140518161069701526101605181818160ea015281816113e20152818161159801526119a70152610180518181816108490152610d2b0152f35b632a7a48eb60e01b5f5260045ffd5b5f80fd5b601f909101601f19168101906001600160401b0382119082101761027b57604052565b634e487b7160e01b5f52604160045260245ffd5b908151602081105f14610309575090601f8151116102c95760208151910151602082106102ba571790565b5f198260200360031b1b161790565b604460209160405192839163305a27a960e01b83528160048401528051918291826024860152018484015e5f828201840152601f01601f19168101030190fd5b6001600160401b03811161027b575f54600181811c9116801561041b575b602082101461040757601f81116103d5575b50602092601f821160011461037657928192935f9261036b575b50508160011b915f199060031b1c1916175f5560ff90565b015190505f80610353565b601f198216935f8052805f20915f5b8681106103bd57508360019596106103a5575b505050811b015f5560ff90565b01515f1960f88460031b161c191690555f8080610398565b91926020600181928685015181550194019201610385565b5f8052601f60205f20910160051c810190601f830160051c015b8181106103fc5750610339565b5f81556001016103ef565b634e487b7160e01b5f52602260045260245ffd5b90607f1690610327565b908151602081105f14610450575090601f8151116102c95760208151910151602082106102ba571790565b6001600160401b03811161027b57600154600181811c91168015610553575b602082101461040757601f8111610520575b50602092601f82116001146104bf57928192935f926104b4575b50508160011b915f199060031b1c19161760015560ff90565b015190505f8061049b565b601f1982169360015f52805f20915f5b86811061050857508360019596106104f0575b505050811b0160015560ff90565b01515f1960f88460031b161c191690555f80806104e2565b919260206001819286850151815501940192016104cf565b60015f52601f60205f20910160051c810190601f830160051c015b8181106105485750610481565b5f815560010161053b565b90607f169061046f56fe60806040526004361015610011575f80fd5b5f5f3560e01c80630bf29d0014610ddc5780631171bda914610d5a57806325d34ed214610d16578063454bbd2914610c835780634b5b4b3914610c54578063536fff6c14610c175780635f010bfd146107ac578063715018a61461074f57806384b0196e146106535780638da5cb5b1461062a578063a831eb68146105ef578063c42315e4146102d4578063d32b833214610299578063ed1a24331461022e578063ed1a4c1c146101e5578063f2fde38b1461011c5763f77c4791146100d5575f80fd5b346101195780600319360112610119576040517f00000000000000000000000000000000000000000000000000000000000000006001600160a01b03168152602090f35b80fd5b503461011957602036600319011261011957610136610e21565b61013e610f6b565b6001600160a01b0316801561019157600280546001600160a01b0319811683179091556001600160a01b03167f8be0079c531659141344cd1fd0a4f28419497f9722a3daafe3b4186f6b6457e08380a380f35b60405162461bcd60e51b815260206004820152602660248201527f4f776e61626c653a206e6577206f776e657220697320746865207a65726f206160448201526564647265737360d01b6064820152608490fd5b50346101195760403660031901126101195760209060ff906040906001600160a01b03610210610e21565b16815260058452818120602435825284522054166040519015158152f35b50346101195761010036600319011261011957610249610e21565b50610252610e37565b5061025b610e4d565b50610264610e63565b5060e43567ffffffffffffffff8111610295579061028760049236908401610e89565b50506335794c4760e21b8152fd5b5080fd5b503461011957806003193601126101195760206040517fe3853d785569767475f87053f75c5828cfe18bbb01fd0fba26e27d743149b3868152f35b503461011957610220366003190112610119576102ef610e21565b906102f8610e37565b91610301610e4d565b9060643561030d610e79565b946101443567ffffffffffffffff81116105eb5761032f903690600401610e89565b610164359561018435986101a435996101c43560ff811681036105e757610354610fc3565b61035c61120f565b610367368688610f35565b9b8042116105d8578b9c60ff604060018060a01b038b169e8f815260056020528181208782526020522054166105c9576104468b8d8f94958d98979685602061044e9751910120906040519360208501957f1e58deac697599f6d9e2597d3603ecbf96697551f4357bcd6f2a9092f5eacafe875260018060a01b03169c8d604087015260018060a01b03169b8c606087015289608087015260a086015260c08501528860e0850152610100840152610120830152610120825261042c61014083610ef7565b61044161020435936101e43593519020611977565b611c0f565b919091611c8a565b6001600160a01b0316036105ba5790898b7f03ad388bc641d75d7e5f417550c4a77690e766fb9178402135fcfcb8bfafa90460208f96958388526005825260408820818952825260408820600160ff19825416179055604051908152a3833b156105b65760ff90604051926377aadf6360e11b84526004840152306024840152886044840152608435606484015260a435608484015260c43560a48401521660c48201526101043560e48201526101243561010482015281816101248183875af180156105ab5761058c575b5050906105849761057e93927f701fd54d729c625e21003fac76d2afb0494f7cdbb399f980fc11633a02666342608060405189815260406020820152601060408201526f656970333030392b63616c6c6461746160801b6060820152a33691610f35565b92611283565b600160035580f35b8161059a9195949395610ef7565b6105a7579091885f61051a565b8880fd5b6040513d84823e3d90fd5b8280fd5b63699d7a1f60e11b8c5260048cfd5b63c25f65fd60e01b8e5260048efd5b637b3c78cb60e01b8c5260048cfd5b8a80fd5b8580fd5b503461011957806003193601126101195760206040517f1e58deac697599f6d9e2597d3603ecbf96697551f4357bcd6f2a9092f5eacafe8152f35b50346101195780600319360112610119576002546040516001600160a01b039091168152602090f35b50346101195780600319360112610119576106f3906106917f0000000000000000000000000000000000000000000000000000000000000000611019565b906106bb7f000000000000000000000000000000000000000000000000000000000000000061113f565b906020610701604051936106cf8386610ef7565b8385525f368137604051968796600f60f81b885260e08589015260e0880190610eb7565b908682036040880152610eb7565b904660608601523060808601528260a086015284820360c08601528080855193848152019401925b82811061073857505050500390f35b835185528695509381019392810192600101610729565b5034610119578060031936011261011957610768610f6b565b600280546001600160a01b0319811690915581906001600160a01b03167f8be0079c531659141344cd1fd0a4f28419497f9722a3daafe3b4186f6b6457e08280a380f35b5034610baf576101e0366003190112610baf576107c7610e21565b906107d0610e37565b916107d9610e4d565b6107e1610e63565b9360e43567ffffffffffffffff8111610baf57610802903690600401610e89565b6101049491943567ffffffffffffffff8111610baf57610826903690600401610e89565b9590976101843560ff81168103610baf5761083f610fc3565b61084761120f565b7f00000000000000000000000000000000000000000000000000000000000000006001600160a01b03168015159081610c03575b50610bf45761088b36898c610f35565b610164354211610be55760018060a01b0388165f52600560205260405f20610144355f5260205260ff60405f205416610bd6578051602091820120604080517fe3853d785569767475f87053f75c5828cfe18bbb01fd0fba26e27d743149b386938101939093526001600160a01b0397881690830181905288881660608401529387166080830181905296891660a083015260843560c08301526101243560e0830152610144356101008301526101643561012083015261014080830191909152815261097b916104469161096261016082610ef7565b6101c435916104416101a4359260208151910120611977565b6001600160a01b03878116911603610bc7576001600160a01b0386165f8181526005602090815260408083206101443580855290835292819020805460ff19166001179055519182526101243592917f03ad388bc641d75d7e5f417550c4a77690e766fb9178402135fcfcb8bfafa9049190a36040516109fa81610edb565b6001600160a01b03861681526084356020820152604051906060820167ffffffffffffffff811183821017610bb3576040528152602081019260a4358452604082019560c435875260405192610a4f84610edb565b3084526084356020850152843b15610baf5760405163187945bd60e11b8152905180516001600160a01b03166004830152602001516024820152965f96889687958995610124958895859492939192610acb92919051604489015251606488015280516001600160a01b031660848801526020015160a4870152565b60c485015261010060e485015281610104850152848401378181018301849052601f01601f191681010301925af18015610ba457610b8a575b50610b806105849495604051608435815260406020820152601060408201526f7065726d6974322b63616c6c6461746160801b606082015260018060a01b038516907f701fd54d729c625e21003fac76d2afb0494f7cdbb399f980fc11633a02666342608060018060a01b03871692a361012435943691610f35565b9160843591611283565b61058494505f610b9991610ef7565b610b805f9450610b04565b6040513d5f823e3d90fd5b5f80fd5b634e487b7160e01b5f52604160045260245ffd5b63699d7a1f60e11b5f5260045ffd5b63c25f65fd60e01b5f5260045ffd5b637b3c78cb60e01b5f5260045ffd5b6359106c8960e01b5f5260045ffd5b6001600160a01b038716141590505f61087b565b34610baf576020366003190112610baf576001600160a01b03610c38610e21565b165f526004602052602060ff60405f2054166040519015158152f35b34610baf576020366003190112610baf576004355f526006602052602060ff60405f2054166040519015158152f35b34610baf576040366003190112610baf57610c9c610e21565b60243590811515809203610baf57610cb2610f6b565b6001600160a01b0316908115610d075760207fad857fa38c9319cb80848f1ef2f924383b90297eb5d71755738ff037d100faa191835f526004825260405f2060ff1981541660ff8316179055604051908152a2005b632a7a48eb60e01b5f5260045ffd5b34610baf575f366003190112610baf576040517f00000000000000000000000000000000000000000000000000000000000000006001600160a01b03168152602090f35b34610baf576060366003190112610baf57610dda610dbe610d79610e21565b610dcc610d84610e37565b610d8c610f6b565b60405163a9059cbb60e01b60208201526001600160a01b03909116602482015260448035908201529283906064820190565b03601f198101845283610ef7565b6001600160a01b031661185f565b005b34610baf57610140366003190112610baf57610df6610e21565b50610dff610e37565b50610e08610e4d565b50610e11610e79565b506335794c4760e21b5f5260045ffd5b600435906001600160a01b0382168203610baf57565b602435906001600160a01b0382168203610baf57565b604435906001600160a01b0382168203610baf57565b606435906001600160a01b0382168203610baf57565b60e4359060ff82168203610baf57565b9181601f84011215610baf5782359167ffffffffffffffff8311610baf5760208381860195010111610baf57565b805180835260209291819084018484015e5f828201840152601f01601f1916010190565b6040810190811067ffffffffffffffff821117610bb357604052565b90601f8019910116810190811067ffffffffffffffff821117610bb357604052565b67ffffffffffffffff8111610bb357601f01601f191660200190565b929192610f4182610f19565b91610f4f6040519384610ef7565b829481845281830111610baf578281602093845f960137010152565b6002546001600160a01b03163303610f7f57565b606460405162461bcd60e51b815260206004820152602060248201527f4f776e61626c653a2063616c6c6572206973206e6f7420746865206f776e65726044820152fd5b600260035414610fd4576002600355565b60405162461bcd60e51b815260206004820152601f60248201527f5265656e7472616e637947756172643a207265656e7472616e742063616c6c006044820152606490fd5b60ff811461105f5760ff811690601f8211611050576040519161103d604084610ef7565b6020808452838101919036833783525290565b632cd44ac360e21b5f5260045ffd5b506040515f5f548060011c9160018216918215611135575b60208410831461112157838552849290811561110257506001146110a5575b6110a292500382610ef7565b90565b505f80805290917f290decd9548b62a8d60345a988386fc84ba6bc95484008f6362f93160ef3e5635b8183106110e65750509060206110a292820101611096565b60209193508060019154838588010152019101909183926110ce565b602092506110a294915060ff191682840152151560051b820101611096565b634e487b7160e01b5f52602260045260245ffd5b92607f1692611077565b60ff81146111635760ff811690601f8211611050576040519161103d604084610ef7565b506040515f6001548060011c9160018216918215611205575b60208410831461112157838552849290811561110257506001146111a6576110a292500382610ef7565b5060015f90815290917fb10e2d527612073b26eecdfd717e6a320cf44b4afac2b0732d9fcbe2b7fa0cf65b8183106111e95750509060206110a292820101611096565b60209193508060019154838588010152019101909183926111d1565b92607f169261117c565b335f52600460205260ff60405f2054161561122657565b63c183bcef60e01b5f5260045ffd5b519060ff82168203610baf57565b51906001600160a01b0382168203610baf57565b61126f60409295949395606083526060830190610eb7565b6001600160a01b0390951660208201520152565b9493929190925f93815f52600660205260ff60405f20541661184c57815f52600660205260405f20600160ff1982541617905583518401906101008560208401930312610baf576112d660208601611235565b94604081015167ffffffffffffffff8111610baf57810183603f82011215610baf5760208101519061130782610f19565b946113156040519687610ef7565b82865260408284010111610baf57815f926040602093018388015e8501015261134060608201611243565b9860808201519160a08101519061135960c08201611243565b9160ff61010061136b60e08501611235565b93015192169c6001600160a01b0316918d6118395760019b9c9d6040519461139286610edb565b60ff8e8060a01b0388169d8e88528d6020890152169d8e1461157b575050505050600289146113cf57635210bb2b60e01b8a52600489905260248afd5b9092949698919395975060018060a01b037f0000000000000000000000000000000000000000000000000000000000000000169260405198637b75d28360e11b8a5260208a8061142489868d60048501611257565b0381885afa998a1561157057849a61153c575b5089810361152557508861144a9161199d565b823b1561029557816040518080936336b0269d60e11b825260806004830152611496611479608484018c610eb7565b82516001600160a01b031660248501526020909201516044840152565b876064830152038183875af180156105ab57611510575b5050917f3e5102d54e4e5ab7ab42906fb1d873af86bfc3506c99d69e4fa44637cfc18d8893916114e06114f49489611da2565b604051938493606085526060850190610eb7565b602084019790975260408301526001600160a01b0316940390a4565b61151b828092610ef7565b61011957806114ad565b632368e10f60e21b845260048a9052602452604483fd5b9099506020813d602011611568575b8161155860209383610ef7565b81010312610baf5751985f611437565b3d915061154b565b6040513d86823e3d90fd5b909295999b9a8798999d508d9792949e5060208b60018060a01b037f000000000000000000000000000000000000000000000000000000000000000016996115d76040519c8d938493637b75d28360e11b855260048501611257565b03818b5afa988915610ba4575f99611805575b508881036117ef57508c979695949392918e916020966040519261160e8985610ef7565b5f84526040519b6101008d01908d821067ffffffffffffffff831117610bb35760409182528d52898d019586528c0190815260608c019182526001600160a01b0390921660808c0190815260a08c0193845260c08c0195865260e08c01968752916116798b8f61199d565b893b15610baf57604051636cfab86760e01b8152606060048201529b5161010060648e01528c9897969594939291906116b7906101648b0190610eb7565b94516001600160a01b0390811660848b0152905160a48a0152905160c489015290511660e487015251858203606319016101048701528051808352600581901b8301880197918201929091905f90828101905b8483106117b7575050935160ff1661012488015250509151610144850152505080516001600160a01b031660248301526020015160448201525f918190038183855af1908115610ba4577f0e2f8db9b2ac47bbc89d89ab76312724eb24af352f8039f823993c6c40840e71966117a294611789936117a7575b50611da2565b6040516001600160a01b03909316969293849384611257565b0390a4565b5f6117b191610ef7565b5f611783565b9193959697985091939884806117d9600193601f198682030187528d51610eb7565b9b019301930190928c989796959394929461170a565b88632368e10f60e21b5f5260045260245260445ffd5b9098506020813d602011611831575b8161182160209383610ef7565b81010312610baf5751975f6115ea565b3d9150611814565b8d639b1987f160e01b5f5260045260245ffd5b506327c8e3bb60e21b5f5260045260245ffd5b906118de9160018060a01b03165f806040519361187d604086610ef7565b602085527f5361666545524332303a206c6f772d6c6576656c2063616c6c206661696c6564602086015260208151910182855af13d1561196f573d916118c283610f19565b926118d06040519485610ef7565b83523d5f602085013e611dde565b805190811591821561194c575b5050156118f457565b60405162461bcd60e51b815260206004820152602a60248201527f5361666545524332303a204552433230206f7065726174696f6e20646964206e6044820152691bdd081cdd58d8d9595960b21b6064820152608490fd5b8192509060209181010312610baf57602001518015158103610baf575f806118eb565b606091611dde565b604290611982611af3565b906040519161190160f01b8352600283015260228201522090565b6001600160a01b037f000000000000000000000000000000000000000000000000000000000000000081169291166119d58382611da2565b81158015611a88575b15611a245760405163095ea7b360e01b60208201526001600160a01b0390931660248401526044830191909152611a229190611a1d8260648101610dbe565b61185f565b565b60405162461bcd60e51b815260206004820152603660248201527f5361666545524332303a20617070726f76652066726f6d206e6f6e2d7a65726f60448201527520746f206e6f6e2d7a65726f20616c6c6f77616e636560501b6064820152608490fd5b50604051636eb1769f60e11b815230600482015260248101849052602081604481855afa908115610ba4575f91611ac1575b50156119de565b90506020813d602011611aeb575b81611adc60209383610ef7565b81010312610baf57515f611aba565b3d9150611acf565b307f00000000000000000000000000000000000000000000000000000000000000006001600160a01b03161480611be6575b15611b4e577f000000000000000000000000000000000000000000000000000000000000000090565b60405160208101907f8b73c3c69bb8fe3d512ecc4cf759cc79239f7b179b0ffacaa9a75d522b39400f82527f000000000000000000000000000000000000000000000000000000000000000060408201527f000000000000000000000000000000000000000000000000000000000000000060608201524660808201523060a082015260a08152611be060c082610ef7565b51902090565b507f00000000000000000000000000000000000000000000000000000000000000004614611b25565b7f7fffffffffffffffffffffffffffffff5d576e7357a4501ddfe92f46681b20a08411611c7f576020935f9360ff60809460405194855216868401526040830152606082015282805260015afa15610ba4575f516001600160a01b03811615611c7757905f90565b505f90600190565b505050505f90600390565b6005811015611d8e5780611c9b5750565b60018103611ce85760405162461bcd60e51b815260206004820152601860248201527f45434453413a20696e76616c6964207369676e617475726500000000000000006044820152606490fd5b60028103611d355760405162461bcd60e51b815260206004820152601f60248201527f45434453413a20696e76616c6964207369676e6174757265206c656e677468006044820152606490fd5b600314611d3e57565b60405162461bcd60e51b815260206004820152602260248201527f45434453413a20696e76616c6964207369676e6174757265202773272076616c604482015261756560f01b6064820152608490fd5b634e487b7160e01b5f52602160045260245ffd5b60405163095ea7b360e01b60208201526001600160a01b0390921660248301525f6044808401919091528252611a229190611a1d606483610ef7565b91929015611e405750815115611df2575090565b3b15611dfb5790565b60405162461bcd60e51b815260206004820152601d60248201527f416464726573733a2063616c6c20746f206e6f6e2d636f6e74726163740000006044820152606490fd5b825190915015611e535750805190602001fd5b60405162461bcd60e51b815260206004820152908190611e77906024830190610eb7565b0390fdfea164736f6c634300081c000a",
  "linkReferences": {},
  "deployedLinkReferences": {},
  "immutableReferences": {
    "2070": [
      {
        "length": 32,
        "start": 6956
      }
    ],
    "2072": [
      {
        "length": 32,
        "start": 7145
      }
    ],
    "2074": [
      {
        "length": 32,
        "start": 6902
      }
    ],
    "2076": [
      {
        "length": 32,
        "start": 7035
      }
    ],
    "2078": [
      {
        "length": 32,
        "start": 7073
      }
    ],
    "2081": [
      {
        "length": 32,
        "start": 1645
      }
    ],
    "2084": [
      {
        "length": 32,
        "start": 1687
      }
    ],
    "3370": [
      {
        "length": 32,
        "start": 234
      },
      {
        "length": 32,
        "start": 5090
      },
      {
        "length": 32,
        "start": 5528
      },
      {
        "length": 32,
        "start": 6567
      }
    ],
    "3372": [
      {
        "length": 32,
        "start": 2121
      },
      {
        "length": 32,
        "start": 3371
      }
    ]
  },
  "inputSourceName": "project/contracts/GNSX402Adaptor.sol",
  "buildInfoId": "solc-0_8_28-e985900e8df5bf737aec766e371a5b0784b40363"
}